{
	"data": {
		"bytecode": {
			"linkReferences": {},
			"object": "6080604052348015600e575f80fd5b50335f806101000a81548173ffffffffffffffffffffffffffffffffffffffff021916908373ffffffffffffffffffffffffffffffffffffffff160217905550610bce8061005b5f395ff3fe608060405234801561000f575f80fd5b5060043610610034575f3560e01c8063663b3e2214610038578063d1e7be261461006c575b5f80fd5b610052600480360381019061004d91906104ca565b610088565b60405161006395949392919061057f565b60405180910390f35b61008660048036038101906100819190610718565b6102de565b005b6001602052805f5260405f205f91509050805f0180546100a79061082c565b80601f01602080910402602001604051908101604052809291908181526020018280546100d39061082c565b801561011e5780601f106100f55761010080835404028352916020019161011e565b820191905f5260205f20905b81548152906001019060200180831161010157829003601f168201915b5050505050908060010180546101339061082c565b80601f016020809104026020016040519081016040528092919081815260200182805461015f9061082c565b80156101aa5780601f10610181576101008083540402835291602001916101aa565b820191905f5260205f20905b81548152906001019060200180831161018d57829003601f168201915b5050505050908060020180546101bf9061082c565b80601f01602080910402602001604051908101604052809291908181526020018280546101eb9061082c565b80156102365780601f1061020d57610100808354040283529160200191610236565b820191905f5260205f20905b81548152906001019060200180831161021957829003601f168201915b50505050509080600301805461024b9061082c565b80601f01602080910402602001604051908101604052809291908181526020018280546102779061082c565b80156102c25780601f10610299576101008083540402835291602001916102c2565b820191905f5260205f20905b8154815290600101906020018083116102a557829003601f168201915b505050505090806004015f9054906101000a900460ff16905085565b5f8054906101000a900473ffffffffffffffffffffffffffffffffffffffff1673ffffffffffffffffffffffffffffffffffffffff163373ffffffffffffffffffffffffffffffffffffffff161461036b576040517f08c379a0000000000000000000000000000000000000000000000000000000008152600401610362906108a6565b60405180910390fd5b60015f8681526020019081526020015f206004015f9054906101000a900460ff16156103cc576040517f08c379a00000000000000000000000000000000000000000000000000000000081526004016103c39061090e565b60405180910390fd5b6040518060a001604052808581526020018481526020018381526020018281526020016001151581525060015f8781526020019081526020015f205f820151815f01908161041a9190610ac9565b5060208201518160010190816104309190610ac9565b5060408201518160020190816104469190610ac9565b50606082015181600301908161045c9190610ac9565b506080820151816004015f6101000a81548160ff0219169083151502179055509050505050505050565b5f604051905090565b5f80fd5b5f80fd5b5f819050919050565b6104a981610497565b81146104b3575f80fd5b50565b5f813590506104c4816104a0565b92915050565b5f602082840312156104df576104de61048f565b5b5f6104ec848285016104b6565b91505092915050565b5f81519050919050565b5f82825260208201905092915050565b8281835e5f83830152505050565b5f601f19601f8301169050919050565b5f610537826104f5565b61054181856104ff565b935061055181856020860161050f565b61055a8161051d565b840191505092915050565b5f8115159050919050565b61057981610565565b82525050565b5f60a0820190508181035f830152610597818861052d565b905081810360208301526105ab818761052d565b905081810360408301526105bf818661052d565b905081810360608301526105d3818561052d565b90506105e26080830184610570565b9695505050505050565b5f80fd5b5f80fd5b7f4e487b71000000000000000000000000000000000000000000000000000000005f52604160045260245ffd5b61062a8261051d565b810181811067ffffffffffffffff82111715610649576106486105f4565b5b80604052505050565b5f61065b610486565b90506106678282610621565b919050565b5f67ffffffffffffffff821115610686576106856105f4565b5b61068f8261051d565b9050602081019050919050565b828183375f83830152505050565b5f6106bc6106b78461066c565b610652565b9050828152602081018484840111156106d8576106d76105f0565b5b6106e384828561069c565b509392505050565b5f82601f8301126106ff576106fe6105ec565b5b813561070f8482602086016106aa565b91505092915050565b5f805f805f60a086880312156107315761073061048f565b5b5f61073e888289016104b6565b955050602086013567ffffffffffffffff81111561075f5761075e610493565b5b61076b888289016106eb565b945050604086013567ffffffffffffffff81111561078c5761078b610493565b5b610798888289016106eb565b935050606086013567ffffffffffffffff8111156107b9576107b8610493565b5b6107c5888289016106eb565b925050608086013567ffffffffffffffff8111156107e6576107e5610493565b5b6107f2888289016106eb565b9150509295509295909350565b7f4e487b71000000000000000000000000000000000000000000000000000000005f52602260045260245ffd5b5f600282049050600182168061084357607f821691505b602082108103610856576108556107ff565b5b50919050565b7f556e617574686f72697a656400000000000000000000000000000000000000005f82015250565b5f610890600c836104ff565b915061089b8261085c565b602082019050919050565b5f6020820190508181035f8301526108bd81610884565b9050919050565b7f64657461696c732020697320616c7265616479206578697374730000000000005f82015250565b5f6108f8601a836104ff565b9150610903826108c4565b602082019050919050565b5f6020820190508181035f830152610925816108ec565b9050919050565b5f819050815f5260205f209050919050565b5f6020601f8301049050919050565b5f82821b905092915050565b5f600883026109887fffffffffffffffffffffffffffffffffffffffffffffffffffffffffffffffff8261094d565b610992868361094d565b95508019841693508086168417925050509392505050565b5f819050919050565b5f6109cd6109c86109c384610497565b6109aa565b610497565b9050919050565b5f819050919050565b6109e6836109b3565b6109fa6109f2826109d4565b848454610959565b825550505050565b5f90565b610a0e610a02565b610a198184846109dd565b505050565b5b81811015610a3c57610a315f82610a06565b600181019050610a1f565b5050565b601f821115610a8157610a528161092c565b610a5b8461093e565b81016020851015610a6a578190505b610a7e610a768561093e565b830182610a1e565b50505b505050565b5f82821c905092915050565b5f610aa15f1984600802610a86565b1980831691505092915050565b5f610ab98383610a92565b9150826002028217905092915050565b610ad2826104f5565b67ffffffffffffffff811115610aeb57610aea6105f4565b5b610af5825461082c565b610b00828285610a40565b5f60209050601f831160018114610b31575f8415610b1f578287015190505b610b298582610aae565b865550610b90565b601f198416610b3f8661092c565b5f5b82811015610b6657848901518255600182019150602085019450602081019050610b41565b86831015610b835784890151610b7f601f891682610a92565b8355505b6001600288020188555050505b50505050505056fea264697066735822122091bd86f6ea5ec22bee9ef37cd7ff28f50257d4fad3f490bd3033aa0821e627bb64736f6c634300081a0033",
			"opcodes": "PUSH1 0x80 PUSH1 0x40 MSTORE CALLVALUE DUP1 ISZERO PUSH1 0xE JUMPI PUSH0 DUP1 REVERT JUMPDEST POP CALLER PUSH0 DUP1 PUSH2 0x100 EXP DUP2 SLOAD DUP2 PUSH20 0xFFFFFFFFFFFFFFFFFFFFFFFFFFFFFFFFFFFFFFFF MUL NOT AND SWAP1 DUP4 PUSH20 0xFFFFFFFFFFFFFFFFFFFFFFFFFFFFFFFFFFFFFFFF AND MUL OR SWAP1 SSTORE POP PUSH2 0xBCE DUP1 PUSH2 0x5B PUSH0 CODECOPY PUSH0 RETURN INVALID PUSH1 0x80 PUSH1 0x40 MSTORE CALLVALUE DUP1 ISZERO PUSH2 0xF JUMPI PUSH0 DUP1 REVERT JUMPDEST POP PUSH1 0x4 CALLDATASIZE LT PUSH2 0x34 JUMPI PUSH0 CALLDATALOAD PUSH1 0xE0 SHR DUP1 PUSH4 0x663B3E22 EQ PUSH2 0x38 JUMPI DUP1 PUSH4 0xD1E7BE26 EQ PUSH2 0x6C JUMPI JUMPDEST PUSH0 DUP1 REVERT JUMPDEST PUSH2 0x52 PUSH1 0x4 DUP1 CALLDATASIZE SUB DUP2 ADD SWAP1 PUSH2 0x4D SWAP2 SWAP1 PUSH2 0x4CA JUMP JUMPDEST PUSH2 0x88 JUMP JUMPDEST PUSH1 0x40 MLOAD PUSH2 0x63 SWAP6 SWAP5 SWAP4 SWAP3 SWAP2 SWAP1 PUSH2 0x57F JUMP JUMPDEST PUSH1 0x40 MLOAD DUP1 SWAP2 SUB SWAP1 RETURN JUMPDEST PUSH2 0x86 PUSH1 0x4 DUP1 CALLDATASIZE SUB DUP2 ADD SWAP1 PUSH2 0x81 SWAP2 SWAP1 PUSH2 0x718 JUMP JUMPDEST PUSH2 0x2DE JUMP JUMPDEST STOP JUMPDEST PUSH1 0x1 PUSH1 0x20 MSTORE DUP1 PUSH0 MSTORE PUSH1 0x40 PUSH0 KECCAK256 PUSH0 SWAP2 POP SWAP1 POP DUP1 PUSH0 ADD DUP1 SLOAD PUSH2 0xA7 SWAP1 PUSH2 0x82C JUMP JUMPDEST DUP1 PUSH1 0x1F ADD PUSH1 0x20 DUP1 SWAP2 DIV MUL PUSH1 0x20 ADD PUSH1 0x40 MLOAD SWAP1 DUP2 ADD PUSH1 0x40 MSTORE DUP1 SWAP3 SWAP2 SWAP1 DUP2 DUP2 MSTORE PUSH1 0x20 ADD DUP3 DUP1 SLOAD PUSH2 0xD3 SWAP1 PUSH2 0x82C JUMP JUMPDEST DUP1 ISZERO PUSH2 0x11E JUMPI DUP1 PUSH1 0x1F LT PUSH2 0xF5 JUMPI PUSH2 0x100 DUP1 DUP4 SLOAD DIV MUL DUP4 MSTORE SWAP2 PUSH1 0x20 ADD SWAP2 PUSH2 0x11E JUMP JUMPDEST DUP3 ADD SWAP2 SWAP1 PUSH0 MSTORE PUSH1 0x20 PUSH0 KECCAK256 SWAP1 JUMPDEST DUP2 SLOAD DUP2 MSTORE SWAP1 PUSH1 0x1 ADD SWAP1 PUSH1 0x20 ADD DUP1 DUP4 GT PUSH2 0x101 JUMPI DUP3 SWAP1 SUB PUSH1 0x1F AND DUP3 ADD SWAP2 JUMPDEST POP POP POP POP POP SWAP1 DUP1 PUSH1 0x1 ADD DUP1 SLOAD PUSH2 0x133 SWAP1 PUSH2 0x82C JUMP JUMPDEST DUP1 PUSH1 0x1F ADD PUSH1 0x20 DUP1 SWAP2 DIV MUL PUSH1 0x20 ADD PUSH1 0x40 MLOAD SWAP1 DUP2 ADD PUSH1 0x40 MSTORE DUP1 SWAP3 SWAP2 SWAP1 DUP2 DUP2 MSTORE PUSH1 0x20 ADD DUP3 DUP1 SLOAD PUSH2 0x15F SWAP1 PUSH2 0x82C JUMP JUMPDEST DUP1 ISZERO PUSH2 0x1AA JUMPI DUP1 PUSH1 0x1F LT PUSH2 0x181 JUMPI PUSH2 0x100 DUP1 DUP4 SLOAD DIV MUL DUP4 MSTORE SWAP2 PUSH1 0x20 ADD SWAP2 PUSH2 0x1AA JUMP JUMPDEST DUP3 ADD SWAP2 SWAP1 PUSH0 MSTORE PUSH1 0x20 PUSH0 KECCAK256 SWAP1 JUMPDEST DUP2 SLOAD DUP2 MSTORE SWAP1 PUSH1 0x1 ADD SWAP1 PUSH1 0x20 ADD DUP1 DUP4 GT PUSH2 0x18D JUMPI DUP3 SWAP1 SUB PUSH1 0x1F AND DUP3 ADD SWAP2 JUMPDEST POP POP POP POP POP SWAP1 DUP1 PUSH1 0x2 ADD DUP1 SLOAD PUSH2 0x1BF SWAP1 PUSH2 0x82C JUMP JUMPDEST DUP1 PUSH1 0x1F ADD PUSH1 0x20 DUP1 SWAP2 DIV MUL PUSH1 0x20 ADD PUSH1 0x40 MLOAD SWAP1 DUP2 ADD PUSH1 0x40 MSTORE DUP1 SWAP3 SWAP2 SWAP1 DUP2 DUP2 MSTORE PUSH1 0x20 ADD DUP3 DUP1 SLOAD PUSH2 0x1EB SWAP1 PUSH2 0x82C JUMP JUMPDEST DUP1 ISZERO PUSH2 0x236 JUMPI DUP1 PUSH1 0x1F LT PUSH2 0x20D JUMPI PUSH2 0x100 DUP1 DUP4 SLOAD DIV MUL DUP4 MSTORE SWAP2 PUSH1 0x20 ADD SWAP2 PUSH2 0x236 JUMP JUMPDEST DUP3 ADD SWAP2 SWAP1 PUSH0 MSTORE PUSH1 0x20 PUSH0 KECCAK256 SWAP1 JUMPDEST DUP2 SLOAD DUP2 MSTORE SWAP1 PUSH1 0x1 ADD SWAP1 PUSH1 0x20 ADD DUP1 DUP4 GT PUSH2 0x219 JUMPI DUP3 SWAP1 SUB PUSH1 0x1F AND DUP3 ADD SWAP2 JUMPDEST POP POP POP POP POP SWAP1 DUP1 PUSH1 0x3 ADD DUP1 SLOAD PUSH2 0x24B SWAP1 PUSH2 0x82C JUMP JUMPDEST DUP1 PUSH1 0x1F ADD PUSH1 0x20 DUP1 SWAP2 DIV MUL PUSH1 0x20 ADD PUSH1 0x40 MLOAD SWAP1 DUP2 ADD PUSH1 0x40 MSTORE DUP1 SWAP3 SWAP2 SWAP1 DUP2 DUP2 MSTORE PUSH1 0x20 ADD DUP3 DUP1 SLOAD PUSH2 0x277 SWAP1 PUSH2 0x82C JUMP JUMPDEST DUP1 ISZERO PUSH2 0x2C2 JUMPI DUP1 PUSH1 0x1F LT PUSH2 0x299 JUMPI PUSH2 0x100 DUP1 DUP4 SLOAD DIV MUL DUP4 MSTORE SWAP2 PUSH1 0x20 ADD SWAP2 PUSH2 0x2C2 JUMP JUMPDEST DUP3 ADD SWAP2 SWAP1 PUSH0 MSTORE PUSH1 0x20 PUSH0 KECCAK256 SWAP1 JUMPDEST DUP2 SLOAD DUP2 MSTORE SWAP1 PUSH1 0x1 ADD SWAP1 PUSH1 0x20 ADD DUP1 DUP4 GT PUSH2 0x2A5 JUMPI DUP3 SWAP1 SUB PUSH1 0x1F AND DUP3 ADD SWAP2 JUMPDEST POP POP POP POP POP SWAP1 DUP1 PUSH1 0x4 ADD PUSH0 SWAP1 SLOAD SWAP1 PUSH2 0x100 EXP SWAP1 DIV PUSH1 0xFF AND SWAP1 POP DUP6 JUMP JUMPDEST PUSH0 DUP1 SLOAD SWAP1 PUSH2 0x100 EXP SWAP1 DIV PUSH20 0xFFFFFFFFFFFFFFFFFFFFFFFFFFFFFFFFFFFFFFFF AND PUSH20 0xFFFFFFFFFFFFFFFFFFFFFFFFFFFFFFFFFFFFFFFF AND CALLER PUSH20 0xFFFFFFFFFFFFFFFFFFFFFFFFFFFFFFFFFFFFFFFF AND EQ PUSH2 0x36B JUMPI PUSH1 0x40 MLOAD PUSH32 0x8C379A000000000000000000000000000000000000000000000000000000000 DUP2 MSTORE PUSH1 0x4 ADD PUSH2 0x362 SWAP1 PUSH2 0x8A6 JUMP JUMPDEST PUSH1 0x40 MLOAD DUP1 SWAP2 SUB SWAP1 REVERT JUMPDEST PUSH1 0x1 PUSH0 DUP7 DUP2 MSTORE PUSH1 0x20 ADD SWAP1 DUP2 MSTORE PUSH1 0x20 ADD PUSH0 KECCAK256 PUSH1 0x4 ADD PUSH0 SWAP1 SLOAD SWAP1 PUSH2 0x100 EXP SWAP1 DIV PUSH1 0xFF AND ISZERO PUSH2 0x3CC JUMPI PUSH1 0x40 MLOAD PUSH32 0x8C379A000000000000000000000000000000000000000000000000000000000 DUP2 MSTORE PUSH1 0x4 ADD PUSH2 0x3C3 SWAP1 PUSH2 0x90E JUMP JUMPDEST PUSH1 0x40 MLOAD DUP1 SWAP2 SUB SWAP1 REVERT JUMPDEST PUSH1 0x40 MLOAD DUP1 PUSH1 0xA0 ADD PUSH1 0x40 MSTORE DUP1 DUP6 DUP2 MSTORE PUSH1 0x20 ADD DUP5 DUP2 MSTORE PUSH1 0x20 ADD DUP4 DUP2 MSTORE PUSH1 0x20 ADD DUP3 DUP2 MSTORE PUSH1 0x20 ADD PUSH1 0x1 ISZERO ISZERO DUP2 MSTORE POP PUSH1 0x1 PUSH0 DUP8 DUP2 MSTORE PUSH1 0x20 ADD SWAP1 DUP2 MSTORE PUSH1 0x20 ADD PUSH0 KECCAK256 PUSH0 DUP3 ADD MLOAD DUP2 PUSH0 ADD SWAP1 DUP2 PUSH2 0x41A SWAP2 SWAP1 PUSH2 0xAC9 JUMP JUMPDEST POP PUSH1 0x20 DUP3 ADD MLOAD DUP2 PUSH1 0x1 ADD SWAP1 DUP2 PUSH2 0x430 SWAP2 SWAP1 PUSH2 0xAC9 JUMP JUMPDEST POP PUSH1 0x40 DUP3 ADD MLOAD DUP2 PUSH1 0x2 ADD SWAP1 DUP2 PUSH2 0x446 SWAP2 SWAP1 PUSH2 0xAC9 JUMP JUMPDEST POP PUSH1 0x60 DUP3 ADD MLOAD DUP2 PUSH1 0x3 ADD SWAP1 DUP2 PUSH2 0x45C SWAP2 SWAP1 PUSH2 0xAC9 JUMP JUMPDEST POP PUSH1 0x80 DUP3 ADD MLOAD DUP2 PUSH1 0x4 ADD PUSH0 PUSH2 0x100 EXP DUP2 SLOAD DUP2 PUSH1 0xFF MUL NOT AND SWAP1 DUP4 ISZERO ISZERO MUL OR SWAP1 SSTORE POP SWAP1 POP POP POP POP POP POP POP JUMP JUMPDEST PUSH0 PUSH1 0x40 MLOAD SWAP1 POP SWAP1 JUMP JUMPDEST PUSH0 DUP1 REVERT JUMPDEST PUSH0 DUP1 REVERT JUMPDEST PUSH0 DUP2 SWAP1 POP SWAP2 SWAP1 POP JUMP JUMPDEST PUSH2 0x4A9 DUP2 PUSH2 0x497 JUMP JUMPDEST DUP2 EQ PUSH2 0x4B3 JUMPI PUSH0 DUP1 REVERT JUMPDEST POP JUMP JUMPDEST PUSH0 DUP2 CALLDATALOAD SWAP1 POP PUSH2 0x4C4 DUP2 PUSH2 0x4A0 JUMP JUMPDEST SWAP3 SWAP2 POP POP JUMP JUMPDEST PUSH0 PUSH1 0x20 DUP3 DUP5 SUB SLT ISZERO PUSH2 0x4DF JUMPI PUSH2 0x4DE PUSH2 0x48F JUMP JUMPDEST JUMPDEST PUSH0 PUSH2 0x4EC DUP5 DUP3 DUP6 ADD PUSH2 0x4B6 JUMP JUMPDEST SWAP2 POP POP SWAP3 SWAP2 POP POP JUMP JUMPDEST PUSH0 DUP2 MLOAD SWAP1 POP SWAP2 SWAP1 POP JUMP JUMPDEST PUSH0 DUP3 DUP3 MSTORE PUSH1 0x20 DUP3 ADD SWAP1 POP SWAP3 SWAP2 POP POP JUMP JUMPDEST DUP3 DUP2 DUP4 MCOPY PUSH0 DUP4 DUP4 ADD MSTORE POP POP POP JUMP JUMPDEST PUSH0 PUSH1 0x1F NOT PUSH1 0x1F DUP4 ADD AND SWAP1 POP SWAP2 SWAP1 POP JUMP JUMPDEST PUSH0 PUSH2 0x537 DUP3 PUSH2 0x4F5 JUMP JUMPDEST PUSH2 0x541 DUP2 DUP6 PUSH2 0x4FF JUMP JUMPDEST SWAP4 POP PUSH2 0x551 DUP2 DUP6 PUSH1 0x20 DUP7 ADD PUSH2 0x50F JUMP JUMPDEST PUSH2 0x55A DUP2 PUSH2 0x51D JUMP JUMPDEST DUP5 ADD SWAP2 POP POP SWAP3 SWAP2 POP POP JUMP JUMPDEST PUSH0 DUP2 ISZERO ISZERO SWAP1 POP SWAP2 SWAP1 POP JUMP JUMPDEST PUSH2 0x579 DUP2 PUSH2 0x565 JUMP JUMPDEST DUP3 MSTORE POP POP JUMP JUMPDEST PUSH0 PUSH1 0xA0 DUP3 ADD SWAP1 POP DUP2 DUP2 SUB PUSH0 DUP4 ADD MSTORE PUSH2 0x597 DUP2 DUP9 PUSH2 0x52D JUMP JUMPDEST SWAP1 POP DUP2 DUP2 SUB PUSH1 0x20 DUP4 ADD MSTORE PUSH2 0x5AB DUP2 DUP8 PUSH2 0x52D JUMP JUMPDEST SWAP1 POP DUP2 DUP2 SUB PUSH1 0x40 DUP4 ADD MSTORE PUSH2 0x5BF DUP2 DUP7 PUSH2 0x52D JUMP JUMPDEST SWAP1 POP DUP2 DUP2 SUB PUSH1 0x60 DUP4 ADD MSTORE PUSH2 0x5D3 DUP2 DUP6 PUSH2 0x52D JUMP JUMPDEST SWAP1 POP PUSH2 0x5E2 PUSH1 0x80 DUP4 ADD DUP5 PUSH2 0x570 JUMP JUMPDEST SWAP7 SWAP6 POP POP POP POP POP POP JUMP JUMPDEST PUSH0 DUP1 REVERT JUMPDEST PUSH0 DUP1 REVERT JUMPDEST PUSH32 0x4E487B7100000000000000000000000000000000000000000000000000000000 PUSH0 MSTORE PUSH1 0x41 PUSH1 0x4 MSTORE PUSH1 0x24 PUSH0 REVERT JUMPDEST PUSH2 0x62A DUP3 PUSH2 0x51D JUMP JUMPDEST DUP2 ADD DUP2 DUP2 LT PUSH8 0xFFFFFFFFFFFFFFFF DUP3 GT OR ISZERO PUSH2 0x649 JUMPI PUSH2 0x648 PUSH2 0x5F4 JUMP JUMPDEST JUMPDEST DUP1 PUSH1 0x40 MSTORE POP POP POP JUMP JUMPDEST PUSH0 PUSH2 0x65B PUSH2 0x486 JUMP JUMPDEST SWAP1 POP PUSH2 0x667 DUP3 DUP3 PUSH2 0x621 JUMP JUMPDEST SWAP2 SWAP1 POP JUMP JUMPDEST PUSH0 PUSH8 0xFFFFFFFFFFFFFFFF DUP3 GT ISZERO PUSH2 0x686 JUMPI PUSH2 0x685 PUSH2 0x5F4 JUMP JUMPDEST JUMPDEST PUSH2 0x68F DUP3 PUSH2 0x51D JUMP JUMPDEST SWAP1 POP PUSH1 0x20 DUP2 ADD SWAP1 POP SWAP2 SWAP1 POP JUMP JUMPDEST DUP3 DUP2 DUP4 CALLDATACOPY PUSH0 DUP4 DUP4 ADD MSTORE POP POP POP JUMP JUMPDEST PUSH0 PUSH2 0x6BC PUSH2 0x6B7 DUP5 PUSH2 0x66C JUMP JUMPDEST PUSH2 0x652 JUMP JUMPDEST SWAP1 POP DUP3 DUP2 MSTORE PUSH1 0x20 DUP2 ADD DUP5 DUP5 DUP5 ADD GT ISZERO PUSH2 0x6D8 JUMPI PUSH2 0x6D7 PUSH2 0x5F0 JUMP JUMPDEST JUMPDEST PUSH2 0x6E3 DUP5 DUP3 DUP6 PUSH2 0x69C JUMP JUMPDEST POP SWAP4 SWAP3 POP POP POP JUMP JUMPDEST PUSH0 DUP3 PUSH1 0x1F DUP4 ADD SLT PUSH2 0x6FF JUMPI PUSH2 0x6FE PUSH2 0x5EC JUMP JUMPDEST JUMPDEST DUP2 CALLDATALOAD PUSH2 0x70F DUP5 DUP3 PUSH1 0x20 DUP7 ADD PUSH2 0x6AA JUMP JUMPDEST SWAP2 POP POP SWAP3 SWAP2 POP POP JUMP JUMPDEST PUSH0 DUP1 PUSH0 DUP1 PUSH0 PUSH1 0xA0 DUP7 DUP9 SUB SLT ISZERO PUSH2 0x731 JUMPI PUSH2 0x730 PUSH2 0x48F JUMP JUMPDEST JUMPDEST PUSH0 PUSH2 0x73E DUP9 DUP3 DUP10 ADD PUSH2 0x4B6 JUMP JUMPDEST SWAP6 POP POP PUSH1 0x20 DUP7 ADD CALLDATALOAD PUSH8 0xFFFFFFFFFFFFFFFF DUP2 GT ISZERO PUSH2 0x75F JUMPI PUSH2 0x75E PUSH2 0x493 JUMP JUMPDEST JUMPDEST PUSH2 0x76B DUP9 DUP3 DUP10 ADD PUSH2 0x6EB JUMP JUMPDEST SWAP5 POP POP PUSH1 0x40 DUP7 ADD CALLDATALOAD PUSH8 0xFFFFFFFFFFFFFFFF DUP2 GT ISZERO PUSH2 0x78C JUMPI PUSH2 0x78B PUSH2 0x493 JUMP JUMPDEST JUMPDEST PUSH2 0x798 DUP9 DUP3 DUP10 ADD PUSH2 0x6EB JUMP JUMPDEST SWAP4 POP POP PUSH1 0x60 DUP7 ADD CALLDATALOAD PUSH8 0xFFFFFFFFFFFFFFFF DUP2 GT ISZERO PUSH2 0x7B9 JUMPI PUSH2 0x7B8 PUSH2 0x493 JUMP JUMPDEST JUMPDEST PUSH2 0x7C5 DUP9 DUP3 DUP10 ADD PUSH2 0x6EB JUMP JUMPDEST SWAP3 POP POP PUSH1 0x80 DUP7 ADD CALLDATALOAD PUSH8 0xFFFFFFFFFFFFFFFF DUP2 GT ISZERO PUSH2 0x7E6 JUMPI PUSH2 0x7E5 PUSH2 0x493 JUMP JUMPDEST JUMPDEST PUSH2 0x7F2 DUP9 DUP3 DUP10 ADD PUSH2 0x6EB JUMP JUMPDEST SWAP2 POP POP SWAP3 SWAP6 POP SWAP3 SWAP6 SWAP1 SWAP4 POP JUMP JUMPDEST PUSH32 0x4E487B7100000000000000000000000000000000000000000000000000000000 PUSH0 MSTORE PUSH1 0x22 PUSH1 0x4 MSTORE PUSH1 0x24 PUSH0 REVERT JUMPDEST PUSH0 PUSH1 0x2 DUP3 DIV SWAP1 POP PUSH1 0x1 DUP3 AND DUP1 PUSH2 0x843 JUMPI PUSH1 0x7F DUP3 AND SWAP2 POP JUMPDEST PUSH1 0x20 DUP3 LT DUP2 SUB PUSH2 0x856 JUMPI PUSH2 0x855 PUSH2 0x7FF JUMP JUMPDEST JUMPDEST POP SWAP2 SWAP1 POP JUMP JUMPDEST PUSH32 0x556E617574686F72697A65640000000000000000000000000000000000000000 PUSH0 DUP3 ADD MSTORE POP JUMP JUMPDEST PUSH0 PUSH2 0x890 PUSH1 0xC DUP4 PUSH2 0x4FF JUMP JUMPDEST SWAP2 POP PUSH2 0x89B DUP3 PUSH2 0x85C JUMP JUMPDEST PUSH1 0x20 DUP3 ADD SWAP1 POP SWAP2 SWAP1 POP JUMP JUMPDEST PUSH0 PUSH1 0x20 DUP3 ADD SWAP1 POP DUP2 DUP2 SUB PUSH0 DUP4 ADD MSTORE PUSH2 0x8BD DUP2 PUSH2 0x884 JUMP JUMPDEST SWAP1 POP SWAP2 SWAP1 POP JUMP JUMPDEST PUSH32 0x64657461696C732020697320616C726561647920657869737473000000000000 PUSH0 DUP3 ADD MSTORE POP JUMP JUMPDEST PUSH0 PUSH2 0x8F8 PUSH1 0x1A DUP4 PUSH2 0x4FF JUMP JUMPDEST SWAP2 POP PUSH2 0x903 DUP3 PUSH2 0x8C4 JUMP JUMPDEST PUSH1 0x20 DUP3 ADD SWAP1 POP SWAP2 SWAP1 POP JUMP JUMPDEST PUSH0 PUSH1 0x20 DUP3 ADD SWAP1 POP DUP2 DUP2 SUB PUSH0 DUP4 ADD MSTORE PUSH2 0x925 DUP2 PUSH2 0x8EC JUMP JUMPDEST SWAP1 POP SWAP2 SWAP1 POP JUMP JUMPDEST PUSH0 DUP2 SWAP1 POP DUP2 PUSH0 MSTORE PUSH1 0x20 PUSH0 KECCAK256 SWAP1 POP SWAP2 SWAP1 POP JUMP JUMPDEST PUSH0 PUSH1 0x20 PUSH1 0x1F DUP4 ADD DIV SWAP1 POP SWAP2 SWAP1 POP JUMP JUMPDEST PUSH0 DUP3 DUP3 SHL SWAP1 POP SWAP3 SWAP2 POP POP JUMP JUMPDEST PUSH0 PUSH1 0x8 DUP4 MUL PUSH2 0x988 PUSH32 0xFFFFFFFFFFFFFFFFFFFFFFFFFFFFFFFFFFFFFFFFFFFFFFFFFFFFFFFFFFFFFFFF DUP3 PUSH2 0x94D JUMP JUMPDEST PUSH2 0x992 DUP7 DUP4 PUSH2 0x94D JUMP JUMPDEST SWAP6 POP DUP1 NOT DUP5 AND SWAP4 POP DUP1 DUP7 AND DUP5 OR SWAP3 POP POP POP SWAP4 SWAP3 POP POP POP JUMP JUMPDEST PUSH0 DUP2 SWAP1 POP SWAP2 SWAP1 POP JUMP JUMPDEST PUSH0 PUSH2 0x9CD PUSH2 0x9C8 PUSH2 0x9C3 DUP5 PUSH2 0x497 JUMP JUMPDEST PUSH2 0x9AA JUMP JUMPDEST PUSH2 0x497 JUMP JUMPDEST SWAP1 POP SWAP2 SWAP1 POP JUMP JUMPDEST PUSH0 DUP2 SWAP1 POP SWAP2 SWAP1 POP JUMP JUMPDEST PUSH2 0x9E6 DUP4 PUSH2 0x9B3 JUMP JUMPDEST PUSH2 0x9FA PUSH2 0x9F2 DUP3 PUSH2 0x9D4 JUMP JUMPDEST DUP5 DUP5 SLOAD PUSH2 0x959 JUMP JUMPDEST DUP3 SSTORE POP POP POP POP JUMP JUMPDEST PUSH0 SWAP1 JUMP JUMPDEST PUSH2 0xA0E PUSH2 0xA02 JUMP JUMPDEST PUSH2 0xA19 DUP2 DUP5 DUP5 PUSH2 0x9DD JUMP JUMPDEST POP POP POP JUMP JUMPDEST JUMPDEST DUP2 DUP2 LT ISZERO PUSH2 0xA3C JUMPI PUSH2 0xA31 PUSH0 DUP3 PUSH2 0xA06 JUMP JUMPDEST PUSH1 0x1 DUP2 ADD SWAP1 POP PUSH2 0xA1F JUMP JUMPDEST POP POP JUMP JUMPDEST PUSH1 0x1F DUP3 GT ISZERO PUSH2 0xA81 JUMPI PUSH2 0xA52 DUP2 PUSH2 0x92C JUMP JUMPDEST PUSH2 0xA5B DUP5 PUSH2 0x93E JUMP JUMPDEST DUP2 ADD PUSH1 0x20 DUP6 LT ISZERO PUSH2 0xA6A JUMPI DUP2 SWAP1 POP JUMPDEST PUSH2 0xA7E PUSH2 0xA76 DUP6 PUSH2 0x93E JUMP JUMPDEST DUP4 ADD DUP3 PUSH2 0xA1E JUMP JUMPDEST POP POP JUMPDEST POP POP POP JUMP JUMPDEST PUSH0 DUP3 DUP3 SHR SWAP1 POP SWAP3 SWAP2 POP POP JUMP JUMPDEST PUSH0 PUSH2 0xAA1 PUSH0 NOT DUP5 PUSH1 0x8 MUL PUSH2 0xA86 JUMP JUMPDEST NOT DUP1 DUP4 AND SWAP2 POP POP SWAP3 SWAP2 POP POP JUMP JUMPDEST PUSH0 PUSH2 0xAB9 DUP4 DUP4 PUSH2 0xA92 JUMP JUMPDEST SWAP2 POP DUP3 PUSH1 0x2 MUL DUP3 OR SWAP1 POP SWAP3 SWAP2 POP POP JUMP JUMPDEST PUSH2 0xAD2 DUP3 PUSH2 0x4F5 JUMP JUMPDEST PUSH8 0xFFFFFFFFFFFFFFFF DUP2 GT ISZERO PUSH2 0xAEB JUMPI PUSH2 0xAEA PUSH2 0x5F4 JUMP JUMPDEST JUMPDEST PUSH2 0xAF5 DUP3 SLOAD PUSH2 0x82C JUMP JUMPDEST PUSH2 0xB00 DUP3 DUP3 DUP6 PUSH2 0xA40 JUMP JUMPDEST PUSH0 PUSH1 0x20 SWAP1 POP PUSH1 0x1F DUP4 GT PUSH1 0x1 DUP2 EQ PUSH2 0xB31 JUMPI PUSH0 DUP5 ISZERO PUSH2 0xB1F JUMPI DUP3 DUP8 ADD MLOAD SWAP1 POP JUMPDEST PUSH2 0xB29 DUP6 DUP3 PUSH2 0xAAE JUMP JUMPDEST DUP7 SSTORE POP PUSH2 0xB90 JUMP JUMPDEST PUSH1 0x1F NOT DUP5 AND PUSH2 0xB3F DUP7 PUSH2 0x92C JUMP JUMPDEST PUSH0 JUMPDEST DUP3 DUP2 LT ISZERO PUSH2 0xB66 JUMPI DUP5 DUP10 ADD MLOAD DUP3 SSTORE PUSH1 0x1 DUP3 ADD SWAP2 POP PUSH1 0x20 DUP6 ADD SWAP5 POP PUSH1 0x20 DUP2 ADD SWAP1 POP PUSH2 0xB41 JUMP JUMPDEST DUP7 DUP4 LT ISZERO PUSH2 0xB83 JUMPI DUP5 DUP10 ADD MLOAD PUSH2 0xB7F PUSH1 0x1F DUP10 AND DUP3 PUSH2 0xA92 JUMP JUMPDEST DUP4 SSTORE POP JUMPDEST PUSH1 0x1 PUSH1 0x2 DUP9 MUL ADD DUP9 SSTORE POP POP POP JUMPDEST POP POP POP POP POP POP JUMP INVALID LOG2 PUSH5 0x6970667358 0x22 SLT KECCAK256 SWAP2 0xBD DUP7 0xF6 0xEA MCOPY 0xC2 0x2B 0xEE SWAP15 RETURN PUSH29 0xD7FF28F50257D4FAD3F490BD3033AA0821E627BB64736F6C634300081A STOP CALLER "
		},
		"gasEstimates": {
			"creation": {
				"codeDepositCost": "604400",
				"executionCost": "24901",
				"totalCost": "629301"
			},
			"external": {
				"certificates(uint256)": "infinite",
				"issue(uint256,string,string,string,string)": "infinite"
			}
		},
		"methodIdentifiers": {
			"certificates(uint256)": "663b3e22",
			"issue(uint256,string,string,string,string)": "d1e7be26"
		}
	},
	"abi": [
		{
			"inputs": [],
			"stateMutability": "nonpayable",
			"type": "constructor"
		},
		{
			"inputs": [
				{
					"internalType": "uint256",
					"name": "_id",
					"type": "uint256"
				}
			],
			"name": "certificates",
			"outputs": [
				{
					"internalType": "string",
					"name": "name",
					"type": "string"
				},
				{
					"internalType": "string",
					"name": "course",
					"type": "string"
				},
				{
					"internalType": "string",
					"name": "grade",
					"type": "string"
				},
				{
					"internalType": "string",
					"name": "date",
					"type": "string"
				},
				{
					"internalType": "bool",
					"name": "exist",
					"type": "bool"
				}
			],
			"stateMutability": "view",
			"type": "function"
		},
		{
			"inputs": [
				{
					"internalType": "uint256",
					"name": "_id",
					"type": "uint256"
				},
				{
					"internalType": "string",
					"name": "_name",
					"type": "string"
				},
				{
					"internalType": "string",
					"name": "_course",
					"type": "string"
				},
				{
					"internalType": "string",
					"name": "_grade",
					"type": "string"
				},
				{
					"internalType": "string",
					"name": "_date",
					"type": "string"
				}
			],
			"name": "issue",
			"outputs": [],
			"stateMutability": "nonpayable",
			"type": "function"
		}
	]
}