{
	"Remix/Work/work2-1.sol": {
		"MyBook": {
			"abi": [
				{
					"inputs": [],
					"name": "buyBook",
					"outputs": [],
					"stateMutability": "payable",
					"type": "function"
				},
				{
					"inputs": [
						{
							"internalType": "uint256",
							"name": "eval",
							"type": "uint256"
						}
					],
					"name": "ethToWei",
					"outputs": [
						{
							"internalType": "uint256",
							"name": "",
							"type": "uint256"
						}
					],
					"stateMutability": "pure",
					"type": "function"
				},
				{
					"inputs": [],
					"name": "getBook",
					"outputs": [
						{
							"internalType": "string",
							"name": "",
							"type": "string"
						},
						{
							"internalType": "uint16",
							"name": "",
							"type": "uint16"
						}
					],
					"stateMutability": "view",
					"type": "function"
				},
				{
					"inputs": [
						{
							"internalType": "string",
							"name": "_title",
							"type": "string"
						},
						{
							"internalType": "uint16",
							"name": "_price",
							"type": "uint16"
						}
					],
					"name": "getBook",
					"outputs": [],
					"stateMutability": "nonpayable",
					"type": "function"
				},
				{
					"inputs": [],
					"name": "myBook",
					"outputs": [
						{
							"internalType": "string",
							"name": "title",
							"type": "string"
						},
						{
							"internalType": "uint16",
							"name": "price",
							"type": "uint16"
						},
						{
							"internalType": "address payable",
							"name": "owner",
							"type": "address"
						},
						{
							"internalType": "address",
							"name": "buyer",
							"type": "address"
						},
						{
							"internalType": "bool",
							"name": "sold",
							"type": "bool"
						}
					],
					"stateMutability": "view",
					"type": "function"
				}
			],
			"devdoc": {
				"kind": "dev",
				"methods": {},
				"version": 1
			},
			"evm": {
				"assembly": "    /* \"Remix/Work/work2-1.sol\":59:1307  contract MyBook{... */\n  mstore(0x40, 0x80)\n  callvalue\n  dup1\n  iszero\n  tag_1\n  jumpi\n  0x00\n  dup1\n  revert\ntag_1:\n  pop\n  dataSize(sub_0)\n  dup1\n  dataOffset(sub_0)\n  0x00\n  codecopy\n  0x00\n  return\nstop\n\nsub_0: assembly {\n        /* \"Remix/Work/work2-1.sol\":59:1307  contract MyBook{... */\n      mstore(0x40, 0x80)\n      jumpi(tag_1, lt(calldatasize, 0x04))\n      shr(0xe0, calldataload(0x00))\n      dup1\n      0x189a55e7\n      eq\n      tag_2\n      jumpi\n      dup1\n      0x3b0c197e\n      eq\n      tag_3\n      jumpi\n      dup1\n      0x8646ac8d\n      eq\n      tag_4\n      jumpi\n      dup1\n      0x88439bbc\n      eq\n      tag_5\n      jumpi\n      dup1\n      0xaab27ef7\n      eq\n      tag_6\n      jumpi\n    tag_1:\n      0x00\n      dup1\n      revert\n        /* \"Remix/Work/work2-1.sol\":741:1299  function buyBook()public payable {... */\n    tag_2:\n      tag_7\n      tag_8\n      jump\t// in\n    tag_7:\n      stop\n        /* \"Remix/Work/work2-1.sol\":321:431  function getBook()public view returns(string memory,uint16){... */\n    tag_3:\n      callvalue\n      dup1\n      iszero\n      tag_9\n      jumpi\n      0x00\n      dup1\n      revert\n    tag_9:\n      pop\n      tag_10\n      tag_11\n      jump\t// in\n    tag_10:\n      mload(0x40)\n      tag_12\n      swap3\n      swap2\n      swap1\n      tag_13\n      jump\t// in\n    tag_12:\n      mload(0x40)\n      dup1\n      swap2\n      sub\n      swap1\n      return\n        /* \"Remix/Work/work2-1.sol\":436:629  function getBook(string memory _title,uint16 _price)public{... */\n    tag_4:\n      callvalue\n      dup1\n      iszero\n      tag_14\n      jumpi\n      0x00\n      dup1\n      revert\n    tag_14:\n      pop\n      tag_15\n      0x04\n      dup1\n      calldatasize\n      sub\n      dup2\n      add\n      swap1\n      tag_16\n      swap2\n      swap1\n      tag_17\n      jump\t// in\n    tag_16:\n      tag_18\n      jump\t// in\n    tag_15:\n      stop\n        /* \"Remix/Work/work2-1.sol\":634:736  function ethToWei(uint eval)public pure returns(uint){... */\n    tag_5:\n      callvalue\n      dup1\n      iszero\n      tag_19\n      jumpi\n      0x00\n      dup1\n      revert\n    tag_19:\n      pop\n      tag_20\n      0x04\n      dup1\n      calldatasize\n      sub\n      dup2\n      add\n      swap1\n      tag_21\n      swap2\n      swap1\n      tag_22\n      jump\t// in\n    tag_21:\n      tag_23\n      jump\t// in\n    tag_20:\n      mload(0x40)\n      tag_24\n      swap2\n      swap1\n      tag_25\n      jump\t// in\n    tag_24:\n      mload(0x40)\n      dup1\n      swap2\n      sub\n      swap1\n      return\n        /* \"Remix/Work/work2-1.sol\":295:313  book public myBook */\n    tag_6:\n      callvalue\n      dup1\n      iszero\n      tag_26\n      jumpi\n      0x00\n      dup1\n      revert\n    tag_26:\n      pop\n      tag_27\n      tag_28\n      jump\t// in\n    tag_27:\n      mload(0x40)\n      tag_29\n      swap6\n      swap5\n      swap4\n      swap3\n      swap2\n      swap1\n      tag_30\n      jump\t// in\n    tag_29:\n      mload(0x40)\n      dup1\n      swap2\n      sub\n      swap1\n      return\n        /* \"Remix/Work/work2-1.sol\":741:1299  function buyBook()public payable {... */\n    tag_8:\n        /* \"Remix/Work/work2-1.sol\":800:822  ethToWei(myBook.price) */\n      tag_32\n        /* \"Remix/Work/work2-1.sol\":809:815  myBook */\n      0x00\n        /* \"Remix/Work/work2-1.sol\":809:821  myBook.price */\n      0x01\n      add\n      0x00\n      swap1\n      sload\n      swap1\n      0x0100\n      exp\n      swap1\n      div\n      0xffff\n      and\n        /* \"Remix/Work/work2-1.sol\":800:822  ethToWei(myBook.price) */\n      0xffff\n      and\n        /* \"Remix/Work/work2-1.sol\":800:808  ethToWei */\n      tag_23\n        /* \"Remix/Work/work2-1.sol\":800:822  ethToWei(myBook.price) */\n      jump\t// in\n    tag_32:\n        /* \"Remix/Work/work2-1.sol\":787:796  msg.value */\n      callvalue\n        /* \"Remix/Work/work2-1.sol\":787:822  msg.value >= ethToWei(myBook.price) */\n      lt\n        /* \"Remix/Work/work2-1.sol\":784:1293  if(msg.value >= ethToWei(myBook.price)){... */\n      tag_33\n      jumpi\n        /* \"Remix/Work/work2-1.sol\":837:845  uint bal */\n      0x00\n        /* \"Remix/Work/work2-1.sol\":857:879  ethToWei(myBook.price) */\n      tag_34\n        /* \"Remix/Work/work2-1.sol\":866:872  myBook */\n      0x00\n        /* \"Remix/Work/work2-1.sol\":866:878  myBook.price */\n      0x01\n      add\n      0x00\n      swap1\n      sload\n      swap1\n      0x0100\n      exp\n      swap1\n      div\n      0xffff\n      and\n        /* \"Remix/Work/work2-1.sol\":857:879  ethToWei(myBook.price) */\n      0xffff\n      and\n        /* \"Remix/Work/work2-1.sol\":857:865  ethToWei */\n      tag_23\n        /* \"Remix/Work/work2-1.sol\":857:879  ethToWei(myBook.price) */\n      jump\t// in\n    tag_34:\n        /* \"Remix/Work/work2-1.sol\":847:856  msg.value */\n      callvalue\n        /* \"Remix/Work/work2-1.sol\":847:879  msg.value-ethToWei(myBook.price) */\n      tag_35\n      swap2\n      swap1\n      tag_36\n      jump\t// in\n    tag_35:\n        /* \"Remix/Work/work2-1.sol\":837:879  uint bal= msg.value-ethToWei(myBook.price) */\n      swap1\n      pop\n        /* \"Remix/Work/work2-1.sol\":902:908  myBook */\n      0x00\n        /* \"Remix/Work/work2-1.sol\":902:914  myBook.owner */\n      0x01\n      add\n      0x02\n      swap1\n      sload\n      swap1\n      0x0100\n      exp\n      swap1\n      div\n      0xffffffffffffffffffffffffffffffffffffffff\n      and\n        /* \"Remix/Work/work2-1.sol\":893:924  payable (myBook.owner).transfer */\n      0xffffffffffffffffffffffffffffffffffffffff\n      and\n        /* \"Remix/Work/work2-1.sol\":893:948  payable (myBook.owner).transfer(ethToWei(myBook.price)) */\n      0x08fc\n        /* \"Remix/Work/work2-1.sol\":925:947  ethToWei(myBook.price) */\n      tag_37\n        /* \"Remix/Work/work2-1.sol\":934:940  myBook */\n      0x00\n        /* \"Remix/Work/work2-1.sol\":934:946  myBook.price */\n      0x01\n      add\n      0x00\n      swap1\n      sload\n      swap1\n      0x0100\n      exp\n      swap1\n      div\n      0xffff\n      and\n        /* \"Remix/Work/work2-1.sol\":925:947  ethToWei(myBook.price) */\n      0xffff\n      and\n        /* \"Remix/Work/work2-1.sol\":925:933  ethToWei */\n      tag_23\n        /* \"Remix/Work/work2-1.sol\":925:947  ethToWei(myBook.price) */\n      jump\t// in\n    tag_37:\n        /* \"Remix/Work/work2-1.sol\":893:948  payable (myBook.owner).transfer(ethToWei(myBook.price)) */\n      swap1\n      dup2\n      iszero\n      mul\n      swap1\n      mload(0x40)\n      0x00\n      mload(0x40)\n      dup1\n      dup4\n      sub\n      dup2\n      dup6\n      dup9\n      dup9\n      call\n      swap4\n      pop\n      pop\n      pop\n      pop\n      iszero\n      dup1\n      iszero\n      tag_39\n      jumpi\n      returndatasize\n      0x00\n      dup1\n      returndatacopy\n      revert(0x00, returndatasize)\n    tag_39:\n      pop\n        /* \"Remix/Work/work2-1.sol\":970:971  0 */\n      0x00\n        /* \"Remix/Work/work2-1.sol\":966:969  bal */\n      dup2\n        /* \"Remix/Work/work2-1.sol\":966:971  bal>0 */\n      gt\n        /* \"Remix/Work/work2-1.sol\":963:1039  if(bal>0){... */\n      iszero\n      tag_40\n      jumpi\n        /* \"Remix/Work/work2-1.sol\":999:1009  msg.sender */\n      caller\n        /* \"Remix/Work/work2-1.sol\":990:1019  payable (msg.sender).transfer */\n      0xffffffffffffffffffffffffffffffffffffffff\n      and\n        /* \"Remix/Work/work2-1.sol\":990:1024  payable (msg.sender).transfer(bal) */\n      0x08fc\n        /* \"Remix/Work/work2-1.sol\":1020:1023  bal */\n      dup3\n        /* \"Remix/Work/work2-1.sol\":990:1024  payable (msg.sender).transfer(bal) */\n      swap1\n      dup2\n      iszero\n      mul\n      swap1\n      mload(0x40)\n      0x00\n      mload(0x40)\n      dup1\n      dup4\n      sub\n      dup2\n      dup6\n      dup9\n      dup9\n      call\n      swap4\n      pop\n      pop\n      pop\n      pop\n      iszero\n      dup1\n      iszero\n      tag_42\n      jumpi\n      returndatasize\n      0x00\n      dup1\n      returndatacopy\n      revert(0x00, returndatasize)\n    tag_42:\n      pop\n        /* \"Remix/Work/work2-1.sol\":963:1039  if(bal>0){... */\n    tag_40:\n        /* \"Remix/Work/work2-1.sol\":1073:1083  msg.sender */\n      caller\n        /* \"Remix/Work/work2-1.sol\":1052:1058  myBook */\n      0x00\n        /* \"Remix/Work/work2-1.sol\":1052:1064  myBook.owner */\n      0x01\n      add\n      0x02\n        /* \"Remix/Work/work2-1.sol\":1052:1084  myBook.owner=payable(msg.sender) */\n      0x0100\n      exp\n      dup2\n      sload\n      dup2\n      0xffffffffffffffffffffffffffffffffffffffff\n      mul\n      not\n      and\n      swap1\n      dup4\n      0xffffffffffffffffffffffffffffffffffffffff\n      and\n      mul\n      or\n      swap1\n      sstore\n      pop\n        /* \"Remix/Work/work2-1.sol\":1111:1121  msg.sender */\n      caller\n        /* \"Remix/Work/work2-1.sol\":1098:1104  myBook */\n      0x00\n        /* \"Remix/Work/work2-1.sol\":1098:1110  myBook.buyer */\n      0x02\n      add\n      0x00\n        /* \"Remix/Work/work2-1.sol\":1098:1121  myBook.buyer=msg.sender */\n      0x0100\n      exp\n      dup2\n      sload\n      dup2\n      0xffffffffffffffffffffffffffffffffffffffff\n      mul\n      not\n      and\n      swap1\n      dup4\n      0xffffffffffffffffffffffffffffffffffffffff\n      and\n      mul\n      or\n      swap1\n      sstore\n      pop\n        /* \"Remix/Work/work2-1.sol\":1147:1151  true */\n      0x01\n        /* \"Remix/Work/work2-1.sol\":1135:1141  myBook */\n      0x00\n        /* \"Remix/Work/work2-1.sol\":1135:1146  myBook.sold */\n      0x02\n      add\n      0x14\n        /* \"Remix/Work/work2-1.sol\":1135:1151  myBook.sold=true */\n      0x0100\n      exp\n      dup2\n      sload\n      dup2\n      0xff\n      mul\n      not\n      and\n      swap1\n      dup4\n      iszero\n      iszero\n      mul\n      or\n      swap1\n      sstore\n      pop\n        /* \"Remix/Work/work2-1.sol\":823:1162  {... */\n      pop\n        /* \"Remix/Work/work2-1.sol\":784:1293  if(msg.value >= ethToWei(myBook.price)){... */\n      jump(tag_43)\n    tag_33:\n        /* \"Remix/Work/work2-1.sol\":1190:1196  myBook */\n      0x00\n        /* \"Remix/Work/work2-1.sol\":1190:1202  myBook.buyer */\n      0x02\n      add\n      0x00\n      swap1\n      sload\n      swap1\n      0x0100\n      exp\n      swap1\n      div\n      0xffffffffffffffffffffffffffffffffffffffff\n      and\n        /* \"Remix/Work/work2-1.sol\":1181:1212  payable (myBook.buyer).transfer */\n      0xffffffffffffffffffffffffffffffffffffffff\n      and\n        /* \"Remix/Work/work2-1.sol\":1181:1223  payable (myBook.buyer).transfer(msg.value) */\n      0x08fc\n        /* \"Remix/Work/work2-1.sol\":1213:1222  msg.value */\n      callvalue\n        /* \"Remix/Work/work2-1.sol\":1181:1223  payable (myBook.buyer).transfer(msg.value) */\n      swap1\n      dup2\n      iszero\n      mul\n      swap1\n      mload(0x40)\n      0x00\n      mload(0x40)\n      dup1\n      dup4\n      sub\n      dup2\n      dup6\n      dup9\n      dup9\n      call\n      swap4\n      pop\n      pop\n      pop\n      pop\n      iszero\n      dup1\n      iszero\n      tag_45\n      jumpi\n      returndatasize\n      0x00\n      dup1\n      returndatacopy\n      revert(0x00, returndatasize)\n    tag_45:\n      pop\n        /* \"Remix/Work/work2-1.sol\":1237:1282  revert(\"Insufficient funds .amount refunded\") */\n      mload(0x40)\n      0x08c379a000000000000000000000000000000000000000000000000000000000\n      dup2\n      mstore\n      0x04\n      add\n      tag_46\n      swap1\n      tag_47\n      jump\t// in\n    tag_46:\n      mload(0x40)\n      dup1\n      swap2\n      sub\n      swap1\n      revert\n        /* \"Remix/Work/work2-1.sol\":784:1293  if(msg.value >= ethToWei(myBook.price)){... */\n    tag_43:\n        /* \"Remix/Work/work2-1.sol\":741:1299  function buyBook()public payable {... */\n      jump\t// out\n        /* \"Remix/Work/work2-1.sol\":321:431  function getBook()public view returns(string memory,uint16){... */\n    tag_11:\n        /* \"Remix/Work/work2-1.sol\":359:372  string memory */\n      0x60\n        /* \"Remix/Work/work2-1.sol\":373:379  uint16 */\n      0x00\n        /* \"Remix/Work/work2-1.sol\":398:404  myBook */\n      dup1\n        /* \"Remix/Work/work2-1.sol\":398:410  myBook.title */\n      0x00\n      add\n        /* \"Remix/Work/work2-1.sol\":411:417  myBook */\n      0x00\n        /* \"Remix/Work/work2-1.sol\":411:423  myBook.price */\n      0x01\n      add\n      0x00\n      swap1\n      sload\n      swap1\n      0x0100\n      exp\n      swap1\n      div\n      0xffff\n      and\n        /* \"Remix/Work/work2-1.sol\":390:424  return (myBook.title,myBook.price) */\n      dup2\n      dup1\n      sload\n      tag_49\n      swap1\n      tag_50\n      jump\t// in\n    tag_49:\n      dup1\n      0x1f\n      add\n      0x20\n      dup1\n      swap2\n      div\n      mul\n      0x20\n      add\n      mload(0x40)\n      swap1\n      dup2\n      add\n      0x40\n      mstore\n      dup1\n      swap3\n      swap2\n      swap1\n      dup2\n      dup2\n      mstore\n      0x20\n      add\n      dup3\n      dup1\n      sload\n      tag_51\n      swap1\n      tag_50\n      jump\t// in\n    tag_51:\n      dup1\n      iszero\n      tag_52\n      jumpi\n      dup1\n      0x1f\n      lt\n      tag_53\n      jumpi\n      0x0100\n      dup1\n      dup4\n      sload\n      div\n      mul\n      dup4\n      mstore\n      swap2\n      0x20\n      add\n      swap2\n      jump(tag_52)\n    tag_53:\n      dup3\n      add\n      swap2\n      swap1\n      0x00\n      mstore\n      keccak256(0x00, 0x20)\n      swap1\n    tag_54:\n      dup2\n      sload\n      dup2\n      mstore\n      swap1\n      0x01\n      add\n      swap1\n      0x20\n      add\n      dup1\n      dup4\n      gt\n      tag_54\n      jumpi\n      dup3\n      swap1\n      sub\n      0x1f\n      and\n      dup3\n      add\n      swap2\n    tag_52:\n      pop\n      pop\n      pop\n      pop\n      pop\n      swap2\n      pop\n      swap2\n      pop\n      swap2\n      pop\n        /* \"Remix/Work/work2-1.sol\":321:431  function getBook()public view returns(string memory,uint16){... */\n      swap1\n      swap2\n      jump\t// out\n        /* \"Remix/Work/work2-1.sol\":436:629  function getBook(string memory _title,uint16 _price)public{... */\n    tag_18:\n        /* \"Remix/Work/work2-1.sol\":517:523  _title */\n      dup2\n        /* \"Remix/Work/work2-1.sol\":504:510  myBook */\n      0x00\n        /* \"Remix/Work/work2-1.sol\":504:516  myBook.title */\n      dup1\n      add\n        /* \"Remix/Work/work2-1.sol\":504:523  myBook.title=_title */\n      swap1\n      dup2\n      tag_56\n      swap2\n      swap1\n      tag_57\n      jump\t// in\n    tag_56:\n      pop\n        /* \"Remix/Work/work2-1.sol\":546:552  _price */\n      dup1\n        /* \"Remix/Work/work2-1.sol\":533:539  myBook */\n      0x00\n        /* \"Remix/Work/work2-1.sol\":533:545  myBook.price */\n      0x01\n      add\n      0x00\n        /* \"Remix/Work/work2-1.sol\":533:552  myBook.price=_price */\n      0x0100\n      exp\n      dup2\n      sload\n      dup2\n      0xffff\n      mul\n      not\n      and\n      swap1\n      dup4\n      0xffff\n      and\n      mul\n      or\n      swap1\n      sstore\n      pop\n        /* \"Remix/Work/work2-1.sol\":584:594  msg.sender */\n      caller\n        /* \"Remix/Work/work2-1.sol\":562:568  myBook */\n      0x00\n        /* \"Remix/Work/work2-1.sol\":562:574  myBook.buyer */\n      0x02\n      add\n      0x00\n        /* \"Remix/Work/work2-1.sol\":562:595  myBook.buyer=payable (msg.sender) */\n      0x0100\n      exp\n      dup2\n      sload\n      dup2\n      0xffffffffffffffffffffffffffffffffffffffff\n      mul\n      not\n      and\n      swap1\n      dup4\n      0xffffffffffffffffffffffffffffffffffffffff\n      and\n      mul\n      or\n      swap1\n      sstore\n      pop\n        /* \"Remix/Work/work2-1.sol\":617:622  false */\n      0x00\n        /* \"Remix/Work/work2-1.sol\":605:611  myBook */\n      dup1\n        /* \"Remix/Work/work2-1.sol\":605:616  myBook.sold */\n      0x02\n      add\n      0x14\n        /* \"Remix/Work/work2-1.sol\":605:622  myBook.sold=false */\n      0x0100\n      exp\n      dup2\n      sload\n      dup2\n      0xff\n      mul\n      not\n      and\n      swap1\n      dup4\n      iszero\n      iszero\n      mul\n      or\n      swap1\n      sstore\n      pop\n        /* \"Remix/Work/work2-1.sol\":436:629  function getBook(string memory _title,uint16 _price)public{... */\n      pop\n      pop\n      jump\t// out\n        /* \"Remix/Work/work2-1.sol\":634:736  function ethToWei(uint eval)public pure returns(uint){... */\n    tag_23:\n        /* \"Remix/Work/work2-1.sol\":682:686  uint */\n      0x00\n        /* \"Remix/Work/work2-1.sol\":709:728  1000000000000000000 */\n      0x0de0b6b3a7640000\n        /* \"Remix/Work/work2-1.sol\":704:708  eval */\n      dup3\n        /* \"Remix/Work/work2-1.sol\":704:728  eval*1000000000000000000 */\n      tag_59\n      swap2\n      swap1\n      tag_60\n      jump\t// in\n    tag_59:\n        /* \"Remix/Work/work2-1.sol\":697:729  return(eval*1000000000000000000) */\n      swap1\n      pop\n        /* \"Remix/Work/work2-1.sol\":634:736  function ethToWei(uint eval)public pure returns(uint){... */\n      swap2\n      swap1\n      pop\n      jump\t// out\n        /* \"Remix/Work/work2-1.sol\":295:313  book public myBook */\n    tag_28:\n      0x00\n      dup1\n      0x00\n      add\n      dup1\n      sload\n      tag_61\n      swap1\n      tag_50\n      jump\t// in\n    tag_61:\n      dup1\n      0x1f\n      add\n      0x20\n      dup1\n      swap2\n      div\n      mul\n      0x20\n      add\n      mload(0x40)\n      swap1\n      dup2\n      add\n      0x40\n      mstore\n      dup1\n      swap3\n      swap2\n      swap1\n      dup2\n      dup2\n      mstore\n      0x20\n      add\n      dup3\n      dup1\n      sload\n      tag_62\n      swap1\n      tag_50\n      jump\t// in\n    tag_62:\n      dup1\n      iszero\n      tag_63\n      jumpi\n      dup1\n      0x1f\n      lt\n      tag_64\n      jumpi\n      0x0100\n      dup1\n      dup4\n      sload\n      div\n      mul\n      dup4\n      mstore\n      swap2\n      0x20\n      add\n      swap2\n      jump(tag_63)\n    tag_64:\n      dup3\n      add\n      swap2\n      swap1\n      0x00\n      mstore\n      keccak256(0x00, 0x20)\n      swap1\n    tag_65:\n      dup2\n      sload\n      dup2\n      mstore\n      swap1\n      0x01\n      add\n      swap1\n      0x20\n      add\n      dup1\n      dup4\n      gt\n      tag_65\n      jumpi\n      dup3\n      swap1\n      sub\n      0x1f\n      and\n      dup3\n      add\n      swap2\n    tag_63:\n      pop\n      pop\n      pop\n      pop\n      pop\n      swap1\n      dup1\n      0x01\n      add\n      0x00\n      swap1\n      sload\n      swap1\n      0x0100\n      exp\n      swap1\n      div\n      0xffff\n      and\n      swap1\n      dup1\n      0x01\n      add\n      0x02\n      swap1\n      sload\n      swap1\n      0x0100\n      exp\n      swap1\n      div\n      0xffffffffffffffffffffffffffffffffffffffff\n      and\n      swap1\n      dup1\n      0x02\n      add\n      0x00\n      swap1\n      sload\n      swap1\n      0x0100\n      exp\n      swap1\n      div\n      0xffffffffffffffffffffffffffffffffffffffff\n      and\n      swap1\n      dup1\n      0x02\n      add\n      0x14\n      swap1\n      sload\n      swap1\n      0x0100\n      exp\n      swap1\n      div\n      0xff\n      and\n      swap1\n      pop\n      dup6\n      jump\t// out\n        /* \"#utility.yul\":7:106   */\n    tag_66:\n        /* \"#utility.yul\":59:65   */\n      0x00\n        /* \"#utility.yul\":93:98   */\n      dup2\n        /* \"#utility.yul\":87:99   */\n      mload\n        /* \"#utility.yul\":77:99   */\n      swap1\n      pop\n        /* \"#utility.yul\":7:106   */\n      swap2\n      swap1\n      pop\n      jump\t// out\n        /* \"#utility.yul\":112:281   */\n    tag_67:\n        /* \"#utility.yul\":196:207   */\n      0x00\n        /* \"#utility.yul\":230:236   */\n      dup3\n        /* \"#utility.yul\":225:228   */\n      dup3\n        /* \"#utility.yul\":218:237   */\n      mstore\n        /* \"#utility.yul\":270:274   */\n      0x20\n        /* \"#utility.yul\":265:268   */\n      dup3\n        /* \"#utility.yul\":261:275   */\n      add\n        /* \"#utility.yul\":246:275   */\n      swap1\n      pop\n        /* \"#utility.yul\":112:281   */\n      swap3\n      swap2\n      pop\n      pop\n      jump\t// out\n        /* \"#utility.yul\":287:426   */\n    tag_68:\n        /* \"#utility.yul\":376:382   */\n      dup3\n        /* \"#utility.yul\":371:374   */\n      dup2\n        /* \"#utility.yul\":366:369   */\n      dup4\n        /* \"#utility.yul\":360:383   */\n      mcopy\n        /* \"#utility.yul\":417:418   */\n      0x00\n        /* \"#utility.yul\":408:414   */\n      dup4\n        /* \"#utility.yul\":403:406   */\n      dup4\n        /* \"#utility.yul\":399:415   */\n      add\n        /* \"#utility.yul\":392:419   */\n      mstore\n        /* \"#utility.yul\":287:426   */\n      pop\n      pop\n      pop\n      jump\t// out\n        /* \"#utility.yul\":432:534   */\n    tag_69:\n        /* \"#utility.yul\":473:479   */\n      0x00\n        /* \"#utility.yul\":524:526   */\n      0x1f\n        /* \"#utility.yul\":520:527   */\n      not\n        /* \"#utility.yul\":515:517   */\n      0x1f\n        /* \"#utility.yul\":508:513   */\n      dup4\n        /* \"#utility.yul\":504:518   */\n      add\n        /* \"#utility.yul\":500:528   */\n      and\n        /* \"#utility.yul\":490:528   */\n      swap1\n      pop\n        /* \"#utility.yul\":432:534   */\n      swap2\n      swap1\n      pop\n      jump\t// out\n        /* \"#utility.yul\":540:917   */\n    tag_70:\n        /* \"#utility.yul\":628:631   */\n      0x00\n        /* \"#utility.yul\":656:695   */\n      tag_123\n        /* \"#utility.yul\":689:694   */\n      dup3\n        /* \"#utility.yul\":656:695   */\n      tag_66\n      jump\t// in\n    tag_123:\n        /* \"#utility.yul\":711:782   */\n      tag_124\n        /* \"#utility.yul\":775:781   */\n      dup2\n        /* \"#utility.yul\":770:773   */\n      dup6\n        /* \"#utility.yul\":711:782   */\n      tag_67\n      jump\t// in\n    tag_124:\n        /* \"#utility.yul\":704:782   */\n      swap4\n      pop\n        /* \"#utility.yul\":791:856   */\n      tag_125\n        /* \"#utility.yul\":849:855   */\n      dup2\n        /* \"#utility.yul\":844:847   */\n      dup6\n        /* \"#utility.yul\":837:841   */\n      0x20\n        /* \"#utility.yul\":830:835   */\n      dup7\n        /* \"#utility.yul\":826:842   */\n      add\n        /* \"#utility.yul\":791:856   */\n      tag_68\n      jump\t// in\n    tag_125:\n        /* \"#utility.yul\":881:910   */\n      tag_126\n        /* \"#utility.yul\":903:909   */\n      dup2\n        /* \"#utility.yul\":881:910   */\n      tag_69\n      jump\t// in\n    tag_126:\n        /* \"#utility.yul\":876:879   */\n      dup5\n        /* \"#utility.yul\":872:911   */\n      add\n        /* \"#utility.yul\":865:911   */\n      swap2\n      pop\n        /* \"#utility.yul\":632:917   */\n      pop\n        /* \"#utility.yul\":540:917   */\n      swap3\n      swap2\n      pop\n      pop\n      jump\t// out\n        /* \"#utility.yul\":923:1012   */\n    tag_71:\n        /* \"#utility.yul\":959:966   */\n      0x00\n        /* \"#utility.yul\":999:1005   */\n      0xffff\n        /* \"#utility.yul\":992:997   */\n      dup3\n        /* \"#utility.yul\":988:1006   */\n      and\n        /* \"#utility.yul\":977:1006   */\n      swap1\n      pop\n        /* \"#utility.yul\":923:1012   */\n      swap2\n      swap1\n      pop\n      jump\t// out\n        /* \"#utility.yul\":1018:1133   */\n    tag_72:\n        /* \"#utility.yul\":1103:1126   */\n      tag_129\n        /* \"#utility.yul\":1120:1125   */\n      dup2\n        /* \"#utility.yul\":1103:1126   */\n      tag_71\n      jump\t// in\n    tag_129:\n        /* \"#utility.yul\":1098:1101   */\n      dup3\n        /* \"#utility.yul\":1091:1127   */\n      mstore\n        /* \"#utility.yul\":1018:1133   */\n      pop\n      pop\n      jump\t// out\n        /* \"#utility.yul\":1139:1558   */\n    tag_13:\n        /* \"#utility.yul\":1278:1282   */\n      0x00\n        /* \"#utility.yul\":1316:1318   */\n      0x40\n        /* \"#utility.yul\":1305:1314   */\n      dup3\n        /* \"#utility.yul\":1301:1319   */\n      add\n        /* \"#utility.yul\":1293:1319   */\n      swap1\n      pop\n        /* \"#utility.yul\":1365:1374   */\n      dup2\n        /* \"#utility.yul\":1359:1363   */\n      dup2\n        /* \"#utility.yul\":1355:1375   */\n      sub\n        /* \"#utility.yul\":1351:1352   */\n      0x00\n        /* \"#utility.yul\":1340:1349   */\n      dup4\n        /* \"#utility.yul\":1336:1353   */\n      add\n        /* \"#utility.yul\":1329:1376   */\n      mstore\n        /* \"#utility.yul\":1393:1471   */\n      tag_131\n        /* \"#utility.yul\":1466:1470   */\n      dup2\n        /* \"#utility.yul\":1457:1463   */\n      dup6\n        /* \"#utility.yul\":1393:1471   */\n      tag_70\n      jump\t// in\n    tag_131:\n        /* \"#utility.yul\":1385:1471   */\n      swap1\n      pop\n        /* \"#utility.yul\":1481:1551   */\n      tag_132\n        /* \"#utility.yul\":1547:1549   */\n      0x20\n        /* \"#utility.yul\":1536:1545   */\n      dup4\n        /* \"#utility.yul\":1532:1550   */\n      add\n        /* \"#utility.yul\":1523:1529   */\n      dup5\n        /* \"#utility.yul\":1481:1551   */\n      tag_72\n      jump\t// in\n    tag_132:\n        /* \"#utility.yul\":1139:1558   */\n      swap4\n      swap3\n      pop\n      pop\n      pop\n      jump\t// out\n        /* \"#utility.yul\":1564:1639   */\n    tag_73:\n        /* \"#utility.yul\":1597:1603   */\n      0x00\n        /* \"#utility.yul\":1630:1632   */\n      0x40\n        /* \"#utility.yul\":1624:1633   */\n      mload\n        /* \"#utility.yul\":1614:1633   */\n      swap1\n      pop\n        /* \"#utility.yul\":1564:1639   */\n      swap1\n      jump\t// out\n        /* \"#utility.yul\":1645:1762   */\n    tag_74:\n        /* \"#utility.yul\":1754:1755   */\n      0x00\n        /* \"#utility.yul\":1751:1752   */\n      dup1\n        /* \"#utility.yul\":1744:1756   */\n      revert\n        /* \"#utility.yul\":1768:1885   */\n    tag_75:\n        /* \"#utility.yul\":1877:1878   */\n      0x00\n        /* \"#utility.yul\":1874:1875   */\n      dup1\n        /* \"#utility.yul\":1867:1879   */\n      revert\n        /* \"#utility.yul\":1891:2008   */\n    tag_76:\n        /* \"#utility.yul\":2000:2001   */\n      0x00\n        /* \"#utility.yul\":1997:1998   */\n      dup1\n        /* \"#utility.yul\":1990:2002   */\n      revert\n        /* \"#utility.yul\":2014:2131   */\n    tag_77:\n        /* \"#utility.yul\":2123:2124   */\n      0x00\n        /* \"#utility.yul\":2120:2121   */\n      dup1\n        /* \"#utility.yul\":2113:2125   */\n      revert\n        /* \"#utility.yul\":2137:2317   */\n    tag_78:\n        /* \"#utility.yul\":2185:2262   */\n      0x4e487b7100000000000000000000000000000000000000000000000000000000\n        /* \"#utility.yul\":2182:2183   */\n      0x00\n        /* \"#utility.yul\":2175:2263   */\n      mstore\n        /* \"#utility.yul\":2282:2286   */\n      0x41\n        /* \"#utility.yul\":2279:2280   */\n      0x04\n        /* \"#utility.yul\":2272:2287   */\n      mstore\n        /* \"#utility.yul\":2306:2310   */\n      0x24\n        /* \"#utility.yul\":2303:2304   */\n      0x00\n        /* \"#utility.yul\":2296:2311   */\n      revert\n        /* \"#utility.yul\":2323:2604   */\n    tag_79:\n        /* \"#utility.yul\":2406:2433   */\n      tag_140\n        /* \"#utility.yul\":2428:2432   */\n      dup3\n        /* \"#utility.yul\":2406:2433   */\n      tag_69\n      jump\t// in\n    tag_140:\n        /* \"#utility.yul\":2398:2404   */\n      dup2\n        /* \"#utility.yul\":2394:2434   */\n      add\n        /* \"#utility.yul\":2536:2542   */\n      dup2\n        /* \"#utility.yul\":2524:2534   */\n      dup2\n        /* \"#utility.yul\":2521:2543   */\n      lt\n        /* \"#utility.yul\":2500:2518   */\n      0xffffffffffffffff\n        /* \"#utility.yul\":2488:2498   */\n      dup3\n        /* \"#utility.yul\":2485:2519   */\n      gt\n        /* \"#utility.yul\":2482:2544   */\n      or\n        /* \"#utility.yul\":2479:2567   */\n      iszero\n      tag_141\n      jumpi\n        /* \"#utility.yul\":2547:2565   */\n      tag_142\n      tag_78\n      jump\t// in\n    tag_142:\n        /* \"#utility.yul\":2479:2567   */\n    tag_141:\n        /* \"#utility.yul\":2587:2597   */\n      dup1\n        /* \"#utility.yul\":2583:2585   */\n      0x40\n        /* \"#utility.yul\":2576:2598   */\n      mstore\n        /* \"#utility.yul\":2366:2604   */\n      pop\n        /* \"#utility.yul\":2323:2604   */\n      pop\n      pop\n      jump\t// out\n        /* \"#utility.yul\":2610:2739   */\n    tag_80:\n        /* \"#utility.yul\":2644:2650   */\n      0x00\n        /* \"#utility.yul\":2671:2691   */\n      tag_144\n      tag_73\n      jump\t// in\n    tag_144:\n        /* \"#utility.yul\":2661:2691   */\n      swap1\n      pop\n        /* \"#utility.yul\":2700:2733   */\n      tag_145\n        /* \"#utility.yul\":2728:2732   */\n      dup3\n        /* \"#utility.yul\":2720:2726   */\n      dup3\n        /* \"#utility.yul\":2700:2733   */\n      tag_79\n      jump\t// in\n    tag_145:\n        /* \"#utility.yul\":2610:2739   */\n      swap2\n      swap1\n      pop\n      jump\t// out\n        /* \"#utility.yul\":2745:3053   */\n    tag_81:\n        /* \"#utility.yul\":2807:2811   */\n      0x00\n        /* \"#utility.yul\":2897:2915   */\n      0xffffffffffffffff\n        /* \"#utility.yul\":2889:2895   */\n      dup3\n        /* \"#utility.yul\":2886:2916   */\n      gt\n        /* \"#utility.yul\":2883:2939   */\n      iszero\n      tag_147\n      jumpi\n        /* \"#utility.yul\":2919:2937   */\n      tag_148\n      tag_78\n      jump\t// in\n    tag_148:\n        /* \"#utility.yul\":2883:2939   */\n    tag_147:\n        /* \"#utility.yul\":2957:2986   */\n      tag_149\n        /* \"#utility.yul\":2979:2985   */\n      dup3\n        /* \"#utility.yul\":2957:2986   */\n      tag_69\n      jump\t// in\n    tag_149:\n        /* \"#utility.yul\":2949:2986   */\n      swap1\n      pop\n        /* \"#utility.yul\":3041:3045   */\n      0x20\n        /* \"#utility.yul\":3035:3039   */\n      dup2\n        /* \"#utility.yul\":3031:3046   */\n      add\n        /* \"#utility.yul\":3023:3046   */\n      swap1\n      pop\n        /* \"#utility.yul\":2745:3053   */\n      swap2\n      swap1\n      pop\n      jump\t// out\n        /* \"#utility.yul\":3059:3207   */\n    tag_82:\n        /* \"#utility.yul\":3157:3163   */\n      dup3\n        /* \"#utility.yul\":3152:3155   */\n      dup2\n        /* \"#utility.yul\":3147:3150   */\n      dup4\n        /* \"#utility.yul\":3134:3164   */\n      calldatacopy\n        /* \"#utility.yul\":3198:3199   */\n      0x00\n        /* \"#utility.yul\":3189:3195   */\n      dup4\n        /* \"#utility.yul\":3184:3187   */\n      dup4\n        /* \"#utility.yul\":3180:3196   */\n      add\n        /* \"#utility.yul\":3173:3200   */\n      mstore\n        /* \"#utility.yul\":3059:3207   */\n      pop\n      pop\n      pop\n      jump\t// out\n        /* \"#utility.yul\":3213:3638   */\n    tag_83:\n        /* \"#utility.yul\":3291:3296   */\n      0x00\n        /* \"#utility.yul\":3316:3382   */\n      tag_152\n        /* \"#utility.yul\":3332:3381   */\n      tag_153\n        /* \"#utility.yul\":3374:3380   */\n      dup5\n        /* \"#utility.yul\":3332:3381   */\n      tag_81\n      jump\t// in\n    tag_153:\n        /* \"#utility.yul\":3316:3382   */\n      tag_80\n      jump\t// in\n    tag_152:\n        /* \"#utility.yul\":3307:3382   */\n      swap1\n      pop\n        /* \"#utility.yul\":3405:3411   */\n      dup3\n        /* \"#utility.yul\":3398:3403   */\n      dup2\n        /* \"#utility.yul\":3391:3412   */\n      mstore\n        /* \"#utility.yul\":3443:3447   */\n      0x20\n        /* \"#utility.yul\":3436:3441   */\n      dup2\n        /* \"#utility.yul\":3432:3448   */\n      add\n        /* \"#utility.yul\":3481:3484   */\n      dup5\n        /* \"#utility.yul\":3472:3478   */\n      dup5\n        /* \"#utility.yul\":3467:3470   */\n      dup5\n        /* \"#utility.yul\":3463:3479   */\n      add\n        /* \"#utility.yul\":3460:3485   */\n      gt\n        /* \"#utility.yul\":3457:3569   */\n      iszero\n      tag_154\n      jumpi\n        /* \"#utility.yul\":3488:3567   */\n      tag_155\n      tag_77\n      jump\t// in\n    tag_155:\n        /* \"#utility.yul\":3457:3569   */\n    tag_154:\n        /* \"#utility.yul\":3578:3632   */\n      tag_156\n        /* \"#utility.yul\":3625:3631   */\n      dup5\n        /* \"#utility.yul\":3620:3623   */\n      dup3\n        /* \"#utility.yul\":3615:3618   */\n      dup6\n        /* \"#utility.yul\":3578:3632   */\n      tag_82\n      jump\t// in\n    tag_156:\n        /* \"#utility.yul\":3297:3638   */\n      pop\n        /* \"#utility.yul\":3213:3638   */\n      swap4\n      swap3\n      pop\n      pop\n      pop\n      jump\t// out\n        /* \"#utility.yul\":3658:3998   */\n    tag_84:\n        /* \"#utility.yul\":3714:3719   */\n      0x00\n        /* \"#utility.yul\":3763:3766   */\n      dup3\n        /* \"#utility.yul\":3756:3760   */\n      0x1f\n        /* \"#utility.yul\":3748:3754   */\n      dup4\n        /* \"#utility.yul\":3744:3761   */\n      add\n        /* \"#utility.yul\":3740:3767   */\n      slt\n        /* \"#utility.yul\":3730:3852   */\n      tag_158\n      jumpi\n        /* \"#utility.yul\":3771:3850   */\n      tag_159\n      tag_76\n      jump\t// in\n    tag_159:\n        /* \"#utility.yul\":3730:3852   */\n    tag_158:\n        /* \"#utility.yul\":3888:3894   */\n      dup2\n        /* \"#utility.yul\":3875:3895   */\n      calldataload\n        /* \"#utility.yul\":3913:3992   */\n      tag_160\n        /* \"#utility.yul\":3988:3991   */\n      dup5\n        /* \"#utility.yul\":3980:3986   */\n      dup3\n        /* \"#utility.yul\":3973:3977   */\n      0x20\n        /* \"#utility.yul\":3965:3971   */\n      dup7\n        /* \"#utility.yul\":3961:3978   */\n      add\n        /* \"#utility.yul\":3913:3992   */\n      tag_83\n      jump\t// in\n    tag_160:\n        /* \"#utility.yul\":3904:3992   */\n      swap2\n      pop\n        /* \"#utility.yul\":3720:3998   */\n      pop\n        /* \"#utility.yul\":3658:3998   */\n      swap3\n      swap2\n      pop\n      pop\n      jump\t// out\n        /* \"#utility.yul\":4004:4124   */\n    tag_85:\n        /* \"#utility.yul\":4076:4099   */\n      tag_162\n        /* \"#utility.yul\":4093:4098   */\n      dup2\n        /* \"#utility.yul\":4076:4099   */\n      tag_71\n      jump\t// in\n    tag_162:\n        /* \"#utility.yul\":4069:4074   */\n      dup2\n        /* \"#utility.yul\":4066:4100   */\n      eq\n        /* \"#utility.yul\":4056:4118   */\n      tag_163\n      jumpi\n        /* \"#utility.yul\":4114:4115   */\n      0x00\n        /* \"#utility.yul\":4111:4112   */\n      dup1\n        /* \"#utility.yul\":4104:4116   */\n      revert\n        /* \"#utility.yul\":4056:4118   */\n    tag_163:\n        /* \"#utility.yul\":4004:4124   */\n      pop\n      jump\t// out\n        /* \"#utility.yul\":4130:4267   */\n    tag_86:\n        /* \"#utility.yul\":4175:4180   */\n      0x00\n        /* \"#utility.yul\":4213:4219   */\n      dup2\n        /* \"#utility.yul\":4200:4220   */\n      calldataload\n        /* \"#utility.yul\":4191:4220   */\n      swap1\n      pop\n        /* \"#utility.yul\":4229:4261   */\n      tag_165\n        /* \"#utility.yul\":4255:4260   */\n      dup2\n        /* \"#utility.yul\":4229:4261   */\n      tag_85\n      jump\t// in\n    tag_165:\n        /* \"#utility.yul\":4130:4267   */\n      swap3\n      swap2\n      pop\n      pop\n      jump\t// out\n        /* \"#utility.yul\":4273:4925   */\n    tag_17:\n        /* \"#utility.yul\":4350:4356   */\n      0x00\n        /* \"#utility.yul\":4358:4364   */\n      dup1\n        /* \"#utility.yul\":4407:4409   */\n      0x40\n        /* \"#utility.yul\":4395:4404   */\n      dup4\n        /* \"#utility.yul\":4386:4393   */\n      dup6\n        /* \"#utility.yul\":4382:4405   */\n      sub\n        /* \"#utility.yul\":4378:4410   */\n      slt\n        /* \"#utility.yul\":4375:4494   */\n      iszero\n      tag_167\n      jumpi\n        /* \"#utility.yul\":4413:4492   */\n      tag_168\n      tag_74\n      jump\t// in\n    tag_168:\n        /* \"#utility.yul\":4375:4494   */\n    tag_167:\n        /* \"#utility.yul\":4561:4562   */\n      0x00\n        /* \"#utility.yul\":4550:4559   */\n      dup4\n        /* \"#utility.yul\":4546:4563   */\n      add\n        /* \"#utility.yul\":4533:4564   */\n      calldataload\n        /* \"#utility.yul\":4591:4609   */\n      0xffffffffffffffff\n        /* \"#utility.yul\":4583:4589   */\n      dup2\n        /* \"#utility.yul\":4580:4610   */\n      gt\n        /* \"#utility.yul\":4577:4694   */\n      iszero\n      tag_169\n      jumpi\n        /* \"#utility.yul\":4613:4692   */\n      tag_170\n      tag_75\n      jump\t// in\n    tag_170:\n        /* \"#utility.yul\":4577:4694   */\n    tag_169:\n        /* \"#utility.yul\":4718:4781   */\n      tag_171\n        /* \"#utility.yul\":4773:4780   */\n      dup6\n        /* \"#utility.yul\":4764:4770   */\n      dup3\n        /* \"#utility.yul\":4753:4762   */\n      dup7\n        /* \"#utility.yul\":4749:4771   */\n      add\n        /* \"#utility.yul\":4718:4781   */\n      tag_84\n      jump\t// in\n    tag_171:\n        /* \"#utility.yul\":4708:4781   */\n      swap3\n      pop\n        /* \"#utility.yul\":4504:4791   */\n      pop\n        /* \"#utility.yul\":4830:4832   */\n      0x20\n        /* \"#utility.yul\":4856:4908   */\n      tag_172\n        /* \"#utility.yul\":4900:4907   */\n      dup6\n        /* \"#utility.yul\":4891:4897   */\n      dup3\n        /* \"#utility.yul\":4880:4889   */\n      dup7\n        /* \"#utility.yul\":4876:4898   */\n      add\n        /* \"#utility.yul\":4856:4908   */\n      tag_86\n      jump\t// in\n    tag_172:\n        /* \"#utility.yul\":4846:4908   */\n      swap2\n      pop\n        /* \"#utility.yul\":4801:4918   */\n      pop\n        /* \"#utility.yul\":4273:4925   */\n      swap3\n      pop\n      swap3\n      swap1\n      pop\n      jump\t// out\n        /* \"#utility.yul\":4931:5008   */\n    tag_87:\n        /* \"#utility.yul\":4968:4975   */\n      0x00\n        /* \"#utility.yul\":4997:5002   */\n      dup2\n        /* \"#utility.yul\":4986:5002   */\n      swap1\n      pop\n        /* \"#utility.yul\":4931:5008   */\n      swap2\n      swap1\n      pop\n      jump\t// out\n        /* \"#utility.yul\":5014:5136   */\n    tag_88:\n        /* \"#utility.yul\":5087:5111   */\n      tag_175\n        /* \"#utility.yul\":5105:5110   */\n      dup2\n        /* \"#utility.yul\":5087:5111   */\n      tag_87\n      jump\t// in\n    tag_175:\n        /* \"#utility.yul\":5080:5085   */\n      dup2\n        /* \"#utility.yul\":5077:5112   */\n      eq\n        /* \"#utility.yul\":5067:5130   */\n      tag_176\n      jumpi\n        /* \"#utility.yul\":5126:5127   */\n      0x00\n        /* \"#utility.yul\":5123:5124   */\n      dup1\n        /* \"#utility.yul\":5116:5128   */\n      revert\n        /* \"#utility.yul\":5067:5130   */\n    tag_176:\n        /* \"#utility.yul\":5014:5136   */\n      pop\n      jump\t// out\n        /* \"#utility.yul\":5142:5281   */\n    tag_89:\n        /* \"#utility.yul\":5188:5193   */\n      0x00\n        /* \"#utility.yul\":5226:5232   */\n      dup2\n        /* \"#utility.yul\":5213:5233   */\n      calldataload\n        /* \"#utility.yul\":5204:5233   */\n      swap1\n      pop\n        /* \"#utility.yul\":5242:5275   */\n      tag_178\n        /* \"#utility.yul\":5269:5274   */\n      dup2\n        /* \"#utility.yul\":5242:5275   */\n      tag_88\n      jump\t// in\n    tag_178:\n        /* \"#utility.yul\":5142:5281   */\n      swap3\n      swap2\n      pop\n      pop\n      jump\t// out\n        /* \"#utility.yul\":5287:5616   */\n    tag_22:\n        /* \"#utility.yul\":5346:5352   */\n      0x00\n        /* \"#utility.yul\":5395:5397   */\n      0x20\n        /* \"#utility.yul\":5383:5392   */\n      dup3\n        /* \"#utility.yul\":5374:5381   */\n      dup5\n        /* \"#utility.yul\":5370:5393   */\n      sub\n        /* \"#utility.yul\":5366:5398   */\n      slt\n        /* \"#utility.yul\":5363:5482   */\n      iszero\n      tag_180\n      jumpi\n        /* \"#utility.yul\":5401:5480   */\n      tag_181\n      tag_74\n      jump\t// in\n    tag_181:\n        /* \"#utility.yul\":5363:5482   */\n    tag_180:\n        /* \"#utility.yul\":5521:5522   */\n      0x00\n        /* \"#utility.yul\":5546:5599   */\n      tag_182\n        /* \"#utility.yul\":5591:5598   */\n      dup5\n        /* \"#utility.yul\":5582:5588   */\n      dup3\n        /* \"#utility.yul\":5571:5580   */\n      dup6\n        /* \"#utility.yul\":5567:5589   */\n      add\n        /* \"#utility.yul\":5546:5599   */\n      tag_89\n      jump\t// in\n    tag_182:\n        /* \"#utility.yul\":5536:5599   */\n      swap2\n      pop\n        /* \"#utility.yul\":5492:5609   */\n      pop\n        /* \"#utility.yul\":5287:5616   */\n      swap3\n      swap2\n      pop\n      pop\n      jump\t// out\n        /* \"#utility.yul\":5622:5740   */\n    tag_90:\n        /* \"#utility.yul\":5709:5733   */\n      tag_184\n        /* \"#utility.yul\":5727:5732   */\n      dup2\n        /* \"#utility.yul\":5709:5733   */\n      tag_87\n      jump\t// in\n    tag_184:\n        /* \"#utility.yul\":5704:5707   */\n      dup3\n        /* \"#utility.yul\":5697:5734   */\n      mstore\n        /* \"#utility.yul\":5622:5740   */\n      pop\n      pop\n      jump\t// out\n        /* \"#utility.yul\":5746:5968   */\n    tag_25:\n        /* \"#utility.yul\":5839:5843   */\n      0x00\n        /* \"#utility.yul\":5877:5879   */\n      0x20\n        /* \"#utility.yul\":5866:5875   */\n      dup3\n        /* \"#utility.yul\":5862:5880   */\n      add\n        /* \"#utility.yul\":5854:5880   */\n      swap1\n      pop\n        /* \"#utility.yul\":5890:5961   */\n      tag_186\n        /* \"#utility.yul\":5958:5959   */\n      0x00\n        /* \"#utility.yul\":5947:5956   */\n      dup4\n        /* \"#utility.yul\":5943:5960   */\n      add\n        /* \"#utility.yul\":5934:5940   */\n      dup5\n        /* \"#utility.yul\":5890:5961   */\n      tag_90\n      jump\t// in\n    tag_186:\n        /* \"#utility.yul\":5746:5968   */\n      swap3\n      swap2\n      pop\n      pop\n      jump\t// out\n        /* \"#utility.yul\":5974:6100   */\n    tag_91:\n        /* \"#utility.yul\":6011:6018   */\n      0x00\n        /* \"#utility.yul\":6051:6093   */\n      0xffffffffffffffffffffffffffffffffffffffff\n        /* \"#utility.yul\":6044:6049   */\n      dup3\n        /* \"#utility.yul\":6040:6094   */\n      and\n        /* \"#utility.yul\":6029:6094   */\n      swap1\n      pop\n        /* \"#utility.yul\":5974:6100   */\n      swap2\n      swap1\n      pop\n      jump\t// out\n        /* \"#utility.yul\":6106:6210   */\n    tag_92:\n        /* \"#utility.yul\":6151:6158   */\n      0x00\n        /* \"#utility.yul\":6180:6204   */\n      tag_189\n        /* \"#utility.yul\":6198:6203   */\n      dup3\n        /* \"#utility.yul\":6180:6204   */\n      tag_91\n      jump\t// in\n    tag_189:\n        /* \"#utility.yul\":6169:6204   */\n      swap1\n      pop\n        /* \"#utility.yul\":6106:6210   */\n      swap2\n      swap1\n      pop\n      jump\t// out\n        /* \"#utility.yul\":6216:6358   */\n    tag_93:\n        /* \"#utility.yul\":6319:6351   */\n      tag_191\n        /* \"#utility.yul\":6345:6350   */\n      dup2\n        /* \"#utility.yul\":6319:6351   */\n      tag_92\n      jump\t// in\n    tag_191:\n        /* \"#utility.yul\":6314:6317   */\n      dup3\n        /* \"#utility.yul\":6307:6352   */\n      mstore\n        /* \"#utility.yul\":6216:6358   */\n      pop\n      pop\n      jump\t// out\n        /* \"#utility.yul\":6364:6460   */\n    tag_94:\n        /* \"#utility.yul\":6401:6408   */\n      0x00\n        /* \"#utility.yul\":6430:6454   */\n      tag_193\n        /* \"#utility.yul\":6448:6453   */\n      dup3\n        /* \"#utility.yul\":6430:6454   */\n      tag_91\n      jump\t// in\n    tag_193:\n        /* \"#utility.yul\":6419:6454   */\n      swap1\n      pop\n        /* \"#utility.yul\":6364:6460   */\n      swap2\n      swap1\n      pop\n      jump\t// out\n        /* \"#utility.yul\":6466:6584   */\n    tag_95:\n        /* \"#utility.yul\":6553:6577   */\n      tag_195\n        /* \"#utility.yul\":6571:6576   */\n      dup2\n        /* \"#utility.yul\":6553:6577   */\n      tag_94\n      jump\t// in\n    tag_195:\n        /* \"#utility.yul\":6548:6551   */\n      dup3\n        /* \"#utility.yul\":6541:6578   */\n      mstore\n        /* \"#utility.yul\":6466:6584   */\n      pop\n      pop\n      jump\t// out\n        /* \"#utility.yul\":6590:6680   */\n    tag_96:\n        /* \"#utility.yul\":6624:6631   */\n      0x00\n        /* \"#utility.yul\":6667:6672   */\n      dup2\n        /* \"#utility.yul\":6660:6673   */\n      iszero\n        /* \"#utility.yul\":6653:6674   */\n      iszero\n        /* \"#utility.yul\":6642:6674   */\n      swap1\n      pop\n        /* \"#utility.yul\":6590:6680   */\n      swap2\n      swap1\n      pop\n      jump\t// out\n        /* \"#utility.yul\":6686:6795   */\n    tag_97:\n        /* \"#utility.yul\":6767:6788   */\n      tag_198\n        /* \"#utility.yul\":6782:6787   */\n      dup2\n        /* \"#utility.yul\":6767:6788   */\n      tag_96\n      jump\t// in\n    tag_198:\n        /* \"#utility.yul\":6762:6765   */\n      dup3\n        /* \"#utility.yul\":6755:6789   */\n      mstore\n        /* \"#utility.yul\":6686:6795   */\n      pop\n      pop\n      jump\t// out\n        /* \"#utility.yul\":6801:7572   */\n    tag_30:\n        /* \"#utility.yul\":7034:7038   */\n      0x00\n        /* \"#utility.yul\":7072:7075   */\n      0xa0\n        /* \"#utility.yul\":7061:7070   */\n      dup3\n        /* \"#utility.yul\":7057:7076   */\n      add\n        /* \"#utility.yul\":7049:7076   */\n      swap1\n      pop\n        /* \"#utility.yul\":7122:7131   */\n      dup2\n        /* \"#utility.yul\":7116:7120   */\n      dup2\n        /* \"#utility.yul\":7112:7132   */\n      sub\n        /* \"#utility.yul\":7108:7109   */\n      0x00\n        /* \"#utility.yul\":7097:7106   */\n      dup4\n        /* \"#utility.yul\":7093:7110   */\n      add\n        /* \"#utility.yul\":7086:7133   */\n      mstore\n        /* \"#utility.yul\":7150:7228   */\n      tag_200\n        /* \"#utility.yul\":7223:7227   */\n      dup2\n        /* \"#utility.yul\":7214:7220   */\n      dup9\n        /* \"#utility.yul\":7150:7228   */\n      tag_70\n      jump\t// in\n    tag_200:\n        /* \"#utility.yul\":7142:7228   */\n      swap1\n      pop\n        /* \"#utility.yul\":7238:7308   */\n      tag_201\n        /* \"#utility.yul\":7304:7306   */\n      0x20\n        /* \"#utility.yul\":7293:7302   */\n      dup4\n        /* \"#utility.yul\":7289:7307   */\n      add\n        /* \"#utility.yul\":7280:7286   */\n      dup8\n        /* \"#utility.yul\":7238:7308   */\n      tag_72\n      jump\t// in\n    tag_201:\n        /* \"#utility.yul\":7318:7406   */\n      tag_202\n        /* \"#utility.yul\":7402:7404   */\n      0x40\n        /* \"#utility.yul\":7391:7400   */\n      dup4\n        /* \"#utility.yul\":7387:7405   */\n      add\n        /* \"#utility.yul\":7378:7384   */\n      dup7\n        /* \"#utility.yul\":7318:7406   */\n      tag_93\n      jump\t// in\n    tag_202:\n        /* \"#utility.yul\":7416:7488   */\n      tag_203\n        /* \"#utility.yul\":7484:7486   */\n      0x60\n        /* \"#utility.yul\":7473:7482   */\n      dup4\n        /* \"#utility.yul\":7469:7487   */\n      add\n        /* \"#utility.yul\":7460:7466   */\n      dup6\n        /* \"#utility.yul\":7416:7488   */\n      tag_95\n      jump\t// in\n    tag_203:\n        /* \"#utility.yul\":7498:7565   */\n      tag_204\n        /* \"#utility.yul\":7560:7563   */\n      0x80\n        /* \"#utility.yul\":7549:7558   */\n      dup4\n        /* \"#utility.yul\":7545:7564   */\n      add\n        /* \"#utility.yul\":7536:7542   */\n      dup5\n        /* \"#utility.yul\":7498:7565   */\n      tag_97\n      jump\t// in\n    tag_204:\n        /* \"#utility.yul\":6801:7572   */\n      swap7\n      swap6\n      pop\n      pop\n      pop\n      pop\n      pop\n      pop\n      jump\t// out\n        /* \"#utility.yul\":7578:7758   */\n    tag_98:\n        /* \"#utility.yul\":7626:7703   */\n      0x4e487b7100000000000000000000000000000000000000000000000000000000\n        /* \"#utility.yul\":7623:7624   */\n      0x00\n        /* \"#utility.yul\":7616:7704   */\n      mstore\n        /* \"#utility.yul\":7723:7727   */\n      0x11\n        /* \"#utility.yul\":7720:7721   */\n      0x04\n        /* \"#utility.yul\":7713:7728   */\n      mstore\n        /* \"#utility.yul\":7747:7751   */\n      0x24\n        /* \"#utility.yul\":7744:7745   */\n      0x00\n        /* \"#utility.yul\":7737:7752   */\n      revert\n        /* \"#utility.yul\":7764:7958   */\n    tag_36:\n        /* \"#utility.yul\":7804:7808   */\n      0x00\n        /* \"#utility.yul\":7824:7844   */\n      tag_207\n        /* \"#utility.yul\":7842:7843   */\n      dup3\n        /* \"#utility.yul\":7824:7844   */\n      tag_87\n      jump\t// in\n    tag_207:\n        /* \"#utility.yul\":7819:7844   */\n      swap2\n      pop\n        /* \"#utility.yul\":7858:7878   */\n      tag_208\n        /* \"#utility.yul\":7876:7877   */\n      dup4\n        /* \"#utility.yul\":7858:7878   */\n      tag_87\n      jump\t// in\n    tag_208:\n        /* \"#utility.yul\":7853:7878   */\n      swap3\n      pop\n        /* \"#utility.yul\":7902:7903   */\n      dup3\n        /* \"#utility.yul\":7899:7900   */\n      dup3\n        /* \"#utility.yul\":7895:7904   */\n      sub\n        /* \"#utility.yul\":7887:7904   */\n      swap1\n      pop\n        /* \"#utility.yul\":7926:7927   */\n      dup2\n        /* \"#utility.yul\":7920:7924   */\n      dup2\n        /* \"#utility.yul\":7917:7928   */\n      gt\n        /* \"#utility.yul\":7914:7951   */\n      iszero\n      tag_209\n      jumpi\n        /* \"#utility.yul\":7931:7949   */\n      tag_210\n      tag_98\n      jump\t// in\n    tag_210:\n        /* \"#utility.yul\":7914:7951   */\n    tag_209:\n        /* \"#utility.yul\":7764:7958   */\n      swap3\n      swap2\n      pop\n      pop\n      jump\t// out\n        /* \"#utility.yul\":7964:8186   */\n    tag_99:\n        /* \"#utility.yul\":8104:8138   */\n      0x496e73756666696369656e742066756e6473202e616d6f756e7420726566756e\n        /* \"#utility.yul\":8100:8101   */\n      0x00\n        /* \"#utility.yul\":8092:8098   */\n      dup3\n        /* \"#utility.yul\":8088:8102   */\n      add\n        /* \"#utility.yul\":8081:8139   */\n      mstore\n        /* \"#utility.yul\":8173:8178   */\n      0x6465640000000000000000000000000000000000000000000000000000000000\n        /* \"#utility.yul\":8168:8170   */\n      0x20\n        /* \"#utility.yul\":8160:8166   */\n      dup3\n        /* \"#utility.yul\":8156:8171   */\n      add\n        /* \"#utility.yul\":8149:8179   */\n      mstore\n        /* \"#utility.yul\":7964:8186   */\n      pop\n      jump\t// out\n        /* \"#utility.yul\":8192:8558   */\n    tag_100:\n        /* \"#utility.yul\":8334:8337   */\n      0x00\n        /* \"#utility.yul\":8355:8422   */\n      tag_213\n        /* \"#utility.yul\":8419:8421   */\n      0x23\n        /* \"#utility.yul\":8414:8417   */\n      dup4\n        /* \"#utility.yul\":8355:8422   */\n      tag_67\n      jump\t// in\n    tag_213:\n        /* \"#utility.yul\":8348:8422   */\n      swap2\n      pop\n        /* \"#utility.yul\":8431:8524   */\n      tag_214\n        /* \"#utility.yul\":8520:8523   */\n      dup3\n        /* \"#utility.yul\":8431:8524   */\n      tag_99\n      jump\t// in\n    tag_214:\n        /* \"#utility.yul\":8549:8551   */\n      0x40\n        /* \"#utility.yul\":8544:8547   */\n      dup3\n        /* \"#utility.yul\":8540:8552   */\n      add\n        /* \"#utility.yul\":8533:8552   */\n      swap1\n      pop\n        /* \"#utility.yul\":8192:8558   */\n      swap2\n      swap1\n      pop\n      jump\t// out\n        /* \"#utility.yul\":8564:8983   */\n    tag_47:\n        /* \"#utility.yul\":8730:8734   */\n      0x00\n        /* \"#utility.yul\":8768:8770   */\n      0x20\n        /* \"#utility.yul\":8757:8766   */\n      dup3\n        /* \"#utility.yul\":8753:8771   */\n      add\n        /* \"#utility.yul\":8745:8771   */\n      swap1\n      pop\n        /* \"#utility.yul\":8817:8826   */\n      dup2\n        /* \"#utility.yul\":8811:8815   */\n      dup2\n        /* \"#utility.yul\":8807:8827   */\n      sub\n        /* \"#utility.yul\":8803:8804   */\n      0x00\n        /* \"#utility.yul\":8792:8801   */\n      dup4\n        /* \"#utility.yul\":8788:8805   */\n      add\n        /* \"#utility.yul\":8781:8828   */\n      mstore\n        /* \"#utility.yul\":8845:8976   */\n      tag_216\n        /* \"#utility.yul\":8971:8975   */\n      dup2\n        /* \"#utility.yul\":8845:8976   */\n      tag_100\n      jump\t// in\n    tag_216:\n        /* \"#utility.yul\":8837:8976   */\n      swap1\n      pop\n        /* \"#utility.yul\":8564:8983   */\n      swap2\n      swap1\n      pop\n      jump\t// out\n        /* \"#utility.yul\":8989:9169   */\n    tag_101:\n        /* \"#utility.yul\":9037:9114   */\n      0x4e487b7100000000000000000000000000000000000000000000000000000000\n        /* \"#utility.yul\":9034:9035   */\n      0x00\n        /* \"#utility.yul\":9027:9115   */\n      mstore\n        /* \"#utility.yul\":9134:9138   */\n      0x22\n        /* \"#utility.yul\":9131:9132   */\n      0x04\n        /* \"#utility.yul\":9124:9139   */\n      mstore\n        /* \"#utility.yul\":9158:9162   */\n      0x24\n        /* \"#utility.yul\":9155:9156   */\n      0x00\n        /* \"#utility.yul\":9148:9163   */\n      revert\n        /* \"#utility.yul\":9175:9495   */\n    tag_50:\n        /* \"#utility.yul\":9219:9225   */\n      0x00\n        /* \"#utility.yul\":9256:9257   */\n      0x02\n        /* \"#utility.yul\":9250:9254   */\n      dup3\n        /* \"#utility.yul\":9246:9258   */\n      div\n        /* \"#utility.yul\":9236:9258   */\n      swap1\n      pop\n        /* \"#utility.yul\":9303:9304   */\n      0x01\n        /* \"#utility.yul\":9297:9301   */\n      dup3\n        /* \"#utility.yul\":9293:9305   */\n      and\n        /* \"#utility.yul\":9324:9342   */\n      dup1\n        /* \"#utility.yul\":9314:9395   */\n      tag_219\n      jumpi\n        /* \"#utility.yul\":9380:9384   */\n      0x7f\n        /* \"#utility.yul\":9372:9378   */\n      dup3\n        /* \"#utility.yul\":9368:9385   */\n      and\n        /* \"#utility.yul\":9358:9385   */\n      swap2\n      pop\n        /* \"#utility.yul\":9314:9395   */\n    tag_219:\n        /* \"#utility.yul\":9442:9444   */\n      0x20\n        /* \"#utility.yul\":9434:9440   */\n      dup3\n        /* \"#utility.yul\":9431:9445   */\n      lt\n        /* \"#utility.yul\":9411:9429   */\n      dup2\n        /* \"#utility.yul\":9408:9446   */\n      sub\n        /* \"#utility.yul\":9405:9489   */\n      tag_220\n      jumpi\n        /* \"#utility.yul\":9461:9479   */\n      tag_221\n      tag_101\n      jump\t// in\n    tag_221:\n        /* \"#utility.yul\":9405:9489   */\n    tag_220:\n        /* \"#utility.yul\":9226:9495   */\n      pop\n        /* \"#utility.yul\":9175:9495   */\n      swap2\n      swap1\n      pop\n      jump\t// out\n        /* \"#utility.yul\":9501:9642   */\n    tag_102:\n        /* \"#utility.yul\":9550:9554   */\n      0x00\n        /* \"#utility.yul\":9573:9576   */\n      dup2\n        /* \"#utility.yul\":9565:9576   */\n      swap1\n      pop\n        /* \"#utility.yul\":9596:9599   */\n      dup2\n        /* \"#utility.yul\":9593:9594   */\n      0x00\n        /* \"#utility.yul\":9586:9600   */\n      mstore\n        /* \"#utility.yul\":9630:9634   */\n      0x20\n        /* \"#utility.yul\":9627:9628   */\n      0x00\n        /* \"#utility.yul\":9617:9635   */\n      keccak256\n        /* \"#utility.yul\":9609:9635   */\n      swap1\n      pop\n        /* \"#utility.yul\":9501:9642   */\n      swap2\n      swap1\n      pop\n      jump\t// out\n        /* \"#utility.yul\":9648:9741   */\n    tag_103:\n        /* \"#utility.yul\":9685:9691   */\n      0x00\n        /* \"#utility.yul\":9732:9734   */\n      0x20\n        /* \"#utility.yul\":9727:9729   */\n      0x1f\n        /* \"#utility.yul\":9720:9725   */\n      dup4\n        /* \"#utility.yul\":9716:9730   */\n      add\n        /* \"#utility.yul\":9712:9735   */\n      div\n        /* \"#utility.yul\":9702:9735   */\n      swap1\n      pop\n        /* \"#utility.yul\":9648:9741   */\n      swap2\n      swap1\n      pop\n      jump\t// out\n        /* \"#utility.yul\":9747:9854   */\n    tag_104:\n        /* \"#utility.yul\":9791:9799   */\n      0x00\n        /* \"#utility.yul\":9841:9846   */\n      dup3\n        /* \"#utility.yul\":9835:9839   */\n      dup3\n        /* \"#utility.yul\":9831:9847   */\n      shl\n        /* \"#utility.yul\":9810:9847   */\n      swap1\n      pop\n        /* \"#utility.yul\":9747:9854   */\n      swap3\n      swap2\n      pop\n      pop\n      jump\t// out\n        /* \"#utility.yul\":9860:10253   */\n    tag_105:\n        /* \"#utility.yul\":9929:9935   */\n      0x00\n        /* \"#utility.yul\":9979:9980   */\n      0x08\n        /* \"#utility.yul\":9967:9977   */\n      dup4\n        /* \"#utility.yul\":9963:9981   */\n      mul\n        /* \"#utility.yul\":10002:10099   */\n      tag_226\n        /* \"#utility.yul\":10032:10098   */\n      0xffffffffffffffffffffffffffffffffffffffffffffffffffffffffffffffff\n        /* \"#utility.yul\":10021:10030   */\n      dup3\n        /* \"#utility.yul\":10002:10099   */\n      tag_104\n      jump\t// in\n    tag_226:\n        /* \"#utility.yul\":10120:10159   */\n      tag_227\n        /* \"#utility.yul\":10150:10158   */\n      dup7\n        /* \"#utility.yul\":10139:10148   */\n      dup4\n        /* \"#utility.yul\":10120:10159   */\n      tag_104\n      jump\t// in\n    tag_227:\n        /* \"#utility.yul\":10108:10159   */\n      swap6\n      pop\n        /* \"#utility.yul\":10192:10196   */\n      dup1\n        /* \"#utility.yul\":10188:10197   */\n      not\n        /* \"#utility.yul\":10181:10186   */\n      dup5\n        /* \"#utility.yul\":10177:10198   */\n      and\n        /* \"#utility.yul\":10168:10198   */\n      swap4\n      pop\n        /* \"#utility.yul\":10241:10245   */\n      dup1\n        /* \"#utility.yul\":10231:10239   */\n      dup7\n        /* \"#utility.yul\":10227:10246   */\n      and\n        /* \"#utility.yul\":10220:10225   */\n      dup5\n        /* \"#utility.yul\":10217:10247   */\n      or\n        /* \"#utility.yul\":10207:10247   */\n      swap3\n      pop\n        /* \"#utility.yul\":9936:10253   */\n      pop\n      pop\n        /* \"#utility.yul\":9860:10253   */\n      swap4\n      swap3\n      pop\n      pop\n      pop\n      jump\t// out\n        /* \"#utility.yul\":10259:10319   */\n    tag_106:\n        /* \"#utility.yul\":10287:10290   */\n      0x00\n        /* \"#utility.yul\":10308:10313   */\n      dup2\n        /* \"#utility.yul\":10301:10313   */\n      swap1\n      pop\n        /* \"#utility.yul\":10259:10319   */\n      swap2\n      swap1\n      pop\n      jump\t// out\n        /* \"#utility.yul\":10325:10467   */\n    tag_107:\n        /* \"#utility.yul\":10375:10384   */\n      0x00\n        /* \"#utility.yul\":10408:10461   */\n      tag_230\n        /* \"#utility.yul\":10426:10460   */\n      tag_231\n        /* \"#utility.yul\":10435:10459   */\n      tag_232\n        /* \"#utility.yul\":10453:10458   */\n      dup5\n        /* \"#utility.yul\":10435:10459   */\n      tag_87\n      jump\t// in\n    tag_232:\n        /* \"#utility.yul\":10426:10460   */\n      tag_106\n      jump\t// in\n    tag_231:\n        /* \"#utility.yul\":10408:10461   */\n      tag_87\n      jump\t// in\n    tag_230:\n        /* \"#utility.yul\":10395:10461   */\n      swap1\n      pop\n        /* \"#utility.yul\":10325:10467   */\n      swap2\n      swap1\n      pop\n      jump\t// out\n        /* \"#utility.yul\":10473:10548   */\n    tag_108:\n        /* \"#utility.yul\":10516:10519   */\n      0x00\n        /* \"#utility.yul\":10537:10542   */\n      dup2\n        /* \"#utility.yul\":10530:10542   */\n      swap1\n      pop\n        /* \"#utility.yul\":10473:10548   */\n      swap2\n      swap1\n      pop\n      jump\t// out\n        /* \"#utility.yul\":10554:10823   */\n    tag_109:\n        /* \"#utility.yul\":10664:10703   */\n      tag_235\n        /* \"#utility.yul\":10695:10702   */\n      dup4\n        /* \"#utility.yul\":10664:10703   */\n      tag_107\n      jump\t// in\n    tag_235:\n        /* \"#utility.yul\":10725:10816   */\n      tag_236\n        /* \"#utility.yul\":10774:10815   */\n      tag_237\n        /* \"#utility.yul\":10798:10814   */\n      dup3\n        /* \"#utility.yul\":10774:10815   */\n      tag_108\n      jump\t// in\n    tag_237:\n        /* \"#utility.yul\":10766:10772   */\n      dup5\n        /* \"#utility.yul\":10759:10763   */\n      dup5\n        /* \"#utility.yul\":10753:10764   */\n      sload\n        /* \"#utility.yul\":10725:10816   */\n      tag_105\n      jump\t// in\n    tag_236:\n        /* \"#utility.yul\":10719:10723   */\n      dup3\n        /* \"#utility.yul\":10712:10817   */\n      sstore\n        /* \"#utility.yul\":10630:10823   */\n      pop\n        /* \"#utility.yul\":10554:10823   */\n      pop\n      pop\n      pop\n      jump\t// out\n        /* \"#utility.yul\":10829:10902   */\n    tag_110:\n        /* \"#utility.yul\":10874:10877   */\n      0x00\n        /* \"#utility.yul\":10829:10902   */\n      swap1\n      jump\t// out\n        /* \"#utility.yul\":10908:11097   */\n    tag_111:\n        /* \"#utility.yul\":10985:11017   */\n      tag_240\n      tag_110\n      jump\t// in\n    tag_240:\n        /* \"#utility.yul\":11026:11091   */\n      tag_241\n        /* \"#utility.yul\":11084:11090   */\n      dup2\n        /* \"#utility.yul\":11076:11082   */\n      dup5\n        /* \"#utility.yul\":11070:11074   */\n      dup5\n        /* \"#utility.yul\":11026:11091   */\n      tag_109\n      jump\t// in\n    tag_241:\n        /* \"#utility.yul\":10961:11097   */\n      pop\n        /* \"#utility.yul\":10908:11097   */\n      pop\n      pop\n      jump\t// out\n        /* \"#utility.yul\":11103:11289   */\n    tag_112:\n        /* \"#utility.yul\":11163:11283   */\n    tag_243:\n        /* \"#utility.yul\":11180:11183   */\n      dup2\n        /* \"#utility.yul\":11173:11178   */\n      dup2\n        /* \"#utility.yul\":11170:11184   */\n      lt\n        /* \"#utility.yul\":11163:11283   */\n      iszero\n      tag_245\n      jumpi\n        /* \"#utility.yul\":11234:11273   */\n      tag_246\n        /* \"#utility.yul\":11271:11272   */\n      0x00\n        /* \"#utility.yul\":11264:11269   */\n      dup3\n        /* \"#utility.yul\":11234:11273   */\n      tag_111\n      jump\t// in\n    tag_246:\n        /* \"#utility.yul\":11207:11208   */\n      0x01\n        /* \"#utility.yul\":11200:11205   */\n      dup2\n        /* \"#utility.yul\":11196:11209   */\n      add\n        /* \"#utility.yul\":11187:11209   */\n      swap1\n      pop\n        /* \"#utility.yul\":11163:11283   */\n      jump(tag_243)\n    tag_245:\n        /* \"#utility.yul\":11103:11289   */\n      pop\n      pop\n      jump\t// out\n        /* \"#utility.yul\":11295:11838   */\n    tag_113:\n        /* \"#utility.yul\":11396:11398   */\n      0x1f\n        /* \"#utility.yul\":11391:11394   */\n      dup3\n        /* \"#utility.yul\":11388:11399   */\n      gt\n        /* \"#utility.yul\":11385:11831   */\n      iszero\n      tag_248\n      jumpi\n        /* \"#utility.yul\":11430:11468   */\n      tag_249\n        /* \"#utility.yul\":11462:11467   */\n      dup2\n        /* \"#utility.yul\":11430:11468   */\n      tag_102\n      jump\t// in\n    tag_249:\n        /* \"#utility.yul\":11514:11543   */\n      tag_250\n        /* \"#utility.yul\":11532:11542   */\n      dup5\n        /* \"#utility.yul\":11514:11543   */\n      tag_103\n      jump\t// in\n    tag_250:\n        /* \"#utility.yul\":11504:11512   */\n      dup2\n        /* \"#utility.yul\":11500:11544   */\n      add\n        /* \"#utility.yul\":11697:11699   */\n      0x20\n        /* \"#utility.yul\":11685:11695   */\n      dup6\n        /* \"#utility.yul\":11682:11700   */\n      lt\n        /* \"#utility.yul\":11679:11728   */\n      iszero\n      tag_251\n      jumpi\n        /* \"#utility.yul\":11718:11726   */\n      dup2\n        /* \"#utility.yul\":11703:11726   */\n      swap1\n      pop\n        /* \"#utility.yul\":11679:11728   */\n    tag_251:\n        /* \"#utility.yul\":11741:11821   */\n      tag_252\n        /* \"#utility.yul\":11797:11819   */\n      tag_253\n        /* \"#utility.yul\":11815:11818   */\n      dup6\n        /* \"#utility.yul\":11797:11819   */\n      tag_103\n      jump\t// in\n    tag_253:\n        /* \"#utility.yul\":11787:11795   */\n      dup4\n        /* \"#utility.yul\":11783:11820   */\n      add\n        /* \"#utility.yul\":11770:11781   */\n      dup3\n        /* \"#utility.yul\":11741:11821   */\n      tag_112\n      jump\t// in\n    tag_252:\n        /* \"#utility.yul\":11400:11831   */\n      pop\n      pop\n        /* \"#utility.yul\":11385:11831   */\n    tag_248:\n        /* \"#utility.yul\":11295:11838   */\n      pop\n      pop\n      pop\n      jump\t// out\n        /* \"#utility.yul\":11844:11961   */\n    tag_114:\n        /* \"#utility.yul\":11898:11906   */\n      0x00\n        /* \"#utility.yul\":11948:11953   */\n      dup3\n        /* \"#utility.yul\":11942:11946   */\n      dup3\n        /* \"#utility.yul\":11938:11954   */\n      shr\n        /* \"#utility.yul\":11917:11954   */\n      swap1\n      pop\n        /* \"#utility.yul\":11844:11961   */\n      swap3\n      swap2\n      pop\n      pop\n      jump\t// out\n        /* \"#utility.yul\":11967:12136   */\n    tag_115:\n        /* \"#utility.yul\":12011:12017   */\n      0x00\n        /* \"#utility.yul\":12044:12095   */\n      tag_256\n        /* \"#utility.yul\":12092:12093   */\n      0x00\n        /* \"#utility.yul\":12088:12094   */\n      not\n        /* \"#utility.yul\":12080:12085   */\n      dup5\n        /* \"#utility.yul\":12077:12078   */\n      0x08\n        /* \"#utility.yul\":12073:12086   */\n      mul\n        /* \"#utility.yul\":12044:12095   */\n      tag_114\n      jump\t// in\n    tag_256:\n        /* \"#utility.yul\":12040:12096   */\n      not\n        /* \"#utility.yul\":12125:12129   */\n      dup1\n        /* \"#utility.yul\":12119:12123   */\n      dup4\n        /* \"#utility.yul\":12115:12130   */\n      and\n        /* \"#utility.yul\":12105:12130   */\n      swap2\n      pop\n        /* \"#utility.yul\":12018:12136   */\n      pop\n        /* \"#utility.yul\":11967:12136   */\n      swap3\n      swap2\n      pop\n      pop\n      jump\t// out\n        /* \"#utility.yul\":12141:12436   */\n    tag_116:\n        /* \"#utility.yul\":12217:12221   */\n      0x00\n        /* \"#utility.yul\":12363:12392   */\n      tag_258\n        /* \"#utility.yul\":12388:12391   */\n      dup4\n        /* \"#utility.yul\":12382:12386   */\n      dup4\n        /* \"#utility.yul\":12363:12392   */\n      tag_115\n      jump\t// in\n    tag_258:\n        /* \"#utility.yul\":12355:12392   */\n      swap2\n      pop\n        /* \"#utility.yul\":12425:12428   */\n      dup3\n        /* \"#utility.yul\":12422:12423   */\n      0x02\n        /* \"#utility.yul\":12418:12429   */\n      mul\n        /* \"#utility.yul\":12412:12416   */\n      dup3\n        /* \"#utility.yul\":12409:12430   */\n      or\n        /* \"#utility.yul\":12401:12430   */\n      swap1\n      pop\n        /* \"#utility.yul\":12141:12436   */\n      swap3\n      swap2\n      pop\n      pop\n      jump\t// out\n        /* \"#utility.yul\":12441:13836   */\n    tag_57:\n        /* \"#utility.yul\":12558:12595   */\n      tag_260\n        /* \"#utility.yul\":12591:12594   */\n      dup3\n        /* \"#utility.yul\":12558:12595   */\n      tag_66\n      jump\t// in\n    tag_260:\n        /* \"#utility.yul\":12660:12678   */\n      0xffffffffffffffff\n        /* \"#utility.yul\":12652:12658   */\n      dup2\n        /* \"#utility.yul\":12649:12679   */\n      gt\n        /* \"#utility.yul\":12646:12702   */\n      iszero\n      tag_261\n      jumpi\n        /* \"#utility.yul\":12682:12700   */\n      tag_262\n      tag_78\n      jump\t// in\n    tag_262:\n        /* \"#utility.yul\":12646:12702   */\n    tag_261:\n        /* \"#utility.yul\":12726:12764   */\n      tag_263\n        /* \"#utility.yul\":12758:12762   */\n      dup3\n        /* \"#utility.yul\":12752:12763   */\n      sload\n        /* \"#utility.yul\":12726:12764   */\n      tag_50\n      jump\t// in\n    tag_263:\n        /* \"#utility.yul\":12811:12878   */\n      tag_264\n        /* \"#utility.yul\":12871:12877   */\n      dup3\n        /* \"#utility.yul\":12863:12869   */\n      dup3\n        /* \"#utility.yul\":12857:12861   */\n      dup6\n        /* \"#utility.yul\":12811:12878   */\n      tag_113\n      jump\t// in\n    tag_264:\n        /* \"#utility.yul\":12905:12906   */\n      0x00\n        /* \"#utility.yul\":12929:12933   */\n      0x20\n        /* \"#utility.yul\":12916:12933   */\n      swap1\n      pop\n        /* \"#utility.yul\":12961:12963   */\n      0x1f\n        /* \"#utility.yul\":12953:12959   */\n      dup4\n        /* \"#utility.yul\":12950:12964   */\n      gt\n        /* \"#utility.yul\":12978:12979   */\n      0x01\n        /* \"#utility.yul\":12973:13591   */\n      dup2\n      eq\n      tag_266\n      jumpi\n        /* \"#utility.yul\":13635:13636   */\n      0x00\n        /* \"#utility.yul\":13652:13658   */\n      dup5\n        /* \"#utility.yul\":13649:13726   */\n      iszero\n      tag_267\n      jumpi\n        /* \"#utility.yul\":13701:13710   */\n      dup3\n        /* \"#utility.yul\":13696:13699   */\n      dup8\n        /* \"#utility.yul\":13692:13711   */\n      add\n        /* \"#utility.yul\":13686:13712   */\n      mload\n        /* \"#utility.yul\":13677:13712   */\n      swap1\n      pop\n        /* \"#utility.yul\":13649:13726   */\n    tag_267:\n        /* \"#utility.yul\":13752:13819   */\n      tag_268\n        /* \"#utility.yul\":13812:13818   */\n      dup6\n        /* \"#utility.yul\":13805:13810   */\n      dup3\n        /* \"#utility.yul\":13752:13819   */\n      tag_116\n      jump\t// in\n    tag_268:\n        /* \"#utility.yul\":13746:13750   */\n      dup7\n        /* \"#utility.yul\":13739:13820   */\n      sstore\n        /* \"#utility.yul\":13608:13830   */\n      pop\n        /* \"#utility.yul\":12943:13830   */\n      jump(tag_265)\n        /* \"#utility.yul\":12973:13591   */\n    tag_266:\n        /* \"#utility.yul\":13025:13029   */\n      0x1f\n        /* \"#utility.yul\":13021:13030   */\n      not\n        /* \"#utility.yul\":13013:13019   */\n      dup5\n        /* \"#utility.yul\":13009:13031   */\n      and\n        /* \"#utility.yul\":13059:13096   */\n      tag_269\n        /* \"#utility.yul\":13091:13095   */\n      dup7\n        /* \"#utility.yul\":13059:13096   */\n      tag_102\n      jump\t// in\n    tag_269:\n        /* \"#utility.yul\":13118:13119   */\n      0x00\n        /* \"#utility.yul\":13132:13340   */\n    tag_270:\n        /* \"#utility.yul\":13146:13153   */\n      dup3\n        /* \"#utility.yul\":13143:13144   */\n      dup2\n        /* \"#utility.yul\":13140:13154   */\n      lt\n        /* \"#utility.yul\":13132:13340   */\n      iszero\n      tag_272\n      jumpi\n        /* \"#utility.yul\":13225:13234   */\n      dup5\n        /* \"#utility.yul\":13220:13223   */\n      dup10\n        /* \"#utility.yul\":13216:13235   */\n      add\n        /* \"#utility.yul\":13210:13236   */\n      mload\n        /* \"#utility.yul\":13202:13208   */\n      dup3\n        /* \"#utility.yul\":13195:13237   */\n      sstore\n        /* \"#utility.yul\":13276:13277   */\n      0x01\n        /* \"#utility.yul\":13268:13274   */\n      dup3\n        /* \"#utility.yul\":13264:13278   */\n      add\n        /* \"#utility.yul\":13254:13278   */\n      swap2\n      pop\n        /* \"#utility.yul\":13323:13325   */\n      0x20\n        /* \"#utility.yul\":13312:13321   */\n      dup6\n        /* \"#utility.yul\":13308:13326   */\n      add\n        /* \"#utility.yul\":13295:13326   */\n      swap5\n      pop\n        /* \"#utility.yul\":13169:13173   */\n      0x20\n        /* \"#utility.yul\":13166:13167   */\n      dup2\n        /* \"#utility.yul\":13162:13174   */\n      add\n        /* \"#utility.yul\":13157:13174   */\n      swap1\n      pop\n        /* \"#utility.yul\":13132:13340   */\n      jump(tag_270)\n    tag_272:\n        /* \"#utility.yul\":13368:13374   */\n      dup7\n        /* \"#utility.yul\":13359:13366   */\n      dup4\n        /* \"#utility.yul\":13356:13375   */\n      lt\n        /* \"#utility.yul\":13353:13532   */\n      iszero\n      tag_273\n      jumpi\n        /* \"#utility.yul\":13426:13435   */\n      dup5\n        /* \"#utility.yul\":13421:13424   */\n      dup10\n        /* \"#utility.yul\":13417:13436   */\n      add\n        /* \"#utility.yul\":13411:13437   */\n      mload\n        /* \"#utility.yul\":13469:13517   */\n      tag_274\n        /* \"#utility.yul\":13511:13515   */\n      0x1f\n        /* \"#utility.yul\":13503:13509   */\n      dup10\n        /* \"#utility.yul\":13499:13516   */\n      and\n        /* \"#utility.yul\":13488:13497   */\n      dup3\n        /* \"#utility.yul\":13469:13517   */\n      tag_115\n      jump\t// in\n    tag_274:\n        /* \"#utility.yul\":13461:13467   */\n      dup4\n        /* \"#utility.yul\":13454:13518   */\n      sstore\n        /* \"#utility.yul\":13376:13532   */\n      pop\n        /* \"#utility.yul\":13353:13532   */\n    tag_273:\n        /* \"#utility.yul\":13578:13579   */\n      0x01\n        /* \"#utility.yul\":13574:13575   */\n      0x02\n        /* \"#utility.yul\":13566:13572   */\n      dup9\n        /* \"#utility.yul\":13562:13576   */\n      mul\n        /* \"#utility.yul\":13558:13580   */\n      add\n        /* \"#utility.yul\":13552:13556   */\n      dup9\n        /* \"#utility.yul\":13545:13581   */\n      sstore\n        /* \"#utility.yul\":12980:13591   */\n      pop\n      pop\n      pop\n        /* \"#utility.yul\":12943:13830   */\n    tag_265:\n      pop\n        /* \"#utility.yul\":12533:13836   */\n      pop\n      pop\n      pop\n        /* \"#utility.yul\":12441:13836   */\n      pop\n      pop\n      jump\t// out\n        /* \"#utility.yul\":13842:14252   */\n    tag_60:\n        /* \"#utility.yul\":13882:13889   */\n      0x00\n        /* \"#utility.yul\":13905:13925   */\n      tag_276\n        /* \"#utility.yul\":13923:13924   */\n      dup3\n        /* \"#utility.yul\":13905:13925   */\n      tag_87\n      jump\t// in\n    tag_276:\n        /* \"#utility.yul\":13900:13925   */\n      swap2\n      pop\n        /* \"#utility.yul\":13939:13959   */\n      tag_277\n        /* \"#utility.yul\":13957:13958   */\n      dup4\n        /* \"#utility.yul\":13939:13959   */\n      tag_87\n      jump\t// in\n    tag_277:\n        /* \"#utility.yul\":13934:13959   */\n      swap3\n      pop\n        /* \"#utility.yul\":13994:13995   */\n      dup3\n        /* \"#utility.yul\":13991:13992   */\n      dup3\n        /* \"#utility.yul\":13987:13996   */\n      mul\n        /* \"#utility.yul\":14016:14046   */\n      tag_278\n        /* \"#utility.yul\":14034:14045   */\n      dup2\n        /* \"#utility.yul\":14016:14046   */\n      tag_87\n      jump\t// in\n    tag_278:\n        /* \"#utility.yul\":14005:14046   */\n      swap2\n      pop\n        /* \"#utility.yul\":14195:14196   */\n      dup3\n        /* \"#utility.yul\":14186:14193   */\n      dup3\n        /* \"#utility.yul\":14182:14197   */\n      div\n        /* \"#utility.yul\":14179:14180   */\n      dup5\n        /* \"#utility.yul\":14176:14198   */\n      eq\n        /* \"#utility.yul\":14156:14157   */\n      dup4\n        /* \"#utility.yul\":14149:14158   */\n      iszero\n        /* \"#utility.yul\":14129:14212   */\n      or\n        /* \"#utility.yul\":14106:14245   */\n      tag_279\n      jumpi\n        /* \"#utility.yul\":14225:14243   */\n      tag_280\n      tag_98\n      jump\t// in\n    tag_280:\n        /* \"#utility.yul\":14106:14245   */\n    tag_279:\n        /* \"#utility.yul\":13890:14252   */\n      pop\n        /* \"#utility.yul\":13842:14252   */\n      swap3\n      swap2\n      pop\n      pop\n      jump\t// out\n\n    auxdata: 0xa26469706673582212201618c6ddd93facc049eb849d9b14f88485e60b7ecd4146a51b6c31aab7c44b9b64736f6c634300081a0033\n}\n",
				"bytecode": {
					"linkReferences": {},
					"object": "6080604052348015600e575f80fd5b50610dda8061001c5f395ff3fe608060405260043610610049575f3560e01c8063189a55e71461004d5780633b0c197e146100575780638646ac8d1461008257806388439bbc146100aa578063aab27ef7146100e6575b5f80fd5b610055610114565b005b348015610062575f80fd5b5061006b610382565b604051610079929190610666565b60405180910390f35b34801561008d575f80fd5b506100a860048036038101906100a391906107fb565b61042c565b005b3480156100b5575f80fd5b506100d060048036038101906100cb9190610888565b6104bd565b6040516100dd91906108c2565b60405180910390f35b3480156100f1575f80fd5b506100fa6104d9565b60405161010b959493929190610954565b60405180910390f35b6101325f6001015f9054906101000a900461ffff1661ffff166104bd565b34106102de575f6101575f6001015f9054906101000a900461ffff1661ffff166104bd565b3461016291906109d9565b90505f60010160029054906101000a900473ffffffffffffffffffffffffffffffffffffffff1673ffffffffffffffffffffffffffffffffffffffff166108fc6101c05f6001015f9054906101000a900461ffff1661ffff166104bd565b90811502906040515f60405180830381858888f193505050501580156101e8573d5f803e3d5ffd5b505f811115610236573373ffffffffffffffffffffffffffffffffffffffff166108fc8290811502906040515f60405180830381858888f19350505050158015610234573d5f803e3d5ffd5b505b335f60010160026101000a81548173ffffffffffffffffffffffffffffffffffffffff021916908373ffffffffffffffffffffffffffffffffffffffff160217905550335f6002015f6101000a81548173ffffffffffffffffffffffffffffffffffffffff021916908373ffffffffffffffffffffffffffffffffffffffff16021790555060015f60020160146101000a81548160ff02191690831515021790555050610380565b5f6002015f9054906101000a900473ffffffffffffffffffffffffffffffffffffffff1673ffffffffffffffffffffffffffffffffffffffff166108fc3490811502906040515f60405180830381858888f19350505050158015610344573d5f803e3d5ffd5b506040517f08c379a000000000000000000000000000000000000000000000000000000000815260040161037790610a7c565b60405180910390fd5b565b60605f805f015f6001015f9054906101000a900461ffff168180546103a690610ac7565b80601f01602080910402602001604051908101604052809291908181526020018280546103d290610ac7565b801561041d5780601f106103f45761010080835404028352916020019161041d565b820191905f5260205f20905b81548152906001019060200180831161040057829003601f168201915b50505050509150915091509091565b815f8001908161043c9190610c94565b50805f6001015f6101000a81548161ffff021916908361ffff160217905550335f6002015f6101000a81548173ffffffffffffffffffffffffffffffffffffffff021916908373ffffffffffffffffffffffffffffffffffffffff1602179055505f8060020160146101000a81548160ff0219169083151502179055505050565b5f670de0b6b3a7640000826104d29190610d63565b9050919050565b5f805f0180546104e890610ac7565b80601f016020809104026020016040519081016040528092919081815260200182805461051490610ac7565b801561055f5780601f106105365761010080835404028352916020019161055f565b820191905f5260205f20905b81548152906001019060200180831161054257829003601f168201915b505050505090806001015f9054906101000a900461ffff16908060010160029054906101000a900473ffffffffffffffffffffffffffffffffffffffff1690806002015f9054906101000a900473ffffffffffffffffffffffffffffffffffffffff16908060020160149054906101000a900460ff16905085565b5f81519050919050565b5f82825260208201905092915050565b8281835e5f83830152505050565b5f601f19601f8301169050919050565b5f61061c826105da565b61062681856105e4565b93506106368185602086016105f4565b61063f81610602565b840191505092915050565b5f61ffff82169050919050565b6106608161064a565b82525050565b5f6040820190508181035f83015261067e8185610612565b905061068d6020830184610657565b9392505050565b5f604051905090565b5f80fd5b5f80fd5b5f80fd5b5f80fd5b7f4e487b71000000000000000000000000000000000000000000000000000000005f52604160045260245ffd5b6106e382610602565b810181811067ffffffffffffffff82111715610702576107016106ad565b5b80604052505050565b5f610714610694565b905061072082826106da565b919050565b5f67ffffffffffffffff82111561073f5761073e6106ad565b5b61074882610602565b9050602081019050919050565b828183375f83830152505050565b5f61077561077084610725565b61070b565b905082815260208101848484011115610791576107906106a9565b5b61079c848285610755565b509392505050565b5f82601f8301126107b8576107b76106a5565b5b81356107c8848260208601610763565b91505092915050565b6107da8161064a565b81146107e4575f80fd5b50565b5f813590506107f5816107d1565b92915050565b5f80604083850312156108115761081061069d565b5b5f83013567ffffffffffffffff81111561082e5761082d6106a1565b5b61083a858286016107a4565b925050602061084b858286016107e7565b9150509250929050565b5f819050919050565b61086781610855565b8114610871575f80fd5b50565b5f813590506108828161085e565b92915050565b5f6020828403121561089d5761089c61069d565b5b5f6108aa84828501610874565b91505092915050565b6108bc81610855565b82525050565b5f6020820190506108d55f8301846108b3565b92915050565b5f73ffffffffffffffffffffffffffffffffffffffff82169050919050565b5f610904826108db565b9050919050565b610914816108fa565b82525050565b5f610924826108db565b9050919050565b6109348161091a565b82525050565b5f8115159050919050565b61094e8161093a565b82525050565b5f60a0820190508181035f83015261096c8188610612565b905061097b6020830187610657565b610988604083018661090b565b610995606083018561092b565b6109a26080830184610945565b9695505050505050565b7f4e487b71000000000000000000000000000000000000000000000000000000005f52601160045260245ffd5b5f6109e382610855565b91506109ee83610855565b9250828203905081811115610a0657610a056109ac565b5b92915050565b7f496e73756666696369656e742066756e6473202e616d6f756e7420726566756e5f8201527f6465640000000000000000000000000000000000000000000000000000000000602082015250565b5f610a666023836105e4565b9150610a7182610a0c565b604082019050919050565b5f6020820190508181035f830152610a9381610a5a565b9050919050565b7f4e487b71000000000000000000000000000000000000000000000000000000005f52602260045260245ffd5b5f6002820490506001821680610ade57607f821691505b602082108103610af157610af0610a9a565b5b50919050565b5f819050815f5260205f209050919050565b5f6020601f8301049050919050565b5f82821b905092915050565b5f60088302610b537fffffffffffffffffffffffffffffffffffffffffffffffffffffffffffffffff82610b18565b610b5d8683610b18565b95508019841693508086168417925050509392505050565b5f819050919050565b5f610b98610b93610b8e84610855565b610b75565b610855565b9050919050565b5f819050919050565b610bb183610b7e565b610bc5610bbd82610b9f565b848454610b24565b825550505050565b5f90565b610bd9610bcd565b610be4818484610ba8565b505050565b5b81811015610c0757610bfc5f82610bd1565b600181019050610bea565b5050565b601f821115610c4c57610c1d81610af7565b610c2684610b09565b81016020851015610c35578190505b610c49610c4185610b09565b830182610be9565b50505b505050565b5f82821c905092915050565b5f610c6c5f1984600802610c51565b1980831691505092915050565b5f610c848383610c5d565b9150826002028217905092915050565b610c9d826105da565b67ffffffffffffffff811115610cb657610cb56106ad565b5b610cc08254610ac7565b610ccb828285610c0b565b5f60209050601f831160018114610cfc575f8415610cea578287015190505b610cf48582610c79565b865550610d5b565b601f198416610d0a86610af7565b5f5b82811015610d3157848901518255600182019150602085019450602081019050610d0c565b86831015610d4e5784890151610d4a601f891682610c5d565b8355505b6001600288020188555050505b505050505050565b5f610d6d82610855565b9150610d7883610855565b9250828202610d8681610855565b91508282048414831517610d9d57610d9c6109ac565b5b509291505056fea26469706673582212201618c6ddd93facc049eb849d9b14f88485e60b7ecd4146a51b6c31aab7c44b9b64736f6c634300081a0033",
					"opcodes": "PUSH1 0x80 PUSH1 0x40 MSTORE CALLVALUE DUP1 ISZERO PUSH1 0xE JUMPI PUSH0 DUP1 REVERT JUMPDEST POP PUSH2 0xDDA DUP1 PUSH2 0x1C PUSH0 CODECOPY PUSH0 RETURN INVALID PUSH1 0x80 PUSH1 0x40 MSTORE PUSH1 0x4 CALLDATASIZE LT PUSH2 0x49 JUMPI PUSH0 CALLDATALOAD PUSH1 0xE0 SHR DUP1 PUSH4 0x189A55E7 EQ PUSH2 0x4D JUMPI DUP1 PUSH4 0x3B0C197E EQ PUSH2 0x57 JUMPI DUP1 PUSH4 0x8646AC8D EQ PUSH2 0x82 JUMPI DUP1 PUSH4 0x88439BBC EQ PUSH2 0xAA JUMPI DUP1 PUSH4 0xAAB27EF7 EQ PUSH2 0xE6 JUMPI JUMPDEST PUSH0 DUP1 REVERT JUMPDEST PUSH2 0x55 PUSH2 0x114 JUMP JUMPDEST STOP JUMPDEST CALLVALUE DUP1 ISZERO PUSH2 0x62 JUMPI PUSH0 DUP1 REVERT JUMPDEST POP PUSH2 0x6B PUSH2 0x382 JUMP JUMPDEST PUSH1 0x40 MLOAD PUSH2 0x79 SWAP3 SWAP2 SWAP1 PUSH2 0x666 JUMP JUMPDEST PUSH1 0x40 MLOAD DUP1 SWAP2 SUB SWAP1 RETURN JUMPDEST CALLVALUE DUP1 ISZERO PUSH2 0x8D JUMPI PUSH0 DUP1 REVERT JUMPDEST POP PUSH2 0xA8 PUSH1 0x4 DUP1 CALLDATASIZE SUB DUP2 ADD SWAP1 PUSH2 0xA3 SWAP2 SWAP1 PUSH2 0x7FB JUMP JUMPDEST PUSH2 0x42C JUMP JUMPDEST STOP JUMPDEST CALLVALUE DUP1 ISZERO PUSH2 0xB5 JUMPI PUSH0 DUP1 REVERT JUMPDEST POP PUSH2 0xD0 PUSH1 0x4 DUP1 CALLDATASIZE SUB DUP2 ADD SWAP1 PUSH2 0xCB SWAP2 SWAP1 PUSH2 0x888 JUMP JUMPDEST PUSH2 0x4BD JUMP JUMPDEST PUSH1 0x40 MLOAD PUSH2 0xDD SWAP2 SWAP1 PUSH2 0x8C2 JUMP JUMPDEST PUSH1 0x40 MLOAD DUP1 SWAP2 SUB SWAP1 RETURN JUMPDEST CALLVALUE DUP1 ISZERO PUSH2 0xF1 JUMPI PUSH0 DUP1 REVERT JUMPDEST POP PUSH2 0xFA PUSH2 0x4D9 JUMP JUMPDEST PUSH1 0x40 MLOAD PUSH2 0x10B SWAP6 SWAP5 SWAP4 SWAP3 SWAP2 SWAP1 PUSH2 0x954 JUMP JUMPDEST PUSH1 0x40 MLOAD DUP1 SWAP2 SUB SWAP1 RETURN JUMPDEST PUSH2 0x132 PUSH0 PUSH1 0x1 ADD PUSH0 SWAP1 SLOAD SWAP1 PUSH2 0x100 EXP SWAP1 DIV PUSH2 0xFFFF AND PUSH2 0xFFFF AND PUSH2 0x4BD JUMP JUMPDEST CALLVALUE LT PUSH2 0x2DE JUMPI PUSH0 PUSH2 0x157 PUSH0 PUSH1 0x1 ADD PUSH0 SWAP1 SLOAD SWAP1 PUSH2 0x100 EXP SWAP1 DIV PUSH2 0xFFFF AND PUSH2 0xFFFF AND PUSH2 0x4BD JUMP JUMPDEST CALLVALUE PUSH2 0x162 SWAP2 SWAP1 PUSH2 0x9D9 JUMP JUMPDEST SWAP1 POP PUSH0 PUSH1 0x1 ADD PUSH1 0x2 SWAP1 SLOAD SWAP1 PUSH2 0x100 EXP SWAP1 DIV PUSH20 0xFFFFFFFFFFFFFFFFFFFFFFFFFFFFFFFFFFFFFFFF AND PUSH20 0xFFFFFFFFFFFFFFFFFFFFFFFFFFFFFFFFFFFFFFFF AND PUSH2 0x8FC PUSH2 0x1C0 PUSH0 PUSH1 0x1 ADD PUSH0 SWAP1 SLOAD SWAP1 PUSH2 0x100 EXP SWAP1 DIV PUSH2 0xFFFF AND PUSH2 0xFFFF AND PUSH2 0x4BD JUMP JUMPDEST SWAP1 DUP2 ISZERO MUL SWAP1 PUSH1 0x40 MLOAD PUSH0 PUSH1 0x40 MLOAD DUP1 DUP4 SUB DUP2 DUP6 DUP9 DUP9 CALL SWAP4 POP POP POP POP ISZERO DUP1 ISZERO PUSH2 0x1E8 JUMPI RETURNDATASIZE PUSH0 DUP1 RETURNDATACOPY RETURNDATASIZE PUSH0 REVERT JUMPDEST POP PUSH0 DUP2 GT ISZERO PUSH2 0x236 JUMPI CALLER PUSH20 0xFFFFFFFFFFFFFFFFFFFFFFFFFFFFFFFFFFFFFFFF AND PUSH2 0x8FC DUP3 SWAP1 DUP2 ISZERO MUL SWAP1 PUSH1 0x40 MLOAD PUSH0 PUSH1 0x40 MLOAD DUP1 DUP4 SUB DUP2 DUP6 DUP9 DUP9 CALL SWAP4 POP POP POP POP ISZERO DUP1 ISZERO PUSH2 0x234 JUMPI RETURNDATASIZE PUSH0 DUP1 RETURNDATACOPY RETURNDATASIZE PUSH0 REVERT JUMPDEST POP JUMPDEST CALLER PUSH0 PUSH1 0x1 ADD PUSH1 0x2 PUSH2 0x100 EXP DUP2 SLOAD DUP2 PUSH20 0xFFFFFFFFFFFFFFFFFFFFFFFFFFFFFFFFFFFFFFFF MUL NOT AND SWAP1 DUP4 PUSH20 0xFFFFFFFFFFFFFFFFFFFFFFFFFFFFFFFFFFFFFFFF AND MUL OR SWAP1 SSTORE POP CALLER PUSH0 PUSH1 0x2 ADD PUSH0 PUSH2 0x100 EXP DUP2 SLOAD DUP2 PUSH20 0xFFFFFFFFFFFFFFFFFFFFFFFFFFFFFFFFFFFFFFFF MUL NOT AND SWAP1 DUP4 PUSH20 0xFFFFFFFFFFFFFFFFFFFFFFFFFFFFFFFFFFFFFFFF AND MUL OR SWAP1 SSTORE POP PUSH1 0x1 PUSH0 PUSH1 0x2 ADD PUSH1 0x14 PUSH2 0x100 EXP DUP2 SLOAD DUP2 PUSH1 0xFF MUL NOT AND SWAP1 DUP4 ISZERO ISZERO MUL OR SWAP1 SSTORE POP POP PUSH2 0x380 JUMP JUMPDEST PUSH0 PUSH1 0x2 ADD PUSH0 SWAP1 SLOAD SWAP1 PUSH2 0x100 EXP SWAP1 DIV PUSH20 0xFFFFFFFFFFFFFFFFFFFFFFFFFFFFFFFFFFFFFFFF AND PUSH20 0xFFFFFFFFFFFFFFFFFFFFFFFFFFFFFFFFFFFFFFFF AND PUSH2 0x8FC CALLVALUE SWAP1 DUP2 ISZERO MUL SWAP1 PUSH1 0x40 MLOAD PUSH0 PUSH1 0x40 MLOAD DUP1 DUP4 SUB DUP2 DUP6 DUP9 DUP9 CALL SWAP4 POP POP POP POP ISZERO DUP1 ISZERO PUSH2 0x344 JUMPI RETURNDATASIZE PUSH0 DUP1 RETURNDATACOPY RETURNDATASIZE PUSH0 REVERT JUMPDEST POP PUSH1 0x40 MLOAD PUSH32 0x8C379A000000000000000000000000000000000000000000000000000000000 DUP2 MSTORE PUSH1 0x4 ADD PUSH2 0x377 SWAP1 PUSH2 0xA7C JUMP JUMPDEST PUSH1 0x40 MLOAD DUP1 SWAP2 SUB SWAP1 REVERT JUMPDEST JUMP JUMPDEST PUSH1 0x60 PUSH0 DUP1 PUSH0 ADD PUSH0 PUSH1 0x1 ADD PUSH0 SWAP1 SLOAD SWAP1 PUSH2 0x100 EXP SWAP1 DIV PUSH2 0xFFFF AND DUP2 DUP1 SLOAD PUSH2 0x3A6 SWAP1 PUSH2 0xAC7 JUMP JUMPDEST DUP1 PUSH1 0x1F ADD PUSH1 0x20 DUP1 SWAP2 DIV MUL PUSH1 0x20 ADD PUSH1 0x40 MLOAD SWAP1 DUP2 ADD PUSH1 0x40 MSTORE DUP1 SWAP3 SWAP2 SWAP1 DUP2 DUP2 MSTORE PUSH1 0x20 ADD DUP3 DUP1 SLOAD PUSH2 0x3D2 SWAP1 PUSH2 0xAC7 JUMP JUMPDEST DUP1 ISZERO PUSH2 0x41D JUMPI DUP1 PUSH1 0x1F LT PUSH2 0x3F4 JUMPI PUSH2 0x100 DUP1 DUP4 SLOAD DIV MUL DUP4 MSTORE SWAP2 PUSH1 0x20 ADD SWAP2 PUSH2 0x41D JUMP JUMPDEST DUP3 ADD SWAP2 SWAP1 PUSH0 MSTORE PUSH1 0x20 PUSH0 KECCAK256 SWAP1 JUMPDEST DUP2 SLOAD DUP2 MSTORE SWAP1 PUSH1 0x1 ADD SWAP1 PUSH1 0x20 ADD DUP1 DUP4 GT PUSH2 0x400 JUMPI DUP3 SWAP1 SUB PUSH1 0x1F AND DUP3 ADD SWAP2 JUMPDEST POP POP POP POP POP SWAP2 POP SWAP2 POP SWAP2 POP SWAP1 SWAP2 JUMP JUMPDEST DUP2 PUSH0 DUP1 ADD SWAP1 DUP2 PUSH2 0x43C SWAP2 SWAP1 PUSH2 0xC94 JUMP JUMPDEST POP DUP1 PUSH0 PUSH1 0x1 ADD PUSH0 PUSH2 0x100 EXP DUP2 SLOAD DUP2 PUSH2 0xFFFF MUL NOT AND SWAP1 DUP4 PUSH2 0xFFFF AND MUL OR SWAP1 SSTORE POP CALLER PUSH0 PUSH1 0x2 ADD PUSH0 PUSH2 0x100 EXP DUP2 SLOAD DUP2 PUSH20 0xFFFFFFFFFFFFFFFFFFFFFFFFFFFFFFFFFFFFFFFF MUL NOT AND SWAP1 DUP4 PUSH20 0xFFFFFFFFFFFFFFFFFFFFFFFFFFFFFFFFFFFFFFFF AND MUL OR SWAP1 SSTORE POP PUSH0 DUP1 PUSH1 0x2 ADD PUSH1 0x14 PUSH2 0x100 EXP DUP2 SLOAD DUP2 PUSH1 0xFF MUL NOT AND SWAP1 DUP4 ISZERO ISZERO MUL OR SWAP1 SSTORE POP POP POP JUMP JUMPDEST PUSH0 PUSH8 0xDE0B6B3A7640000 DUP3 PUSH2 0x4D2 SWAP2 SWAP1 PUSH2 0xD63 JUMP JUMPDEST SWAP1 POP SWAP2 SWAP1 POP JUMP JUMPDEST PUSH0 DUP1 PUSH0 ADD DUP1 SLOAD PUSH2 0x4E8 SWAP1 PUSH2 0xAC7 JUMP JUMPDEST DUP1 PUSH1 0x1F ADD PUSH1 0x20 DUP1 SWAP2 DIV MUL PUSH1 0x20 ADD PUSH1 0x40 MLOAD SWAP1 DUP2 ADD PUSH1 0x40 MSTORE DUP1 SWAP3 SWAP2 SWAP1 DUP2 DUP2 MSTORE PUSH1 0x20 ADD DUP3 DUP1 SLOAD PUSH2 0x514 SWAP1 PUSH2 0xAC7 JUMP JUMPDEST DUP1 ISZERO PUSH2 0x55F JUMPI DUP1 PUSH1 0x1F LT PUSH2 0x536 JUMPI PUSH2 0x100 DUP1 DUP4 SLOAD DIV MUL DUP4 MSTORE SWAP2 PUSH1 0x20 ADD SWAP2 PUSH2 0x55F JUMP JUMPDEST DUP3 ADD SWAP2 SWAP1 PUSH0 MSTORE PUSH1 0x20 PUSH0 KECCAK256 SWAP1 JUMPDEST DUP2 SLOAD DUP2 MSTORE SWAP1 PUSH1 0x1 ADD SWAP1 PUSH1 0x20 ADD DUP1 DUP4 GT PUSH2 0x542 JUMPI DUP3 SWAP1 SUB PUSH1 0x1F AND DUP3 ADD SWAP2 JUMPDEST POP POP POP POP POP SWAP1 DUP1 PUSH1 0x1 ADD PUSH0 SWAP1 SLOAD SWAP1 PUSH2 0x100 EXP SWAP1 DIV PUSH2 0xFFFF AND SWAP1 DUP1 PUSH1 0x1 ADD PUSH1 0x2 SWAP1 SLOAD SWAP1 PUSH2 0x100 EXP SWAP1 DIV PUSH20 0xFFFFFFFFFFFFFFFFFFFFFFFFFFFFFFFFFFFFFFFF AND SWAP1 DUP1 PUSH1 0x2 ADD PUSH0 SWAP1 SLOAD SWAP1 PUSH2 0x100 EXP SWAP1 DIV PUSH20 0xFFFFFFFFFFFFFFFFFFFFFFFFFFFFFFFFFFFFFFFF AND SWAP1 DUP1 PUSH1 0x2 ADD PUSH1 0x14 SWAP1 SLOAD SWAP1 PUSH2 0x100 EXP SWAP1 DIV PUSH1 0xFF AND SWAP1 POP DUP6 JUMP JUMPDEST PUSH0 DUP2 MLOAD SWAP1 POP SWAP2 SWAP1 POP JUMP JUMPDEST PUSH0 DUP3 DUP3 MSTORE PUSH1 0x20 DUP3 ADD SWAP1 POP SWAP3 SWAP2 POP POP JUMP JUMPDEST DUP3 DUP2 DUP4 MCOPY PUSH0 DUP4 DUP4 ADD MSTORE POP POP POP JUMP JUMPDEST PUSH0 PUSH1 0x1F NOT PUSH1 0x1F DUP4 ADD AND SWAP1 POP SWAP2 SWAP1 POP JUMP JUMPDEST PUSH0 PUSH2 0x61C DUP3 PUSH2 0x5DA JUMP JUMPDEST PUSH2 0x626 DUP2 DUP6 PUSH2 0x5E4 JUMP JUMPDEST SWAP4 POP PUSH2 0x636 DUP2 DUP6 PUSH1 0x20 DUP7 ADD PUSH2 0x5F4 JUMP JUMPDEST PUSH2 0x63F DUP2 PUSH2 0x602 JUMP JUMPDEST DUP5 ADD SWAP2 POP POP SWAP3 SWAP2 POP POP JUMP JUMPDEST PUSH0 PUSH2 0xFFFF DUP3 AND SWAP1 POP SWAP2 SWAP1 POP JUMP JUMPDEST PUSH2 0x660 DUP2 PUSH2 0x64A JUMP JUMPDEST DUP3 MSTORE POP POP JUMP JUMPDEST PUSH0 PUSH1 0x40 DUP3 ADD SWAP1 POP DUP2 DUP2 SUB PUSH0 DUP4 ADD MSTORE PUSH2 0x67E DUP2 DUP6 PUSH2 0x612 JUMP JUMPDEST SWAP1 POP PUSH2 0x68D PUSH1 0x20 DUP4 ADD DUP5 PUSH2 0x657 JUMP JUMPDEST SWAP4 SWAP3 POP POP POP JUMP JUMPDEST PUSH0 PUSH1 0x40 MLOAD SWAP1 POP SWAP1 JUMP JUMPDEST PUSH0 DUP1 REVERT JUMPDEST PUSH0 DUP1 REVERT JUMPDEST PUSH0 DUP1 REVERT JUMPDEST PUSH0 DUP1 REVERT JUMPDEST PUSH32 0x4E487B7100000000000000000000000000000000000000000000000000000000 PUSH0 MSTORE PUSH1 0x41 PUSH1 0x4 MSTORE PUSH1 0x24 PUSH0 REVERT JUMPDEST PUSH2 0x6E3 DUP3 PUSH2 0x602 JUMP JUMPDEST DUP2 ADD DUP2 DUP2 LT PUSH8 0xFFFFFFFFFFFFFFFF DUP3 GT OR ISZERO PUSH2 0x702 JUMPI PUSH2 0x701 PUSH2 0x6AD JUMP JUMPDEST JUMPDEST DUP1 PUSH1 0x40 MSTORE POP POP POP JUMP JUMPDEST PUSH0 PUSH2 0x714 PUSH2 0x694 JUMP JUMPDEST SWAP1 POP PUSH2 0x720 DUP3 DUP3 PUSH2 0x6DA JUMP JUMPDEST SWAP2 SWAP1 POP JUMP JUMPDEST PUSH0 PUSH8 0xFFFFFFFFFFFFFFFF DUP3 GT ISZERO PUSH2 0x73F JUMPI PUSH2 0x73E PUSH2 0x6AD JUMP JUMPDEST JUMPDEST PUSH2 0x748 DUP3 PUSH2 0x602 JUMP JUMPDEST SWAP1 POP PUSH1 0x20 DUP2 ADD SWAP1 POP SWAP2 SWAP1 POP JUMP JUMPDEST DUP3 DUP2 DUP4 CALLDATACOPY PUSH0 DUP4 DUP4 ADD MSTORE POP POP POP JUMP JUMPDEST PUSH0 PUSH2 0x775 PUSH2 0x770 DUP5 PUSH2 0x725 JUMP JUMPDEST PUSH2 0x70B JUMP JUMPDEST SWAP1 POP DUP3 DUP2 MSTORE PUSH1 0x20 DUP2 ADD DUP5 DUP5 DUP5 ADD GT ISZERO PUSH2 0x791 JUMPI PUSH2 0x790 PUSH2 0x6A9 JUMP JUMPDEST JUMPDEST PUSH2 0x79C DUP5 DUP3 DUP6 PUSH2 0x755 JUMP JUMPDEST POP SWAP4 SWAP3 POP POP POP JUMP JUMPDEST PUSH0 DUP3 PUSH1 0x1F DUP4 ADD SLT PUSH2 0x7B8 JUMPI PUSH2 0x7B7 PUSH2 0x6A5 JUMP JUMPDEST JUMPDEST DUP2 CALLDATALOAD PUSH2 0x7C8 DUP5 DUP3 PUSH1 0x20 DUP7 ADD PUSH2 0x763 JUMP JUMPDEST SWAP2 POP POP SWAP3 SWAP2 POP POP JUMP JUMPDEST PUSH2 0x7DA DUP2 PUSH2 0x64A JUMP JUMPDEST DUP2 EQ PUSH2 0x7E4 JUMPI PUSH0 DUP1 REVERT JUMPDEST POP JUMP JUMPDEST PUSH0 DUP2 CALLDATALOAD SWAP1 POP PUSH2 0x7F5 DUP2 PUSH2 0x7D1 JUMP JUMPDEST SWAP3 SWAP2 POP POP JUMP JUMPDEST PUSH0 DUP1 PUSH1 0x40 DUP4 DUP6 SUB SLT ISZERO PUSH2 0x811 JUMPI PUSH2 0x810 PUSH2 0x69D JUMP JUMPDEST JUMPDEST PUSH0 DUP4 ADD CALLDATALOAD PUSH8 0xFFFFFFFFFFFFFFFF DUP2 GT ISZERO PUSH2 0x82E JUMPI PUSH2 0x82D PUSH2 0x6A1 JUMP JUMPDEST JUMPDEST PUSH2 0x83A DUP6 DUP3 DUP7 ADD PUSH2 0x7A4 JUMP JUMPDEST SWAP3 POP POP PUSH1 0x20 PUSH2 0x84B DUP6 DUP3 DUP7 ADD PUSH2 0x7E7 JUMP JUMPDEST SWAP2 POP POP SWAP3 POP SWAP3 SWAP1 POP JUMP JUMPDEST PUSH0 DUP2 SWAP1 POP SWAP2 SWAP1 POP JUMP JUMPDEST PUSH2 0x867 DUP2 PUSH2 0x855 JUMP JUMPDEST DUP2 EQ PUSH2 0x871 JUMPI PUSH0 DUP1 REVERT JUMPDEST POP JUMP JUMPDEST PUSH0 DUP2 CALLDATALOAD SWAP1 POP PUSH2 0x882 DUP2 PUSH2 0x85E JUMP JUMPDEST SWAP3 SWAP2 POP POP JUMP JUMPDEST PUSH0 PUSH1 0x20 DUP3 DUP5 SUB SLT ISZERO PUSH2 0x89D JUMPI PUSH2 0x89C PUSH2 0x69D JUMP JUMPDEST JUMPDEST PUSH0 PUSH2 0x8AA DUP5 DUP3 DUP6 ADD PUSH2 0x874 JUMP JUMPDEST SWAP2 POP POP SWAP3 SWAP2 POP POP JUMP JUMPDEST PUSH2 0x8BC DUP2 PUSH2 0x855 JUMP JUMPDEST DUP3 MSTORE POP POP JUMP JUMPDEST PUSH0 PUSH1 0x20 DUP3 ADD SWAP1 POP PUSH2 0x8D5 PUSH0 DUP4 ADD DUP5 PUSH2 0x8B3 JUMP JUMPDEST SWAP3 SWAP2 POP POP JUMP JUMPDEST PUSH0 PUSH20 0xFFFFFFFFFFFFFFFFFFFFFFFFFFFFFFFFFFFFFFFF DUP3 AND SWAP1 POP SWAP2 SWAP1 POP JUMP JUMPDEST PUSH0 PUSH2 0x904 DUP3 PUSH2 0x8DB JUMP JUMPDEST SWAP1 POP SWAP2 SWAP1 POP JUMP JUMPDEST PUSH2 0x914 DUP2 PUSH2 0x8FA JUMP JUMPDEST DUP3 MSTORE POP POP JUMP JUMPDEST PUSH0 PUSH2 0x924 DUP3 PUSH2 0x8DB JUMP JUMPDEST SWAP1 POP SWAP2 SWAP1 POP JUMP JUMPDEST PUSH2 0x934 DUP2 PUSH2 0x91A JUMP JUMPDEST DUP3 MSTORE POP POP JUMP JUMPDEST PUSH0 DUP2 ISZERO ISZERO SWAP1 POP SWAP2 SWAP1 POP JUMP JUMPDEST PUSH2 0x94E DUP2 PUSH2 0x93A JUMP JUMPDEST DUP3 MSTORE POP POP JUMP JUMPDEST PUSH0 PUSH1 0xA0 DUP3 ADD SWAP1 POP DUP2 DUP2 SUB PUSH0 DUP4 ADD MSTORE PUSH2 0x96C DUP2 DUP9 PUSH2 0x612 JUMP JUMPDEST SWAP1 POP PUSH2 0x97B PUSH1 0x20 DUP4 ADD DUP8 PUSH2 0x657 JUMP JUMPDEST PUSH2 0x988 PUSH1 0x40 DUP4 ADD DUP7 PUSH2 0x90B JUMP JUMPDEST PUSH2 0x995 PUSH1 0x60 DUP4 ADD DUP6 PUSH2 0x92B JUMP JUMPDEST PUSH2 0x9A2 PUSH1 0x80 DUP4 ADD DUP5 PUSH2 0x945 JUMP JUMPDEST SWAP7 SWAP6 POP POP POP POP POP POP JUMP JUMPDEST PUSH32 0x4E487B7100000000000000000000000000000000000000000000000000000000 PUSH0 MSTORE PUSH1 0x11 PUSH1 0x4 MSTORE PUSH1 0x24 PUSH0 REVERT JUMPDEST PUSH0 PUSH2 0x9E3 DUP3 PUSH2 0x855 JUMP JUMPDEST SWAP2 POP PUSH2 0x9EE DUP4 PUSH2 0x855 JUMP JUMPDEST SWAP3 POP DUP3 DUP3 SUB SWAP1 POP DUP2 DUP2 GT ISZERO PUSH2 0xA06 JUMPI PUSH2 0xA05 PUSH2 0x9AC JUMP JUMPDEST JUMPDEST SWAP3 SWAP2 POP POP JUMP JUMPDEST PUSH32 0x496E73756666696369656E742066756E6473202E616D6F756E7420726566756E PUSH0 DUP3 ADD MSTORE PUSH32 0x6465640000000000000000000000000000000000000000000000000000000000 PUSH1 0x20 DUP3 ADD MSTORE POP JUMP JUMPDEST PUSH0 PUSH2 0xA66 PUSH1 0x23 DUP4 PUSH2 0x5E4 JUMP JUMPDEST SWAP2 POP PUSH2 0xA71 DUP3 PUSH2 0xA0C JUMP JUMPDEST PUSH1 0x40 DUP3 ADD SWAP1 POP SWAP2 SWAP1 POP JUMP JUMPDEST PUSH0 PUSH1 0x20 DUP3 ADD SWAP1 POP DUP2 DUP2 SUB PUSH0 DUP4 ADD MSTORE PUSH2 0xA93 DUP2 PUSH2 0xA5A JUMP JUMPDEST SWAP1 POP SWAP2 SWAP1 POP JUMP JUMPDEST PUSH32 0x4E487B7100000000000000000000000000000000000000000000000000000000 PUSH0 MSTORE PUSH1 0x22 PUSH1 0x4 MSTORE PUSH1 0x24 PUSH0 REVERT JUMPDEST PUSH0 PUSH1 0x2 DUP3 DIV SWAP1 POP PUSH1 0x1 DUP3 AND DUP1 PUSH2 0xADE JUMPI PUSH1 0x7F DUP3 AND SWAP2 POP JUMPDEST PUSH1 0x20 DUP3 LT DUP2 SUB PUSH2 0xAF1 JUMPI PUSH2 0xAF0 PUSH2 0xA9A JUMP JUMPDEST JUMPDEST POP SWAP2 SWAP1 POP JUMP JUMPDEST PUSH0 DUP2 SWAP1 POP DUP2 PUSH0 MSTORE PUSH1 0x20 PUSH0 KECCAK256 SWAP1 POP SWAP2 SWAP1 POP JUMP JUMPDEST PUSH0 PUSH1 0x20 PUSH1 0x1F DUP4 ADD DIV SWAP1 POP SWAP2 SWAP1 POP JUMP JUMPDEST PUSH0 DUP3 DUP3 SHL SWAP1 POP SWAP3 SWAP2 POP POP JUMP JUMPDEST PUSH0 PUSH1 0x8 DUP4 MUL PUSH2 0xB53 PUSH32 0xFFFFFFFFFFFFFFFFFFFFFFFFFFFFFFFFFFFFFFFFFFFFFFFFFFFFFFFFFFFFFFFF DUP3 PUSH2 0xB18 JUMP JUMPDEST PUSH2 0xB5D DUP7 DUP4 PUSH2 0xB18 JUMP JUMPDEST SWAP6 POP DUP1 NOT DUP5 AND SWAP4 POP DUP1 DUP7 AND DUP5 OR SWAP3 POP POP POP SWAP4 SWAP3 POP POP POP JUMP JUMPDEST PUSH0 DUP2 SWAP1 POP SWAP2 SWAP1 POP JUMP JUMPDEST PUSH0 PUSH2 0xB98 PUSH2 0xB93 PUSH2 0xB8E DUP5 PUSH2 0x855 JUMP JUMPDEST PUSH2 0xB75 JUMP JUMPDEST PUSH2 0x855 JUMP JUMPDEST SWAP1 POP SWAP2 SWAP1 POP JUMP JUMPDEST PUSH0 DUP2 SWAP1 POP SWAP2 SWAP1 POP JUMP JUMPDEST PUSH2 0xBB1 DUP4 PUSH2 0xB7E JUMP JUMPDEST PUSH2 0xBC5 PUSH2 0xBBD DUP3 PUSH2 0xB9F JUMP JUMPDEST DUP5 DUP5 SLOAD PUSH2 0xB24 JUMP JUMPDEST DUP3 SSTORE POP POP POP POP JUMP JUMPDEST PUSH0 SWAP1 JUMP JUMPDEST PUSH2 0xBD9 PUSH2 0xBCD JUMP JUMPDEST PUSH2 0xBE4 DUP2 DUP5 DUP5 PUSH2 0xBA8 JUMP JUMPDEST POP POP POP JUMP JUMPDEST JUMPDEST DUP2 DUP2 LT ISZERO PUSH2 0xC07 JUMPI PUSH2 0xBFC PUSH0 DUP3 PUSH2 0xBD1 JUMP JUMPDEST PUSH1 0x1 DUP2 ADD SWAP1 POP PUSH2 0xBEA JUMP JUMPDEST POP POP JUMP JUMPDEST PUSH1 0x1F DUP3 GT ISZERO PUSH2 0xC4C JUMPI PUSH2 0xC1D DUP2 PUSH2 0xAF7 JUMP JUMPDEST PUSH2 0xC26 DUP5 PUSH2 0xB09 JUMP JUMPDEST DUP2 ADD PUSH1 0x20 DUP6 LT ISZERO PUSH2 0xC35 JUMPI DUP2 SWAP1 POP JUMPDEST PUSH2 0xC49 PUSH2 0xC41 DUP6 PUSH2 0xB09 JUMP JUMPDEST DUP4 ADD DUP3 PUSH2 0xBE9 JUMP JUMPDEST POP POP JUMPDEST POP POP POP JUMP JUMPDEST PUSH0 DUP3 DUP3 SHR SWAP1 POP SWAP3 SWAP2 POP POP JUMP JUMPDEST PUSH0 PUSH2 0xC6C PUSH0 NOT DUP5 PUSH1 0x8 MUL PUSH2 0xC51 JUMP JUMPDEST NOT DUP1 DUP4 AND SWAP2 POP POP SWAP3 SWAP2 POP POP JUMP JUMPDEST PUSH0 PUSH2 0xC84 DUP4 DUP4 PUSH2 0xC5D JUMP JUMPDEST SWAP2 POP DUP3 PUSH1 0x2 MUL DUP3 OR SWAP1 POP SWAP3 SWAP2 POP POP JUMP JUMPDEST PUSH2 0xC9D DUP3 PUSH2 0x5DA JUMP JUMPDEST PUSH8 0xFFFFFFFFFFFFFFFF DUP2 GT ISZERO PUSH2 0xCB6 JUMPI PUSH2 0xCB5 PUSH2 0x6AD JUMP JUMPDEST JUMPDEST PUSH2 0xCC0 DUP3 SLOAD PUSH2 0xAC7 JUMP JUMPDEST PUSH2 0xCCB DUP3 DUP3 DUP6 PUSH2 0xC0B JUMP JUMPDEST PUSH0 PUSH1 0x20 SWAP1 POP PUSH1 0x1F DUP4 GT PUSH1 0x1 DUP2 EQ PUSH2 0xCFC JUMPI PUSH0 DUP5 ISZERO PUSH2 0xCEA JUMPI DUP3 DUP8 ADD MLOAD SWAP1 POP JUMPDEST PUSH2 0xCF4 DUP6 DUP3 PUSH2 0xC79 JUMP JUMPDEST DUP7 SSTORE POP PUSH2 0xD5B JUMP JUMPDEST PUSH1 0x1F NOT DUP5 AND PUSH2 0xD0A DUP7 PUSH2 0xAF7 JUMP JUMPDEST PUSH0 JUMPDEST DUP3 DUP2 LT ISZERO PUSH2 0xD31 JUMPI DUP5 DUP10 ADD MLOAD DUP3 SSTORE PUSH1 0x1 DUP3 ADD SWAP2 POP PUSH1 0x20 DUP6 ADD SWAP5 POP PUSH1 0x20 DUP2 ADD SWAP1 POP PUSH2 0xD0C JUMP JUMPDEST DUP7 DUP4 LT ISZERO PUSH2 0xD4E JUMPI DUP5 DUP10 ADD MLOAD PUSH2 0xD4A PUSH1 0x1F DUP10 AND DUP3 PUSH2 0xC5D JUMP JUMPDEST DUP4 SSTORE POP JUMPDEST PUSH1 0x1 PUSH1 0x2 DUP9 MUL ADD DUP9 SSTORE POP POP POP JUMPDEST POP POP POP POP POP POP JUMP JUMPDEST PUSH0 PUSH2 0xD6D DUP3 PUSH2 0x855 JUMP JUMPDEST SWAP2 POP PUSH2 0xD78 DUP4 PUSH2 0x855 JUMP JUMPDEST SWAP3 POP DUP3 DUP3 MUL PUSH2 0xD86 DUP2 PUSH2 0x855 JUMP JUMPDEST SWAP2 POP DUP3 DUP3 DIV DUP5 EQ DUP4 ISZERO OR PUSH2 0xD9D JUMPI PUSH2 0xD9C PUSH2 0x9AC JUMP JUMPDEST JUMPDEST POP SWAP3 SWAP2 POP POP JUMP INVALID LOG2 PUSH5 0x6970667358 0x22 SLT KECCAK256 AND XOR 0xC6 0xDD 0xD9 EXTCODEHASH 0xAC 0xC0 BLOBHASH 0xEB DUP5 SWAP14 SWAP12 EQ 0xF8 DUP5 DUP6 0xE6 SIGNEXTEND PUSH31 0xCD4146A51B6C31AAB7C44B9B64736F6C634300081A00330000000000000000 "
				},
				"gasEstimates": {
					"creation": {
						"codeDepositCost": "709200",
						"executionCost": "739",
						"totalCost": "709939"
					},
					"external": {
						"buyBook()": "infinite",
						"ethToWei(uint256)": "infinite",
						"getBook()": "infinite",
						"getBook(string,uint16)": "infinite",
						"myBook()": "infinite"
					}
				},
				"methodIdentifiers": {
					"buyBook()": "189a55e7",
					"ethToWei(uint256)": "88439bbc",
					"getBook()": "3b0c197e",
					"getBook(string,uint16)": "8646ac8d",
					"myBook()": "aab27ef7"
				}
			},
			"storageLayout": {
				"storage": [
					{
						"astId": 15,
						"contract": "Remix/Work/work2-1.sol:MyBook",
						"label": "myBook",
						"offset": 0,
						"slot": "0",
						"type": "t_struct(book)12_storage"
					}
				],
				"types": {
					"t_address": {
						"encoding": "inplace",
						"label": "address",
						"numberOfBytes": "20"
					},
					"t_address_payable": {
						"encoding": "inplace",
						"label": "address payable",
						"numberOfBytes": "20"
					},
					"t_bool": {
						"encoding": "inplace",
						"label": "bool",
						"numberOfBytes": "1"
					},
					"t_string_storage": {
						"encoding": "bytes",
						"label": "string",
						"numberOfBytes": "32"
					},
					"t_struct(book)12_storage": {
						"encoding": "inplace",
						"label": "struct MyBook.book",
						"members": [
							{
								"astId": 3,
								"contract": "Remix/Work/work2-1.sol:MyBook",
								"label": "title",
								"offset": 0,
								"slot": "0",
								"type": "t_string_storage"
							},
							{
								"astId": 5,
								"contract": "Remix/Work/work2-1.sol:MyBook",
								"label": "price",
								"offset": 0,
								"slot": "1",
								"type": "t_uint16"
							},
							{
								"astId": 7,
								"contract": "Remix/Work/work2-1.sol:MyBook",
								"label": "owner",
								"offset": 2,
								"slot": "1",
								"type": "t_address_payable"
							},
							{
								"astId": 9,
								"contract": "Remix/Work/work2-1.sol:MyBook",
								"label": "buyer",
								"offset": 0,
								"slot": "2",
								"type": "t_address"
							},
							{
								"astId": 11,
								"contract": "Remix/Work/work2-1.sol:MyBook",
								"label": "sold",
								"offset": 20,
								"slot": "2",
								"type": "t_bool"
							}
						],
						"numberOfBytes": "96"
					},
					"t_uint16": {
						"encoding": "inplace",
						"label": "uint16",
						"numberOfBytes": "2"
					}
				}
			},
			"userdoc": {
				"kind": "user",
				"methods": {},
				"version": 1
			}
		}
	}
}