{
	"Remix/Work/Q1.sol": {
		"Q1": {
			"abi": [
				{
					"inputs": [
						{
							"internalType": "uint256",
							"name": "_num1",
							"type": "uint256"
						},
						{
							"internalType": "uint256",
							"name": "_num2",
							"type": "uint256"
						},
						{
							"internalType": "uint256",
							"name": "_num3",
							"type": "uint256"
						}
					],
					"name": "findLargest",
					"outputs": [
						{
							"internalType": "uint256",
							"name": "",
							"type": "uint256"
						}
					],
					"stateMutability": "pure",
					"type": "function"
				},
				{
					"inputs": [],
					"name": "num1",
					"outputs": [
						{
							"internalType": "uint16",
							"name": "",
							"type": "uint16"
						}
					],
					"stateMutability": "view",
					"type": "function"
				},
				{
					"inputs": [],
					"name": "num2",
					"outputs": [
						{
							"internalType": "uint16",
							"name": "",
							"type": "uint16"
						}
					],
					"stateMutability": "view",
					"type": "function"
				},
				{
					"inputs": [],
					"name": "num3",
					"outputs": [
						{
							"internalType": "uint16",
							"name": "",
							"type": "uint16"
						}
					],
					"stateMutability": "view",
					"type": "function"
				}
			],
			"devdoc": {
				"kind": "dev",
				"methods": {},
				"version": 1
			},
			"evm": {
				"assembly": "    /* \"Remix/Work/Q1.sol\":57:411  contract Q1{... */\n  mstore(0x40, 0x80)\n  callvalue\n  dup1\n  iszero\n  tag_1\n  jumpi\n  0x00\n  dup1\n  revert\ntag_1:\n  pop\n  dataSize(sub_0)\n  dup1\n  dataOffset(sub_0)\n  0x00\n  codecopy\n  0x00\n  return\nstop\n\nsub_0: assembly {\n        /* \"Remix/Work/Q1.sol\":57:411  contract Q1{... */\n      mstore(0x40, 0x80)\n      callvalue\n      dup1\n      iszero\n      tag_1\n      jumpi\n      0x00\n      dup1\n      revert\n    tag_1:\n      pop\n      jumpi(tag_2, lt(calldatasize, 0x04))\n      shr(0xe0, calldataload(0x00))\n      dup1\n      0x15d4266c\n      eq\n      tag_3\n      jumpi\n      dup1\n      0x3b9eac4b\n      eq\n      tag_4\n      jumpi\n      dup1\n      0x4cf6c9ab\n      eq\n      tag_5\n      jumpi\n      dup1\n      0xa531f36a\n      eq\n      tag_6\n      jumpi\n    tag_2:\n      0x00\n      dup1\n      revert\n        /* \"Remix/Work/Q1.sol\":98:116  uint16 public num2 */\n    tag_3:\n      tag_7\n      tag_8\n      jump\t// in\n    tag_7:\n      mload(0x40)\n      tag_9\n      swap2\n      swap1\n      tag_10\n      jump\t// in\n    tag_9:\n      mload(0x40)\n      dup1\n      swap2\n      sub\n      swap1\n      return\n        /* \"Remix/Work/Q1.sol\":74:92  uint16 public num1 */\n    tag_4:\n      tag_11\n      tag_12\n      jump\t// in\n    tag_11:\n      mload(0x40)\n      tag_13\n      swap2\n      swap1\n      tag_10\n      jump\t// in\n    tag_13:\n      mload(0x40)\n      dup1\n      swap2\n      sub\n      swap1\n      return\n        /* \"Remix/Work/Q1.sol\":147:409  function findLargest(uint _num1,uint _num2, uint _num3)public pure returns(uint) {... */\n    tag_5:\n      tag_14\n      0x04\n      dup1\n      calldatasize\n      sub\n      dup2\n      add\n      swap1\n      tag_15\n      swap2\n      swap1\n      tag_16\n      jump\t// in\n    tag_15:\n      tag_17\n      jump\t// in\n    tag_14:\n      mload(0x40)\n      tag_18\n      swap2\n      swap1\n      tag_19\n      jump\t// in\n    tag_18:\n      mload(0x40)\n      dup1\n      swap2\n      sub\n      swap1\n      return\n        /* \"Remix/Work/Q1.sol\":122:140  uint16 public num3 */\n    tag_6:\n      tag_20\n      tag_21\n      jump\t// in\n    tag_20:\n      mload(0x40)\n      tag_22\n      swap2\n      swap1\n      tag_10\n      jump\t// in\n    tag_22:\n      mload(0x40)\n      dup1\n      swap2\n      sub\n      swap1\n      return\n        /* \"Remix/Work/Q1.sol\":98:116  uint16 public num2 */\n    tag_8:\n      0x00\n      0x02\n      swap1\n      sload\n      swap1\n      0x0100\n      exp\n      swap1\n      div\n      0xffff\n      and\n      dup2\n      jump\t// out\n        /* \"Remix/Work/Q1.sol\":74:92  uint16 public num1 */\n    tag_12:\n      0x00\n      dup1\n      sload\n      swap1\n      0x0100\n      exp\n      swap1\n      div\n      0xffff\n      and\n      dup2\n      jump\t// out\n        /* \"Remix/Work/Q1.sol\":147:409  function findLargest(uint _num1,uint _num2, uint _num3)public pure returns(uint) {... */\n    tag_17:\n        /* \"Remix/Work/Q1.sol\":222:226  uint */\n      0x00\n        /* \"Remix/Work/Q1.sol\":247:252  _num2 */\n      dup3\n        /* \"Remix/Work/Q1.sol\":241:246  _num1 */\n      dup5\n        /* \"Remix/Work/Q1.sol\":241:252  _num1>_num2 */\n      gt\n        /* \"Remix/Work/Q1.sol\":241:267  _num1>_num2 && _num1>_num3 */\n      dup1\n      iszero\n      tag_24\n      jumpi\n      pop\n        /* \"Remix/Work/Q1.sol\":262:267  _num3 */\n      dup2\n        /* \"Remix/Work/Q1.sol\":256:261  _num1 */\n      dup5\n        /* \"Remix/Work/Q1.sol\":256:267  _num1>_num3 */\n      gt\n        /* \"Remix/Work/Q1.sol\":241:267  _num1>_num2 && _num1>_num3 */\n    tag_24:\n        /* \"Remix/Work/Q1.sol\":238:403  if(_num1>_num2 && _num1>_num3){... */\n      iszero\n      tag_25\n      jumpi\n        /* \"Remix/Work/Q1.sol\":289:294  _num1 */\n      dup4\n        /* \"Remix/Work/Q1.sol\":282:294  return _num1 */\n      swap1\n      pop\n      jump(tag_23)\n        /* \"Remix/Work/Q1.sol\":238:403  if(_num1>_num2 && _num1>_num3){... */\n    tag_25:\n        /* \"Remix/Work/Q1.sol\":319:324  _num3 */\n      dup2\n        /* \"Remix/Work/Q1.sol\":313:318  _num2 */\n      dup4\n        /* \"Remix/Work/Q1.sol\":313:324  _num2>_num3 */\n      gt\n        /* \"Remix/Work/Q1.sol\":310:403  if(_num2>_num3){... */\n      iszero\n      tag_27\n      jumpi\n        /* \"Remix/Work/Q1.sol\":346:351  _num2 */\n      dup3\n        /* \"Remix/Work/Q1.sol\":339:351  return _num2 */\n      swap1\n      pop\n      jump(tag_23)\n        /* \"Remix/Work/Q1.sol\":310:403  if(_num2>_num3){... */\n    tag_27:\n        /* \"Remix/Work/Q1.sol\":387:392  _num3 */\n      dup2\n        /* \"Remix/Work/Q1.sol\":380:392  return _num3 */\n      swap1\n      pop\n        /* \"Remix/Work/Q1.sol\":147:409  function findLargest(uint _num1,uint _num2, uint _num3)public pure returns(uint) {... */\n    tag_23:\n      swap4\n      swap3\n      pop\n      pop\n      pop\n      jump\t// out\n        /* \"Remix/Work/Q1.sol\":122:140  uint16 public num3 */\n    tag_21:\n      0x00\n      0x04\n      swap1\n      sload\n      swap1\n      0x0100\n      exp\n      swap1\n      div\n      0xffff\n      and\n      dup2\n      jump\t// out\n        /* \"#utility.yul\":7:96   */\n    tag_29:\n        /* \"#utility.yul\":43:50   */\n      0x00\n        /* \"#utility.yul\":83:89   */\n      0xffff\n        /* \"#utility.yul\":76:81   */\n      dup3\n        /* \"#utility.yul\":72:90   */\n      and\n        /* \"#utility.yul\":61:90   */\n      swap1\n      pop\n        /* \"#utility.yul\":7:96   */\n      swap2\n      swap1\n      pop\n      jump\t// out\n        /* \"#utility.yul\":102:217   */\n    tag_30:\n        /* \"#utility.yul\":187:210   */\n      tag_41\n        /* \"#utility.yul\":204:209   */\n      dup2\n        /* \"#utility.yul\":187:210   */\n      tag_29\n      jump\t// in\n    tag_41:\n        /* \"#utility.yul\":182:185   */\n      dup3\n        /* \"#utility.yul\":175:211   */\n      mstore\n        /* \"#utility.yul\":102:217   */\n      pop\n      pop\n      jump\t// out\n        /* \"#utility.yul\":223:441   */\n    tag_10:\n        /* \"#utility.yul\":314:318   */\n      0x00\n        /* \"#utility.yul\":352:354   */\n      0x20\n        /* \"#utility.yul\":341:350   */\n      dup3\n        /* \"#utility.yul\":337:355   */\n      add\n        /* \"#utility.yul\":329:355   */\n      swap1\n      pop\n        /* \"#utility.yul\":365:434   */\n      tag_43\n        /* \"#utility.yul\":431:432   */\n      0x00\n        /* \"#utility.yul\":420:429   */\n      dup4\n        /* \"#utility.yul\":416:433   */\n      add\n        /* \"#utility.yul\":407:413   */\n      dup5\n        /* \"#utility.yul\":365:434   */\n      tag_30\n      jump\t// in\n    tag_43:\n        /* \"#utility.yul\":223:441   */\n      swap3\n      swap2\n      pop\n      pop\n      jump\t// out\n        /* \"#utility.yul\":528:645   */\n    tag_32:\n        /* \"#utility.yul\":637:638   */\n      0x00\n        /* \"#utility.yul\":634:635   */\n      dup1\n        /* \"#utility.yul\":627:639   */\n      revert\n        /* \"#utility.yul\":774:851   */\n    tag_34:\n        /* \"#utility.yul\":811:818   */\n      0x00\n        /* \"#utility.yul\":840:845   */\n      dup2\n        /* \"#utility.yul\":829:845   */\n      swap1\n      pop\n        /* \"#utility.yul\":774:851   */\n      swap2\n      swap1\n      pop\n      jump\t// out\n        /* \"#utility.yul\":857:979   */\n    tag_35:\n        /* \"#utility.yul\":930:954   */\n      tag_49\n        /* \"#utility.yul\":948:953   */\n      dup2\n        /* \"#utility.yul\":930:954   */\n      tag_34\n      jump\t// in\n    tag_49:\n        /* \"#utility.yul\":923:928   */\n      dup2\n        /* \"#utility.yul\":920:955   */\n      eq\n        /* \"#utility.yul\":910:973   */\n      tag_50\n      jumpi\n        /* \"#utility.yul\":969:970   */\n      0x00\n        /* \"#utility.yul\":966:967   */\n      dup1\n        /* \"#utility.yul\":959:971   */\n      revert\n        /* \"#utility.yul\":910:973   */\n    tag_50:\n        /* \"#utility.yul\":857:979   */\n      pop\n      jump\t// out\n        /* \"#utility.yul\":985:1124   */\n    tag_36:\n        /* \"#utility.yul\":1031:1036   */\n      0x00\n        /* \"#utility.yul\":1069:1075   */\n      dup2\n        /* \"#utility.yul\":1056:1076   */\n      calldataload\n        /* \"#utility.yul\":1047:1076   */\n      swap1\n      pop\n        /* \"#utility.yul\":1085:1118   */\n      tag_52\n        /* \"#utility.yul\":1112:1117   */\n      dup2\n        /* \"#utility.yul\":1085:1118   */\n      tag_35\n      jump\t// in\n    tag_52:\n        /* \"#utility.yul\":985:1124   */\n      swap3\n      swap2\n      pop\n      pop\n      jump\t// out\n        /* \"#utility.yul\":1130:1749   */\n    tag_16:\n        /* \"#utility.yul\":1207:1213   */\n      0x00\n        /* \"#utility.yul\":1215:1221   */\n      dup1\n        /* \"#utility.yul\":1223:1229   */\n      0x00\n        /* \"#utility.yul\":1272:1274   */\n      0x60\n        /* \"#utility.yul\":1260:1269   */\n      dup5\n        /* \"#utility.yul\":1251:1258   */\n      dup7\n        /* \"#utility.yul\":1247:1270   */\n      sub\n        /* \"#utility.yul\":1243:1275   */\n      slt\n        /* \"#utility.yul\":1240:1359   */\n      iszero\n      tag_54\n      jumpi\n        /* \"#utility.yul\":1278:1357   */\n      tag_55\n      tag_32\n      jump\t// in\n    tag_55:\n        /* \"#utility.yul\":1240:1359   */\n    tag_54:\n        /* \"#utility.yul\":1398:1399   */\n      0x00\n        /* \"#utility.yul\":1423:1476   */\n      tag_56\n        /* \"#utility.yul\":1468:1475   */\n      dup7\n        /* \"#utility.yul\":1459:1465   */\n      dup3\n        /* \"#utility.yul\":1448:1457   */\n      dup8\n        /* \"#utility.yul\":1444:1466   */\n      add\n        /* \"#utility.yul\":1423:1476   */\n      tag_36\n      jump\t// in\n    tag_56:\n        /* \"#utility.yul\":1413:1476   */\n      swap4\n      pop\n        /* \"#utility.yul\":1369:1486   */\n      pop\n        /* \"#utility.yul\":1525:1527   */\n      0x20\n        /* \"#utility.yul\":1551:1604   */\n      tag_57\n        /* \"#utility.yul\":1596:1603   */\n      dup7\n        /* \"#utility.yul\":1587:1593   */\n      dup3\n        /* \"#utility.yul\":1576:1585   */\n      dup8\n        /* \"#utility.yul\":1572:1594   */\n      add\n        /* \"#utility.yul\":1551:1604   */\n      tag_36\n      jump\t// in\n    tag_57:\n        /* \"#utility.yul\":1541:1604   */\n      swap3\n      pop\n        /* \"#utility.yul\":1496:1614   */\n      pop\n        /* \"#utility.yul\":1653:1655   */\n      0x40\n        /* \"#utility.yul\":1679:1732   */\n      tag_58\n        /* \"#utility.yul\":1724:1731   */\n      dup7\n        /* \"#utility.yul\":1715:1721   */\n      dup3\n        /* \"#utility.yul\":1704:1713   */\n      dup8\n        /* \"#utility.yul\":1700:1722   */\n      add\n        /* \"#utility.yul\":1679:1732   */\n      tag_36\n      jump\t// in\n    tag_58:\n        /* \"#utility.yul\":1669:1732   */\n      swap2\n      pop\n        /* \"#utility.yul\":1624:1742   */\n      pop\n        /* \"#utility.yul\":1130:1749   */\n      swap3\n      pop\n      swap3\n      pop\n      swap3\n      jump\t// out\n        /* \"#utility.yul\":1755:1873   */\n    tag_37:\n        /* \"#utility.yul\":1842:1866   */\n      tag_60\n        /* \"#utility.yul\":1860:1865   */\n      dup2\n        /* \"#utility.yul\":1842:1866   */\n      tag_34\n      jump\t// in\n    tag_60:\n        /* \"#utility.yul\":1837:1840   */\n      dup3\n        /* \"#utility.yul\":1830:1867   */\n      mstore\n        /* \"#utility.yul\":1755:1873   */\n      pop\n      pop\n      jump\t// out\n        /* \"#utility.yul\":1879:2101   */\n    tag_19:\n        /* \"#utility.yul\":1972:1976   */\n      0x00\n        /* \"#utility.yul\":2010:2012   */\n      0x20\n        /* \"#utility.yul\":1999:2008   */\n      dup3\n        /* \"#utility.yul\":1995:2013   */\n      add\n        /* \"#utility.yul\":1987:2013   */\n      swap1\n      pop\n        /* \"#utility.yul\":2023:2094   */\n      tag_62\n        /* \"#utility.yul\":2091:2092   */\n      0x00\n        /* \"#utility.yul\":2080:2089   */\n      dup4\n        /* \"#utility.yul\":2076:2093   */\n      add\n        /* \"#utility.yul\":2067:2073   */\n      dup5\n        /* \"#utility.yul\":2023:2094   */\n      tag_37\n      jump\t// in\n    tag_62:\n        /* \"#utility.yul\":1879:2101   */\n      swap3\n      swap2\n      pop\n      pop\n      jump\t// out\n\n    auxdata: 0xa2646970667358221220c3ce7c62aff169a6ca092e6233cbae8d9602ab71137eef221f6437f3534218e464736f6c634300081a0033\n}\n",
				"bytecode": {
					"linkReferences": {},
					"object": "6080604052348015600e575f80fd5b506102608061001c5f395ff3fe608060405234801561000f575f80fd5b506004361061004a575f3560e01c806315d4266c1461004e5780633b9eac4b1461006c5780634cf6c9ab1461008a578063a531f36a146100ba575b5f80fd5b6100566100d8565b6040516100639190610162565b60405180910390f35b6100746100eb565b6040516100819190610162565b60405180910390f35b6100a4600480360381019061009f91906101b2565b6100fc565b6040516100b19190610211565b60405180910390f35b6100c2610133565b6040516100cf9190610162565b60405180910390f35b5f60029054906101000a900461ffff1681565b5f8054906101000a900461ffff1681565b5f828411801561010b57508184115b156101185783905061012c565b818311156101285782905061012c565b8190505b9392505050565b5f60049054906101000a900461ffff1681565b5f61ffff82169050919050565b61015c81610146565b82525050565b5f6020820190506101755f830184610153565b92915050565b5f80fd5b5f819050919050565b6101918161017f565b811461019b575f80fd5b50565b5f813590506101ac81610188565b92915050565b5f805f606084860312156101c9576101c861017b565b5b5f6101d68682870161019e565b93505060206101e78682870161019e565b92505060406101f88682870161019e565b9150509250925092565b61020b8161017f565b82525050565b5f6020820190506102245f830184610202565b9291505056fea2646970667358221220c3ce7c62aff169a6ca092e6233cbae8d9602ab71137eef221f6437f3534218e464736f6c634300081a0033",
					"opcodes": "PUSH1 0x80 PUSH1 0x40 MSTORE CALLVALUE DUP1 ISZERO PUSH1 0xE JUMPI PUSH0 DUP1 REVERT JUMPDEST POP PUSH2 0x260 DUP1 PUSH2 0x1C PUSH0 CODECOPY PUSH0 RETURN INVALID PUSH1 0x80 PUSH1 0x40 MSTORE CALLVALUE DUP1 ISZERO PUSH2 0xF JUMPI PUSH0 DUP1 REVERT JUMPDEST POP PUSH1 0x4 CALLDATASIZE LT PUSH2 0x4A JUMPI PUSH0 CALLDATALOAD PUSH1 0xE0 SHR DUP1 PUSH4 0x15D4266C EQ PUSH2 0x4E JUMPI DUP1 PUSH4 0x3B9EAC4B EQ PUSH2 0x6C JUMPI DUP1 PUSH4 0x4CF6C9AB EQ PUSH2 0x8A JUMPI DUP1 PUSH4 0xA531F36A EQ PUSH2 0xBA JUMPI JUMPDEST PUSH0 DUP1 REVERT JUMPDEST PUSH2 0x56 PUSH2 0xD8 JUMP JUMPDEST PUSH1 0x40 MLOAD PUSH2 0x63 SWAP2 SWAP1 PUSH2 0x162 JUMP JUMPDEST PUSH1 0x40 MLOAD DUP1 SWAP2 SUB SWAP1 RETURN JUMPDEST PUSH2 0x74 PUSH2 0xEB JUMP JUMPDEST PUSH1 0x40 MLOAD PUSH2 0x81 SWAP2 SWAP1 PUSH2 0x162 JUMP JUMPDEST PUSH1 0x40 MLOAD DUP1 SWAP2 SUB SWAP1 RETURN JUMPDEST PUSH2 0xA4 PUSH1 0x4 DUP1 CALLDATASIZE SUB DUP2 ADD SWAP1 PUSH2 0x9F SWAP2 SWAP1 PUSH2 0x1B2 JUMP JUMPDEST PUSH2 0xFC JUMP JUMPDEST PUSH1 0x40 MLOAD PUSH2 0xB1 SWAP2 SWAP1 PUSH2 0x211 JUMP JUMPDEST PUSH1 0x40 MLOAD DUP1 SWAP2 SUB SWAP1 RETURN JUMPDEST PUSH2 0xC2 PUSH2 0x133 JUMP JUMPDEST PUSH1 0x40 MLOAD PUSH2 0xCF SWAP2 SWAP1 PUSH2 0x162 JUMP JUMPDEST PUSH1 0x40 MLOAD DUP1 SWAP2 SUB SWAP1 RETURN JUMPDEST PUSH0 PUSH1 0x2 SWAP1 SLOAD SWAP1 PUSH2 0x100 EXP SWAP1 DIV PUSH2 0xFFFF AND DUP2 JUMP JUMPDEST PUSH0 DUP1 SLOAD SWAP1 PUSH2 0x100 EXP SWAP1 DIV PUSH2 0xFFFF AND DUP2 JUMP JUMPDEST PUSH0 DUP3 DUP5 GT DUP1 ISZERO PUSH2 0x10B JUMPI POP DUP2 DUP5 GT JUMPDEST ISZERO PUSH2 0x118 JUMPI DUP4 SWAP1 POP PUSH2 0x12C JUMP JUMPDEST DUP2 DUP4 GT ISZERO PUSH2 0x128 JUMPI DUP3 SWAP1 POP PUSH2 0x12C JUMP JUMPDEST DUP2 SWAP1 POP JUMPDEST SWAP4 SWAP3 POP POP POP JUMP JUMPDEST PUSH0 PUSH1 0x4 SWAP1 SLOAD SWAP1 PUSH2 0x100 EXP SWAP1 DIV PUSH2 0xFFFF AND DUP2 JUMP JUMPDEST PUSH0 PUSH2 0xFFFF DUP3 AND SWAP1 POP SWAP2 SWAP1 POP JUMP JUMPDEST PUSH2 0x15C DUP2 PUSH2 0x146 JUMP JUMPDEST DUP3 MSTORE POP POP JUMP JUMPDEST PUSH0 PUSH1 0x20 DUP3 ADD SWAP1 POP PUSH2 0x175 PUSH0 DUP4 ADD DUP5 PUSH2 0x153 JUMP JUMPDEST SWAP3 SWAP2 POP POP JUMP JUMPDEST PUSH0 DUP1 REVERT JUMPDEST PUSH0 DUP2 SWAP1 POP SWAP2 SWAP1 POP JUMP JUMPDEST PUSH2 0x191 DUP2 PUSH2 0x17F JUMP JUMPDEST DUP2 EQ PUSH2 0x19B JUMPI PUSH0 DUP1 REVERT JUMPDEST POP JUMP JUMPDEST PUSH0 DUP2 CALLDATALOAD SWAP1 POP PUSH2 0x1AC DUP2 PUSH2 0x188 JUMP JUMPDEST SWAP3 SWAP2 POP POP JUMP JUMPDEST PUSH0 DUP1 PUSH0 PUSH1 0x60 DUP5 DUP7 SUB SLT ISZERO PUSH2 0x1C9 JUMPI PUSH2 0x1C8 PUSH2 0x17B JUMP JUMPDEST JUMPDEST PUSH0 PUSH2 0x1D6 DUP7 DUP3 DUP8 ADD PUSH2 0x19E JUMP JUMPDEST SWAP4 POP POP PUSH1 0x20 PUSH2 0x1E7 DUP7 DUP3 DUP8 ADD PUSH2 0x19E JUMP JUMPDEST SWAP3 POP POP PUSH1 0x40 PUSH2 0x1F8 DUP7 DUP3 DUP8 ADD PUSH2 0x19E JUMP JUMPDEST SWAP2 POP POP SWAP3 POP SWAP3 POP SWAP3 JUMP JUMPDEST PUSH2 0x20B DUP2 PUSH2 0x17F JUMP JUMPDEST DUP3 MSTORE POP POP JUMP JUMPDEST PUSH0 PUSH1 0x20 DUP3 ADD SWAP1 POP PUSH2 0x224 PUSH0 DUP4 ADD DUP5 PUSH2 0x202 JUMP JUMPDEST SWAP3 SWAP2 POP POP JUMP INVALID LOG2 PUSH5 0x6970667358 0x22 SLT KECCAK256 0xC3 0xCE PUSH29 0x62AFF169A6CA092E6233CBAE8D9602AB71137EEF221F6437F3534218E4 PUSH5 0x736F6C6343 STOP ADDMOD BYTE STOP CALLER "
				},
				"gasEstimates": {
					"creation": {
						"codeDepositCost": "121600",
						"executionCost": "163",
						"totalCost": "121763"
					},
					"external": {
						"findLargest(uint256,uint256,uint256)": "infinite",
						"num1()": "2463",
						"num2()": "2494",
						"num3()": "2560"
					}
				},
				"methodIdentifiers": {
					"findLargest(uint256,uint256,uint256)": "4cf6c9ab",
					"num1()": "3b9eac4b",
					"num2()": "15d4266c",
					"num3()": "a531f36a"
				}
			},
			"storageLayout": {
				"storage": [
					{
						"astId": 3,
						"contract": "Remix/Work/Q1.sol:Q1",
						"label": "num1",
						"offset": 0,
						"slot": "0",
						"type": "t_uint16"
					},
					{
						"astId": 5,
						"contract": "Remix/Work/Q1.sol:Q1",
						"label": "num2",
						"offset": 2,
						"slot": "0",
						"type": "t_uint16"
					},
					{
						"astId": 7,
						"contract": "Remix/Work/Q1.sol:Q1",
						"label": "num3",
						"offset": 4,
						"slot": "0",
						"type": "t_uint16"
					}
				],
				"types": {
					"t_uint16": {
						"encoding": "inplace",
						"label": "uint16",
						"numberOfBytes": "2"
					}
				}
			},
			"userdoc": {
				"kind": "user",
				"methods": {},
				"version": 1
			}
		}
	}
}