{
	"Remix/Work/day2/Q1_1.sol": {
		"Q1_1": {
			"abi": [
				{
					"inputs": [
						{
							"internalType": "int256",
							"name": "_num",
							"type": "int256"
						}
					],
					"name": "checkSign",
					"outputs": [
						{
							"internalType": "string",
							"name": "",
							"type": "string"
						}
					],
					"stateMutability": "pure",
					"type": "function"
				},
				{
					"inputs": [
						{
							"internalType": "uint256",
							"name": "_num1",
							"type": "uint256"
						},
						{
							"internalType": "uint256",
							"name": "_num2",
							"type": "uint256"
						},
						{
							"internalType": "uint256",
							"name": "_num3",
							"type": "uint256"
						}
					],
					"name": "findLargest",
					"outputs": [
						{
							"internalType": "uint256",
							"name": "",
							"type": "uint256"
						}
					],
					"stateMutability": "pure",
					"type": "function"
				},
				{
					"inputs": [
						{
							"internalType": "uint256",
							"name": "_num",
							"type": "uint256"
						}
					],
					"name": "getDigit",
					"outputs": [
						{
							"internalType": "string",
							"name": "",
							"type": "string"
						}
					],
					"stateMutability": "pure",
					"type": "function"
				},
				{
					"inputs": [],
					"name": "num1",
					"outputs": [
						{
							"internalType": "uint16",
							"name": "",
							"type": "uint16"
						}
					],
					"stateMutability": "view",
					"type": "function"
				},
				{
					"inputs": [],
					"name": "num2",
					"outputs": [
						{
							"internalType": "uint16",
							"name": "",
							"type": "uint16"
						}
					],
					"stateMutability": "view",
					"type": "function"
				},
				{
					"inputs": [],
					"name": "num3",
					"outputs": [
						{
							"internalType": "uint16",
							"name": "",
							"type": "uint16"
						}
					],
					"stateMutability": "view",
					"type": "function"
				}
			],
			"devdoc": {
				"kind": "dev",
				"methods": {},
				"version": 1
			},
			"evm": {
				"assembly": "    /* \"Remix/Work/day2/Q1_1.sol\":57:964  contract Q1_1{... */\n  mstore(0x40, 0x80)\n  callvalue\n  dup1\n  iszero\n  tag_1\n  jumpi\n  0x00\n  dup1\n  revert\ntag_1:\n  pop\n  dataSize(sub_0)\n  dup1\n  dataOffset(sub_0)\n  0x00\n  codecopy\n  0x00\n  return\nstop\n\nsub_0: assembly {\n        /* \"Remix/Work/day2/Q1_1.sol\":57:964  contract Q1_1{... */\n      mstore(0x40, 0x80)\n      callvalue\n      dup1\n      iszero\n      tag_1\n      jumpi\n      0x00\n      dup1\n      revert\n    tag_1:\n      pop\n      jumpi(tag_2, lt(calldatasize, 0x04))\n      shr(0xe0, calldataload(0x00))\n      dup1\n      0x15d4266c\n      eq\n      tag_3\n      jumpi\n      dup1\n      0x294fe43b\n      eq\n      tag_4\n      jumpi\n      dup1\n      0x3b9eac4b\n      eq\n      tag_5\n      jumpi\n      dup1\n      0x4cf6c9ab\n      eq\n      tag_6\n      jumpi\n      dup1\n      0x993e9ef4\n      eq\n      tag_7\n      jumpi\n      dup1\n      0xa531f36a\n      eq\n      tag_8\n      jumpi\n    tag_2:\n      0x00\n      dup1\n      revert\n        /* \"Remix/Work/day2/Q1_1.sol\":100:118  uint16 public num2 */\n    tag_3:\n      tag_9\n      tag_10\n      jump\t// in\n    tag_9:\n      mload(0x40)\n      tag_11\n      swap2\n      swap1\n      tag_12\n      jump\t// in\n    tag_11:\n      mload(0x40)\n      dup1\n      swap2\n      sub\n      swap1\n      return\n        /* \"Remix/Work/day2/Q1_1.sol\":416:610  function checkSign(int _num)public pure returns(string memory){... */\n    tag_4:\n      tag_13\n      0x04\n      dup1\n      calldatasize\n      sub\n      dup2\n      add\n      swap1\n      tag_14\n      swap2\n      swap1\n      tag_15\n      jump\t// in\n    tag_14:\n      tag_16\n      jump\t// in\n    tag_13:\n      mload(0x40)\n      tag_17\n      swap2\n      swap1\n      tag_18\n      jump\t// in\n    tag_17:\n      mload(0x40)\n      dup1\n      swap2\n      sub\n      swap1\n      return\n        /* \"Remix/Work/day2/Q1_1.sol\":76:94  uint16 public num1 */\n    tag_5:\n      tag_19\n      tag_20\n      jump\t// in\n    tag_19:\n      mload(0x40)\n      tag_21\n      swap2\n      swap1\n      tag_12\n      jump\t// in\n    tag_21:\n      mload(0x40)\n      dup1\n      swap2\n      sub\n      swap1\n      return\n        /* \"Remix/Work/day2/Q1_1.sol\":149:411  function findLargest(uint _num1,uint _num2, uint _num3)public pure returns(uint) {... */\n    tag_6:\n      tag_22\n      0x04\n      dup1\n      calldatasize\n      sub\n      dup2\n      add\n      swap1\n      tag_23\n      swap2\n      swap1\n      tag_24\n      jump\t// in\n    tag_23:\n      tag_25\n      jump\t// in\n    tag_22:\n      mload(0x40)\n      tag_26\n      swap2\n      swap1\n      tag_27\n      jump\t// in\n    tag_26:\n      mload(0x40)\n      dup1\n      swap2\n      sub\n      swap1\n      return\n        /* \"Remix/Work/day2/Q1_1.sol\":615:955  function getDigit(uint _num)public pure returns(string memory){... */\n    tag_7:\n      tag_28\n      0x04\n      dup1\n      calldatasize\n      sub\n      dup2\n      add\n      swap1\n      tag_29\n      swap2\n      swap1\n      tag_30\n      jump\t// in\n    tag_29:\n      tag_31\n      jump\t// in\n    tag_28:\n      mload(0x40)\n      tag_32\n      swap2\n      swap1\n      tag_18\n      jump\t// in\n    tag_32:\n      mload(0x40)\n      dup1\n      swap2\n      sub\n      swap1\n      return\n        /* \"Remix/Work/day2/Q1_1.sol\":124:142  uint16 public num3 */\n    tag_8:\n      tag_33\n      tag_34\n      jump\t// in\n    tag_33:\n      mload(0x40)\n      tag_35\n      swap2\n      swap1\n      tag_12\n      jump\t// in\n    tag_35:\n      mload(0x40)\n      dup1\n      swap2\n      sub\n      swap1\n      return\n        /* \"Remix/Work/day2/Q1_1.sol\":100:118  uint16 public num2 */\n    tag_10:\n      0x00\n      0x02\n      swap1\n      sload\n      swap1\n      0x0100\n      exp\n      swap1\n      div\n      0xffff\n      and\n      dup2\n      jump\t// out\n        /* \"Remix/Work/day2/Q1_1.sol\":416:610  function checkSign(int _num)public pure returns(string memory){... */\n    tag_16:\n        /* \"Remix/Work/day2/Q1_1.sol\":464:477  string memory */\n      0x60\n        /* \"Remix/Work/day2/Q1_1.sol\":500:501  0 */\n      0x00\n        /* \"Remix/Work/day2/Q1_1.sol\":495:499  _num */\n      dup3\n        /* \"Remix/Work/day2/Q1_1.sol\":495:501  _num>0 */\n      sgt\n        /* \"Remix/Work/day2/Q1_1.sol\":492:599  if(_num>0) return \"Positive\";... */\n      iszero\n      tag_37\n      jumpi\n        /* \"Remix/Work/day2/Q1_1.sol\":503:520  return \"Positive\" */\n      mload(0x40)\n      dup1\n      0x40\n      add\n      0x40\n      mstore\n      dup1\n      0x08\n      dup2\n      mstore\n      0x20\n      add\n      0x506f736974697665000000000000000000000000000000000000000000000000\n      dup2\n      mstore\n      pop\n      swap1\n      pop\n      jump(tag_36)\n        /* \"Remix/Work/day2/Q1_1.sol\":492:599  if(_num>0) return \"Positive\";... */\n    tag_37:\n        /* \"Remix/Work/day2/Q1_1.sol\":547:548  0 */\n      0x00\n        /* \"Remix/Work/day2/Q1_1.sol\":542:546  _num */\n      dup3\n        /* \"Remix/Work/day2/Q1_1.sol\":542:548  _num<0 */\n      slt\n        /* \"Remix/Work/day2/Q1_1.sol\":539:599  if(_num<0) return \"Negative\";... */\n      iszero\n      tag_39\n      jumpi\n        /* \"Remix/Work/day2/Q1_1.sol\":550:567  return \"Negative\" */\n      mload(0x40)\n      dup1\n      0x40\n      add\n      0x40\n      mstore\n      dup1\n      0x08\n      dup2\n      mstore\n      0x20\n      add\n      0x4e65676174697665000000000000000000000000000000000000000000000000\n      dup2\n      mstore\n      pop\n      swap1\n      pop\n      jump(tag_36)\n        /* \"Remix/Work/day2/Q1_1.sol\":539:599  if(_num<0) return \"Negative\";... */\n    tag_39:\n        /* \"Remix/Work/day2/Q1_1.sol\":586:599  return \"zero\" */\n      mload(0x40)\n      dup1\n      0x40\n      add\n      0x40\n      mstore\n      dup1\n      0x04\n      dup2\n      mstore\n      0x20\n      add\n      0x7a65726f00000000000000000000000000000000000000000000000000000000\n      dup2\n      mstore\n      pop\n      swap1\n      pop\n        /* \"Remix/Work/day2/Q1_1.sol\":416:610  function checkSign(int _num)public pure returns(string memory){... */\n    tag_36:\n      swap2\n      swap1\n      pop\n      jump\t// out\n        /* \"Remix/Work/day2/Q1_1.sol\":76:94  uint16 public num1 */\n    tag_20:\n      0x00\n      dup1\n      sload\n      swap1\n      0x0100\n      exp\n      swap1\n      div\n      0xffff\n      and\n      dup2\n      jump\t// out\n        /* \"Remix/Work/day2/Q1_1.sol\":149:411  function findLargest(uint _num1,uint _num2, uint _num3)public pure returns(uint) {... */\n    tag_25:\n        /* \"Remix/Work/day2/Q1_1.sol\":224:228  uint */\n      0x00\n        /* \"Remix/Work/day2/Q1_1.sol\":249:254  _num2 */\n      dup3\n        /* \"Remix/Work/day2/Q1_1.sol\":243:248  _num1 */\n      dup5\n        /* \"Remix/Work/day2/Q1_1.sol\":243:254  _num1>_num2 */\n      gt\n        /* \"Remix/Work/day2/Q1_1.sol\":243:269  _num1>_num2 && _num1>_num3 */\n      dup1\n      iszero\n      tag_42\n      jumpi\n      pop\n        /* \"Remix/Work/day2/Q1_1.sol\":264:269  _num3 */\n      dup2\n        /* \"Remix/Work/day2/Q1_1.sol\":258:263  _num1 */\n      dup5\n        /* \"Remix/Work/day2/Q1_1.sol\":258:269  _num1>_num3 */\n      gt\n        /* \"Remix/Work/day2/Q1_1.sol\":243:269  _num1>_num2 && _num1>_num3 */\n    tag_42:\n        /* \"Remix/Work/day2/Q1_1.sol\":240:405  if(_num1>_num2 && _num1>_num3){... */\n      iszero\n      tag_43\n      jumpi\n        /* \"Remix/Work/day2/Q1_1.sol\":291:296  _num1 */\n      dup4\n        /* \"Remix/Work/day2/Q1_1.sol\":284:296  return _num1 */\n      swap1\n      pop\n      jump(tag_41)\n        /* \"Remix/Work/day2/Q1_1.sol\":240:405  if(_num1>_num2 && _num1>_num3){... */\n    tag_43:\n        /* \"Remix/Work/day2/Q1_1.sol\":321:326  _num3 */\n      dup2\n        /* \"Remix/Work/day2/Q1_1.sol\":315:320  _num2 */\n      dup4\n        /* \"Remix/Work/day2/Q1_1.sol\":315:326  _num2>_num3 */\n      gt\n        /* \"Remix/Work/day2/Q1_1.sol\":312:405  if(_num2>_num3){... */\n      iszero\n      tag_45\n      jumpi\n        /* \"Remix/Work/day2/Q1_1.sol\":348:353  _num2 */\n      dup3\n        /* \"Remix/Work/day2/Q1_1.sol\":341:353  return _num2 */\n      swap1\n      pop\n      jump(tag_41)\n        /* \"Remix/Work/day2/Q1_1.sol\":312:405  if(_num2>_num3){... */\n    tag_45:\n        /* \"Remix/Work/day2/Q1_1.sol\":389:394  _num3 */\n      dup2\n        /* \"Remix/Work/day2/Q1_1.sol\":382:394  return _num3 */\n      swap1\n      pop\n        /* \"Remix/Work/day2/Q1_1.sol\":149:411  function findLargest(uint _num1,uint _num2, uint _num3)public pure returns(uint) {... */\n    tag_41:\n      swap4\n      swap3\n      pop\n      pop\n      pop\n      jump\t// out\n        /* \"Remix/Work/day2/Q1_1.sol\":615:955  function getDigit(uint _num)public pure returns(string memory){... */\n    tag_31:\n        /* \"Remix/Work/day2/Q1_1.sol\":663:676  string memory */\n      0x60\n        /* \"Remix/Work/day2/Q1_1.sol\":696:697  0 */\n      0x00\n        /* \"Remix/Work/day2/Q1_1.sol\":690:694  _num */\n      dup3\n        /* \"Remix/Work/day2/Q1_1.sol\":690:697  _num==0 */\n      sub\n        /* \"Remix/Work/day2/Q1_1.sol\":687:948  if(_num==0) return \"Zero\";... */\n      tag_48\n      jumpi\n        /* \"Remix/Work/day2/Q1_1.sol\":699:712  return \"Zero\" */\n      mload(0x40)\n      dup1\n      0x40\n      add\n      0x40\n      mstore\n      dup1\n      0x04\n      dup2\n      mstore\n      0x20\n      add\n      0x5a65726f00000000000000000000000000000000000000000000000000000000\n      dup2\n      mstore\n      pop\n      swap1\n      pop\n      jump(tag_47)\n        /* \"Remix/Work/day2/Q1_1.sol\":687:948  if(_num==0) return \"Zero\";... */\n    tag_48:\n        /* \"Remix/Work/day2/Q1_1.sol\":736:737  1 */\n      0x01\n        /* \"Remix/Work/day2/Q1_1.sol\":730:734  _num */\n      dup3\n        /* \"Remix/Work/day2/Q1_1.sol\":730:737  _num==1 */\n      sub\n        /* \"Remix/Work/day2/Q1_1.sol\":727:948  if(_num==1) return \"One\";... */\n      tag_50\n      jumpi\n        /* \"Remix/Work/day2/Q1_1.sol\":739:751  return \"One\" */\n      mload(0x40)\n      dup1\n      0x40\n      add\n      0x40\n      mstore\n      dup1\n      0x03\n      dup2\n      mstore\n      0x20\n      add\n      0x4f6e650000000000000000000000000000000000000000000000000000000000\n      dup2\n      mstore\n      pop\n      swap1\n      pop\n      jump(tag_47)\n        /* \"Remix/Work/day2/Q1_1.sol\":727:948  if(_num==1) return \"One\";... */\n    tag_50:\n        /* \"Remix/Work/day2/Q1_1.sol\":775:776  2 */\n      0x02\n        /* \"Remix/Work/day2/Q1_1.sol\":769:773  _num */\n      dup3\n        /* \"Remix/Work/day2/Q1_1.sol\":769:776  _num==2 */\n      sub\n        /* \"Remix/Work/day2/Q1_1.sol\":766:948  if(_num==2) return \"Two\";... */\n      tag_52\n      jumpi\n        /* \"Remix/Work/day2/Q1_1.sol\":778:790  return \"Two\" */\n      mload(0x40)\n      dup1\n      0x40\n      add\n      0x40\n      mstore\n      dup1\n      0x03\n      dup2\n      mstore\n      0x20\n      add\n      0x54776f0000000000000000000000000000000000000000000000000000000000\n      dup2\n      mstore\n      pop\n      swap1\n      pop\n      jump(tag_47)\n        /* \"Remix/Work/day2/Q1_1.sol\":766:948  if(_num==2) return \"Two\";... */\n    tag_52:\n        /* \"Remix/Work/day2/Q1_1.sol\":814:815  3 */\n      0x03\n        /* \"Remix/Work/day2/Q1_1.sol\":808:812  _num */\n      dup3\n        /* \"Remix/Work/day2/Q1_1.sol\":808:815  _num==3 */\n      sub\n        /* \"Remix/Work/day2/Q1_1.sol\":805:948  if(_num==3) return \"Three\";... */\n      tag_54\n      jumpi\n        /* \"Remix/Work/day2/Q1_1.sol\":817:831  return \"Three\" */\n      mload(0x40)\n      dup1\n      0x40\n      add\n      0x40\n      mstore\n      dup1\n      0x05\n      dup2\n      mstore\n      0x20\n      add\n      0x5468726565000000000000000000000000000000000000000000000000000000\n      dup2\n      mstore\n      pop\n      swap1\n      pop\n      jump(tag_47)\n        /* \"Remix/Work/day2/Q1_1.sol\":805:948  if(_num==3) return \"Three\";... */\n    tag_54:\n        /* \"Remix/Work/day2/Q1_1.sol\":855:856  4 */\n      0x04\n        /* \"Remix/Work/day2/Q1_1.sol\":849:853  _num */\n      dup3\n        /* \"Remix/Work/day2/Q1_1.sol\":849:856  _num==4 */\n      sub\n        /* \"Remix/Work/day2/Q1_1.sol\":846:948  if(_num==4) return \"Four\";... */\n      tag_56\n      jumpi\n        /* \"Remix/Work/day2/Q1_1.sol\":858:871  return \"Four\" */\n      mload(0x40)\n      dup1\n      0x40\n      add\n      0x40\n      mstore\n      dup1\n      0x04\n      dup2\n      mstore\n      0x20\n      add\n      0x466f757200000000000000000000000000000000000000000000000000000000\n      dup2\n      mstore\n      pop\n      swap1\n      pop\n      jump(tag_47)\n        /* \"Remix/Work/day2/Q1_1.sol\":846:948  if(_num==4) return \"Four\";... */\n    tag_56:\n        /* \"Remix/Work/day2/Q1_1.sol\":895:896  5 */\n      0x05\n        /* \"Remix/Work/day2/Q1_1.sol\":889:893  _num */\n      dup3\n        /* \"Remix/Work/day2/Q1_1.sol\":889:896  _num==5 */\n      sub\n        /* \"Remix/Work/day2/Q1_1.sol\":886:948  if(_num==5) return \"Five\";... */\n      tag_58\n      jumpi\n        /* \"Remix/Work/day2/Q1_1.sol\":898:911  return \"Five\" */\n      mload(0x40)\n      dup1\n      0x40\n      add\n      0x40\n      mstore\n      dup1\n      0x04\n      dup2\n      mstore\n      0x20\n      add\n      0x4669766500000000000000000000000000000000000000000000000000000000\n      dup2\n      mstore\n      pop\n      swap1\n      pop\n      jump(tag_47)\n        /* \"Remix/Work/day2/Q1_1.sol\":886:948  if(_num==5) return \"Five\";... */\n    tag_58:\n        /* \"Remix/Work/day2/Q1_1.sol\":926:948  return \"Invalid Input\" */\n      mload(0x40)\n      dup1\n      0x40\n      add\n      0x40\n      mstore\n      dup1\n      0x0d\n      dup2\n      mstore\n      0x20\n      add\n      0x496e76616c696420496e70757400000000000000000000000000000000000000\n      dup2\n      mstore\n      pop\n      swap1\n      pop\n        /* \"Remix/Work/day2/Q1_1.sol\":615:955  function getDigit(uint _num)public pure returns(string memory){... */\n    tag_47:\n      swap2\n      swap1\n      pop\n      jump\t// out\n        /* \"Remix/Work/day2/Q1_1.sol\":124:142  uint16 public num3 */\n    tag_34:\n      0x00\n      0x04\n      swap1\n      sload\n      swap1\n      0x0100\n      exp\n      swap1\n      div\n      0xffff\n      and\n      dup2\n      jump\t// out\n        /* \"#utility.yul\":7:96   */\n    tag_60:\n        /* \"#utility.yul\":43:50   */\n      0x00\n        /* \"#utility.yul\":83:89   */\n      0xffff\n        /* \"#utility.yul\":76:81   */\n      dup3\n        /* \"#utility.yul\":72:90   */\n      and\n        /* \"#utility.yul\":61:90   */\n      swap1\n      pop\n        /* \"#utility.yul\":7:96   */\n      swap2\n      swap1\n      pop\n      jump\t// out\n        /* \"#utility.yul\":102:217   */\n    tag_61:\n        /* \"#utility.yul\":187:210   */\n      tag_80\n        /* \"#utility.yul\":204:209   */\n      dup2\n        /* \"#utility.yul\":187:210   */\n      tag_60\n      jump\t// in\n    tag_80:\n        /* \"#utility.yul\":182:185   */\n      dup3\n        /* \"#utility.yul\":175:211   */\n      mstore\n        /* \"#utility.yul\":102:217   */\n      pop\n      pop\n      jump\t// out\n        /* \"#utility.yul\":223:441   */\n    tag_12:\n        /* \"#utility.yul\":314:318   */\n      0x00\n        /* \"#utility.yul\":352:354   */\n      0x20\n        /* \"#utility.yul\":341:350   */\n      dup3\n        /* \"#utility.yul\":337:355   */\n      add\n        /* \"#utility.yul\":329:355   */\n      swap1\n      pop\n        /* \"#utility.yul\":365:434   */\n      tag_82\n        /* \"#utility.yul\":431:432   */\n      0x00\n        /* \"#utility.yul\":420:429   */\n      dup4\n        /* \"#utility.yul\":416:433   */\n      add\n        /* \"#utility.yul\":407:413   */\n      dup5\n        /* \"#utility.yul\":365:434   */\n      tag_61\n      jump\t// in\n    tag_82:\n        /* \"#utility.yul\":223:441   */\n      swap3\n      swap2\n      pop\n      pop\n      jump\t// out\n        /* \"#utility.yul\":528:645   */\n    tag_63:\n        /* \"#utility.yul\":637:638   */\n      0x00\n        /* \"#utility.yul\":634:635   */\n      dup1\n        /* \"#utility.yul\":627:639   */\n      revert\n        /* \"#utility.yul\":774:850   */\n    tag_65:\n        /* \"#utility.yul\":810:817   */\n      0x00\n        /* \"#utility.yul\":839:844   */\n      dup2\n        /* \"#utility.yul\":828:844   */\n      swap1\n      pop\n        /* \"#utility.yul\":774:850   */\n      swap2\n      swap1\n      pop\n      jump\t// out\n        /* \"#utility.yul\":856:976   */\n    tag_66:\n        /* \"#utility.yul\":928:951   */\n      tag_88\n        /* \"#utility.yul\":945:950   */\n      dup2\n        /* \"#utility.yul\":928:951   */\n      tag_65\n      jump\t// in\n    tag_88:\n        /* \"#utility.yul\":921:926   */\n      dup2\n        /* \"#utility.yul\":918:952   */\n      eq\n        /* \"#utility.yul\":908:970   */\n      tag_89\n      jumpi\n        /* \"#utility.yul\":966:967   */\n      0x00\n        /* \"#utility.yul\":963:964   */\n      dup1\n        /* \"#utility.yul\":956:968   */\n      revert\n        /* \"#utility.yul\":908:970   */\n    tag_89:\n        /* \"#utility.yul\":856:976   */\n      pop\n      jump\t// out\n        /* \"#utility.yul\":982:1119   */\n    tag_67:\n        /* \"#utility.yul\":1027:1032   */\n      0x00\n        /* \"#utility.yul\":1065:1071   */\n      dup2\n        /* \"#utility.yul\":1052:1072   */\n      calldataload\n        /* \"#utility.yul\":1043:1072   */\n      swap1\n      pop\n        /* \"#utility.yul\":1081:1113   */\n      tag_91\n        /* \"#utility.yul\":1107:1112   */\n      dup2\n        /* \"#utility.yul\":1081:1113   */\n      tag_66\n      jump\t// in\n    tag_91:\n        /* \"#utility.yul\":982:1119   */\n      swap3\n      swap2\n      pop\n      pop\n      jump\t// out\n        /* \"#utility.yul\":1125:1452   */\n    tag_15:\n        /* \"#utility.yul\":1183:1189   */\n      0x00\n        /* \"#utility.yul\":1232:1234   */\n      0x20\n        /* \"#utility.yul\":1220:1229   */\n      dup3\n        /* \"#utility.yul\":1211:1218   */\n      dup5\n        /* \"#utility.yul\":1207:1230   */\n      sub\n        /* \"#utility.yul\":1203:1235   */\n      slt\n        /* \"#utility.yul\":1200:1319   */\n      iszero\n      tag_93\n      jumpi\n        /* \"#utility.yul\":1238:1317   */\n      tag_94\n      tag_63\n      jump\t// in\n    tag_94:\n        /* \"#utility.yul\":1200:1319   */\n    tag_93:\n        /* \"#utility.yul\":1358:1359   */\n      0x00\n        /* \"#utility.yul\":1383:1435   */\n      tag_95\n        /* \"#utility.yul\":1427:1434   */\n      dup5\n        /* \"#utility.yul\":1418:1424   */\n      dup3\n        /* \"#utility.yul\":1407:1416   */\n      dup6\n        /* \"#utility.yul\":1403:1425   */\n      add\n        /* \"#utility.yul\":1383:1435   */\n      tag_67\n      jump\t// in\n    tag_95:\n        /* \"#utility.yul\":1373:1435   */\n      swap2\n      pop\n        /* \"#utility.yul\":1329:1445   */\n      pop\n        /* \"#utility.yul\":1125:1452   */\n      swap3\n      swap2\n      pop\n      pop\n      jump\t// out\n        /* \"#utility.yul\":1458:1557   */\n    tag_68:\n        /* \"#utility.yul\":1510:1516   */\n      0x00\n        /* \"#utility.yul\":1544:1549   */\n      dup2\n        /* \"#utility.yul\":1538:1550   */\n      mload\n        /* \"#utility.yul\":1528:1550   */\n      swap1\n      pop\n        /* \"#utility.yul\":1458:1557   */\n      swap2\n      swap1\n      pop\n      jump\t// out\n        /* \"#utility.yul\":1563:1732   */\n    tag_69:\n        /* \"#utility.yul\":1647:1658   */\n      0x00\n        /* \"#utility.yul\":1681:1687   */\n      dup3\n        /* \"#utility.yul\":1676:1679   */\n      dup3\n        /* \"#utility.yul\":1669:1688   */\n      mstore\n        /* \"#utility.yul\":1721:1725   */\n      0x20\n        /* \"#utility.yul\":1716:1719   */\n      dup3\n        /* \"#utility.yul\":1712:1726   */\n      add\n        /* \"#utility.yul\":1697:1726   */\n      swap1\n      pop\n        /* \"#utility.yul\":1563:1732   */\n      swap3\n      swap2\n      pop\n      pop\n      jump\t// out\n        /* \"#utility.yul\":1738:1877   */\n    tag_70:\n        /* \"#utility.yul\":1827:1833   */\n      dup3\n        /* \"#utility.yul\":1822:1825   */\n      dup2\n        /* \"#utility.yul\":1817:1820   */\n      dup4\n        /* \"#utility.yul\":1811:1834   */\n      mcopy\n        /* \"#utility.yul\":1868:1869   */\n      0x00\n        /* \"#utility.yul\":1859:1865   */\n      dup4\n        /* \"#utility.yul\":1854:1857   */\n      dup4\n        /* \"#utility.yul\":1850:1866   */\n      add\n        /* \"#utility.yul\":1843:1870   */\n      mstore\n        /* \"#utility.yul\":1738:1877   */\n      pop\n      pop\n      pop\n      jump\t// out\n        /* \"#utility.yul\":1883:1985   */\n    tag_71:\n        /* \"#utility.yul\":1924:1930   */\n      0x00\n        /* \"#utility.yul\":1975:1977   */\n      0x1f\n        /* \"#utility.yul\":1971:1978   */\n      not\n        /* \"#utility.yul\":1966:1968   */\n      0x1f\n        /* \"#utility.yul\":1959:1964   */\n      dup4\n        /* \"#utility.yul\":1955:1969   */\n      add\n        /* \"#utility.yul\":1951:1979   */\n      and\n        /* \"#utility.yul\":1941:1979   */\n      swap1\n      pop\n        /* \"#utility.yul\":1883:1985   */\n      swap2\n      swap1\n      pop\n      jump\t// out\n        /* \"#utility.yul\":1991:2368   */\n    tag_72:\n        /* \"#utility.yul\":2079:2082   */\n      0x00\n        /* \"#utility.yul\":2107:2146   */\n      tag_101\n        /* \"#utility.yul\":2140:2145   */\n      dup3\n        /* \"#utility.yul\":2107:2146   */\n      tag_68\n      jump\t// in\n    tag_101:\n        /* \"#utility.yul\":2162:2233   */\n      tag_102\n        /* \"#utility.yul\":2226:2232   */\n      dup2\n        /* \"#utility.yul\":2221:2224   */\n      dup6\n        /* \"#utility.yul\":2162:2233   */\n      tag_69\n      jump\t// in\n    tag_102:\n        /* \"#utility.yul\":2155:2233   */\n      swap4\n      pop\n        /* \"#utility.yul\":2242:2307   */\n      tag_103\n        /* \"#utility.yul\":2300:2306   */\n      dup2\n        /* \"#utility.yul\":2295:2298   */\n      dup6\n        /* \"#utility.yul\":2288:2292   */\n      0x20\n        /* \"#utility.yul\":2281:2286   */\n      dup7\n        /* \"#utility.yul\":2277:2293   */\n      add\n        /* \"#utility.yul\":2242:2307   */\n      tag_70\n      jump\t// in\n    tag_103:\n        /* \"#utility.yul\":2332:2361   */\n      tag_104\n        /* \"#utility.yul\":2354:2360   */\n      dup2\n        /* \"#utility.yul\":2332:2361   */\n      tag_71\n      jump\t// in\n    tag_104:\n        /* \"#utility.yul\":2327:2330   */\n      dup5\n        /* \"#utility.yul\":2323:2362   */\n      add\n        /* \"#utility.yul\":2316:2362   */\n      swap2\n      pop\n        /* \"#utility.yul\":2083:2368   */\n      pop\n        /* \"#utility.yul\":1991:2368   */\n      swap3\n      swap2\n      pop\n      pop\n      jump\t// out\n        /* \"#utility.yul\":2374:2687   */\n    tag_18:\n        /* \"#utility.yul\":2487:2491   */\n      0x00\n        /* \"#utility.yul\":2525:2527   */\n      0x20\n        /* \"#utility.yul\":2514:2523   */\n      dup3\n        /* \"#utility.yul\":2510:2528   */\n      add\n        /* \"#utility.yul\":2502:2528   */\n      swap1\n      pop\n        /* \"#utility.yul\":2574:2583   */\n      dup2\n        /* \"#utility.yul\":2568:2572   */\n      dup2\n        /* \"#utility.yul\":2564:2584   */\n      sub\n        /* \"#utility.yul\":2560:2561   */\n      0x00\n        /* \"#utility.yul\":2549:2558   */\n      dup4\n        /* \"#utility.yul\":2545:2562   */\n      add\n        /* \"#utility.yul\":2538:2585   */\n      mstore\n        /* \"#utility.yul\":2602:2680   */\n      tag_106\n        /* \"#utility.yul\":2675:2679   */\n      dup2\n        /* \"#utility.yul\":2666:2672   */\n      dup5\n        /* \"#utility.yul\":2602:2680   */\n      tag_72\n      jump\t// in\n    tag_106:\n        /* \"#utility.yul\":2594:2680   */\n      swap1\n      pop\n        /* \"#utility.yul\":2374:2687   */\n      swap3\n      swap2\n      pop\n      pop\n      jump\t// out\n        /* \"#utility.yul\":2693:2770   */\n    tag_73:\n        /* \"#utility.yul\":2730:2737   */\n      0x00\n        /* \"#utility.yul\":2759:2764   */\n      dup2\n        /* \"#utility.yul\":2748:2764   */\n      swap1\n      pop\n        /* \"#utility.yul\":2693:2770   */\n      swap2\n      swap1\n      pop\n      jump\t// out\n        /* \"#utility.yul\":2776:2898   */\n    tag_74:\n        /* \"#utility.yul\":2849:2873   */\n      tag_109\n        /* \"#utility.yul\":2867:2872   */\n      dup2\n        /* \"#utility.yul\":2849:2873   */\n      tag_73\n      jump\t// in\n    tag_109:\n        /* \"#utility.yul\":2842:2847   */\n      dup2\n        /* \"#utility.yul\":2839:2874   */\n      eq\n        /* \"#utility.yul\":2829:2892   */\n      tag_110\n      jumpi\n        /* \"#utility.yul\":2888:2889   */\n      0x00\n        /* \"#utility.yul\":2885:2886   */\n      dup1\n        /* \"#utility.yul\":2878:2890   */\n      revert\n        /* \"#utility.yul\":2829:2892   */\n    tag_110:\n        /* \"#utility.yul\":2776:2898   */\n      pop\n      jump\t// out\n        /* \"#utility.yul\":2904:3043   */\n    tag_75:\n        /* \"#utility.yul\":2950:2955   */\n      0x00\n        /* \"#utility.yul\":2988:2994   */\n      dup2\n        /* \"#utility.yul\":2975:2995   */\n      calldataload\n        /* \"#utility.yul\":2966:2995   */\n      swap1\n      pop\n        /* \"#utility.yul\":3004:3037   */\n      tag_112\n        /* \"#utility.yul\":3031:3036   */\n      dup2\n        /* \"#utility.yul\":3004:3037   */\n      tag_74\n      jump\t// in\n    tag_112:\n        /* \"#utility.yul\":2904:3043   */\n      swap3\n      swap2\n      pop\n      pop\n      jump\t// out\n        /* \"#utility.yul\":3049:3668   */\n    tag_24:\n        /* \"#utility.yul\":3126:3132   */\n      0x00\n        /* \"#utility.yul\":3134:3140   */\n      dup1\n        /* \"#utility.yul\":3142:3148   */\n      0x00\n        /* \"#utility.yul\":3191:3193   */\n      0x60\n        /* \"#utility.yul\":3179:3188   */\n      dup5\n        /* \"#utility.yul\":3170:3177   */\n      dup7\n        /* \"#utility.yul\":3166:3189   */\n      sub\n        /* \"#utility.yul\":3162:3194   */\n      slt\n        /* \"#utility.yul\":3159:3278   */\n      iszero\n      tag_114\n      jumpi\n        /* \"#utility.yul\":3197:3276   */\n      tag_115\n      tag_63\n      jump\t// in\n    tag_115:\n        /* \"#utility.yul\":3159:3278   */\n    tag_114:\n        /* \"#utility.yul\":3317:3318   */\n      0x00\n        /* \"#utility.yul\":3342:3395   */\n      tag_116\n        /* \"#utility.yul\":3387:3394   */\n      dup7\n        /* \"#utility.yul\":3378:3384   */\n      dup3\n        /* \"#utility.yul\":3367:3376   */\n      dup8\n        /* \"#utility.yul\":3363:3385   */\n      add\n        /* \"#utility.yul\":3342:3395   */\n      tag_75\n      jump\t// in\n    tag_116:\n        /* \"#utility.yul\":3332:3395   */\n      swap4\n      pop\n        /* \"#utility.yul\":3288:3405   */\n      pop\n        /* \"#utility.yul\":3444:3446   */\n      0x20\n        /* \"#utility.yul\":3470:3523   */\n      tag_117\n        /* \"#utility.yul\":3515:3522   */\n      dup7\n        /* \"#utility.yul\":3506:3512   */\n      dup3\n        /* \"#utility.yul\":3495:3504   */\n      dup8\n        /* \"#utility.yul\":3491:3513   */\n      add\n        /* \"#utility.yul\":3470:3523   */\n      tag_75\n      jump\t// in\n    tag_117:\n        /* \"#utility.yul\":3460:3523   */\n      swap3\n      pop\n        /* \"#utility.yul\":3415:3533   */\n      pop\n        /* \"#utility.yul\":3572:3574   */\n      0x40\n        /* \"#utility.yul\":3598:3651   */\n      tag_118\n        /* \"#utility.yul\":3643:3650   */\n      dup7\n        /* \"#utility.yul\":3634:3640   */\n      dup3\n        /* \"#utility.yul\":3623:3632   */\n      dup8\n        /* \"#utility.yul\":3619:3641   */\n      add\n        /* \"#utility.yul\":3598:3651   */\n      tag_75\n      jump\t// in\n    tag_118:\n        /* \"#utility.yul\":3588:3651   */\n      swap2\n      pop\n        /* \"#utility.yul\":3543:3661   */\n      pop\n        /* \"#utility.yul\":3049:3668   */\n      swap3\n      pop\n      swap3\n      pop\n      swap3\n      jump\t// out\n        /* \"#utility.yul\":3674:3792   */\n    tag_76:\n        /* \"#utility.yul\":3761:3785   */\n      tag_120\n        /* \"#utility.yul\":3779:3784   */\n      dup2\n        /* \"#utility.yul\":3761:3785   */\n      tag_73\n      jump\t// in\n    tag_120:\n        /* \"#utility.yul\":3756:3759   */\n      dup3\n        /* \"#utility.yul\":3749:3786   */\n      mstore\n        /* \"#utility.yul\":3674:3792   */\n      pop\n      pop\n      jump\t// out\n        /* \"#utility.yul\":3798:4020   */\n    tag_27:\n        /* \"#utility.yul\":3891:3895   */\n      0x00\n        /* \"#utility.yul\":3929:3931   */\n      0x20\n        /* \"#utility.yul\":3918:3927   */\n      dup3\n        /* \"#utility.yul\":3914:3932   */\n      add\n        /* \"#utility.yul\":3906:3932   */\n      swap1\n      pop\n        /* \"#utility.yul\":3942:4013   */\n      tag_122\n        /* \"#utility.yul\":4010:4011   */\n      0x00\n        /* \"#utility.yul\":3999:4008   */\n      dup4\n        /* \"#utility.yul\":3995:4012   */\n      add\n        /* \"#utility.yul\":3986:3992   */\n      dup5\n        /* \"#utility.yul\":3942:4013   */\n      tag_76\n      jump\t// in\n    tag_122:\n        /* \"#utility.yul\":3798:4020   */\n      swap3\n      swap2\n      pop\n      pop\n      jump\t// out\n        /* \"#utility.yul\":4026:4355   */\n    tag_30:\n        /* \"#utility.yul\":4085:4091   */\n      0x00\n        /* \"#utility.yul\":4134:4136   */\n      0x20\n        /* \"#utility.yul\":4122:4131   */\n      dup3\n        /* \"#utility.yul\":4113:4120   */\n      dup5\n        /* \"#utility.yul\":4109:4132   */\n      sub\n        /* \"#utility.yul\":4105:4137   */\n      slt\n        /* \"#utility.yul\":4102:4221   */\n      iszero\n      tag_124\n      jumpi\n        /* \"#utility.yul\":4140:4219   */\n      tag_125\n      tag_63\n      jump\t// in\n    tag_125:\n        /* \"#utility.yul\":4102:4221   */\n    tag_124:\n        /* \"#utility.yul\":4260:4261   */\n      0x00\n        /* \"#utility.yul\":4285:4338   */\n      tag_126\n        /* \"#utility.yul\":4330:4337   */\n      dup5\n        /* \"#utility.yul\":4321:4327   */\n      dup3\n        /* \"#utility.yul\":4310:4319   */\n      dup6\n        /* \"#utility.yul\":4306:4328   */\n      add\n        /* \"#utility.yul\":4285:4338   */\n      tag_75\n      jump\t// in\n    tag_126:\n        /* \"#utility.yul\":4275:4338   */\n      swap2\n      pop\n        /* \"#utility.yul\":4231:4348   */\n      pop\n        /* \"#utility.yul\":4026:4355   */\n      swap3\n      swap2\n      pop\n      pop\n      jump\t// out\n\n    auxdata: 0xa2646970667358221220e4db1609df8520754406e36aab3b270609f3e35a8e2adfc905677c1103a854f064736f6c634300081a0033\n}\n",
				"bytecode": {
					"linkReferences": {},
					"object": "6080604052348015600e575f80fd5b506106968061001c5f395ff3fe608060405234801561000f575f80fd5b5060043610610060575f3560e01c806315d4266c14610064578063294fe43b146100825780633b9eac4b146100b25780634cf6c9ab146100d0578063993e9ef414610100578063a531f36a14610130575b5f80fd5b61006c61014e565b604051610079919061047f565b60405180910390f35b61009c600480360381019061009791906104cf565b610161565b6040516100a9919061056a565b60405180910390f35b6100ba61022b565b6040516100c7919061047f565b60405180910390f35b6100ea60048036038101906100e591906105bd565b61023c565b6040516100f7919061061c565b60405180910390f35b61011a60048036038101906101159190610635565b610273565b604051610127919061056a565b60405180910390f35b610138610450565b604051610145919061047f565b60405180910390f35b5f60029054906101000a900461ffff1681565b60605f8213156101a8576040518060400160405280600881526020017f506f7369746976650000000000000000000000000000000000000000000000008152509050610226565b5f8212156101ed576040518060400160405280600881526020017f4e656761746976650000000000000000000000000000000000000000000000008152509050610226565b6040518060400160405280600481526020017f7a65726f0000000000000000000000000000000000000000000000000000000081525090505b919050565b5f8054906101000a900461ffff1681565b5f828411801561024b57508184115b156102585783905061026c565b818311156102685782905061026c565b8190505b9392505050565b60605f82036102b9576040518060400160405280600481526020017f5a65726f00000000000000000000000000000000000000000000000000000000815250905061044b565b600182036102fe576040518060400160405280600381526020017f4f6e650000000000000000000000000000000000000000000000000000000000815250905061044b565b60028203610343576040518060400160405280600381526020017f54776f0000000000000000000000000000000000000000000000000000000000815250905061044b565b60038203610388576040518060400160405280600581526020017f5468726565000000000000000000000000000000000000000000000000000000815250905061044b565b600482036103cd576040518060400160405280600481526020017f466f757200000000000000000000000000000000000000000000000000000000815250905061044b565b60058203610412576040518060400160405280600481526020017f4669766500000000000000000000000000000000000000000000000000000000815250905061044b565b6040518060400160405280600d81526020017f496e76616c696420496e7075740000000000000000000000000000000000000081525090505b919050565b5f60049054906101000a900461ffff1681565b5f61ffff82169050919050565b61047981610463565b82525050565b5f6020820190506104925f830184610470565b92915050565b5f80fd5b5f819050919050565b6104ae8161049c565b81146104b8575f80fd5b50565b5f813590506104c9816104a5565b92915050565b5f602082840312156104e4576104e3610498565b5b5f6104f1848285016104bb565b91505092915050565b5f81519050919050565b5f82825260208201905092915050565b8281835e5f83830152505050565b5f601f19601f8301169050919050565b5f61053c826104fa565b6105468185610504565b9350610556818560208601610514565b61055f81610522565b840191505092915050565b5f6020820190508181035f8301526105828184610532565b905092915050565b5f819050919050565b61059c8161058a565b81146105a6575f80fd5b50565b5f813590506105b781610593565b92915050565b5f805f606084860312156105d4576105d3610498565b5b5f6105e1868287016105a9565b93505060206105f2868287016105a9565b9250506040610603868287016105a9565b9150509250925092565b6106168161058a565b82525050565b5f60208201905061062f5f83018461060d565b92915050565b5f6020828403121561064a57610649610498565b5b5f610657848285016105a9565b9150509291505056fea2646970667358221220e4db1609df8520754406e36aab3b270609f3e35a8e2adfc905677c1103a854f064736f6c634300081a0033",
					"opcodes": "PUSH1 0x80 PUSH1 0x40 MSTORE CALLVALUE DUP1 ISZERO PUSH1 0xE JUMPI PUSH0 DUP1 REVERT JUMPDEST POP PUSH2 0x696 DUP1 PUSH2 0x1C PUSH0 CODECOPY PUSH0 RETURN INVALID PUSH1 0x80 PUSH1 0x40 MSTORE CALLVALUE DUP1 ISZERO PUSH2 0xF JUMPI PUSH0 DUP1 REVERT JUMPDEST POP PUSH1 0x4 CALLDATASIZE LT PUSH2 0x60 JUMPI PUSH0 CALLDATALOAD PUSH1 0xE0 SHR DUP1 PUSH4 0x15D4266C EQ PUSH2 0x64 JUMPI DUP1 PUSH4 0x294FE43B EQ PUSH2 0x82 JUMPI DUP1 PUSH4 0x3B9EAC4B EQ PUSH2 0xB2 JUMPI DUP1 PUSH4 0x4CF6C9AB EQ PUSH2 0xD0 JUMPI DUP1 PUSH4 0x993E9EF4 EQ PUSH2 0x100 JUMPI DUP1 PUSH4 0xA531F36A EQ PUSH2 0x130 JUMPI JUMPDEST PUSH0 DUP1 REVERT JUMPDEST PUSH2 0x6C PUSH2 0x14E JUMP JUMPDEST PUSH1 0x40 MLOAD PUSH2 0x79 SWAP2 SWAP1 PUSH2 0x47F JUMP JUMPDEST PUSH1 0x40 MLOAD DUP1 SWAP2 SUB SWAP1 RETURN JUMPDEST PUSH2 0x9C PUSH1 0x4 DUP1 CALLDATASIZE SUB DUP2 ADD SWAP1 PUSH2 0x97 SWAP2 SWAP1 PUSH2 0x4CF JUMP JUMPDEST PUSH2 0x161 JUMP JUMPDEST PUSH1 0x40 MLOAD PUSH2 0xA9 SWAP2 SWAP1 PUSH2 0x56A JUMP JUMPDEST PUSH1 0x40 MLOAD DUP1 SWAP2 SUB SWAP1 RETURN JUMPDEST PUSH2 0xBA PUSH2 0x22B JUMP JUMPDEST PUSH1 0x40 MLOAD PUSH2 0xC7 SWAP2 SWAP1 PUSH2 0x47F JUMP JUMPDEST PUSH1 0x40 MLOAD DUP1 SWAP2 SUB SWAP1 RETURN JUMPDEST PUSH2 0xEA PUSH1 0x4 DUP1 CALLDATASIZE SUB DUP2 ADD SWAP1 PUSH2 0xE5 SWAP2 SWAP1 PUSH2 0x5BD JUMP JUMPDEST PUSH2 0x23C JUMP JUMPDEST PUSH1 0x40 MLOAD PUSH2 0xF7 SWAP2 SWAP1 PUSH2 0x61C JUMP JUMPDEST PUSH1 0x40 MLOAD DUP1 SWAP2 SUB SWAP1 RETURN JUMPDEST PUSH2 0x11A PUSH1 0x4 DUP1 CALLDATASIZE SUB DUP2 ADD SWAP1 PUSH2 0x115 SWAP2 SWAP1 PUSH2 0x635 JUMP JUMPDEST PUSH2 0x273 JUMP JUMPDEST PUSH1 0x40 MLOAD PUSH2 0x127 SWAP2 SWAP1 PUSH2 0x56A JUMP JUMPDEST PUSH1 0x40 MLOAD DUP1 SWAP2 SUB SWAP1 RETURN JUMPDEST PUSH2 0x138 PUSH2 0x450 JUMP JUMPDEST PUSH1 0x40 MLOAD PUSH2 0x145 SWAP2 SWAP1 PUSH2 0x47F JUMP JUMPDEST PUSH1 0x40 MLOAD DUP1 SWAP2 SUB SWAP1 RETURN JUMPDEST PUSH0 PUSH1 0x2 SWAP1 SLOAD SWAP1 PUSH2 0x100 EXP SWAP1 DIV PUSH2 0xFFFF AND DUP2 JUMP JUMPDEST PUSH1 0x60 PUSH0 DUP3 SGT ISZERO PUSH2 0x1A8 JUMPI PUSH1 0x40 MLOAD DUP1 PUSH1 0x40 ADD PUSH1 0x40 MSTORE DUP1 PUSH1 0x8 DUP2 MSTORE PUSH1 0x20 ADD PUSH32 0x506F736974697665000000000000000000000000000000000000000000000000 DUP2 MSTORE POP SWAP1 POP PUSH2 0x226 JUMP JUMPDEST PUSH0 DUP3 SLT ISZERO PUSH2 0x1ED JUMPI PUSH1 0x40 MLOAD DUP1 PUSH1 0x40 ADD PUSH1 0x40 MSTORE DUP1 PUSH1 0x8 DUP2 MSTORE PUSH1 0x20 ADD PUSH32 0x4E65676174697665000000000000000000000000000000000000000000000000 DUP2 MSTORE POP SWAP1 POP PUSH2 0x226 JUMP JUMPDEST PUSH1 0x40 MLOAD DUP1 PUSH1 0x40 ADD PUSH1 0x40 MSTORE DUP1 PUSH1 0x4 DUP2 MSTORE PUSH1 0x20 ADD PUSH32 0x7A65726F00000000000000000000000000000000000000000000000000000000 DUP2 MSTORE POP SWAP1 POP JUMPDEST SWAP2 SWAP1 POP JUMP JUMPDEST PUSH0 DUP1 SLOAD SWAP1 PUSH2 0x100 EXP SWAP1 DIV PUSH2 0xFFFF AND DUP2 JUMP JUMPDEST PUSH0 DUP3 DUP5 GT DUP1 ISZERO PUSH2 0x24B JUMPI POP DUP2 DUP5 GT JUMPDEST ISZERO PUSH2 0x258 JUMPI DUP4 SWAP1 POP PUSH2 0x26C JUMP JUMPDEST DUP2 DUP4 GT ISZERO PUSH2 0x268 JUMPI DUP3 SWAP1 POP PUSH2 0x26C JUMP JUMPDEST DUP2 SWAP1 POP JUMPDEST SWAP4 SWAP3 POP POP POP JUMP JUMPDEST PUSH1 0x60 PUSH0 DUP3 SUB PUSH2 0x2B9 JUMPI PUSH1 0x40 MLOAD DUP1 PUSH1 0x40 ADD PUSH1 0x40 MSTORE DUP1 PUSH1 0x4 DUP2 MSTORE PUSH1 0x20 ADD PUSH32 0x5A65726F00000000000000000000000000000000000000000000000000000000 DUP2 MSTORE POP SWAP1 POP PUSH2 0x44B JUMP JUMPDEST PUSH1 0x1 DUP3 SUB PUSH2 0x2FE JUMPI PUSH1 0x40 MLOAD DUP1 PUSH1 0x40 ADD PUSH1 0x40 MSTORE DUP1 PUSH1 0x3 DUP2 MSTORE PUSH1 0x20 ADD PUSH32 0x4F6E650000000000000000000000000000000000000000000000000000000000 DUP2 MSTORE POP SWAP1 POP PUSH2 0x44B JUMP JUMPDEST PUSH1 0x2 DUP3 SUB PUSH2 0x343 JUMPI PUSH1 0x40 MLOAD DUP1 PUSH1 0x40 ADD PUSH1 0x40 MSTORE DUP1 PUSH1 0x3 DUP2 MSTORE PUSH1 0x20 ADD PUSH32 0x54776F0000000000000000000000000000000000000000000000000000000000 DUP2 MSTORE POP SWAP1 POP PUSH2 0x44B JUMP JUMPDEST PUSH1 0x3 DUP3 SUB PUSH2 0x388 JUMPI PUSH1 0x40 MLOAD DUP1 PUSH1 0x40 ADD PUSH1 0x40 MSTORE DUP1 PUSH1 0x5 DUP2 MSTORE PUSH1 0x20 ADD PUSH32 0x5468726565000000000000000000000000000000000000000000000000000000 DUP2 MSTORE POP SWAP1 POP PUSH2 0x44B JUMP JUMPDEST PUSH1 0x4 DUP3 SUB PUSH2 0x3CD JUMPI PUSH1 0x40 MLOAD DUP1 PUSH1 0x40 ADD PUSH1 0x40 MSTORE DUP1 PUSH1 0x4 DUP2 MSTORE PUSH1 0x20 ADD PUSH32 0x466F757200000000000000000000000000000000000000000000000000000000 DUP2 MSTORE POP SWAP1 POP PUSH2 0x44B JUMP JUMPDEST PUSH1 0x5 DUP3 SUB PUSH2 0x412 JUMPI PUSH1 0x40 MLOAD DUP1 PUSH1 0x40 ADD PUSH1 0x40 MSTORE DUP1 PUSH1 0x4 DUP2 MSTORE PUSH1 0x20 ADD PUSH32 0x4669766500000000000000000000000000000000000000000000000000000000 DUP2 MSTORE POP SWAP1 POP PUSH2 0x44B JUMP JUMPDEST PUSH1 0x40 MLOAD DUP1 PUSH1 0x40 ADD PUSH1 0x40 MSTORE DUP1 PUSH1 0xD DUP2 MSTORE PUSH1 0x20 ADD PUSH32 0x496E76616C696420496E70757400000000000000000000000000000000000000 DUP2 MSTORE POP SWAP1 POP JUMPDEST SWAP2 SWAP1 POP JUMP JUMPDEST PUSH0 PUSH1 0x4 SWAP1 SLOAD SWAP1 PUSH2 0x100 EXP SWAP1 DIV PUSH2 0xFFFF AND DUP2 JUMP JUMPDEST PUSH0 PUSH2 0xFFFF DUP3 AND SWAP1 POP SWAP2 SWAP1 POP JUMP JUMPDEST PUSH2 0x479 DUP2 PUSH2 0x463 JUMP JUMPDEST DUP3 MSTORE POP POP JUMP JUMPDEST PUSH0 PUSH1 0x20 DUP3 ADD SWAP1 POP PUSH2 0x492 PUSH0 DUP4 ADD DUP5 PUSH2 0x470 JUMP JUMPDEST SWAP3 SWAP2 POP POP JUMP JUMPDEST PUSH0 DUP1 REVERT JUMPDEST PUSH0 DUP2 SWAP1 POP SWAP2 SWAP1 POP JUMP JUMPDEST PUSH2 0x4AE DUP2 PUSH2 0x49C JUMP JUMPDEST DUP2 EQ PUSH2 0x4B8 JUMPI PUSH0 DUP1 REVERT JUMPDEST POP JUMP JUMPDEST PUSH0 DUP2 CALLDATALOAD SWAP1 POP PUSH2 0x4C9 DUP2 PUSH2 0x4A5 JUMP JUMPDEST SWAP3 SWAP2 POP POP JUMP JUMPDEST PUSH0 PUSH1 0x20 DUP3 DUP5 SUB SLT ISZERO PUSH2 0x4E4 JUMPI PUSH2 0x4E3 PUSH2 0x498 JUMP JUMPDEST JUMPDEST PUSH0 PUSH2 0x4F1 DUP5 DUP3 DUP6 ADD PUSH2 0x4BB JUMP JUMPDEST SWAP2 POP POP SWAP3 SWAP2 POP POP JUMP JUMPDEST PUSH0 DUP2 MLOAD SWAP1 POP SWAP2 SWAP1 POP JUMP JUMPDEST PUSH0 DUP3 DUP3 MSTORE PUSH1 0x20 DUP3 ADD SWAP1 POP SWAP3 SWAP2 POP POP JUMP JUMPDEST DUP3 DUP2 DUP4 MCOPY PUSH0 DUP4 DUP4 ADD MSTORE POP POP POP JUMP JUMPDEST PUSH0 PUSH1 0x1F NOT PUSH1 0x1F DUP4 ADD AND SWAP1 POP SWAP2 SWAP1 POP JUMP JUMPDEST PUSH0 PUSH2 0x53C DUP3 PUSH2 0x4FA JUMP JUMPDEST PUSH2 0x546 DUP2 DUP6 PUSH2 0x504 JUMP JUMPDEST SWAP4 POP PUSH2 0x556 DUP2 DUP6 PUSH1 0x20 DUP7 ADD PUSH2 0x514 JUMP JUMPDEST PUSH2 0x55F DUP2 PUSH2 0x522 JUMP JUMPDEST DUP5 ADD SWAP2 POP POP SWAP3 SWAP2 POP POP JUMP JUMPDEST PUSH0 PUSH1 0x20 DUP3 ADD SWAP1 POP DUP2 DUP2 SUB PUSH0 DUP4 ADD MSTORE PUSH2 0x582 DUP2 DUP5 PUSH2 0x532 JUMP JUMPDEST SWAP1 POP SWAP3 SWAP2 POP POP JUMP JUMPDEST PUSH0 DUP2 SWAP1 POP SWAP2 SWAP1 POP JUMP JUMPDEST PUSH2 0x59C DUP2 PUSH2 0x58A JUMP JUMPDEST DUP2 EQ PUSH2 0x5A6 JUMPI PUSH0 DUP1 REVERT JUMPDEST POP JUMP JUMPDEST PUSH0 DUP2 CALLDATALOAD SWAP1 POP PUSH2 0x5B7 DUP2 PUSH2 0x593 JUMP JUMPDEST SWAP3 SWAP2 POP POP JUMP JUMPDEST PUSH0 DUP1 PUSH0 PUSH1 0x60 DUP5 DUP7 SUB SLT ISZERO PUSH2 0x5D4 JUMPI PUSH2 0x5D3 PUSH2 0x498 JUMP JUMPDEST JUMPDEST PUSH0 PUSH2 0x5E1 DUP7 DUP3 DUP8 ADD PUSH2 0x5A9 JUMP JUMPDEST SWAP4 POP POP PUSH1 0x20 PUSH2 0x5F2 DUP7 DUP3 DUP8 ADD PUSH2 0x5A9 JUMP JUMPDEST SWAP3 POP POP PUSH1 0x40 PUSH2 0x603 DUP7 DUP3 DUP8 ADD PUSH2 0x5A9 JUMP JUMPDEST SWAP2 POP POP SWAP3 POP SWAP3 POP SWAP3 JUMP JUMPDEST PUSH2 0x616 DUP2 PUSH2 0x58A JUMP JUMPDEST DUP3 MSTORE POP POP JUMP JUMPDEST PUSH0 PUSH1 0x20 DUP3 ADD SWAP1 POP PUSH2 0x62F PUSH0 DUP4 ADD DUP5 PUSH2 0x60D JUMP JUMPDEST SWAP3 SWAP2 POP POP JUMP JUMPDEST PUSH0 PUSH1 0x20 DUP3 DUP5 SUB SLT ISZERO PUSH2 0x64A JUMPI PUSH2 0x649 PUSH2 0x498 JUMP JUMPDEST JUMPDEST PUSH0 PUSH2 0x657 DUP5 DUP3 DUP6 ADD PUSH2 0x5A9 JUMP JUMPDEST SWAP2 POP POP SWAP3 SWAP2 POP POP JUMP INVALID LOG2 PUSH5 0x6970667358 0x22 SLT KECCAK256 0xE4 0xDB AND MULMOD 0xDF DUP6 KECCAK256 PUSH22 0x4406E36AAB3B270609F3E35A8E2ADFC905677C1103A8 SLOAD CREATE PUSH5 0x736F6C6343 STOP ADDMOD BYTE STOP CALLER "
				},
				"gasEstimates": {
					"creation": {
						"codeDepositCost": "337200",
						"executionCost": "372",
						"totalCost": "337572"
					},
					"external": {
						"checkSign(int256)": "infinite",
						"findLargest(uint256,uint256,uint256)": "infinite",
						"getDigit(uint256)": "infinite",
						"num1()": "2485",
						"num2()": "2494",
						"num3()": "2604"
					}
				},
				"methodIdentifiers": {
					"checkSign(int256)": "294fe43b",
					"findLargest(uint256,uint256,uint256)": "4cf6c9ab",
					"getDigit(uint256)": "993e9ef4",
					"num1()": "3b9eac4b",
					"num2()": "15d4266c",
					"num3()": "a531f36a"
				}
			},
			"storageLayout": {
				"storage": [
					{
						"astId": 3,
						"contract": "Remix/Work/day2/Q1_1.sol:Q1_1",
						"label": "num1",
						"offset": 0,
						"slot": "0",
						"type": "t_uint16"
					},
					{
						"astId": 5,
						"contract": "Remix/Work/day2/Q1_1.sol:Q1_1",
						"label": "num2",
						"offset": 2,
						"slot": "0",
						"type": "t_uint16"
					},
					{
						"astId": 7,
						"contract": "Remix/Work/day2/Q1_1.sol:Q1_1",
						"label": "num3",
						"offset": 4,
						"slot": "0",
						"type": "t_uint16"
					}
				],
				"types": {
					"t_uint16": {
						"encoding": "inplace",
						"label": "uint16",
						"numberOfBytes": "2"
					}
				}
			},
			"userdoc": {
				"kind": "user",
				"methods": {},
				"version": 1
			}
		}
	}
}