{
	"data": {
		"bytecode": {
			"linkReferences": {},
			"object": "6080604052335f806101000a81548173ffffffffffffffffffffffffffffffffffffffff021916908373ffffffffffffffffffffffffffffffffffffffff160217905550348015604d575f80fd5b50610c2a8061005b5f395ff3fe608060405260043610610033575f3560e01c806301aa64cf14610037578063662550f014610053578063898669081461007b575b5f80fd5b610051600480360381019061004c9190610639565b6100bb565b005b34801561005e575f80fd5b5061007960048036038101906100749190610693565b6101ee565b005b348015610086575f80fd5b506100a1600480360381019061009c919061075e565b6102d6565b6040516100b2959493929190610837565b60405180910390f35b5f60015f8481526020019081526020015f20905080600301543411610115576040517f08c379a000000000000000000000000000000000000000000000000000000000815260040161010c9061090d565b60405180910390fd5b5f8160030154111561018d57806004015f9054906101000a900473ffffffffffffffffffffffffffffffffffffffff1673ffffffffffffffffffffffffffffffffffffffff166108fc826003015490811502906040515f60405180830381858888f1935050505015801561018b573d5f803e3d5ffd5b505b81815f01908161019d9190610b25565b5034816003018190555033816004015f6101000a81548173ffffffffffffffffffffffffffffffffffffffff021916908373ffffffffffffffffffffffffffffffffffffffff160217905550505050565b6040518060a001604052808581526020018481526020018381526020018281526020013373ffffffffffffffffffffffffffffffffffffffff1681525060015f8781526020019081526020015f205f820151815f01908161024f9190610b25565b5060208201518160010190816102659190610b25565b50604082015181600201908161027b9190610b25565b50606082015181600301556080820151816004015f6101000a81548173ffffffffffffffffffffffffffffffffffffffff021916908373ffffffffffffffffffffffffffffffffffffffff1602179055509050505050505050565b6001602052805f5260405f205f91509050805f0180546102f590610958565b80601f016020809104026020016040519081016040528092919081815260200182805461032190610958565b801561036c5780601f106103435761010080835404028352916020019161036c565b820191905f5260205f20905b81548152906001019060200180831161034f57829003601f168201915b50505050509080600101805461038190610958565b80601f01602080910402602001604051908101604052809291908181526020018280546103ad90610958565b80156103f85780601f106103cf576101008083540402835291602001916103f8565b820191905f5260205f20905b8154815290600101906020018083116103db57829003601f168201915b50505050509080600201805461040d90610958565b80601f016020809104026020016040519081016040528092919081815260200182805461043990610958565b80156104845780601f1061045b57610100808354040283529160200191610484565b820191905f5260205f20905b81548152906001019060200180831161046757829003601f168201915b505050505090806003015490806004015f9054906101000a900473ffffffffffffffffffffffffffffffffffffffff16905085565b5f604051905090565b5f80fd5b5f80fd5b5f819050919050565b6104dc816104ca565b81146104e6575f80fd5b50565b5f813590506104f7816104d3565b92915050565b5f80fd5b5f80fd5b5f601f19601f8301169050919050565b7f4e487b71000000000000000000000000000000000000000000000000000000005f52604160045260245ffd5b61054b82610505565b810181811067ffffffffffffffff8211171561056a57610569610515565b5b80604052505050565b5f61057c6104b9565b90506105888282610542565b919050565b5f67ffffffffffffffff8211156105a7576105a6610515565b5b6105b082610505565b9050602081019050919050565b828183375f83830152505050565b5f6105dd6105d88461058d565b610573565b9050828152602081018484840111156105f9576105f8610501565b5b6106048482856105bd565b509392505050565b5f82601f8301126106205761061f6104fd565b5b81356106308482602086016105cb565b91505092915050565b5f806040838503121561064f5761064e6104c2565b5b5f61065c858286016104e9565b925050602083013567ffffffffffffffff81111561067d5761067c6104c6565b5b6106898582860161060c565b9150509250929050565b5f805f805f60a086880312156106ac576106ab6104c2565b5b5f6106b9888289016104e9565b955050602086013567ffffffffffffffff8111156106da576106d96104c6565b5b6106e68882890161060c565b945050604086013567ffffffffffffffff811115610707576107066104c6565b5b6107138882890161060c565b935050606086013567ffffffffffffffff811115610734576107336104c6565b5b6107408882890161060c565b9250506080610751888289016104e9565b9150509295509295909350565b5f60208284031215610773576107726104c2565b5b5f610780848285016104e9565b91505092915050565b5f81519050919050565b5f82825260208201905092915050565b8281835e5f83830152505050565b5f6107bb82610789565b6107c58185610793565b93506107d58185602086016107a3565b6107de81610505565b840191505092915050565b6107f2816104ca565b82525050565b5f73ffffffffffffffffffffffffffffffffffffffff82169050919050565b5f610821826107f8565b9050919050565b61083181610817565b82525050565b5f60a0820190508181035f83015261084f81886107b1565b9050818103602083015261086381876107b1565b9050818103604083015261087781866107b1565b905061088660608301856107e9565b6108936080830184610828565b9695505050505050565b7f796f7572207072696365206973206c6f776572207468616e20746865206375725f8201527f72656e742070726963652e000000000000000000000000000000000000000000602082015250565b5f6108f7602b83610793565b91506109028261089d565b604082019050919050565b5f6020820190508181035f830152610924816108eb565b9050919050565b7f4e487b71000000000000000000000000000000000000000000000000000000005f52602260045260245ffd5b5f600282049050600182168061096f57607f821691505b6020821081036109825761098161092b565b5b50919050565b5f819050815f5260205f209050919050565b5f6020601f8301049050919050565b5f82821b905092915050565b5f600883026109e47fffffffffffffffffffffffffffffffffffffffffffffffffffffffffffffffff826109a9565b6109ee86836109a9565b95508019841693508086168417925050509392505050565b5f819050919050565b5f610a29610a24610a1f846104ca565b610a06565b6104ca565b9050919050565b5f819050919050565b610a4283610a0f565b610a56610a4e82610a30565b8484546109b5565b825550505050565b5f90565b610a6a610a5e565b610a75818484610a39565b505050565b5b81811015610a9857610a8d5f82610a62565b600181019050610a7b565b5050565b601f821115610add57610aae81610988565b610ab78461099a565b81016020851015610ac6578190505b610ada610ad28561099a565b830182610a7a565b50505b505050565b5f82821c905092915050565b5f610afd5f1984600802610ae2565b1980831691505092915050565b5f610b158383610aee565b9150826002028217905092915050565b610b2e82610789565b67ffffffffffffffff811115610b4757610b46610515565b5b610b518254610958565b610b5c828285610a9c565b5f60209050601f831160018114610b8d575f8415610b7b578287015190505b610b858582610b0a565b865550610bec565b601f198416610b9b86610988565b5f5b82811015610bc257848901518255600182019150602085019450602081019050610b9d565b86831015610bdf5784890151610bdb601f891682610aee565b8355505b6001600288020188555050505b50505050505056fea2646970667358221220bada00158bbe994538db5dc64cccd3bba17d7f1ab1bc23f162e94d9b1e5b205364736f6c634300081a0033",
			"opcodes": "PUSH1 0x80 PUSH1 0x40 MSTORE CALLER PUSH0 DUP1 PUSH2 0x100 EXP DUP2 SLOAD DUP2 PUSH20 0xFFFFFFFFFFFFFFFFFFFFFFFFFFFFFFFFFFFFFFFF MUL NOT AND SWAP1 DUP4 PUSH20 0xFFFFFFFFFFFFFFFFFFFFFFFFFFFFFFFFFFFFFFFF AND MUL OR SWAP1 SSTORE POP CALLVALUE DUP1 ISZERO PUSH1 0x4D JUMPI PUSH0 DUP1 REVERT JUMPDEST POP PUSH2 0xC2A DUP1 PUSH2 0x5B PUSH0 CODECOPY PUSH0 RETURN INVALID PUSH1 0x80 PUSH1 0x40 MSTORE PUSH1 0x4 CALLDATASIZE LT PUSH2 0x33 JUMPI PUSH0 CALLDATALOAD PUSH1 0xE0 SHR DUP1 PUSH4 0x1AA64CF EQ PUSH2 0x37 JUMPI DUP1 PUSH4 0x662550F0 EQ PUSH2 0x53 JUMPI DUP1 PUSH4 0x89866908 EQ PUSH2 0x7B JUMPI JUMPDEST PUSH0 DUP1 REVERT JUMPDEST PUSH2 0x51 PUSH1 0x4 DUP1 CALLDATASIZE SUB DUP2 ADD SWAP1 PUSH2 0x4C SWAP2 SWAP1 PUSH2 0x639 JUMP JUMPDEST PUSH2 0xBB JUMP JUMPDEST STOP JUMPDEST CALLVALUE DUP1 ISZERO PUSH2 0x5E JUMPI PUSH0 DUP1 REVERT JUMPDEST POP PUSH2 0x79 PUSH1 0x4 DUP1 CALLDATASIZE SUB DUP2 ADD SWAP1 PUSH2 0x74 SWAP2 SWAP1 PUSH2 0x693 JUMP JUMPDEST PUSH2 0x1EE JUMP JUMPDEST STOP JUMPDEST CALLVALUE DUP1 ISZERO PUSH2 0x86 JUMPI PUSH0 DUP1 REVERT JUMPDEST POP PUSH2 0xA1 PUSH1 0x4 DUP1 CALLDATASIZE SUB DUP2 ADD SWAP1 PUSH2 0x9C SWAP2 SWAP1 PUSH2 0x75E JUMP JUMPDEST PUSH2 0x2D6 JUMP JUMPDEST PUSH1 0x40 MLOAD PUSH2 0xB2 SWAP6 SWAP5 SWAP4 SWAP3 SWAP2 SWAP1 PUSH2 0x837 JUMP JUMPDEST PUSH1 0x40 MLOAD DUP1 SWAP2 SUB SWAP1 RETURN JUMPDEST PUSH0 PUSH1 0x1 PUSH0 DUP5 DUP2 MSTORE PUSH1 0x20 ADD SWAP1 DUP2 MSTORE PUSH1 0x20 ADD PUSH0 KECCAK256 SWAP1 POP DUP1 PUSH1 0x3 ADD SLOAD CALLVALUE GT PUSH2 0x115 JUMPI PUSH1 0x40 MLOAD PUSH32 0x8C379A000000000000000000000000000000000000000000000000000000000 DUP2 MSTORE PUSH1 0x4 ADD PUSH2 0x10C SWAP1 PUSH2 0x90D JUMP JUMPDEST PUSH1 0x40 MLOAD DUP1 SWAP2 SUB SWAP1 REVERT JUMPDEST PUSH0 DUP2 PUSH1 0x3 ADD SLOAD GT ISZERO PUSH2 0x18D JUMPI DUP1 PUSH1 0x4 ADD PUSH0 SWAP1 SLOAD SWAP1 PUSH2 0x100 EXP SWAP1 DIV PUSH20 0xFFFFFFFFFFFFFFFFFFFFFFFFFFFFFFFFFFFFFFFF AND PUSH20 0xFFFFFFFFFFFFFFFFFFFFFFFFFFFFFFFFFFFFFFFF AND PUSH2 0x8FC DUP3 PUSH1 0x3 ADD SLOAD SWAP1 DUP2 ISZERO MUL SWAP1 PUSH1 0x40 MLOAD PUSH0 PUSH1 0x40 MLOAD DUP1 DUP4 SUB DUP2 DUP6 DUP9 DUP9 CALL SWAP4 POP POP POP POP ISZERO DUP1 ISZERO PUSH2 0x18B JUMPI RETURNDATASIZE PUSH0 DUP1 RETURNDATACOPY RETURNDATASIZE PUSH0 REVERT JUMPDEST POP JUMPDEST DUP2 DUP2 PUSH0 ADD SWAP1 DUP2 PUSH2 0x19D SWAP2 SWAP1 PUSH2 0xB25 JUMP JUMPDEST POP CALLVALUE DUP2 PUSH1 0x3 ADD DUP2 SWAP1 SSTORE POP CALLER DUP2 PUSH1 0x4 ADD PUSH0 PUSH2 0x100 EXP DUP2 SLOAD DUP2 PUSH20 0xFFFFFFFFFFFFFFFFFFFFFFFFFFFFFFFFFFFFFFFF MUL NOT AND SWAP1 DUP4 PUSH20 0xFFFFFFFFFFFFFFFFFFFFFFFFFFFFFFFFFFFFFFFF AND MUL OR SWAP1 SSTORE POP POP POP POP JUMP JUMPDEST PUSH1 0x40 MLOAD DUP1 PUSH1 0xA0 ADD PUSH1 0x40 MSTORE DUP1 DUP6 DUP2 MSTORE PUSH1 0x20 ADD DUP5 DUP2 MSTORE PUSH1 0x20 ADD DUP4 DUP2 MSTORE PUSH1 0x20 ADD DUP3 DUP2 MSTORE PUSH1 0x20 ADD CALLER PUSH20 0xFFFFFFFFFFFFFFFFFFFFFFFFFFFFFFFFFFFFFFFF AND DUP2 MSTORE POP PUSH1 0x1 PUSH0 DUP8 DUP2 MSTORE PUSH1 0x20 ADD SWAP1 DUP2 MSTORE PUSH1 0x20 ADD PUSH0 KECCAK256 PUSH0 DUP3 ADD MLOAD DUP2 PUSH0 ADD SWAP1 DUP2 PUSH2 0x24F SWAP2 SWAP1 PUSH2 0xB25 JUMP JUMPDEST POP PUSH1 0x20 DUP3 ADD MLOAD DUP2 PUSH1 0x1 ADD SWAP1 DUP2 PUSH2 0x265 SWAP2 SWAP1 PUSH2 0xB25 JUMP JUMPDEST POP PUSH1 0x40 DUP3 ADD MLOAD DUP2 PUSH1 0x2 ADD SWAP1 DUP2 PUSH2 0x27B SWAP2 SWAP1 PUSH2 0xB25 JUMP JUMPDEST POP PUSH1 0x60 DUP3 ADD MLOAD DUP2 PUSH1 0x3 ADD SSTORE PUSH1 0x80 DUP3 ADD MLOAD DUP2 PUSH1 0x4 ADD PUSH0 PUSH2 0x100 EXP DUP2 SLOAD DUP2 PUSH20 0xFFFFFFFFFFFFFFFFFFFFFFFFFFFFFFFFFFFFFFFF MUL NOT AND SWAP1 DUP4 PUSH20 0xFFFFFFFFFFFFFFFFFFFFFFFFFFFFFFFFFFFFFFFF AND MUL OR SWAP1 SSTORE POP SWAP1 POP POP POP POP POP POP POP JUMP JUMPDEST PUSH1 0x1 PUSH1 0x20 MSTORE DUP1 PUSH0 MSTORE PUSH1 0x40 PUSH0 KECCAK256 PUSH0 SWAP2 POP SWAP1 POP DUP1 PUSH0 ADD DUP1 SLOAD PUSH2 0x2F5 SWAP1 PUSH2 0x958 JUMP JUMPDEST DUP1 PUSH1 0x1F ADD PUSH1 0x20 DUP1 SWAP2 DIV MUL PUSH1 0x20 ADD PUSH1 0x40 MLOAD SWAP1 DUP2 ADD PUSH1 0x40 MSTORE DUP1 SWAP3 SWAP2 SWAP1 DUP2 DUP2 MSTORE PUSH1 0x20 ADD DUP3 DUP1 SLOAD PUSH2 0x321 SWAP1 PUSH2 0x958 JUMP JUMPDEST DUP1 ISZERO PUSH2 0x36C JUMPI DUP1 PUSH1 0x1F LT PUSH2 0x343 JUMPI PUSH2 0x100 DUP1 DUP4 SLOAD DIV MUL DUP4 MSTORE SWAP2 PUSH1 0x20 ADD SWAP2 PUSH2 0x36C JUMP JUMPDEST DUP3 ADD SWAP2 SWAP1 PUSH0 MSTORE PUSH1 0x20 PUSH0 KECCAK256 SWAP1 JUMPDEST DUP2 SLOAD DUP2 MSTORE SWAP1 PUSH1 0x1 ADD SWAP1 PUSH1 0x20 ADD DUP1 DUP4 GT PUSH2 0x34F JUMPI DUP3 SWAP1 SUB PUSH1 0x1F AND DUP3 ADD SWAP2 JUMPDEST POP POP POP POP POP SWAP1 DUP1 PUSH1 0x1 ADD DUP1 SLOAD PUSH2 0x381 SWAP1 PUSH2 0x958 JUMP JUMPDEST DUP1 PUSH1 0x1F ADD PUSH1 0x20 DUP1 SWAP2 DIV MUL PUSH1 0x20 ADD PUSH1 0x40 MLOAD SWAP1 DUP2 ADD PUSH1 0x40 MSTORE DUP1 SWAP3 SWAP2 SWAP1 DUP2 DUP2 MSTORE PUSH1 0x20 ADD DUP3 DUP1 SLOAD PUSH2 0x3AD SWAP1 PUSH2 0x958 JUMP JUMPDEST DUP1 ISZERO PUSH2 0x3F8 JUMPI DUP1 PUSH1 0x1F LT PUSH2 0x3CF JUMPI PUSH2 0x100 DUP1 DUP4 SLOAD DIV MUL DUP4 MSTORE SWAP2 PUSH1 0x20 ADD SWAP2 PUSH2 0x3F8 JUMP JUMPDEST DUP3 ADD SWAP2 SWAP1 PUSH0 MSTORE PUSH1 0x20 PUSH0 KECCAK256 SWAP1 JUMPDEST DUP2 SLOAD DUP2 MSTORE SWAP1 PUSH1 0x1 ADD SWAP1 PUSH1 0x20 ADD DUP1 DUP4 GT PUSH2 0x3DB JUMPI DUP3 SWAP1 SUB PUSH1 0x1F AND DUP3 ADD SWAP2 JUMPDEST POP POP POP POP POP SWAP1 DUP1 PUSH1 0x2 ADD DUP1 SLOAD PUSH2 0x40D SWAP1 PUSH2 0x958 JUMP JUMPDEST DUP1 PUSH1 0x1F ADD PUSH1 0x20 DUP1 SWAP2 DIV MUL PUSH1 0x20 ADD PUSH1 0x40 MLOAD SWAP1 DUP2 ADD PUSH1 0x40 MSTORE DUP1 SWAP3 SWAP2 SWAP1 DUP2 DUP2 MSTORE PUSH1 0x20 ADD DUP3 DUP1 SLOAD PUSH2 0x439 SWAP1 PUSH2 0x958 JUMP JUMPDEST DUP1 ISZERO PUSH2 0x484 JUMPI DUP1 PUSH1 0x1F LT PUSH2 0x45B JUMPI PUSH2 0x100 DUP1 DUP4 SLOAD DIV MUL DUP4 MSTORE SWAP2 PUSH1 0x20 ADD SWAP2 PUSH2 0x484 JUMP JUMPDEST DUP3 ADD SWAP2 SWAP1 PUSH0 MSTORE PUSH1 0x20 PUSH0 KECCAK256 SWAP1 JUMPDEST DUP2 SLOAD DUP2 MSTORE SWAP1 PUSH1 0x1 ADD SWAP1 PUSH1 0x20 ADD DUP1 DUP4 GT PUSH2 0x467 JUMPI DUP3 SWAP1 SUB PUSH1 0x1F AND DUP3 ADD SWAP2 JUMPDEST POP POP POP POP POP SWAP1 DUP1 PUSH1 0x3 ADD SLOAD SWAP1 DUP1 PUSH1 0x4 ADD PUSH0 SWAP1 SLOAD SWAP1 PUSH2 0x100 EXP SWAP1 DIV PUSH20 0xFFFFFFFFFFFFFFFFFFFFFFFFFFFFFFFFFFFFFFFF AND SWAP1 POP DUP6 JUMP JUMPDEST PUSH0 PUSH1 0x40 MLOAD SWAP1 POP SWAP1 JUMP JUMPDEST PUSH0 DUP1 REVERT JUMPDEST PUSH0 DUP1 REVERT JUMPDEST PUSH0 DUP2 SWAP1 POP SWAP2 SWAP1 POP JUMP JUMPDEST PUSH2 0x4DC DUP2 PUSH2 0x4CA JUMP JUMPDEST DUP2 EQ PUSH2 0x4E6 JUMPI PUSH0 DUP1 REVERT JUMPDEST POP JUMP JUMPDEST PUSH0 DUP2 CALLDATALOAD SWAP1 POP PUSH2 0x4F7 DUP2 PUSH2 0x4D3 JUMP JUMPDEST SWAP3 SWAP2 POP POP JUMP JUMPDEST PUSH0 DUP1 REVERT JUMPDEST PUSH0 DUP1 REVERT JUMPDEST PUSH0 PUSH1 0x1F NOT PUSH1 0x1F DUP4 ADD AND SWAP1 POP SWAP2 SWAP1 POP JUMP JUMPDEST PUSH32 0x4E487B7100000000000000000000000000000000000000000000000000000000 PUSH0 MSTORE PUSH1 0x41 PUSH1 0x4 MSTORE PUSH1 0x24 PUSH0 REVERT JUMPDEST PUSH2 0x54B DUP3 PUSH2 0x505 JUMP JUMPDEST DUP2 ADD DUP2 DUP2 LT PUSH8 0xFFFFFFFFFFFFFFFF DUP3 GT OR ISZERO PUSH2 0x56A JUMPI PUSH2 0x569 PUSH2 0x515 JUMP JUMPDEST JUMPDEST DUP1 PUSH1 0x40 MSTORE POP POP POP JUMP JUMPDEST PUSH0 PUSH2 0x57C PUSH2 0x4B9 JUMP JUMPDEST SWAP1 POP PUSH2 0x588 DUP3 DUP3 PUSH2 0x542 JUMP JUMPDEST SWAP2 SWAP1 POP JUMP JUMPDEST PUSH0 PUSH8 0xFFFFFFFFFFFFFFFF DUP3 GT ISZERO PUSH2 0x5A7 JUMPI PUSH2 0x5A6 PUSH2 0x515 JUMP JUMPDEST JUMPDEST PUSH2 0x5B0 DUP3 PUSH2 0x505 JUMP JUMPDEST SWAP1 POP PUSH1 0x20 DUP2 ADD SWAP1 POP SWAP2 SWAP1 POP JUMP JUMPDEST DUP3 DUP2 DUP4 CALLDATACOPY PUSH0 DUP4 DUP4 ADD MSTORE POP POP POP JUMP JUMPDEST PUSH0 PUSH2 0x5DD PUSH2 0x5D8 DUP5 PUSH2 0x58D JUMP JUMPDEST PUSH2 0x573 JUMP JUMPDEST SWAP1 POP DUP3 DUP2 MSTORE PUSH1 0x20 DUP2 ADD DUP5 DUP5 DUP5 ADD GT ISZERO PUSH2 0x5F9 JUMPI PUSH2 0x5F8 PUSH2 0x501 JUMP JUMPDEST JUMPDEST PUSH2 0x604 DUP5 DUP3 DUP6 PUSH2 0x5BD JUMP JUMPDEST POP SWAP4 SWAP3 POP POP POP JUMP JUMPDEST PUSH0 DUP3 PUSH1 0x1F DUP4 ADD SLT PUSH2 0x620 JUMPI PUSH2 0x61F PUSH2 0x4FD JUMP JUMPDEST JUMPDEST DUP2 CALLDATALOAD PUSH2 0x630 DUP5 DUP3 PUSH1 0x20 DUP7 ADD PUSH2 0x5CB JUMP JUMPDEST SWAP2 POP POP SWAP3 SWAP2 POP POP JUMP JUMPDEST PUSH0 DUP1 PUSH1 0x40 DUP4 DUP6 SUB SLT ISZERO PUSH2 0x64F JUMPI PUSH2 0x64E PUSH2 0x4C2 JUMP JUMPDEST JUMPDEST PUSH0 PUSH2 0x65C DUP6 DUP3 DUP7 ADD PUSH2 0x4E9 JUMP JUMPDEST SWAP3 POP POP PUSH1 0x20 DUP4 ADD CALLDATALOAD PUSH8 0xFFFFFFFFFFFFFFFF DUP2 GT ISZERO PUSH2 0x67D JUMPI PUSH2 0x67C PUSH2 0x4C6 JUMP JUMPDEST JUMPDEST PUSH2 0x689 DUP6 DUP3 DUP7 ADD PUSH2 0x60C JUMP JUMPDEST SWAP2 POP POP SWAP3 POP SWAP3 SWAP1 POP JUMP JUMPDEST PUSH0 DUP1 PUSH0 DUP1 PUSH0 PUSH1 0xA0 DUP7 DUP9 SUB SLT ISZERO PUSH2 0x6AC JUMPI PUSH2 0x6AB PUSH2 0x4C2 JUMP JUMPDEST JUMPDEST PUSH0 PUSH2 0x6B9 DUP9 DUP3 DUP10 ADD PUSH2 0x4E9 JUMP JUMPDEST SWAP6 POP POP PUSH1 0x20 DUP7 ADD CALLDATALOAD PUSH8 0xFFFFFFFFFFFFFFFF DUP2 GT ISZERO PUSH2 0x6DA JUMPI PUSH2 0x6D9 PUSH2 0x4C6 JUMP JUMPDEST JUMPDEST PUSH2 0x6E6 DUP9 DUP3 DUP10 ADD PUSH2 0x60C JUMP JUMPDEST SWAP5 POP POP PUSH1 0x40 DUP7 ADD CALLDATALOAD PUSH8 0xFFFFFFFFFFFFFFFF DUP2 GT ISZERO PUSH2 0x707 JUMPI PUSH2 0x706 PUSH2 0x4C6 JUMP JUMPDEST JUMPDEST PUSH2 0x713 DUP9 DUP3 DUP10 ADD PUSH2 0x60C JUMP JUMPDEST SWAP4 POP POP PUSH1 0x60 DUP7 ADD CALLDATALOAD PUSH8 0xFFFFFFFFFFFFFFFF DUP2 GT ISZERO PUSH2 0x734 JUMPI PUSH2 0x733 PUSH2 0x4C6 JUMP JUMPDEST JUMPDEST PUSH2 0x740 DUP9 DUP3 DUP10 ADD PUSH2 0x60C JUMP JUMPDEST SWAP3 POP POP PUSH1 0x80 PUSH2 0x751 DUP9 DUP3 DUP10 ADD PUSH2 0x4E9 JUMP JUMPDEST SWAP2 POP POP SWAP3 SWAP6 POP SWAP3 SWAP6 SWAP1 SWAP4 POP JUMP JUMPDEST PUSH0 PUSH1 0x20 DUP3 DUP5 SUB SLT ISZERO PUSH2 0x773 JUMPI PUSH2 0x772 PUSH2 0x4C2 JUMP JUMPDEST JUMPDEST PUSH0 PUSH2 0x780 DUP5 DUP3 DUP6 ADD PUSH2 0x4E9 JUMP JUMPDEST SWAP2 POP POP SWAP3 SWAP2 POP POP JUMP JUMPDEST PUSH0 DUP2 MLOAD SWAP1 POP SWAP2 SWAP1 POP JUMP JUMPDEST PUSH0 DUP3 DUP3 MSTORE PUSH1 0x20 DUP3 ADD SWAP1 POP SWAP3 SWAP2 POP POP JUMP JUMPDEST DUP3 DUP2 DUP4 MCOPY PUSH0 DUP4 DUP4 ADD MSTORE POP POP POP JUMP JUMPDEST PUSH0 PUSH2 0x7BB DUP3 PUSH2 0x789 JUMP JUMPDEST PUSH2 0x7C5 DUP2 DUP6 PUSH2 0x793 JUMP JUMPDEST SWAP4 POP PUSH2 0x7D5 DUP2 DUP6 PUSH1 0x20 DUP7 ADD PUSH2 0x7A3 JUMP JUMPDEST PUSH2 0x7DE DUP2 PUSH2 0x505 JUMP JUMPDEST DUP5 ADD SWAP2 POP POP SWAP3 SWAP2 POP POP JUMP JUMPDEST PUSH2 0x7F2 DUP2 PUSH2 0x4CA JUMP JUMPDEST DUP3 MSTORE POP POP JUMP JUMPDEST PUSH0 PUSH20 0xFFFFFFFFFFFFFFFFFFFFFFFFFFFFFFFFFFFFFFFF DUP3 AND SWAP1 POP SWAP2 SWAP1 POP JUMP JUMPDEST PUSH0 PUSH2 0x821 DUP3 PUSH2 0x7F8 JUMP JUMPDEST SWAP1 POP SWAP2 SWAP1 POP JUMP JUMPDEST PUSH2 0x831 DUP2 PUSH2 0x817 JUMP JUMPDEST DUP3 MSTORE POP POP JUMP JUMPDEST PUSH0 PUSH1 0xA0 DUP3 ADD SWAP1 POP DUP2 DUP2 SUB PUSH0 DUP4 ADD MSTORE PUSH2 0x84F DUP2 DUP9 PUSH2 0x7B1 JUMP JUMPDEST SWAP1 POP DUP2 DUP2 SUB PUSH1 0x20 DUP4 ADD MSTORE PUSH2 0x863 DUP2 DUP8 PUSH2 0x7B1 JUMP JUMPDEST SWAP1 POP DUP2 DUP2 SUB PUSH1 0x40 DUP4 ADD MSTORE PUSH2 0x877 DUP2 DUP7 PUSH2 0x7B1 JUMP JUMPDEST SWAP1 POP PUSH2 0x886 PUSH1 0x60 DUP4 ADD DUP6 PUSH2 0x7E9 JUMP JUMPDEST PUSH2 0x893 PUSH1 0x80 DUP4 ADD DUP5 PUSH2 0x828 JUMP JUMPDEST SWAP7 SWAP6 POP POP POP POP POP POP JUMP JUMPDEST PUSH32 0x796F7572207072696365206973206C6F776572207468616E2074686520637572 PUSH0 DUP3 ADD MSTORE PUSH32 0x72656E742070726963652E000000000000000000000000000000000000000000 PUSH1 0x20 DUP3 ADD MSTORE POP JUMP JUMPDEST PUSH0 PUSH2 0x8F7 PUSH1 0x2B DUP4 PUSH2 0x793 JUMP JUMPDEST SWAP2 POP PUSH2 0x902 DUP3 PUSH2 0x89D JUMP JUMPDEST PUSH1 0x40 DUP3 ADD SWAP1 POP SWAP2 SWAP1 POP JUMP JUMPDEST PUSH0 PUSH1 0x20 DUP3 ADD SWAP1 POP DUP2 DUP2 SUB PUSH0 DUP4 ADD MSTORE PUSH2 0x924 DUP2 PUSH2 0x8EB JUMP JUMPDEST SWAP1 POP SWAP2 SWAP1 POP JUMP JUMPDEST PUSH32 0x4E487B7100000000000000000000000000000000000000000000000000000000 PUSH0 MSTORE PUSH1 0x22 PUSH1 0x4 MSTORE PUSH1 0x24 PUSH0 REVERT JUMPDEST PUSH0 PUSH1 0x2 DUP3 DIV SWAP1 POP PUSH1 0x1 DUP3 AND DUP1 PUSH2 0x96F JUMPI PUSH1 0x7F DUP3 AND SWAP2 POP JUMPDEST PUSH1 0x20 DUP3 LT DUP2 SUB PUSH2 0x982 JUMPI PUSH2 0x981 PUSH2 0x92B JUMP JUMPDEST JUMPDEST POP SWAP2 SWAP1 POP JUMP JUMPDEST PUSH0 DUP2 SWAP1 POP DUP2 PUSH0 MSTORE PUSH1 0x20 PUSH0 KECCAK256 SWAP1 POP SWAP2 SWAP1 POP JUMP JUMPDEST PUSH0 PUSH1 0x20 PUSH1 0x1F DUP4 ADD DIV SWAP1 POP SWAP2 SWAP1 POP JUMP JUMPDEST PUSH0 DUP3 DUP3 SHL SWAP1 POP SWAP3 SWAP2 POP POP JUMP JUMPDEST PUSH0 PUSH1 0x8 DUP4 MUL PUSH2 0x9E4 PUSH32 0xFFFFFFFFFFFFFFFFFFFFFFFFFFFFFFFFFFFFFFFFFFFFFFFFFFFFFFFFFFFFFFFF DUP3 PUSH2 0x9A9 JUMP JUMPDEST PUSH2 0x9EE DUP7 DUP4 PUSH2 0x9A9 JUMP JUMPDEST SWAP6 POP DUP1 NOT DUP5 AND SWAP4 POP DUP1 DUP7 AND DUP5 OR SWAP3 POP POP POP SWAP4 SWAP3 POP POP POP JUMP JUMPDEST PUSH0 DUP2 SWAP1 POP SWAP2 SWAP1 POP JUMP JUMPDEST PUSH0 PUSH2 0xA29 PUSH2 0xA24 PUSH2 0xA1F DUP5 PUSH2 0x4CA JUMP JUMPDEST PUSH2 0xA06 JUMP JUMPDEST PUSH2 0x4CA JUMP JUMPDEST SWAP1 POP SWAP2 SWAP1 POP JUMP JUMPDEST PUSH0 DUP2 SWAP1 POP SWAP2 SWAP1 POP JUMP JUMPDEST PUSH2 0xA42 DUP4 PUSH2 0xA0F JUMP JUMPDEST PUSH2 0xA56 PUSH2 0xA4E DUP3 PUSH2 0xA30 JUMP JUMPDEST DUP5 DUP5 SLOAD PUSH2 0x9B5 JUMP JUMPDEST DUP3 SSTORE POP POP POP POP JUMP JUMPDEST PUSH0 SWAP1 JUMP JUMPDEST PUSH2 0xA6A PUSH2 0xA5E JUMP JUMPDEST PUSH2 0xA75 DUP2 DUP5 DUP5 PUSH2 0xA39 JUMP JUMPDEST POP POP POP JUMP JUMPDEST JUMPDEST DUP2 DUP2 LT ISZERO PUSH2 0xA98 JUMPI PUSH2 0xA8D PUSH0 DUP3 PUSH2 0xA62 JUMP JUMPDEST PUSH1 0x1 DUP2 ADD SWAP1 POP PUSH2 0xA7B JUMP JUMPDEST POP POP JUMP JUMPDEST PUSH1 0x1F DUP3 GT ISZERO PUSH2 0xADD JUMPI PUSH2 0xAAE DUP2 PUSH2 0x988 JUMP JUMPDEST PUSH2 0xAB7 DUP5 PUSH2 0x99A JUMP JUMPDEST DUP2 ADD PUSH1 0x20 DUP6 LT ISZERO PUSH2 0xAC6 JUMPI DUP2 SWAP1 POP JUMPDEST PUSH2 0xADA PUSH2 0xAD2 DUP6 PUSH2 0x99A JUMP JUMPDEST DUP4 ADD DUP3 PUSH2 0xA7A JUMP JUMPDEST POP POP JUMPDEST POP POP POP JUMP JUMPDEST PUSH0 DUP3 DUP3 SHR SWAP1 POP SWAP3 SWAP2 POP POP JUMP JUMPDEST PUSH0 PUSH2 0xAFD PUSH0 NOT DUP5 PUSH1 0x8 MUL PUSH2 0xAE2 JUMP JUMPDEST NOT DUP1 DUP4 AND SWAP2 POP POP SWAP3 SWAP2 POP POP JUMP JUMPDEST PUSH0 PUSH2 0xB15 DUP4 DUP4 PUSH2 0xAEE JUMP JUMPDEST SWAP2 POP DUP3 PUSH1 0x2 MUL DUP3 OR SWAP1 POP SWAP3 SWAP2 POP POP JUMP JUMPDEST PUSH2 0xB2E DUP3 PUSH2 0x789 JUMP JUMPDEST PUSH8 0xFFFFFFFFFFFFFFFF DUP2 GT ISZERO PUSH2 0xB47 JUMPI PUSH2 0xB46 PUSH2 0x515 JUMP JUMPDEST JUMPDEST PUSH2 0xB51 DUP3 SLOAD PUSH2 0x958 JUMP JUMPDEST PUSH2 0xB5C DUP3 DUP3 DUP6 PUSH2 0xA9C JUMP JUMPDEST PUSH0 PUSH1 0x20 SWAP1 POP PUSH1 0x1F DUP4 GT PUSH1 0x1 DUP2 EQ PUSH2 0xB8D JUMPI PUSH0 DUP5 ISZERO PUSH2 0xB7B JUMPI DUP3 DUP8 ADD MLOAD SWAP1 POP JUMPDEST PUSH2 0xB85 DUP6 DUP3 PUSH2 0xB0A JUMP JUMPDEST DUP7 SSTORE POP PUSH2 0xBEC JUMP JUMPDEST PUSH1 0x1F NOT DUP5 AND PUSH2 0xB9B DUP7 PUSH2 0x988 JUMP JUMPDEST PUSH0 JUMPDEST DUP3 DUP2 LT ISZERO PUSH2 0xBC2 JUMPI DUP5 DUP10 ADD MLOAD DUP3 SSTORE PUSH1 0x1 DUP3 ADD SWAP2 POP PUSH1 0x20 DUP6 ADD SWAP5 POP PUSH1 0x20 DUP2 ADD SWAP1 POP PUSH2 0xB9D JUMP JUMPDEST DUP7 DUP4 LT ISZERO PUSH2 0xBDF JUMPI DUP5 DUP10 ADD MLOAD PUSH2 0xBDB PUSH1 0x1F DUP10 AND DUP3 PUSH2 0xAEE JUMP JUMPDEST DUP4 SSTORE POP JUMPDEST PUSH1 0x1 PUSH1 0x2 DUP9 MUL ADD DUP9 SSTORE POP POP POP JUMPDEST POP POP POP POP POP POP JUMP INVALID LOG2 PUSH5 0x6970667358 0x22 SLT KECCAK256 0xBA 0xDA STOP ISZERO DUP12 0xBE SWAP10 GASLIMIT CODESIZE 0xDB TSTORE 0xC6 0x4C 0xCC 0xD3 0xBB LOG1 PUSH30 0x7F1AB1BC23F162E94D9B1E5B205364736F6C634300081A00330000000000 "
		},
		"gasEstimates": {
			"creation": {
				"codeDepositCost": "622800",
				"executionCost": "24920",
				"totalCost": "647720"
			},
			"external": {
				"carauctions(uint256)": "infinite",
				"changeowner(uint256,string)": "infinite",
				"issue(uint256,string,string,string,uint256)": "infinite"
			}
		},
		"methodIdentifiers": {
			"carauctions(uint256)": "89866908",
			"changeowner(uint256,string)": "01aa64cf",
			"issue(uint256,string,string,string,uint256)": "662550f0"
		}
	},
	"abi": [
		{
			"inputs": [
				{
					"internalType": "uint256",
					"name": "",
					"type": "uint256"
				}
			],
			"name": "carauctions",
			"outputs": [
				{
					"internalType": "string",
					"name": "ownername",
					"type": "string"
				},
				{
					"internalType": "string",
					"name": "car",
					"type": "string"
				},
				{
					"internalType": "string",
					"name": "model",
					"type": "string"
				},
				{
					"internalType": "uint256",
					"name": "price",
					"type": "uint256"
				},
				{
					"internalType": "address payable",
					"name": "owneraddress",
					"type": "address"
				}
			],
			"stateMutability": "view",
			"type": "function"
		},
		{
			"inputs": [
				{
					"internalType": "uint256",
					"name": "_id",
					"type": "uint256"
				},
				{
					"internalType": "string",
					"name": "_newownername",
					"type": "string"
				}
			],
			"name": "changeowner",
			"outputs": [],
			"stateMutability": "payable",
			"type": "function"
		},
		{
			"inputs": [
				{
					"internalType": "uint256",
					"name": "_id",
					"type": "uint256"
				},
				{
					"internalType": "string",
					"name": "_ownername",
					"type": "string"
				},
				{
					"internalType": "string",
					"name": "_car",
					"type": "string"
				},
				{
					"internalType": "string",
					"name": "_model",
					"type": "string"
				},
				{
					"internalType": "uint256",
					"name": "_price",
					"type": "uint256"
				}
			],
			"name": "issue",
			"outputs": [],
			"stateMutability": "nonpayable",
			"type": "function"
		}
	]
}