{
	"data": {
		"bytecode": {
			"linkReferences": {},
			"object": "6080604052348015600e575f80fd5b50610f9d8061001c5f395ff3fe608060405260043610610049575f3560e01c80634132db8f1461004d5780636e10a8bb1461007a57806388439bbc14610084578063909c0db1146100c0578063a0a1a7d7146100e8575b5f80fd5b348015610058575f80fd5b50610061610116565b6040516100719493929190610781565b60405180910390f35b6100826102e5565b005b34801561008f575f80fd5b506100aa60048036038101906100a5919061081d565b61045b565b6040516100b79190610857565b60405180910390f35b3480156100cb575f80fd5b506100e660048036038101906100e19190610a20565b610477565b005b3480156100f3575f80fd5b506100fc610514565b60405161010d959493929190610afa565b60405180910390f35b60608060605f805f015f6001015f6002015f6003015f9054906101000a900461ffff1683805461014590610b8d565b80601f016020809104026020016040519081016040528092919081815260200182805461017190610b8d565b80156101bc5780601f10610193576101008083540402835291602001916101bc565b820191905f5260205f20905b81548152906001019060200180831161019f57829003601f168201915b505050505093508280546101cf90610b8d565b80601f01602080910402602001604051908101604052809291908181526020018280546101fb90610b8d565b80156102465780601f1061021d57610100808354040283529160200191610246565b820191905f5260205f20905b81548152906001019060200180831161022957829003601f168201915b5050505050925081805461025990610b8d565b80601f016020809104026020016040519081016040528092919081815260200182805461028590610b8d565b80156102d05780601f106102a7576101008083540402835291602001916102d0565b820191905f5260205f20905b8154815290600101906020018083116102b357829003601f168201915b50505050509150935093509350935090919293565b5f6103045f6003015f9054906101000a900461ffff1661ffff1661045b565b90505f6003015f9054906101000a900461ffff1661ffff1634101561035e576040517f08c379a000000000000000000000000000000000000000000000000000000000815260040161035590610c07565b60405180910390fd5b5f73ffffffffffffffffffffffffffffffffffffffff165f60030160029054906101000a900473ffffffffffffffffffffffffffffffffffffffff1673ffffffffffffffffffffffffffffffffffffffff16036103f0576040517f08c379a00000000000000000000000000000000000000000000000000000000081526004016103e790610c6f565b60405180910390fd5b5f60030160029054906101000a900473ffffffffffffffffffffffffffffffffffffffff1673ffffffffffffffffffffffffffffffffffffffff166108fc8290811502906040515f60405180830381858888f19350505050158015610457573d5f803e3d5ffd5b5050565b5f670de0b6b3a7640000826104709190610cba565b9050919050565b845f800190816104879190610e98565b50835f60010190816104999190610e98565b50825f60020190816104ab9190610e98565b50805f6003015f6101000a81548161ffff021916908361ffff160217905550815f60030160026101000a81548173ffffffffffffffffffffffffffffffffffffffff021916908373ffffffffffffffffffffffffffffffffffffffff1602179055505050505050565b5f805f01805461052390610b8d565b80601f016020809104026020016040519081016040528092919081815260200182805461054f90610b8d565b801561059a5780601f106105715761010080835404028352916020019161059a565b820191905f5260205f20905b81548152906001019060200180831161057d57829003601f168201915b5050505050908060010180546105af90610b8d565b80601f01602080910402602001604051908101604052809291908181526020018280546105db90610b8d565b80156106265780601f106105fd57610100808354040283529160200191610626565b820191905f5260205f20905b81548152906001019060200180831161060957829003601f168201915b50505050509080600201805461063b90610b8d565b80601f016020809104026020016040519081016040528092919081815260200182805461066790610b8d565b80156106b25780601f10610689576101008083540402835291602001916106b2565b820191905f5260205f20905b81548152906001019060200180831161069557829003601f168201915b505050505090806003015f9054906101000a900461ffff16908060030160029054906101000a900473ffffffffffffffffffffffffffffffffffffffff16905085565b5f81519050919050565b5f82825260208201905092915050565b8281835e5f83830152505050565b5f601f19601f8301169050919050565b5f610737826106f5565b61074181856106ff565b935061075181856020860161070f565b61075a8161071d565b840191505092915050565b5f61ffff82169050919050565b61077b81610765565b82525050565b5f6080820190508181035f830152610799818761072d565b905081810360208301526107ad818661072d565b905081810360408301526107c1818561072d565b90506107d06060830184610772565b95945050505050565b5f604051905090565b5f80fd5b5f80fd5b5f819050919050565b6107fc816107ea565b8114610806575f80fd5b50565b5f81359050610817816107f3565b92915050565b5f60208284031215610832576108316107e2565b5b5f61083f84828501610809565b91505092915050565b610851816107ea565b82525050565b5f60208201905061086a5f830184610848565b92915050565b5f80fd5b5f80fd5b7f4e487b71000000000000000000000000000000000000000000000000000000005f52604160045260245ffd5b6108ae8261071d565b810181811067ffffffffffffffff821117156108cd576108cc610878565b5b80604052505050565b5f6108df6107d9565b90506108eb82826108a5565b919050565b5f67ffffffffffffffff82111561090a57610909610878565b5b6109138261071d565b9050602081019050919050565b828183375f83830152505050565b5f61094061093b846108f0565b6108d6565b90508281526020810184848401111561095c5761095b610874565b5b610967848285610920565b509392505050565b5f82601f83011261098357610982610870565b5b813561099384826020860161092e565b91505092915050565b5f73ffffffffffffffffffffffffffffffffffffffff82169050919050565b5f6109c58261099c565b9050919050565b6109d5816109bb565b81146109df575f80fd5b50565b5f813590506109f0816109cc565b92915050565b6109ff81610765565b8114610a09575f80fd5b50565b5f81359050610a1a816109f6565b92915050565b5f805f805f60a08688031215610a3957610a386107e2565b5b5f86013567ffffffffffffffff811115610a5657610a556107e6565b5b610a628882890161096f565b955050602086013567ffffffffffffffff811115610a8357610a826107e6565b5b610a8f8882890161096f565b945050604086013567ffffffffffffffff811115610ab057610aaf6107e6565b5b610abc8882890161096f565b9350506060610acd888289016109e2565b9250506080610ade88828901610a0c565b9150509295509295909350565b610af4816109bb565b82525050565b5f60a0820190508181035f830152610b12818861072d565b90508181036020830152610b26818761072d565b90508181036040830152610b3a818661072d565b9050610b496060830185610772565b610b566080830184610aeb565b9695505050505050565b7f4e487b71000000000000000000000000000000000000000000000000000000005f52602260045260245ffd5b5f6002820490506001821680610ba457607f821691505b602082108103610bb757610bb6610b60565b5b50919050565b7f496e73756666696369656e74207061796d656e7420616d6f756e7400000000005f82015250565b5f610bf1601b836106ff565b9150610bfc82610bbd565b602082019050919050565b5f6020820190508181035f830152610c1e81610be5565b9050919050565b7f456d706c6f7965652077616c6c6574206e6f74207365740000000000000000005f82015250565b5f610c596017836106ff565b9150610c6482610c25565b602082019050919050565b5f6020820190508181035f830152610c8681610c4d565b9050919050565b7f4e487b71000000000000000000000000000000000000000000000000000000005f52601160045260245ffd5b5f610cc4826107ea565b9150610ccf836107ea565b9250828202610cdd816107ea565b91508282048414831517610cf457610cf3610c8d565b5b5092915050565b5f819050815f5260205f209050919050565b5f6020601f8301049050919050565b5f82821b905092915050565b5f60088302610d577fffffffffffffffffffffffffffffffffffffffffffffffffffffffffffffffff82610d1c565b610d618683610d1c565b95508019841693508086168417925050509392505050565b5f819050919050565b5f610d9c610d97610d92846107ea565b610d79565b6107ea565b9050919050565b5f819050919050565b610db583610d82565b610dc9610dc182610da3565b848454610d28565b825550505050565b5f90565b610ddd610dd1565b610de8818484610dac565b505050565b5b81811015610e0b57610e005f82610dd5565b600181019050610dee565b5050565b601f821115610e5057610e2181610cfb565b610e2a84610d0d565b81016020851015610e39578190505b610e4d610e4585610d0d565b830182610ded565b50505b505050565b5f82821c905092915050565b5f610e705f1984600802610e55565b1980831691505092915050565b5f610e888383610e61565b9150826002028217905092915050565b610ea1826106f5565b67ffffffffffffffff811115610eba57610eb9610878565b5b610ec48254610b8d565b610ecf828285610e0f565b5f60209050601f831160018114610f00575f8415610eee578287015190505b610ef88582610e7d565b865550610f5f565b601f198416610f0e86610cfb565b5f5b82811015610f3557848901518255600182019150602085019450602081019050610f10565b86831015610f525784890151610f4e601f891682610e61565b8355505b6001600288020188555050505b50505050505056fea26469706673582212205cb477e8c2200a20d492a9218fe3bc4c024242894ef58b269cbaddd40794afca64736f6c634300081a0033",
			"opcodes": "PUSH1 0x80 PUSH1 0x40 MSTORE CALLVALUE DUP1 ISZERO PUSH1 0xE JUMPI PUSH0 DUP1 REVERT JUMPDEST POP PUSH2 0xF9D DUP1 PUSH2 0x1C PUSH0 CODECOPY PUSH0 RETURN INVALID PUSH1 0x80 PUSH1 0x40 MSTORE PUSH1 0x4 CALLDATASIZE LT PUSH2 0x49 JUMPI PUSH0 CALLDATALOAD PUSH1 0xE0 SHR DUP1 PUSH4 0x4132DB8F EQ PUSH2 0x4D JUMPI DUP1 PUSH4 0x6E10A8BB EQ PUSH2 0x7A JUMPI DUP1 PUSH4 0x88439BBC EQ PUSH2 0x84 JUMPI DUP1 PUSH4 0x909C0DB1 EQ PUSH2 0xC0 JUMPI DUP1 PUSH4 0xA0A1A7D7 EQ PUSH2 0xE8 JUMPI JUMPDEST PUSH0 DUP1 REVERT JUMPDEST CALLVALUE DUP1 ISZERO PUSH2 0x58 JUMPI PUSH0 DUP1 REVERT JUMPDEST POP PUSH2 0x61 PUSH2 0x116 JUMP JUMPDEST PUSH1 0x40 MLOAD PUSH2 0x71 SWAP5 SWAP4 SWAP3 SWAP2 SWAP1 PUSH2 0x781 JUMP JUMPDEST PUSH1 0x40 MLOAD DUP1 SWAP2 SUB SWAP1 RETURN JUMPDEST PUSH2 0x82 PUSH2 0x2E5 JUMP JUMPDEST STOP JUMPDEST CALLVALUE DUP1 ISZERO PUSH2 0x8F JUMPI PUSH0 DUP1 REVERT JUMPDEST POP PUSH2 0xAA PUSH1 0x4 DUP1 CALLDATASIZE SUB DUP2 ADD SWAP1 PUSH2 0xA5 SWAP2 SWAP1 PUSH2 0x81D JUMP JUMPDEST PUSH2 0x45B JUMP JUMPDEST PUSH1 0x40 MLOAD PUSH2 0xB7 SWAP2 SWAP1 PUSH2 0x857 JUMP JUMPDEST PUSH1 0x40 MLOAD DUP1 SWAP2 SUB SWAP1 RETURN JUMPDEST CALLVALUE DUP1 ISZERO PUSH2 0xCB JUMPI PUSH0 DUP1 REVERT JUMPDEST POP PUSH2 0xE6 PUSH1 0x4 DUP1 CALLDATASIZE SUB DUP2 ADD SWAP1 PUSH2 0xE1 SWAP2 SWAP1 PUSH2 0xA20 JUMP JUMPDEST PUSH2 0x477 JUMP JUMPDEST STOP JUMPDEST CALLVALUE DUP1 ISZERO PUSH2 0xF3 JUMPI PUSH0 DUP1 REVERT JUMPDEST POP PUSH2 0xFC PUSH2 0x514 JUMP JUMPDEST PUSH1 0x40 MLOAD PUSH2 0x10D SWAP6 SWAP5 SWAP4 SWAP3 SWAP2 SWAP1 PUSH2 0xAFA JUMP JUMPDEST PUSH1 0x40 MLOAD DUP1 SWAP2 SUB SWAP1 RETURN JUMPDEST PUSH1 0x60 DUP1 PUSH1 0x60 PUSH0 DUP1 PUSH0 ADD PUSH0 PUSH1 0x1 ADD PUSH0 PUSH1 0x2 ADD PUSH0 PUSH1 0x3 ADD PUSH0 SWAP1 SLOAD SWAP1 PUSH2 0x100 EXP SWAP1 DIV PUSH2 0xFFFF AND DUP4 DUP1 SLOAD PUSH2 0x145 SWAP1 PUSH2 0xB8D JUMP JUMPDEST DUP1 PUSH1 0x1F ADD PUSH1 0x20 DUP1 SWAP2 DIV MUL PUSH1 0x20 ADD PUSH1 0x40 MLOAD SWAP1 DUP2 ADD PUSH1 0x40 MSTORE DUP1 SWAP3 SWAP2 SWAP1 DUP2 DUP2 MSTORE PUSH1 0x20 ADD DUP3 DUP1 SLOAD PUSH2 0x171 SWAP1 PUSH2 0xB8D JUMP JUMPDEST DUP1 ISZERO PUSH2 0x1BC JUMPI DUP1 PUSH1 0x1F LT PUSH2 0x193 JUMPI PUSH2 0x100 DUP1 DUP4 SLOAD DIV MUL DUP4 MSTORE SWAP2 PUSH1 0x20 ADD SWAP2 PUSH2 0x1BC JUMP JUMPDEST DUP3 ADD SWAP2 SWAP1 PUSH0 MSTORE PUSH1 0x20 PUSH0 KECCAK256 SWAP1 JUMPDEST DUP2 SLOAD DUP2 MSTORE SWAP1 PUSH1 0x1 ADD SWAP1 PUSH1 0x20 ADD DUP1 DUP4 GT PUSH2 0x19F JUMPI DUP3 SWAP1 SUB PUSH1 0x1F AND DUP3 ADD SWAP2 JUMPDEST POP POP POP POP POP SWAP4 POP DUP3 DUP1 SLOAD PUSH2 0x1CF SWAP1 PUSH2 0xB8D JUMP JUMPDEST DUP1 PUSH1 0x1F ADD PUSH1 0x20 DUP1 SWAP2 DIV MUL PUSH1 0x20 ADD PUSH1 0x40 MLOAD SWAP1 DUP2 ADD PUSH1 0x40 MSTORE DUP1 SWAP3 SWAP2 SWAP1 DUP2 DUP2 MSTORE PUSH1 0x20 ADD DUP3 DUP1 SLOAD PUSH2 0x1FB SWAP1 PUSH2 0xB8D JUMP JUMPDEST DUP1 ISZERO PUSH2 0x246 JUMPI DUP1 PUSH1 0x1F LT PUSH2 0x21D JUMPI PUSH2 0x100 DUP1 DUP4 SLOAD DIV MUL DUP4 MSTORE SWAP2 PUSH1 0x20 ADD SWAP2 PUSH2 0x246 JUMP JUMPDEST DUP3 ADD SWAP2 SWAP1 PUSH0 MSTORE PUSH1 0x20 PUSH0 KECCAK256 SWAP1 JUMPDEST DUP2 SLOAD DUP2 MSTORE SWAP1 PUSH1 0x1 ADD SWAP1 PUSH1 0x20 ADD DUP1 DUP4 GT PUSH2 0x229 JUMPI DUP3 SWAP1 SUB PUSH1 0x1F AND DUP3 ADD SWAP2 JUMPDEST POP POP POP POP POP SWAP3 POP DUP2 DUP1 SLOAD PUSH2 0x259 SWAP1 PUSH2 0xB8D JUMP JUMPDEST DUP1 PUSH1 0x1F ADD PUSH1 0x20 DUP1 SWAP2 DIV MUL PUSH1 0x20 ADD PUSH1 0x40 MLOAD SWAP1 DUP2 ADD PUSH1 0x40 MSTORE DUP1 SWAP3 SWAP2 SWAP1 DUP2 DUP2 MSTORE PUSH1 0x20 ADD DUP3 DUP1 SLOAD PUSH2 0x285 SWAP1 PUSH2 0xB8D JUMP JUMPDEST DUP1 ISZERO PUSH2 0x2D0 JUMPI DUP1 PUSH1 0x1F LT PUSH2 0x2A7 JUMPI PUSH2 0x100 DUP1 DUP4 SLOAD DIV MUL DUP4 MSTORE SWAP2 PUSH1 0x20 ADD SWAP2 PUSH2 0x2D0 JUMP JUMPDEST DUP3 ADD SWAP2 SWAP1 PUSH0 MSTORE PUSH1 0x20 PUSH0 KECCAK256 SWAP1 JUMPDEST DUP2 SLOAD DUP2 MSTORE SWAP1 PUSH1 0x1 ADD SWAP1 PUSH1 0x20 ADD DUP1 DUP4 GT PUSH2 0x2B3 JUMPI DUP3 SWAP1 SUB PUSH1 0x1F AND DUP3 ADD SWAP2 JUMPDEST POP POP POP POP POP SWAP2 POP SWAP4 POP SWAP4 POP SWAP4 POP SWAP4 POP SWAP1 SWAP2 SWAP3 SWAP4 JUMP JUMPDEST PUSH0 PUSH2 0x304 PUSH0 PUSH1 0x3 ADD PUSH0 SWAP1 SLOAD SWAP1 PUSH2 0x100 EXP SWAP1 DIV PUSH2 0xFFFF AND PUSH2 0xFFFF AND PUSH2 0x45B JUMP JUMPDEST SWAP1 POP PUSH0 PUSH1 0x3 ADD PUSH0 SWAP1 SLOAD SWAP1 PUSH2 0x100 EXP SWAP1 DIV PUSH2 0xFFFF AND PUSH2 0xFFFF AND CALLVALUE LT ISZERO PUSH2 0x35E JUMPI PUSH1 0x40 MLOAD PUSH32 0x8C379A000000000000000000000000000000000000000000000000000000000 DUP2 MSTORE PUSH1 0x4 ADD PUSH2 0x355 SWAP1 PUSH2 0xC07 JUMP JUMPDEST PUSH1 0x40 MLOAD DUP1 SWAP2 SUB SWAP1 REVERT JUMPDEST PUSH0 PUSH20 0xFFFFFFFFFFFFFFFFFFFFFFFFFFFFFFFFFFFFFFFF AND PUSH0 PUSH1 0x3 ADD PUSH1 0x2 SWAP1 SLOAD SWAP1 PUSH2 0x100 EXP SWAP1 DIV PUSH20 0xFFFFFFFFFFFFFFFFFFFFFFFFFFFFFFFFFFFFFFFF AND PUSH20 0xFFFFFFFFFFFFFFFFFFFFFFFFFFFFFFFFFFFFFFFF AND SUB PUSH2 0x3F0 JUMPI PUSH1 0x40 MLOAD PUSH32 0x8C379A000000000000000000000000000000000000000000000000000000000 DUP2 MSTORE PUSH1 0x4 ADD PUSH2 0x3E7 SWAP1 PUSH2 0xC6F JUMP JUMPDEST PUSH1 0x40 MLOAD DUP1 SWAP2 SUB SWAP1 REVERT JUMPDEST PUSH0 PUSH1 0x3 ADD PUSH1 0x2 SWAP1 SLOAD SWAP1 PUSH2 0x100 EXP SWAP1 DIV PUSH20 0xFFFFFFFFFFFFFFFFFFFFFFFFFFFFFFFFFFFFFFFF AND PUSH20 0xFFFFFFFFFFFFFFFFFFFFFFFFFFFFFFFFFFFFFFFF AND PUSH2 0x8FC DUP3 SWAP1 DUP2 ISZERO MUL SWAP1 PUSH1 0x40 MLOAD PUSH0 PUSH1 0x40 MLOAD DUP1 DUP4 SUB DUP2 DUP6 DUP9 DUP9 CALL SWAP4 POP POP POP POP ISZERO DUP1 ISZERO PUSH2 0x457 JUMPI RETURNDATASIZE PUSH0 DUP1 RETURNDATACOPY RETURNDATASIZE PUSH0 REVERT JUMPDEST POP POP JUMP JUMPDEST PUSH0 PUSH8 0xDE0B6B3A7640000 DUP3 PUSH2 0x470 SWAP2 SWAP1 PUSH2 0xCBA JUMP JUMPDEST SWAP1 POP SWAP2 SWAP1 POP JUMP JUMPDEST DUP5 PUSH0 DUP1 ADD SWAP1 DUP2 PUSH2 0x487 SWAP2 SWAP1 PUSH2 0xE98 JUMP JUMPDEST POP DUP4 PUSH0 PUSH1 0x1 ADD SWAP1 DUP2 PUSH2 0x499 SWAP2 SWAP1 PUSH2 0xE98 JUMP JUMPDEST POP DUP3 PUSH0 PUSH1 0x2 ADD SWAP1 DUP2 PUSH2 0x4AB SWAP2 SWAP1 PUSH2 0xE98 JUMP JUMPDEST POP DUP1 PUSH0 PUSH1 0x3 ADD PUSH0 PUSH2 0x100 EXP DUP2 SLOAD DUP2 PUSH2 0xFFFF MUL NOT AND SWAP1 DUP4 PUSH2 0xFFFF AND MUL OR SWAP1 SSTORE POP DUP2 PUSH0 PUSH1 0x3 ADD PUSH1 0x2 PUSH2 0x100 EXP DUP2 SLOAD DUP2 PUSH20 0xFFFFFFFFFFFFFFFFFFFFFFFFFFFFFFFFFFFFFFFF MUL NOT AND SWAP1 DUP4 PUSH20 0xFFFFFFFFFFFFFFFFFFFFFFFFFFFFFFFFFFFFFFFF AND MUL OR SWAP1 SSTORE POP POP POP POP POP POP JUMP JUMPDEST PUSH0 DUP1 PUSH0 ADD DUP1 SLOAD PUSH2 0x523 SWAP1 PUSH2 0xB8D JUMP JUMPDEST DUP1 PUSH1 0x1F ADD PUSH1 0x20 DUP1 SWAP2 DIV MUL PUSH1 0x20 ADD PUSH1 0x40 MLOAD SWAP1 DUP2 ADD PUSH1 0x40 MSTORE DUP1 SWAP3 SWAP2 SWAP1 DUP2 DUP2 MSTORE PUSH1 0x20 ADD DUP3 DUP1 SLOAD PUSH2 0x54F SWAP1 PUSH2 0xB8D JUMP JUMPDEST DUP1 ISZERO PUSH2 0x59A JUMPI DUP1 PUSH1 0x1F LT PUSH2 0x571 JUMPI PUSH2 0x100 DUP1 DUP4 SLOAD DIV MUL DUP4 MSTORE SWAP2 PUSH1 0x20 ADD SWAP2 PUSH2 0x59A JUMP JUMPDEST DUP3 ADD SWAP2 SWAP1 PUSH0 MSTORE PUSH1 0x20 PUSH0 KECCAK256 SWAP1 JUMPDEST DUP2 SLOAD DUP2 MSTORE SWAP1 PUSH1 0x1 ADD SWAP1 PUSH1 0x20 ADD DUP1 DUP4 GT PUSH2 0x57D JUMPI DUP3 SWAP1 SUB PUSH1 0x1F AND DUP3 ADD SWAP2 JUMPDEST POP POP POP POP POP SWAP1 DUP1 PUSH1 0x1 ADD DUP1 SLOAD PUSH2 0x5AF SWAP1 PUSH2 0xB8D JUMP JUMPDEST DUP1 PUSH1 0x1F ADD PUSH1 0x20 DUP1 SWAP2 DIV MUL PUSH1 0x20 ADD PUSH1 0x40 MLOAD SWAP1 DUP2 ADD PUSH1 0x40 MSTORE DUP1 SWAP3 SWAP2 SWAP1 DUP2 DUP2 MSTORE PUSH1 0x20 ADD DUP3 DUP1 SLOAD PUSH2 0x5DB SWAP1 PUSH2 0xB8D JUMP JUMPDEST DUP1 ISZERO PUSH2 0x626 JUMPI DUP1 PUSH1 0x1F LT PUSH2 0x5FD JUMPI PUSH2 0x100 DUP1 DUP4 SLOAD DIV MUL DUP4 MSTORE SWAP2 PUSH1 0x20 ADD SWAP2 PUSH2 0x626 JUMP JUMPDEST DUP3 ADD SWAP2 SWAP1 PUSH0 MSTORE PUSH1 0x20 PUSH0 KECCAK256 SWAP1 JUMPDEST DUP2 SLOAD DUP2 MSTORE SWAP1 PUSH1 0x1 ADD SWAP1 PUSH1 0x20 ADD DUP1 DUP4 GT PUSH2 0x609 JUMPI DUP3 SWAP1 SUB PUSH1 0x1F AND DUP3 ADD SWAP2 JUMPDEST POP POP POP POP POP SWAP1 DUP1 PUSH1 0x2 ADD DUP1 SLOAD PUSH2 0x63B SWAP1 PUSH2 0xB8D JUMP JUMPDEST DUP1 PUSH1 0x1F ADD PUSH1 0x20 DUP1 SWAP2 DIV MUL PUSH1 0x20 ADD PUSH1 0x40 MLOAD SWAP1 DUP2 ADD PUSH1 0x40 MSTORE DUP1 SWAP3 SWAP2 SWAP1 DUP2 DUP2 MSTORE PUSH1 0x20 ADD DUP3 DUP1 SLOAD PUSH2 0x667 SWAP1 PUSH2 0xB8D JUMP JUMPDEST DUP1 ISZERO PUSH2 0x6B2 JUMPI DUP1 PUSH1 0x1F LT PUSH2 0x689 JUMPI PUSH2 0x100 DUP1 DUP4 SLOAD DIV MUL DUP4 MSTORE SWAP2 PUSH1 0x20 ADD SWAP2 PUSH2 0x6B2 JUMP JUMPDEST DUP3 ADD SWAP2 SWAP1 PUSH0 MSTORE PUSH1 0x20 PUSH0 KECCAK256 SWAP1 JUMPDEST DUP2 SLOAD DUP2 MSTORE SWAP1 PUSH1 0x1 ADD SWAP1 PUSH1 0x20 ADD DUP1 DUP4 GT PUSH2 0x695 JUMPI DUP3 SWAP1 SUB PUSH1 0x1F AND DUP3 ADD SWAP2 JUMPDEST POP POP POP POP POP SWAP1 DUP1 PUSH1 0x3 ADD PUSH0 SWAP1 SLOAD SWAP1 PUSH2 0x100 EXP SWAP1 DIV PUSH2 0xFFFF AND SWAP1 DUP1 PUSH1 0x3 ADD PUSH1 0x2 SWAP1 SLOAD SWAP1 PUSH2 0x100 EXP SWAP1 DIV PUSH20 0xFFFFFFFFFFFFFFFFFFFFFFFFFFFFFFFFFFFFFFFF AND SWAP1 POP DUP6 JUMP JUMPDEST PUSH0 DUP2 MLOAD SWAP1 POP SWAP2 SWAP1 POP JUMP JUMPDEST PUSH0 DUP3 DUP3 MSTORE PUSH1 0x20 DUP3 ADD SWAP1 POP SWAP3 SWAP2 POP POP JUMP JUMPDEST DUP3 DUP2 DUP4 MCOPY PUSH0 DUP4 DUP4 ADD MSTORE POP POP POP JUMP JUMPDEST PUSH0 PUSH1 0x1F NOT PUSH1 0x1F DUP4 ADD AND SWAP1 POP SWAP2 SWAP1 POP JUMP JUMPDEST PUSH0 PUSH2 0x737 DUP3 PUSH2 0x6F5 JUMP JUMPDEST PUSH2 0x741 DUP2 DUP6 PUSH2 0x6FF JUMP JUMPDEST SWAP4 POP PUSH2 0x751 DUP2 DUP6 PUSH1 0x20 DUP7 ADD PUSH2 0x70F JUMP JUMPDEST PUSH2 0x75A DUP2 PUSH2 0x71D JUMP JUMPDEST DUP5 ADD SWAP2 POP POP SWAP3 SWAP2 POP POP JUMP JUMPDEST PUSH0 PUSH2 0xFFFF DUP3 AND SWAP1 POP SWAP2 SWAP1 POP JUMP JUMPDEST PUSH2 0x77B DUP2 PUSH2 0x765 JUMP JUMPDEST DUP3 MSTORE POP POP JUMP JUMPDEST PUSH0 PUSH1 0x80 DUP3 ADD SWAP1 POP DUP2 DUP2 SUB PUSH0 DUP4 ADD MSTORE PUSH2 0x799 DUP2 DUP8 PUSH2 0x72D JUMP JUMPDEST SWAP1 POP DUP2 DUP2 SUB PUSH1 0x20 DUP4 ADD MSTORE PUSH2 0x7AD DUP2 DUP7 PUSH2 0x72D JUMP JUMPDEST SWAP1 POP DUP2 DUP2 SUB PUSH1 0x40 DUP4 ADD MSTORE PUSH2 0x7C1 DUP2 DUP6 PUSH2 0x72D JUMP JUMPDEST SWAP1 POP PUSH2 0x7D0 PUSH1 0x60 DUP4 ADD DUP5 PUSH2 0x772 JUMP JUMPDEST SWAP6 SWAP5 POP POP POP POP POP JUMP JUMPDEST PUSH0 PUSH1 0x40 MLOAD SWAP1 POP SWAP1 JUMP JUMPDEST PUSH0 DUP1 REVERT JUMPDEST PUSH0 DUP1 REVERT JUMPDEST PUSH0 DUP2 SWAP1 POP SWAP2 SWAP1 POP JUMP JUMPDEST PUSH2 0x7FC DUP2 PUSH2 0x7EA JUMP JUMPDEST DUP2 EQ PUSH2 0x806 JUMPI PUSH0 DUP1 REVERT JUMPDEST POP JUMP JUMPDEST PUSH0 DUP2 CALLDATALOAD SWAP1 POP PUSH2 0x817 DUP2 PUSH2 0x7F3 JUMP JUMPDEST SWAP3 SWAP2 POP POP JUMP JUMPDEST PUSH0 PUSH1 0x20 DUP3 DUP5 SUB SLT ISZERO PUSH2 0x832 JUMPI PUSH2 0x831 PUSH2 0x7E2 JUMP JUMPDEST JUMPDEST PUSH0 PUSH2 0x83F DUP5 DUP3 DUP6 ADD PUSH2 0x809 JUMP JUMPDEST SWAP2 POP POP SWAP3 SWAP2 POP POP JUMP JUMPDEST PUSH2 0x851 DUP2 PUSH2 0x7EA JUMP JUMPDEST DUP3 MSTORE POP POP JUMP JUMPDEST PUSH0 PUSH1 0x20 DUP3 ADD SWAP1 POP PUSH2 0x86A PUSH0 DUP4 ADD DUP5 PUSH2 0x848 JUMP JUMPDEST SWAP3 SWAP2 POP POP JUMP JUMPDEST PUSH0 DUP1 REVERT JUMPDEST PUSH0 DUP1 REVERT JUMPDEST PUSH32 0x4E487B7100000000000000000000000000000000000000000000000000000000 PUSH0 MSTORE PUSH1 0x41 PUSH1 0x4 MSTORE PUSH1 0x24 PUSH0 REVERT JUMPDEST PUSH2 0x8AE DUP3 PUSH2 0x71D JUMP JUMPDEST DUP2 ADD DUP2 DUP2 LT PUSH8 0xFFFFFFFFFFFFFFFF DUP3 GT OR ISZERO PUSH2 0x8CD JUMPI PUSH2 0x8CC PUSH2 0x878 JUMP JUMPDEST JUMPDEST DUP1 PUSH1 0x40 MSTORE POP POP POP JUMP JUMPDEST PUSH0 PUSH2 0x8DF PUSH2 0x7D9 JUMP JUMPDEST SWAP1 POP PUSH2 0x8EB DUP3 DUP3 PUSH2 0x8A5 JUMP JUMPDEST SWAP2 SWAP1 POP JUMP JUMPDEST PUSH0 PUSH8 0xFFFFFFFFFFFFFFFF DUP3 GT ISZERO PUSH2 0x90A JUMPI PUSH2 0x909 PUSH2 0x878 JUMP JUMPDEST JUMPDEST PUSH2 0x913 DUP3 PUSH2 0x71D JUMP JUMPDEST SWAP1 POP PUSH1 0x20 DUP2 ADD SWAP1 POP SWAP2 SWAP1 POP JUMP JUMPDEST DUP3 DUP2 DUP4 CALLDATACOPY PUSH0 DUP4 DUP4 ADD MSTORE POP POP POP JUMP JUMPDEST PUSH0 PUSH2 0x940 PUSH2 0x93B DUP5 PUSH2 0x8F0 JUMP JUMPDEST PUSH2 0x8D6 JUMP JUMPDEST SWAP1 POP DUP3 DUP2 MSTORE PUSH1 0x20 DUP2 ADD DUP5 DUP5 DUP5 ADD GT ISZERO PUSH2 0x95C JUMPI PUSH2 0x95B PUSH2 0x874 JUMP JUMPDEST JUMPDEST PUSH2 0x967 DUP5 DUP3 DUP6 PUSH2 0x920 JUMP JUMPDEST POP SWAP4 SWAP3 POP POP POP JUMP JUMPDEST PUSH0 DUP3 PUSH1 0x1F DUP4 ADD SLT PUSH2 0x983 JUMPI PUSH2 0x982 PUSH2 0x870 JUMP JUMPDEST JUMPDEST DUP2 CALLDATALOAD PUSH2 0x993 DUP5 DUP3 PUSH1 0x20 DUP7 ADD PUSH2 0x92E JUMP JUMPDEST SWAP2 POP POP SWAP3 SWAP2 POP POP JUMP JUMPDEST PUSH0 PUSH20 0xFFFFFFFFFFFFFFFFFFFFFFFFFFFFFFFFFFFFFFFF DUP3 AND SWAP1 POP SWAP2 SWAP1 POP JUMP JUMPDEST PUSH0 PUSH2 0x9C5 DUP3 PUSH2 0x99C JUMP JUMPDEST SWAP1 POP SWAP2 SWAP1 POP JUMP JUMPDEST PUSH2 0x9D5 DUP2 PUSH2 0x9BB JUMP JUMPDEST DUP2 EQ PUSH2 0x9DF JUMPI PUSH0 DUP1 REVERT JUMPDEST POP JUMP JUMPDEST PUSH0 DUP2 CALLDATALOAD SWAP1 POP PUSH2 0x9F0 DUP2 PUSH2 0x9CC JUMP JUMPDEST SWAP3 SWAP2 POP POP JUMP JUMPDEST PUSH2 0x9FF DUP2 PUSH2 0x765 JUMP JUMPDEST DUP2 EQ PUSH2 0xA09 JUMPI PUSH0 DUP1 REVERT JUMPDEST POP JUMP JUMPDEST PUSH0 DUP2 CALLDATALOAD SWAP1 POP PUSH2 0xA1A DUP2 PUSH2 0x9F6 JUMP JUMPDEST SWAP3 SWAP2 POP POP JUMP JUMPDEST PUSH0 DUP1 PUSH0 DUP1 PUSH0 PUSH1 0xA0 DUP7 DUP9 SUB SLT ISZERO PUSH2 0xA39 JUMPI PUSH2 0xA38 PUSH2 0x7E2 JUMP JUMPDEST JUMPDEST PUSH0 DUP7 ADD CALLDATALOAD PUSH8 0xFFFFFFFFFFFFFFFF DUP2 GT ISZERO PUSH2 0xA56 JUMPI PUSH2 0xA55 PUSH2 0x7E6 JUMP JUMPDEST JUMPDEST PUSH2 0xA62 DUP9 DUP3 DUP10 ADD PUSH2 0x96F JUMP JUMPDEST SWAP6 POP POP PUSH1 0x20 DUP7 ADD CALLDATALOAD PUSH8 0xFFFFFFFFFFFFFFFF DUP2 GT ISZERO PUSH2 0xA83 JUMPI PUSH2 0xA82 PUSH2 0x7E6 JUMP JUMPDEST JUMPDEST PUSH2 0xA8F DUP9 DUP3 DUP10 ADD PUSH2 0x96F JUMP JUMPDEST SWAP5 POP POP PUSH1 0x40 DUP7 ADD CALLDATALOAD PUSH8 0xFFFFFFFFFFFFFFFF DUP2 GT ISZERO PUSH2 0xAB0 JUMPI PUSH2 0xAAF PUSH2 0x7E6 JUMP JUMPDEST JUMPDEST PUSH2 0xABC DUP9 DUP3 DUP10 ADD PUSH2 0x96F JUMP JUMPDEST SWAP4 POP POP PUSH1 0x60 PUSH2 0xACD DUP9 DUP3 DUP10 ADD PUSH2 0x9E2 JUMP JUMPDEST SWAP3 POP POP PUSH1 0x80 PUSH2 0xADE DUP9 DUP3 DUP10 ADD PUSH2 0xA0C JUMP JUMPDEST SWAP2 POP POP SWAP3 SWAP6 POP SWAP3 SWAP6 SWAP1 SWAP4 POP JUMP JUMPDEST PUSH2 0xAF4 DUP2 PUSH2 0x9BB JUMP JUMPDEST DUP3 MSTORE POP POP JUMP JUMPDEST PUSH0 PUSH1 0xA0 DUP3 ADD SWAP1 POP DUP2 DUP2 SUB PUSH0 DUP4 ADD MSTORE PUSH2 0xB12 DUP2 DUP9 PUSH2 0x72D JUMP JUMPDEST SWAP1 POP DUP2 DUP2 SUB PUSH1 0x20 DUP4 ADD MSTORE PUSH2 0xB26 DUP2 DUP8 PUSH2 0x72D JUMP JUMPDEST SWAP1 POP DUP2 DUP2 SUB PUSH1 0x40 DUP4 ADD MSTORE PUSH2 0xB3A DUP2 DUP7 PUSH2 0x72D JUMP JUMPDEST SWAP1 POP PUSH2 0xB49 PUSH1 0x60 DUP4 ADD DUP6 PUSH2 0x772 JUMP JUMPDEST PUSH2 0xB56 PUSH1 0x80 DUP4 ADD DUP5 PUSH2 0xAEB JUMP JUMPDEST SWAP7 SWAP6 POP POP POP POP POP POP JUMP JUMPDEST PUSH32 0x4E487B7100000000000000000000000000000000000000000000000000000000 PUSH0 MSTORE PUSH1 0x22 PUSH1 0x4 MSTORE PUSH1 0x24 PUSH0 REVERT JUMPDEST PUSH0 PUSH1 0x2 DUP3 DIV SWAP1 POP PUSH1 0x1 DUP3 AND DUP1 PUSH2 0xBA4 JUMPI PUSH1 0x7F DUP3 AND SWAP2 POP JUMPDEST PUSH1 0x20 DUP3 LT DUP2 SUB PUSH2 0xBB7 JUMPI PUSH2 0xBB6 PUSH2 0xB60 JUMP JUMPDEST JUMPDEST POP SWAP2 SWAP1 POP JUMP JUMPDEST PUSH32 0x496E73756666696369656E74207061796D656E7420616D6F756E740000000000 PUSH0 DUP3 ADD MSTORE POP JUMP JUMPDEST PUSH0 PUSH2 0xBF1 PUSH1 0x1B DUP4 PUSH2 0x6FF JUMP JUMPDEST SWAP2 POP PUSH2 0xBFC DUP3 PUSH2 0xBBD JUMP JUMPDEST PUSH1 0x20 DUP3 ADD SWAP1 POP SWAP2 SWAP1 POP JUMP JUMPDEST PUSH0 PUSH1 0x20 DUP3 ADD SWAP1 POP DUP2 DUP2 SUB PUSH0 DUP4 ADD MSTORE PUSH2 0xC1E DUP2 PUSH2 0xBE5 JUMP JUMPDEST SWAP1 POP SWAP2 SWAP1 POP JUMP JUMPDEST PUSH32 0x456D706C6F7965652077616C6C6574206E6F7420736574000000000000000000 PUSH0 DUP3 ADD MSTORE POP JUMP JUMPDEST PUSH0 PUSH2 0xC59 PUSH1 0x17 DUP4 PUSH2 0x6FF JUMP JUMPDEST SWAP2 POP PUSH2 0xC64 DUP3 PUSH2 0xC25 JUMP JUMPDEST PUSH1 0x20 DUP3 ADD SWAP1 POP SWAP2 SWAP1 POP JUMP JUMPDEST PUSH0 PUSH1 0x20 DUP3 ADD SWAP1 POP DUP2 DUP2 SUB PUSH0 DUP4 ADD MSTORE PUSH2 0xC86 DUP2 PUSH2 0xC4D JUMP JUMPDEST SWAP1 POP SWAP2 SWAP1 POP JUMP JUMPDEST PUSH32 0x4E487B7100000000000000000000000000000000000000000000000000000000 PUSH0 MSTORE PUSH1 0x11 PUSH1 0x4 MSTORE PUSH1 0x24 PUSH0 REVERT JUMPDEST PUSH0 PUSH2 0xCC4 DUP3 PUSH2 0x7EA JUMP JUMPDEST SWAP2 POP PUSH2 0xCCF DUP4 PUSH2 0x7EA JUMP JUMPDEST SWAP3 POP DUP3 DUP3 MUL PUSH2 0xCDD DUP2 PUSH2 0x7EA JUMP JUMPDEST SWAP2 POP DUP3 DUP3 DIV DUP5 EQ DUP4 ISZERO OR PUSH2 0xCF4 JUMPI PUSH2 0xCF3 PUSH2 0xC8D JUMP JUMPDEST JUMPDEST POP SWAP3 SWAP2 POP POP JUMP JUMPDEST PUSH0 DUP2 SWAP1 POP DUP2 PUSH0 MSTORE PUSH1 0x20 PUSH0 KECCAK256 SWAP1 POP SWAP2 SWAP1 POP JUMP JUMPDEST PUSH0 PUSH1 0x20 PUSH1 0x1F DUP4 ADD DIV SWAP1 POP SWAP2 SWAP1 POP JUMP JUMPDEST PUSH0 DUP3 DUP3 SHL SWAP1 POP SWAP3 SWAP2 POP POP JUMP JUMPDEST PUSH0 PUSH1 0x8 DUP4 MUL PUSH2 0xD57 PUSH32 0xFFFFFFFFFFFFFFFFFFFFFFFFFFFFFFFFFFFFFFFFFFFFFFFFFFFFFFFFFFFFFFFF DUP3 PUSH2 0xD1C JUMP JUMPDEST PUSH2 0xD61 DUP7 DUP4 PUSH2 0xD1C JUMP JUMPDEST SWAP6 POP DUP1 NOT DUP5 AND SWAP4 POP DUP1 DUP7 AND DUP5 OR SWAP3 POP POP POP SWAP4 SWAP3 POP POP POP JUMP JUMPDEST PUSH0 DUP2 SWAP1 POP SWAP2 SWAP1 POP JUMP JUMPDEST PUSH0 PUSH2 0xD9C PUSH2 0xD97 PUSH2 0xD92 DUP5 PUSH2 0x7EA JUMP JUMPDEST PUSH2 0xD79 JUMP JUMPDEST PUSH2 0x7EA JUMP JUMPDEST SWAP1 POP SWAP2 SWAP1 POP JUMP JUMPDEST PUSH0 DUP2 SWAP1 POP SWAP2 SWAP1 POP JUMP JUMPDEST PUSH2 0xDB5 DUP4 PUSH2 0xD82 JUMP JUMPDEST PUSH2 0xDC9 PUSH2 0xDC1 DUP3 PUSH2 0xDA3 JUMP JUMPDEST DUP5 DUP5 SLOAD PUSH2 0xD28 JUMP JUMPDEST DUP3 SSTORE POP POP POP POP JUMP JUMPDEST PUSH0 SWAP1 JUMP JUMPDEST PUSH2 0xDDD PUSH2 0xDD1 JUMP JUMPDEST PUSH2 0xDE8 DUP2 DUP5 DUP5 PUSH2 0xDAC JUMP JUMPDEST POP POP POP JUMP JUMPDEST JUMPDEST DUP2 DUP2 LT ISZERO PUSH2 0xE0B JUMPI PUSH2 0xE00 PUSH0 DUP3 PUSH2 0xDD5 JUMP JUMPDEST PUSH1 0x1 DUP2 ADD SWAP1 POP PUSH2 0xDEE JUMP JUMPDEST POP POP JUMP JUMPDEST PUSH1 0x1F DUP3 GT ISZERO PUSH2 0xE50 JUMPI PUSH2 0xE21 DUP2 PUSH2 0xCFB JUMP JUMPDEST PUSH2 0xE2A DUP5 PUSH2 0xD0D JUMP JUMPDEST DUP2 ADD PUSH1 0x20 DUP6 LT ISZERO PUSH2 0xE39 JUMPI DUP2 SWAP1 POP JUMPDEST PUSH2 0xE4D PUSH2 0xE45 DUP6 PUSH2 0xD0D JUMP JUMPDEST DUP4 ADD DUP3 PUSH2 0xDED JUMP JUMPDEST POP POP JUMPDEST POP POP POP JUMP JUMPDEST PUSH0 DUP3 DUP3 SHR SWAP1 POP SWAP3 SWAP2 POP POP JUMP JUMPDEST PUSH0 PUSH2 0xE70 PUSH0 NOT DUP5 PUSH1 0x8 MUL PUSH2 0xE55 JUMP JUMPDEST NOT DUP1 DUP4 AND SWAP2 POP POP SWAP3 SWAP2 POP POP JUMP JUMPDEST PUSH0 PUSH2 0xE88 DUP4 DUP4 PUSH2 0xE61 JUMP JUMPDEST SWAP2 POP DUP3 PUSH1 0x2 MUL DUP3 OR SWAP1 POP SWAP3 SWAP2 POP POP JUMP JUMPDEST PUSH2 0xEA1 DUP3 PUSH2 0x6F5 JUMP JUMPDEST PUSH8 0xFFFFFFFFFFFFFFFF DUP2 GT ISZERO PUSH2 0xEBA JUMPI PUSH2 0xEB9 PUSH2 0x878 JUMP JUMPDEST JUMPDEST PUSH2 0xEC4 DUP3 SLOAD PUSH2 0xB8D JUMP JUMPDEST PUSH2 0xECF DUP3 DUP3 DUP6 PUSH2 0xE0F JUMP JUMPDEST PUSH0 PUSH1 0x20 SWAP1 POP PUSH1 0x1F DUP4 GT PUSH1 0x1 DUP2 EQ PUSH2 0xF00 JUMPI PUSH0 DUP5 ISZERO PUSH2 0xEEE JUMPI DUP3 DUP8 ADD MLOAD SWAP1 POP JUMPDEST PUSH2 0xEF8 DUP6 DUP3 PUSH2 0xE7D JUMP JUMPDEST DUP7 SSTORE POP PUSH2 0xF5F JUMP JUMPDEST PUSH1 0x1F NOT DUP5 AND PUSH2 0xF0E DUP7 PUSH2 0xCFB JUMP JUMPDEST PUSH0 JUMPDEST DUP3 DUP2 LT ISZERO PUSH2 0xF35 JUMPI DUP5 DUP10 ADD MLOAD DUP3 SSTORE PUSH1 0x1 DUP3 ADD SWAP2 POP PUSH1 0x20 DUP6 ADD SWAP5 POP PUSH1 0x20 DUP2 ADD SWAP1 POP PUSH2 0xF10 JUMP JUMPDEST DUP7 DUP4 LT ISZERO PUSH2 0xF52 JUMPI DUP5 DUP10 ADD MLOAD PUSH2 0xF4E PUSH1 0x1F DUP10 AND DUP3 PUSH2 0xE61 JUMP JUMPDEST DUP4 SSTORE POP JUMPDEST PUSH1 0x1 PUSH1 0x2 DUP9 MUL ADD DUP9 SSTORE POP POP POP JUMPDEST POP POP POP POP POP POP JUMP INVALID LOG2 PUSH5 0x6970667358 0x22 SLT KECCAK256 TLOAD 0xB4 PUSH24 0xE8C2200A20D492A9218FE3BC4C024242894EF58B269CBADD 0xD4 SMOD SWAP5 0xAF 0xCA PUSH5 0x736F6C6343 STOP ADDMOD BYTE STOP CALLER "
		},
		"gasEstimates": {
			"creation": {
				"codeDepositCost": "799400",
				"executionCost": "829",
				"totalCost": "800229"
			},
			"external": {
				"employee()": "infinite",
				"ethToWei(uint256)": "infinite",
				"getEmployee()": "infinite",
				"payemp()": "infinite",
				"setEmployee(string,string,string,address,uint16)": "infinite"
			}
		},
		"methodIdentifiers": {
			"employee()": "a0a1a7d7",
			"ethToWei(uint256)": "88439bbc",
			"getEmployee()": "4132db8f",
			"payemp()": "6e10a8bb",
			"setEmployee(string,string,string,address,uint16)": "909c0db1"
		}
	},
	"abi": [
		{
			"inputs": [],
			"name": "employee",
			"outputs": [
				{
					"internalType": "string",
					"name": "name",
					"type": "string"
				},
				{
					"internalType": "string",
					"name": "department",
					"type": "string"
				},
				{
					"internalType": "string",
					"name": "designation",
					"type": "string"
				},
				{
					"internalType": "uint16",
					"name": "salary",
					"type": "uint16"
				},
				{
					"internalType": "address payable",
					"name": "paymentad",
					"type": "address"
				}
			],
			"stateMutability": "view",
			"type": "function"
		},
		{
			"inputs": [
				{
					"internalType": "uint256",
					"name": "eval",
					"type": "uint256"
				}
			],
			"name": "ethToWei",
			"outputs": [
				{
					"internalType": "uint256",
					"name": "",
					"type": "uint256"
				}
			],
			"stateMutability": "pure",
			"type": "function"
		},
		{
			"inputs": [],
			"name": "getEmployee",
			"outputs": [
				{
					"internalType": "string",
					"name": "",
					"type": "string"
				},
				{
					"internalType": "string",
					"name": "",
					"type": "string"
				},
				{
					"internalType": "string",
					"name": "",
					"type": "string"
				},
				{
					"internalType": "uint16",
					"name": "",
					"type": "uint16"
				}
			],
			"stateMutability": "view",
			"type": "function"
		},
		{
			"inputs": [],
			"name": "payemp",
			"outputs": [],
			"stateMutability": "payable",
			"type": "function"
		},
		{
			"inputs": [
				{
					"internalType": "string",
					"name": "_name",
					"type": "string"
				},
				{
					"internalType": "string",
					"name": "_department",
					"type": "string"
				},
				{
					"internalType": "string",
					"name": "_designation",
					"type": "string"
				},
				{
					"internalType": "address payable",
					"name": "_paymentad",
					"type": "address"
				},
				{
					"internalType": "uint16",
					"name": "_salary",
					"type": "uint16"
				}
			],
			"name": "setEmployee",
			"outputs": [],
			"stateMutability": "nonpayable",
			"type": "function"
		}
	]
}