{
	"data": {
		"bytecode": {
			"linkReferences": {},
			"object": "6080604052348015600e575f80fd5b50335f806101000a81548173ffffffffffffffffffffffffffffffffffffffff021916908373ffffffffffffffffffffffffffffffffffffffff1602179055506110cb8061005b5f395ff3fe608060405234801561000f575f80fd5b5060043610610055575f3560e01c8063321e58da146100595780633b92a83414610075578063ce39721f14610091578063e71a5f8e146100ad578063fe6674bf146100e1575b5f80fd5b610073600480360381019061006e919061096e565b6100ff565b005b61008f600480360381019061008a9190610a01565b61032d565b005b6100ab60048036038101906100a69190610a5b565b6103ca565b005b6100c760048036038101906100c29190610abf565b61054a565b6040516100d8959493929190610bdb565b60405180910390f35b6100e961076e565b6040516100f69190610c72565b60405180910390f35b5f8054906101000a900473ffffffffffffffffffffffffffffffffffffffff1673ffffffffffffffffffffffffffffffffffffffff163373ffffffffffffffffffffffffffffffffffffffff161461018c576040517f08c379a000000000000000000000000000000000000000000000000000000000815260040161018390610cd5565b60405180910390fd5b60015f8461ffff1661ffff1681526020019081526020015f2060010160059054906101000a900460ff16156101f6576040517f08c379a00000000000000000000000000000000000000000000000000000000081526004016101ed90610d3d565b60405180910390fd5b6040518060c001604052808681526020018560ff1681526020018461ffff1681526020018360ff16815260200182600281111561023657610235610b59565b5b81526020016001151581525060015f8561ffff1661ffff1681526020019081526020015f205f820151815f01908161026e9190610f5e565b506020820151816001015f6101000a81548160ff021916908360ff16021790555060408201518160010160016101000a81548161ffff021916908361ffff16021790555060608201518160010160036101000a81548160ff021916908360ff16021790555060808201518160010160046101000a81548160ff021916908360028111156102fe576102fd610b59565b5b021790555060a08201518160010160056101000a81548160ff0219169083151502179055509050505050505050565b8060015f8261ffff1661ffff1681526020019081526020015f2060010160059054906101000a900460ff16610397576040517f08c379a000000000000000000000000000000000000000000000000000000000815260040161038e90611077565b60405180910390fd5b5f60015f8461ffff1661ffff1681526020019081526020015f20905083815f0190816103c39190610f5e565b5050505050565b5f8054906101000a900473ffffffffffffffffffffffffffffffffffffffff1673ffffffffffffffffffffffffffffffffffffffff163373ffffffffffffffffffffffffffffffffffffffff1614610457576040517f08c379a000000000000000000000000000000000000000000000000000000000815260040161044e90610cd5565b60405180910390fd5b8060015f8261ffff1661ffff1681526020019081526020015f2060010160059054906101000a900460ff166104c1576040517f08c379a00000000000000000000000000000000000000000000000000000000081526004016104b890611077565b60405180910390fd5b5f60015f8461ffff1661ffff1681526020019081526020015f209050858160010160036101000a81548160ff021916908360ff160217905550848160010160046101000a81548160ff0219169083600281111561052157610520610b59565b5b021790555083816001015f6101000a81548160ff021916908360ff160217905550505050505050565b60605f805f805f8054906101000a900473ffffffffffffffffffffffffffffffffffffffff1673ffffffffffffffffffffffffffffffffffffffff163373ffffffffffffffffffffffffffffffffffffffff16146105dd576040517f08c379a00000000000000000000000000000000000000000000000000000000081526004016105d490610cd5565b60405180910390fd5b5f60015f8861ffff1661ffff1681526020019081526020015f206040518060c00160405290815f8201805461061190610d88565b80601f016020809104026020016040519081016040528092919081815260200182805461063d90610d88565b80156106885780601f1061065f57610100808354040283529160200191610688565b820191905f5260205f20905b81548152906001019060200180831161066b57829003601f168201915b50505050508152602001600182015f9054906101000a900460ff1660ff1660ff1681526020016001820160019054906101000a900461ffff1661ffff1661ffff1681526020016001820160039054906101000a900460ff1660ff1660ff1681526020016001820160049054906101000a900460ff16600281111561070f5761070e610b59565b5b600281111561072157610720610b59565b5b81526020016001820160059054906101000a900460ff1615151515815250509050805f01518160600151826080015183602001518460400151955095509550955095505091939590929450565b5f8054906101000a900473ffffffffffffffffffffffffffffffffffffffff1681565b5f604051905090565b5f80fd5b5f80fd5b5f80fd5b5f80fd5b5f601f19601f8301169050919050565b7f4e487b71000000000000000000000000000000000000000000000000000000005f52604160045260245ffd5b6107f0826107aa565b810181811067ffffffffffffffff8211171561080f5761080e6107ba565b5b80604052505050565b5f610821610791565b905061082d82826107e7565b919050565b5f67ffffffffffffffff82111561084c5761084b6107ba565b5b610855826107aa565b9050602081019050919050565b828183375f83830152505050565b5f61088261087d84610832565b610818565b90508281526020810184848401111561089e5761089d6107a6565b5b6108a9848285610862565b509392505050565b5f82601f8301126108c5576108c46107a2565b5b81356108d5848260208601610870565b91505092915050565b5f60ff82169050919050565b6108f3816108de565b81146108fd575f80fd5b50565b5f8135905061090e816108ea565b92915050565b5f61ffff82169050919050565b61092a81610914565b8114610934575f80fd5b50565b5f8135905061094581610921565b92915050565b60038110610957575f80fd5b50565b5f813590506109688161094b565b92915050565b5f805f805f60a086880312156109875761098661079a565b5b5f86013567ffffffffffffffff8111156109a4576109a361079e565b5b6109b0888289016108b1565b95505060206109c188828901610900565b94505060406109d288828901610937565b93505060606109e388828901610900565b92505060806109f48882890161095a565b9150509295509295909350565b5f8060408385031215610a1757610a1661079a565b5b5f83013567ffffffffffffffff811115610a3457610a3361079e565b5b610a40858286016108b1565b9250506020610a5185828601610937565b9150509250929050565b5f805f8060808587031215610a7357610a7261079a565b5b5f610a8087828801610900565b9450506020610a918782880161095a565b9350506040610aa287828801610900565b9250506060610ab387828801610937565b91505092959194509250565b5f60208284031215610ad457610ad361079a565b5b5f610ae184828501610937565b91505092915050565b5f81519050919050565b5f82825260208201905092915050565b8281835e5f83830152505050565b5f610b1c82610aea565b610b268185610af4565b9350610b36818560208601610b04565b610b3f816107aa565b840191505092915050565b610b53816108de565b82525050565b7f4e487b71000000000000000000000000000000000000000000000000000000005f52602160045260245ffd5b60038110610b9757610b96610b59565b5b50565b5f819050610ba782610b86565b919050565b5f610bb682610b9a565b9050919050565b610bc681610bac565b82525050565b610bd581610914565b82525050565b5f60a0820190508181035f830152610bf38188610b12565b9050610c026020830187610b4a565b610c0f6040830186610bbd565b610c1c6060830185610b4a565b610c296080830184610bcc565b9695505050505050565b5f73ffffffffffffffffffffffffffffffffffffffff82169050919050565b5f610c5c82610c33565b9050919050565b610c6c81610c52565b82525050565b5f602082019050610c855f830184610c63565b92915050565b7f556e617574686f72697a656400000000000000000000000000000000000000005f82015250565b5f610cbf600c83610af4565b9150610cca82610c8b565b602082019050919050565b5f6020820190508181035f830152610cec81610cb3565b9050919050565b7f726f6c6c6e6f20697320616c72656164792065786973747300000000000000005f82015250565b5f610d27601883610af4565b9150610d3282610cf3565b602082019050919050565b5f6020820190508181035f830152610d5481610d1b565b9050919050565b7f4e487b71000000000000000000000000000000000000000000000000000000005f52602260045260245ffd5b5f6002820490506001821680610d9f57607f821691505b602082108103610db257610db1610d5b565b5b50919050565b5f819050815f5260205f209050919050565b5f6020601f8301049050919050565b5f82821b905092915050565b5f60088302610e147fffffffffffffffffffffffffffffffffffffffffffffffffffffffffffffffff82610dd9565b610e1e8683610dd9565b95508019841693508086168417925050509392505050565b5f819050919050565b5f819050919050565b5f610e62610e5d610e5884610e36565b610e3f565b610e36565b9050919050565b5f819050919050565b610e7b83610e48565b610e8f610e8782610e69565b848454610de5565b825550505050565b5f90565b610ea3610e97565b610eae818484610e72565b505050565b5b81811015610ed157610ec65f82610e9b565b600181019050610eb4565b5050565b601f821115610f1657610ee781610db8565b610ef084610dca565b81016020851015610eff578190505b610f13610f0b85610dca565b830182610eb3565b50505b505050565b5f82821c905092915050565b5f610f365f1984600802610f1b565b1980831691505092915050565b5f610f4e8383610f27565b9150826002028217905092915050565b610f6782610aea565b67ffffffffffffffff811115610f8057610f7f6107ba565b5b610f8a8254610d88565b610f95828285610ed5565b5f60209050601f831160018114610fc6575f8415610fb4578287015190505b610fbe8582610f43565b865550611025565b601f198416610fd486610db8565b5f5b82811015610ffb57848901518255600182019150602085019450602081019050610fd6565b868310156110185784890151611014601f891682610f27565b8355505b6001600288020188555050505b505050505050565b7f726f6c6c6e6f20646f6573206e6f7420657869737400000000000000000000005f82015250565b5f611061601583610af4565b915061106c8261102d565b602082019050919050565b5f6020820190508181035f83015261108e81611055565b905091905056fea2646970667358221220d83b9d54dd206d9c649c68c267ebfd88790b1f0b750888db8a0468fb450e83a164736f6c634300081a0033",
			"opcodes": "PUSH1 0x80 PUSH1 0x40 MSTORE CALLVALUE DUP1 ISZERO PUSH1 0xE JUMPI PUSH0 DUP1 REVERT JUMPDEST POP CALLER PUSH0 DUP1 PUSH2 0x100 EXP DUP2 SLOAD DUP2 PUSH20 0xFFFFFFFFFFFFFFFFFFFFFFFFFFFFFFFFFFFFFFFF MUL NOT AND SWAP1 DUP4 PUSH20 0xFFFFFFFFFFFFFFFFFFFFFFFFFFFFFFFFFFFFFFFF AND MUL OR SWAP1 SSTORE POP PUSH2 0x10CB DUP1 PUSH2 0x5B PUSH0 CODECOPY PUSH0 RETURN INVALID PUSH1 0x80 PUSH1 0x40 MSTORE CALLVALUE DUP1 ISZERO PUSH2 0xF JUMPI PUSH0 DUP1 REVERT JUMPDEST POP PUSH1 0x4 CALLDATASIZE LT PUSH2 0x55 JUMPI PUSH0 CALLDATALOAD PUSH1 0xE0 SHR DUP1 PUSH4 0x321E58DA EQ PUSH2 0x59 JUMPI DUP1 PUSH4 0x3B92A834 EQ PUSH2 0x75 JUMPI DUP1 PUSH4 0xCE39721F EQ PUSH2 0x91 JUMPI DUP1 PUSH4 0xE71A5F8E EQ PUSH2 0xAD JUMPI DUP1 PUSH4 0xFE6674BF EQ PUSH2 0xE1 JUMPI JUMPDEST PUSH0 DUP1 REVERT JUMPDEST PUSH2 0x73 PUSH1 0x4 DUP1 CALLDATASIZE SUB DUP2 ADD SWAP1 PUSH2 0x6E SWAP2 SWAP1 PUSH2 0x96E JUMP JUMPDEST PUSH2 0xFF JUMP JUMPDEST STOP JUMPDEST PUSH2 0x8F PUSH1 0x4 DUP1 CALLDATASIZE SUB DUP2 ADD SWAP1 PUSH2 0x8A SWAP2 SWAP1 PUSH2 0xA01 JUMP JUMPDEST PUSH2 0x32D JUMP JUMPDEST STOP JUMPDEST PUSH2 0xAB PUSH1 0x4 DUP1 CALLDATASIZE SUB DUP2 ADD SWAP1 PUSH2 0xA6 SWAP2 SWAP1 PUSH2 0xA5B JUMP JUMPDEST PUSH2 0x3CA JUMP JUMPDEST STOP JUMPDEST PUSH2 0xC7 PUSH1 0x4 DUP1 CALLDATASIZE SUB DUP2 ADD SWAP1 PUSH2 0xC2 SWAP2 SWAP1 PUSH2 0xABF JUMP JUMPDEST PUSH2 0x54A JUMP JUMPDEST PUSH1 0x40 MLOAD PUSH2 0xD8 SWAP6 SWAP5 SWAP4 SWAP3 SWAP2 SWAP1 PUSH2 0xBDB JUMP JUMPDEST PUSH1 0x40 MLOAD DUP1 SWAP2 SUB SWAP1 RETURN JUMPDEST PUSH2 0xE9 PUSH2 0x76E JUMP JUMPDEST PUSH1 0x40 MLOAD PUSH2 0xF6 SWAP2 SWAP1 PUSH2 0xC72 JUMP JUMPDEST PUSH1 0x40 MLOAD DUP1 SWAP2 SUB SWAP1 RETURN JUMPDEST PUSH0 DUP1 SLOAD SWAP1 PUSH2 0x100 EXP SWAP1 DIV PUSH20 0xFFFFFFFFFFFFFFFFFFFFFFFFFFFFFFFFFFFFFFFF AND PUSH20 0xFFFFFFFFFFFFFFFFFFFFFFFFFFFFFFFFFFFFFFFF AND CALLER PUSH20 0xFFFFFFFFFFFFFFFFFFFFFFFFFFFFFFFFFFFFFFFF AND EQ PUSH2 0x18C JUMPI PUSH1 0x40 MLOAD PUSH32 0x8C379A000000000000000000000000000000000000000000000000000000000 DUP2 MSTORE PUSH1 0x4 ADD PUSH2 0x183 SWAP1 PUSH2 0xCD5 JUMP JUMPDEST PUSH1 0x40 MLOAD DUP1 SWAP2 SUB SWAP1 REVERT JUMPDEST PUSH1 0x1 PUSH0 DUP5 PUSH2 0xFFFF AND PUSH2 0xFFFF AND DUP2 MSTORE PUSH1 0x20 ADD SWAP1 DUP2 MSTORE PUSH1 0x20 ADD PUSH0 KECCAK256 PUSH1 0x1 ADD PUSH1 0x5 SWAP1 SLOAD SWAP1 PUSH2 0x100 EXP SWAP1 DIV PUSH1 0xFF AND ISZERO PUSH2 0x1F6 JUMPI PUSH1 0x40 MLOAD PUSH32 0x8C379A000000000000000000000000000000000000000000000000000000000 DUP2 MSTORE PUSH1 0x4 ADD PUSH2 0x1ED SWAP1 PUSH2 0xD3D JUMP JUMPDEST PUSH1 0x40 MLOAD DUP1 SWAP2 SUB SWAP1 REVERT JUMPDEST PUSH1 0x40 MLOAD DUP1 PUSH1 0xC0 ADD PUSH1 0x40 MSTORE DUP1 DUP7 DUP2 MSTORE PUSH1 0x20 ADD DUP6 PUSH1 0xFF AND DUP2 MSTORE PUSH1 0x20 ADD DUP5 PUSH2 0xFFFF AND DUP2 MSTORE PUSH1 0x20 ADD DUP4 PUSH1 0xFF AND DUP2 MSTORE PUSH1 0x20 ADD DUP3 PUSH1 0x2 DUP2 GT ISZERO PUSH2 0x236 JUMPI PUSH2 0x235 PUSH2 0xB59 JUMP JUMPDEST JUMPDEST DUP2 MSTORE PUSH1 0x20 ADD PUSH1 0x1 ISZERO ISZERO DUP2 MSTORE POP PUSH1 0x1 PUSH0 DUP6 PUSH2 0xFFFF AND PUSH2 0xFFFF AND DUP2 MSTORE PUSH1 0x20 ADD SWAP1 DUP2 MSTORE PUSH1 0x20 ADD PUSH0 KECCAK256 PUSH0 DUP3 ADD MLOAD DUP2 PUSH0 ADD SWAP1 DUP2 PUSH2 0x26E SWAP2 SWAP1 PUSH2 0xF5E JUMP JUMPDEST POP PUSH1 0x20 DUP3 ADD MLOAD DUP2 PUSH1 0x1 ADD PUSH0 PUSH2 0x100 EXP DUP2 SLOAD DUP2 PUSH1 0xFF MUL NOT AND SWAP1 DUP4 PUSH1 0xFF AND MUL OR SWAP1 SSTORE POP PUSH1 0x40 DUP3 ADD MLOAD DUP2 PUSH1 0x1 ADD PUSH1 0x1 PUSH2 0x100 EXP DUP2 SLOAD DUP2 PUSH2 0xFFFF MUL NOT AND SWAP1 DUP4 PUSH2 0xFFFF AND MUL OR SWAP1 SSTORE POP PUSH1 0x60 DUP3 ADD MLOAD DUP2 PUSH1 0x1 ADD PUSH1 0x3 PUSH2 0x100 EXP DUP2 SLOAD DUP2 PUSH1 0xFF MUL NOT AND SWAP1 DUP4 PUSH1 0xFF AND MUL OR SWAP1 SSTORE POP PUSH1 0x80 DUP3 ADD MLOAD DUP2 PUSH1 0x1 ADD PUSH1 0x4 PUSH2 0x100 EXP DUP2 SLOAD DUP2 PUSH1 0xFF MUL NOT AND SWAP1 DUP4 PUSH1 0x2 DUP2 GT ISZERO PUSH2 0x2FE JUMPI PUSH2 0x2FD PUSH2 0xB59 JUMP JUMPDEST JUMPDEST MUL OR SWAP1 SSTORE POP PUSH1 0xA0 DUP3 ADD MLOAD DUP2 PUSH1 0x1 ADD PUSH1 0x5 PUSH2 0x100 EXP DUP2 SLOAD DUP2 PUSH1 0xFF MUL NOT AND SWAP1 DUP4 ISZERO ISZERO MUL OR SWAP1 SSTORE POP SWAP1 POP POP POP POP POP POP POP JUMP JUMPDEST DUP1 PUSH1 0x1 PUSH0 DUP3 PUSH2 0xFFFF AND PUSH2 0xFFFF AND DUP2 MSTORE PUSH1 0x20 ADD SWAP1 DUP2 MSTORE PUSH1 0x20 ADD PUSH0 KECCAK256 PUSH1 0x1 ADD PUSH1 0x5 SWAP1 SLOAD SWAP1 PUSH2 0x100 EXP SWAP1 DIV PUSH1 0xFF AND PUSH2 0x397 JUMPI PUSH1 0x40 MLOAD PUSH32 0x8C379A000000000000000000000000000000000000000000000000000000000 DUP2 MSTORE PUSH1 0x4 ADD PUSH2 0x38E SWAP1 PUSH2 0x1077 JUMP JUMPDEST PUSH1 0x40 MLOAD DUP1 SWAP2 SUB SWAP1 REVERT JUMPDEST PUSH0 PUSH1 0x1 PUSH0 DUP5 PUSH2 0xFFFF AND PUSH2 0xFFFF AND DUP2 MSTORE PUSH1 0x20 ADD SWAP1 DUP2 MSTORE PUSH1 0x20 ADD PUSH0 KECCAK256 SWAP1 POP DUP4 DUP2 PUSH0 ADD SWAP1 DUP2 PUSH2 0x3C3 SWAP2 SWAP1 PUSH2 0xF5E JUMP JUMPDEST POP POP POP POP POP JUMP JUMPDEST PUSH0 DUP1 SLOAD SWAP1 PUSH2 0x100 EXP SWAP1 DIV PUSH20 0xFFFFFFFFFFFFFFFFFFFFFFFFFFFFFFFFFFFFFFFF AND PUSH20 0xFFFFFFFFFFFFFFFFFFFFFFFFFFFFFFFFFFFFFFFF AND CALLER PUSH20 0xFFFFFFFFFFFFFFFFFFFFFFFFFFFFFFFFFFFFFFFF AND EQ PUSH2 0x457 JUMPI PUSH1 0x40 MLOAD PUSH32 0x8C379A000000000000000000000000000000000000000000000000000000000 DUP2 MSTORE PUSH1 0x4 ADD PUSH2 0x44E SWAP1 PUSH2 0xCD5 JUMP JUMPDEST PUSH1 0x40 MLOAD DUP1 SWAP2 SUB SWAP1 REVERT JUMPDEST DUP1 PUSH1 0x1 PUSH0 DUP3 PUSH2 0xFFFF AND PUSH2 0xFFFF AND DUP2 MSTORE PUSH1 0x20 ADD SWAP1 DUP2 MSTORE PUSH1 0x20 ADD PUSH0 KECCAK256 PUSH1 0x1 ADD PUSH1 0x5 SWAP1 SLOAD SWAP1 PUSH2 0x100 EXP SWAP1 DIV PUSH1 0xFF AND PUSH2 0x4C1 JUMPI PUSH1 0x40 MLOAD PUSH32 0x8C379A000000000000000000000000000000000000000000000000000000000 DUP2 MSTORE PUSH1 0x4 ADD PUSH2 0x4B8 SWAP1 PUSH2 0x1077 JUMP JUMPDEST PUSH1 0x40 MLOAD DUP1 SWAP2 SUB SWAP1 REVERT JUMPDEST PUSH0 PUSH1 0x1 PUSH0 DUP5 PUSH2 0xFFFF AND PUSH2 0xFFFF AND DUP2 MSTORE PUSH1 0x20 ADD SWAP1 DUP2 MSTORE PUSH1 0x20 ADD PUSH0 KECCAK256 SWAP1 POP DUP6 DUP2 PUSH1 0x1 ADD PUSH1 0x3 PUSH2 0x100 EXP DUP2 SLOAD DUP2 PUSH1 0xFF MUL NOT AND SWAP1 DUP4 PUSH1 0xFF AND MUL OR SWAP1 SSTORE POP DUP5 DUP2 PUSH1 0x1 ADD PUSH1 0x4 PUSH2 0x100 EXP DUP2 SLOAD DUP2 PUSH1 0xFF MUL NOT AND SWAP1 DUP4 PUSH1 0x2 DUP2 GT ISZERO PUSH2 0x521 JUMPI PUSH2 0x520 PUSH2 0xB59 JUMP JUMPDEST JUMPDEST MUL OR SWAP1 SSTORE POP DUP4 DUP2 PUSH1 0x1 ADD PUSH0 PUSH2 0x100 EXP DUP2 SLOAD DUP2 PUSH1 0xFF MUL NOT AND SWAP1 DUP4 PUSH1 0xFF AND MUL OR SWAP1 SSTORE POP POP POP POP POP POP POP JUMP JUMPDEST PUSH1 0x60 PUSH0 DUP1 PUSH0 DUP1 PUSH0 DUP1 SLOAD SWAP1 PUSH2 0x100 EXP SWAP1 DIV PUSH20 0xFFFFFFFFFFFFFFFFFFFFFFFFFFFFFFFFFFFFFFFF AND PUSH20 0xFFFFFFFFFFFFFFFFFFFFFFFFFFFFFFFFFFFFFFFF AND CALLER PUSH20 0xFFFFFFFFFFFFFFFFFFFFFFFFFFFFFFFFFFFFFFFF AND EQ PUSH2 0x5DD JUMPI PUSH1 0x40 MLOAD PUSH32 0x8C379A000000000000000000000000000000000000000000000000000000000 DUP2 MSTORE PUSH1 0x4 ADD PUSH2 0x5D4 SWAP1 PUSH2 0xCD5 JUMP JUMPDEST PUSH1 0x40 MLOAD DUP1 SWAP2 SUB SWAP1 REVERT JUMPDEST PUSH0 PUSH1 0x1 PUSH0 DUP9 PUSH2 0xFFFF AND PUSH2 0xFFFF AND DUP2 MSTORE PUSH1 0x20 ADD SWAP1 DUP2 MSTORE PUSH1 0x20 ADD PUSH0 KECCAK256 PUSH1 0x40 MLOAD DUP1 PUSH1 0xC0 ADD PUSH1 0x40 MSTORE SWAP1 DUP2 PUSH0 DUP3 ADD DUP1 SLOAD PUSH2 0x611 SWAP1 PUSH2 0xD88 JUMP JUMPDEST DUP1 PUSH1 0x1F ADD PUSH1 0x20 DUP1 SWAP2 DIV MUL PUSH1 0x20 ADD PUSH1 0x40 MLOAD SWAP1 DUP2 ADD PUSH1 0x40 MSTORE DUP1 SWAP3 SWAP2 SWAP1 DUP2 DUP2 MSTORE PUSH1 0x20 ADD DUP3 DUP1 SLOAD PUSH2 0x63D SWAP1 PUSH2 0xD88 JUMP JUMPDEST DUP1 ISZERO PUSH2 0x688 JUMPI DUP1 PUSH1 0x1F LT PUSH2 0x65F JUMPI PUSH2 0x100 DUP1 DUP4 SLOAD DIV MUL DUP4 MSTORE SWAP2 PUSH1 0x20 ADD SWAP2 PUSH2 0x688 JUMP JUMPDEST DUP3 ADD SWAP2 SWAP1 PUSH0 MSTORE PUSH1 0x20 PUSH0 KECCAK256 SWAP1 JUMPDEST DUP2 SLOAD DUP2 MSTORE SWAP1 PUSH1 0x1 ADD SWAP1 PUSH1 0x20 ADD DUP1 DUP4 GT PUSH2 0x66B JUMPI DUP3 SWAP1 SUB PUSH1 0x1F AND DUP3 ADD SWAP2 JUMPDEST POP POP POP POP POP DUP2 MSTORE PUSH1 0x20 ADD PUSH1 0x1 DUP3 ADD PUSH0 SWAP1 SLOAD SWAP1 PUSH2 0x100 EXP SWAP1 DIV PUSH1 0xFF AND PUSH1 0xFF AND PUSH1 0xFF AND DUP2 MSTORE PUSH1 0x20 ADD PUSH1 0x1 DUP3 ADD PUSH1 0x1 SWAP1 SLOAD SWAP1 PUSH2 0x100 EXP SWAP1 DIV PUSH2 0xFFFF AND PUSH2 0xFFFF AND PUSH2 0xFFFF AND DUP2 MSTORE PUSH1 0x20 ADD PUSH1 0x1 DUP3 ADD PUSH1 0x3 SWAP1 SLOAD SWAP1 PUSH2 0x100 EXP SWAP1 DIV PUSH1 0xFF AND PUSH1 0xFF AND PUSH1 0xFF AND DUP2 MSTORE PUSH1 0x20 ADD PUSH1 0x1 DUP3 ADD PUSH1 0x4 SWAP1 SLOAD SWAP1 PUSH2 0x100 EXP SWAP1 DIV PUSH1 0xFF AND PUSH1 0x2 DUP2 GT ISZERO PUSH2 0x70F JUMPI PUSH2 0x70E PUSH2 0xB59 JUMP JUMPDEST JUMPDEST PUSH1 0x2 DUP2 GT ISZERO PUSH2 0x721 JUMPI PUSH2 0x720 PUSH2 0xB59 JUMP JUMPDEST JUMPDEST DUP2 MSTORE PUSH1 0x20 ADD PUSH1 0x1 DUP3 ADD PUSH1 0x5 SWAP1 SLOAD SWAP1 PUSH2 0x100 EXP SWAP1 DIV PUSH1 0xFF AND ISZERO ISZERO ISZERO ISZERO DUP2 MSTORE POP POP SWAP1 POP DUP1 PUSH0 ADD MLOAD DUP2 PUSH1 0x60 ADD MLOAD DUP3 PUSH1 0x80 ADD MLOAD DUP4 PUSH1 0x20 ADD MLOAD DUP5 PUSH1 0x40 ADD MLOAD SWAP6 POP SWAP6 POP SWAP6 POP SWAP6 POP SWAP6 POP POP SWAP2 SWAP4 SWAP6 SWAP1 SWAP3 SWAP5 POP JUMP JUMPDEST PUSH0 DUP1 SLOAD SWAP1 PUSH2 0x100 EXP SWAP1 DIV PUSH20 0xFFFFFFFFFFFFFFFFFFFFFFFFFFFFFFFFFFFFFFFF AND DUP2 JUMP JUMPDEST PUSH0 PUSH1 0x40 MLOAD SWAP1 POP SWAP1 JUMP JUMPDEST PUSH0 DUP1 REVERT JUMPDEST PUSH0 DUP1 REVERT JUMPDEST PUSH0 DUP1 REVERT JUMPDEST PUSH0 DUP1 REVERT JUMPDEST PUSH0 PUSH1 0x1F NOT PUSH1 0x1F DUP4 ADD AND SWAP1 POP SWAP2 SWAP1 POP JUMP JUMPDEST PUSH32 0x4E487B7100000000000000000000000000000000000000000000000000000000 PUSH0 MSTORE PUSH1 0x41 PUSH1 0x4 MSTORE PUSH1 0x24 PUSH0 REVERT JUMPDEST PUSH2 0x7F0 DUP3 PUSH2 0x7AA JUMP JUMPDEST DUP2 ADD DUP2 DUP2 LT PUSH8 0xFFFFFFFFFFFFFFFF DUP3 GT OR ISZERO PUSH2 0x80F JUMPI PUSH2 0x80E PUSH2 0x7BA JUMP JUMPDEST JUMPDEST DUP1 PUSH1 0x40 MSTORE POP POP POP JUMP JUMPDEST PUSH0 PUSH2 0x821 PUSH2 0x791 JUMP JUMPDEST SWAP1 POP PUSH2 0x82D DUP3 DUP3 PUSH2 0x7E7 JUMP JUMPDEST SWAP2 SWAP1 POP JUMP JUMPDEST PUSH0 PUSH8 0xFFFFFFFFFFFFFFFF DUP3 GT ISZERO PUSH2 0x84C JUMPI PUSH2 0x84B PUSH2 0x7BA JUMP JUMPDEST JUMPDEST PUSH2 0x855 DUP3 PUSH2 0x7AA JUMP JUMPDEST SWAP1 POP PUSH1 0x20 DUP2 ADD SWAP1 POP SWAP2 SWAP1 POP JUMP JUMPDEST DUP3 DUP2 DUP4 CALLDATACOPY PUSH0 DUP4 DUP4 ADD MSTORE POP POP POP JUMP JUMPDEST PUSH0 PUSH2 0x882 PUSH2 0x87D DUP5 PUSH2 0x832 JUMP JUMPDEST PUSH2 0x818 JUMP JUMPDEST SWAP1 POP DUP3 DUP2 MSTORE PUSH1 0x20 DUP2 ADD DUP5 DUP5 DUP5 ADD GT ISZERO PUSH2 0x89E JUMPI PUSH2 0x89D PUSH2 0x7A6 JUMP JUMPDEST JUMPDEST PUSH2 0x8A9 DUP5 DUP3 DUP6 PUSH2 0x862 JUMP JUMPDEST POP SWAP4 SWAP3 POP POP POP JUMP JUMPDEST PUSH0 DUP3 PUSH1 0x1F DUP4 ADD SLT PUSH2 0x8C5 JUMPI PUSH2 0x8C4 PUSH2 0x7A2 JUMP JUMPDEST JUMPDEST DUP2 CALLDATALOAD PUSH2 0x8D5 DUP5 DUP3 PUSH1 0x20 DUP7 ADD PUSH2 0x870 JUMP JUMPDEST SWAP2 POP POP SWAP3 SWAP2 POP POP JUMP JUMPDEST PUSH0 PUSH1 0xFF DUP3 AND SWAP1 POP SWAP2 SWAP1 POP JUMP JUMPDEST PUSH2 0x8F3 DUP2 PUSH2 0x8DE JUMP JUMPDEST DUP2 EQ PUSH2 0x8FD JUMPI PUSH0 DUP1 REVERT JUMPDEST POP JUMP JUMPDEST PUSH0 DUP2 CALLDATALOAD SWAP1 POP PUSH2 0x90E DUP2 PUSH2 0x8EA JUMP JUMPDEST SWAP3 SWAP2 POP POP JUMP JUMPDEST PUSH0 PUSH2 0xFFFF DUP3 AND SWAP1 POP SWAP2 SWAP1 POP JUMP JUMPDEST PUSH2 0x92A DUP2 PUSH2 0x914 JUMP JUMPDEST DUP2 EQ PUSH2 0x934 JUMPI PUSH0 DUP1 REVERT JUMPDEST POP JUMP JUMPDEST PUSH0 DUP2 CALLDATALOAD SWAP1 POP PUSH2 0x945 DUP2 PUSH2 0x921 JUMP JUMPDEST SWAP3 SWAP2 POP POP JUMP JUMPDEST PUSH1 0x3 DUP2 LT PUSH2 0x957 JUMPI PUSH0 DUP1 REVERT JUMPDEST POP JUMP JUMPDEST PUSH0 DUP2 CALLDATALOAD SWAP1 POP PUSH2 0x968 DUP2 PUSH2 0x94B JUMP JUMPDEST SWAP3 SWAP2 POP POP JUMP JUMPDEST PUSH0 DUP1 PUSH0 DUP1 PUSH0 PUSH1 0xA0 DUP7 DUP9 SUB SLT ISZERO PUSH2 0x987 JUMPI PUSH2 0x986 PUSH2 0x79A JUMP JUMPDEST JUMPDEST PUSH0 DUP7 ADD CALLDATALOAD PUSH8 0xFFFFFFFFFFFFFFFF DUP2 GT ISZERO PUSH2 0x9A4 JUMPI PUSH2 0x9A3 PUSH2 0x79E JUMP JUMPDEST JUMPDEST PUSH2 0x9B0 DUP9 DUP3 DUP10 ADD PUSH2 0x8B1 JUMP JUMPDEST SWAP6 POP POP PUSH1 0x20 PUSH2 0x9C1 DUP9 DUP3 DUP10 ADD PUSH2 0x900 JUMP JUMPDEST SWAP5 POP POP PUSH1 0x40 PUSH2 0x9D2 DUP9 DUP3 DUP10 ADD PUSH2 0x937 JUMP JUMPDEST SWAP4 POP POP PUSH1 0x60 PUSH2 0x9E3 DUP9 DUP3 DUP10 ADD PUSH2 0x900 JUMP JUMPDEST SWAP3 POP POP PUSH1 0x80 PUSH2 0x9F4 DUP9 DUP3 DUP10 ADD PUSH2 0x95A JUMP JUMPDEST SWAP2 POP POP SWAP3 SWAP6 POP SWAP3 SWAP6 SWAP1 SWAP4 POP JUMP JUMPDEST PUSH0 DUP1 PUSH1 0x40 DUP4 DUP6 SUB SLT ISZERO PUSH2 0xA17 JUMPI PUSH2 0xA16 PUSH2 0x79A JUMP JUMPDEST JUMPDEST PUSH0 DUP4 ADD CALLDATALOAD PUSH8 0xFFFFFFFFFFFFFFFF DUP2 GT ISZERO PUSH2 0xA34 JUMPI PUSH2 0xA33 PUSH2 0x79E JUMP JUMPDEST JUMPDEST PUSH2 0xA40 DUP6 DUP3 DUP7 ADD PUSH2 0x8B1 JUMP JUMPDEST SWAP3 POP POP PUSH1 0x20 PUSH2 0xA51 DUP6 DUP3 DUP7 ADD PUSH2 0x937 JUMP JUMPDEST SWAP2 POP POP SWAP3 POP SWAP3 SWAP1 POP JUMP JUMPDEST PUSH0 DUP1 PUSH0 DUP1 PUSH1 0x80 DUP6 DUP8 SUB SLT ISZERO PUSH2 0xA73 JUMPI PUSH2 0xA72 PUSH2 0x79A JUMP JUMPDEST JUMPDEST PUSH0 PUSH2 0xA80 DUP8 DUP3 DUP9 ADD PUSH2 0x900 JUMP JUMPDEST SWAP5 POP POP PUSH1 0x20 PUSH2 0xA91 DUP8 DUP3 DUP9 ADD PUSH2 0x95A JUMP JUMPDEST SWAP4 POP POP PUSH1 0x40 PUSH2 0xAA2 DUP8 DUP3 DUP9 ADD PUSH2 0x900 JUMP JUMPDEST SWAP3 POP POP PUSH1 0x60 PUSH2 0xAB3 DUP8 DUP3 DUP9 ADD PUSH2 0x937 JUMP JUMPDEST SWAP2 POP POP SWAP3 SWAP6 SWAP2 SWAP5 POP SWAP3 POP JUMP JUMPDEST PUSH0 PUSH1 0x20 DUP3 DUP5 SUB SLT ISZERO PUSH2 0xAD4 JUMPI PUSH2 0xAD3 PUSH2 0x79A JUMP JUMPDEST JUMPDEST PUSH0 PUSH2 0xAE1 DUP5 DUP3 DUP6 ADD PUSH2 0x937 JUMP JUMPDEST SWAP2 POP POP SWAP3 SWAP2 POP POP JUMP JUMPDEST PUSH0 DUP2 MLOAD SWAP1 POP SWAP2 SWAP1 POP JUMP JUMPDEST PUSH0 DUP3 DUP3 MSTORE PUSH1 0x20 DUP3 ADD SWAP1 POP SWAP3 SWAP2 POP POP JUMP JUMPDEST DUP3 DUP2 DUP4 MCOPY PUSH0 DUP4 DUP4 ADD MSTORE POP POP POP JUMP JUMPDEST PUSH0 PUSH2 0xB1C DUP3 PUSH2 0xAEA JUMP JUMPDEST PUSH2 0xB26 DUP2 DUP6 PUSH2 0xAF4 JUMP JUMPDEST SWAP4 POP PUSH2 0xB36 DUP2 DUP6 PUSH1 0x20 DUP7 ADD PUSH2 0xB04 JUMP JUMPDEST PUSH2 0xB3F DUP2 PUSH2 0x7AA JUMP JUMPDEST DUP5 ADD SWAP2 POP POP SWAP3 SWAP2 POP POP JUMP JUMPDEST PUSH2 0xB53 DUP2 PUSH2 0x8DE JUMP JUMPDEST DUP3 MSTORE POP POP JUMP JUMPDEST PUSH32 0x4E487B7100000000000000000000000000000000000000000000000000000000 PUSH0 MSTORE PUSH1 0x21 PUSH1 0x4 MSTORE PUSH1 0x24 PUSH0 REVERT JUMPDEST PUSH1 0x3 DUP2 LT PUSH2 0xB97 JUMPI PUSH2 0xB96 PUSH2 0xB59 JUMP JUMPDEST JUMPDEST POP JUMP JUMPDEST PUSH0 DUP2 SWAP1 POP PUSH2 0xBA7 DUP3 PUSH2 0xB86 JUMP JUMPDEST SWAP2 SWAP1 POP JUMP JUMPDEST PUSH0 PUSH2 0xBB6 DUP3 PUSH2 0xB9A JUMP JUMPDEST SWAP1 POP SWAP2 SWAP1 POP JUMP JUMPDEST PUSH2 0xBC6 DUP2 PUSH2 0xBAC JUMP JUMPDEST DUP3 MSTORE POP POP JUMP JUMPDEST PUSH2 0xBD5 DUP2 PUSH2 0x914 JUMP JUMPDEST DUP3 MSTORE POP POP JUMP JUMPDEST PUSH0 PUSH1 0xA0 DUP3 ADD SWAP1 POP DUP2 DUP2 SUB PUSH0 DUP4 ADD MSTORE PUSH2 0xBF3 DUP2 DUP9 PUSH2 0xB12 JUMP JUMPDEST SWAP1 POP PUSH2 0xC02 PUSH1 0x20 DUP4 ADD DUP8 PUSH2 0xB4A JUMP JUMPDEST PUSH2 0xC0F PUSH1 0x40 DUP4 ADD DUP7 PUSH2 0xBBD JUMP JUMPDEST PUSH2 0xC1C PUSH1 0x60 DUP4 ADD DUP6 PUSH2 0xB4A JUMP JUMPDEST PUSH2 0xC29 PUSH1 0x80 DUP4 ADD DUP5 PUSH2 0xBCC JUMP JUMPDEST SWAP7 SWAP6 POP POP POP POP POP POP JUMP JUMPDEST PUSH0 PUSH20 0xFFFFFFFFFFFFFFFFFFFFFFFFFFFFFFFFFFFFFFFF DUP3 AND SWAP1 POP SWAP2 SWAP1 POP JUMP JUMPDEST PUSH0 PUSH2 0xC5C DUP3 PUSH2 0xC33 JUMP JUMPDEST SWAP1 POP SWAP2 SWAP1 POP JUMP JUMPDEST PUSH2 0xC6C DUP2 PUSH2 0xC52 JUMP JUMPDEST DUP3 MSTORE POP POP JUMP JUMPDEST PUSH0 PUSH1 0x20 DUP3 ADD SWAP1 POP PUSH2 0xC85 PUSH0 DUP4 ADD DUP5 PUSH2 0xC63 JUMP JUMPDEST SWAP3 SWAP2 POP POP JUMP JUMPDEST PUSH32 0x556E617574686F72697A65640000000000000000000000000000000000000000 PUSH0 DUP3 ADD MSTORE POP JUMP JUMPDEST PUSH0 PUSH2 0xCBF PUSH1 0xC DUP4 PUSH2 0xAF4 JUMP JUMPDEST SWAP2 POP PUSH2 0xCCA DUP3 PUSH2 0xC8B JUMP JUMPDEST PUSH1 0x20 DUP3 ADD SWAP1 POP SWAP2 SWAP1 POP JUMP JUMPDEST PUSH0 PUSH1 0x20 DUP3 ADD SWAP1 POP DUP2 DUP2 SUB PUSH0 DUP4 ADD MSTORE PUSH2 0xCEC DUP2 PUSH2 0xCB3 JUMP JUMPDEST SWAP1 POP SWAP2 SWAP1 POP JUMP JUMPDEST PUSH32 0x726F6C6C6E6F20697320616C7265616479206578697374730000000000000000 PUSH0 DUP3 ADD MSTORE POP JUMP JUMPDEST PUSH0 PUSH2 0xD27 PUSH1 0x18 DUP4 PUSH2 0xAF4 JUMP JUMPDEST SWAP2 POP PUSH2 0xD32 DUP3 PUSH2 0xCF3 JUMP JUMPDEST PUSH1 0x20 DUP3 ADD SWAP1 POP SWAP2 SWAP1 POP JUMP JUMPDEST PUSH0 PUSH1 0x20 DUP3 ADD SWAP1 POP DUP2 DUP2 SUB PUSH0 DUP4 ADD MSTORE PUSH2 0xD54 DUP2 PUSH2 0xD1B JUMP JUMPDEST SWAP1 POP SWAP2 SWAP1 POP JUMP JUMPDEST PUSH32 0x4E487B7100000000000000000000000000000000000000000000000000000000 PUSH0 MSTORE PUSH1 0x22 PUSH1 0x4 MSTORE PUSH1 0x24 PUSH0 REVERT JUMPDEST PUSH0 PUSH1 0x2 DUP3 DIV SWAP1 POP PUSH1 0x1 DUP3 AND DUP1 PUSH2 0xD9F JUMPI PUSH1 0x7F DUP3 AND SWAP2 POP JUMPDEST PUSH1 0x20 DUP3 LT DUP2 SUB PUSH2 0xDB2 JUMPI PUSH2 0xDB1 PUSH2 0xD5B JUMP JUMPDEST JUMPDEST POP SWAP2 SWAP1 POP JUMP JUMPDEST PUSH0 DUP2 SWAP1 POP DUP2 PUSH0 MSTORE PUSH1 0x20 PUSH0 KECCAK256 SWAP1 POP SWAP2 SWAP1 POP JUMP JUMPDEST PUSH0 PUSH1 0x20 PUSH1 0x1F DUP4 ADD DIV SWAP1 POP SWAP2 SWAP1 POP JUMP JUMPDEST PUSH0 DUP3 DUP3 SHL SWAP1 POP SWAP3 SWAP2 POP POP JUMP JUMPDEST PUSH0 PUSH1 0x8 DUP4 MUL PUSH2 0xE14 PUSH32 0xFFFFFFFFFFFFFFFFFFFFFFFFFFFFFFFFFFFFFFFFFFFFFFFFFFFFFFFFFFFFFFFF DUP3 PUSH2 0xDD9 JUMP JUMPDEST PUSH2 0xE1E DUP7 DUP4 PUSH2 0xDD9 JUMP JUMPDEST SWAP6 POP DUP1 NOT DUP5 AND SWAP4 POP DUP1 DUP7 AND DUP5 OR SWAP3 POP POP POP SWAP4 SWAP3 POP POP POP JUMP JUMPDEST PUSH0 DUP2 SWAP1 POP SWAP2 SWAP1 POP JUMP JUMPDEST PUSH0 DUP2 SWAP1 POP SWAP2 SWAP1 POP JUMP JUMPDEST PUSH0 PUSH2 0xE62 PUSH2 0xE5D PUSH2 0xE58 DUP5 PUSH2 0xE36 JUMP JUMPDEST PUSH2 0xE3F JUMP JUMPDEST PUSH2 0xE36 JUMP JUMPDEST SWAP1 POP SWAP2 SWAP1 POP JUMP JUMPDEST PUSH0 DUP2 SWAP1 POP SWAP2 SWAP1 POP JUMP JUMPDEST PUSH2 0xE7B DUP4 PUSH2 0xE48 JUMP JUMPDEST PUSH2 0xE8F PUSH2 0xE87 DUP3 PUSH2 0xE69 JUMP JUMPDEST DUP5 DUP5 SLOAD PUSH2 0xDE5 JUMP JUMPDEST DUP3 SSTORE POP POP POP POP JUMP JUMPDEST PUSH0 SWAP1 JUMP JUMPDEST PUSH2 0xEA3 PUSH2 0xE97 JUMP JUMPDEST PUSH2 0xEAE DUP2 DUP5 DUP5 PUSH2 0xE72 JUMP JUMPDEST POP POP POP JUMP JUMPDEST JUMPDEST DUP2 DUP2 LT ISZERO PUSH2 0xED1 JUMPI PUSH2 0xEC6 PUSH0 DUP3 PUSH2 0xE9B JUMP JUMPDEST PUSH1 0x1 DUP2 ADD SWAP1 POP PUSH2 0xEB4 JUMP JUMPDEST POP POP JUMP JUMPDEST PUSH1 0x1F DUP3 GT ISZERO PUSH2 0xF16 JUMPI PUSH2 0xEE7 DUP2 PUSH2 0xDB8 JUMP JUMPDEST PUSH2 0xEF0 DUP5 PUSH2 0xDCA JUMP JUMPDEST DUP2 ADD PUSH1 0x20 DUP6 LT ISZERO PUSH2 0xEFF JUMPI DUP2 SWAP1 POP JUMPDEST PUSH2 0xF13 PUSH2 0xF0B DUP6 PUSH2 0xDCA JUMP JUMPDEST DUP4 ADD DUP3 PUSH2 0xEB3 JUMP JUMPDEST POP POP JUMPDEST POP POP POP JUMP JUMPDEST PUSH0 DUP3 DUP3 SHR SWAP1 POP SWAP3 SWAP2 POP POP JUMP JUMPDEST PUSH0 PUSH2 0xF36 PUSH0 NOT DUP5 PUSH1 0x8 MUL PUSH2 0xF1B JUMP JUMPDEST NOT DUP1 DUP4 AND SWAP2 POP POP SWAP3 SWAP2 POP POP JUMP JUMPDEST PUSH0 PUSH2 0xF4E DUP4 DUP4 PUSH2 0xF27 JUMP JUMPDEST SWAP2 POP DUP3 PUSH1 0x2 MUL DUP3 OR SWAP1 POP SWAP3 SWAP2 POP POP JUMP JUMPDEST PUSH2 0xF67 DUP3 PUSH2 0xAEA JUMP JUMPDEST PUSH8 0xFFFFFFFFFFFFFFFF DUP2 GT ISZERO PUSH2 0xF80 JUMPI PUSH2 0xF7F PUSH2 0x7BA JUMP JUMPDEST JUMPDEST PUSH2 0xF8A DUP3 SLOAD PUSH2 0xD88 JUMP JUMPDEST PUSH2 0xF95 DUP3 DUP3 DUP6 PUSH2 0xED5 JUMP JUMPDEST PUSH0 PUSH1 0x20 SWAP1 POP PUSH1 0x1F DUP4 GT PUSH1 0x1 DUP2 EQ PUSH2 0xFC6 JUMPI PUSH0 DUP5 ISZERO PUSH2 0xFB4 JUMPI DUP3 DUP8 ADD MLOAD SWAP1 POP JUMPDEST PUSH2 0xFBE DUP6 DUP3 PUSH2 0xF43 JUMP JUMPDEST DUP7 SSTORE POP PUSH2 0x1025 JUMP JUMPDEST PUSH1 0x1F NOT DUP5 AND PUSH2 0xFD4 DUP7 PUSH2 0xDB8 JUMP JUMPDEST PUSH0 JUMPDEST DUP3 DUP2 LT ISZERO PUSH2 0xFFB JUMPI DUP5 DUP10 ADD MLOAD DUP3 SSTORE PUSH1 0x1 DUP3 ADD SWAP2 POP PUSH1 0x20 DUP6 ADD SWAP5 POP PUSH1 0x20 DUP2 ADD SWAP1 POP PUSH2 0xFD6 JUMP JUMPDEST DUP7 DUP4 LT ISZERO PUSH2 0x1018 JUMPI DUP5 DUP10 ADD MLOAD PUSH2 0x1014 PUSH1 0x1F DUP10 AND DUP3 PUSH2 0xF27 JUMP JUMPDEST DUP4 SSTORE POP JUMPDEST PUSH1 0x1 PUSH1 0x2 DUP9 MUL ADD DUP9 SSTORE POP POP POP JUMPDEST POP POP POP POP POP POP JUMP JUMPDEST PUSH32 0x726F6C6C6E6F20646F6573206E6F742065786973740000000000000000000000 PUSH0 DUP3 ADD MSTORE POP JUMP JUMPDEST PUSH0 PUSH2 0x1061 PUSH1 0x15 DUP4 PUSH2 0xAF4 JUMP JUMPDEST SWAP2 POP PUSH2 0x106C DUP3 PUSH2 0x102D JUMP JUMPDEST PUSH1 0x20 DUP3 ADD SWAP1 POP SWAP2 SWAP1 POP JUMP JUMPDEST PUSH0 PUSH1 0x20 DUP3 ADD SWAP1 POP DUP2 DUP2 SUB PUSH0 DUP4 ADD MSTORE PUSH2 0x108E DUP2 PUSH2 0x1055 JUMP JUMPDEST SWAP1 POP SWAP2 SWAP1 POP JUMP INVALID LOG2 PUSH5 0x6970667358 0x22 SLT KECCAK256 0xD8 EXTCODESIZE SWAP14 SLOAD 0xDD KECCAK256 PUSH14 0x9C649C68C267EBFD88790B1F0B75 ADDMOD DUP9 0xDB DUP11 DIV PUSH9 0xFB450E83A164736F6C PUSH4 0x4300081A STOP CALLER "
		},
		"gasEstimates": {
			"creation": {
				"codeDepositCost": "859800",
				"executionCost": "25159",
				"totalCost": "884959"
			},
			"external": {
				"addStudent(string,uint8,uint16,uint8,uint8)": "infinite",
				"editData(uint8,uint8,uint8,uint16)": "infinite",
				"editName(string,uint16)": "infinite",
				"getStudent(uint16)": "infinite",
				"staffadvisor()": "2571"
			}
		},
		"methodIdentifiers": {
			"addStudent(string,uint8,uint16,uint8,uint8)": "321e58da",
			"editData(uint8,uint8,uint8,uint16)": "ce39721f",
			"editName(string,uint16)": "3b92a834",
			"getStudent(uint16)": "e71a5f8e",
			"staffadvisor()": "fe6674bf"
		}
	},
	"abi": [
		{
			"inputs": [],
			"stateMutability": "nonpayable",
			"type": "constructor"
		},
		{
			"inputs": [
				{
					"internalType": "string",
					"name": "_name",
					"type": "string"
				},
				{
					"internalType": "uint8",
					"name": "_CGPA",
					"type": "uint8"
				},
				{
					"internalType": "uint16",
					"name": "_rollno",
					"type": "uint16"
				},
				{
					"internalType": "uint8",
					"name": "_sem",
					"type": "uint8"
				},
				{
					"internalType": "enum StudentMS.Dep",
					"name": "_dept",
					"type": "uint8"
				}
			],
			"name": "addStudent",
			"outputs": [],
			"stateMutability": "nonpayable",
			"type": "function"
		},
		{
			"inputs": [
				{
					"internalType": "uint8",
					"name": "_sem",
					"type": "uint8"
				},
				{
					"internalType": "enum StudentMS.Dep",
					"name": "_dept",
					"type": "uint8"
				},
				{
					"internalType": "uint8",
					"name": "_CGPA",
					"type": "uint8"
				},
				{
					"internalType": "uint16",
					"name": "_rollno",
					"type": "uint16"
				}
			],
			"name": "editData",
			"outputs": [],
			"stateMutability": "nonpayable",
			"type": "function"
		},
		{
			"inputs": [
				{
					"internalType": "string",
					"name": "_name",
					"type": "string"
				},
				{
					"internalType": "uint16",
					"name": "_rollno",
					"type": "uint16"
				}
			],
			"name": "editName",
			"outputs": [],
			"stateMutability": "nonpayable",
			"type": "function"
		},
		{
			"inputs": [
				{
					"internalType": "uint16",
					"name": "_rollno",
					"type": "uint16"
				}
			],
			"name": "getStudent",
			"outputs": [
				{
					"internalType": "string",
					"name": "name",
					"type": "string"
				},
				{
					"internalType": "uint8",
					"name": "sem",
					"type": "uint8"
				},
				{
					"internalType": "enum StudentMS.Dep",
					"name": "dept",
					"type": "uint8"
				},
				{
					"internalType": "uint8",
					"name": "CGPA",
					"type": "uint8"
				},
				{
					"internalType": "uint16",
					"name": "rollno",
					"type": "uint16"
				}
			],
			"stateMutability": "view",
			"type": "function"
		},
		{
			"inputs": [],
			"name": "staffadvisor",
			"outputs": [
				{
					"internalType": "address",
					"name": "",
					"type": "address"
				}
			],
			"stateMutability": "view",
			"type": "function"
		}
	]
}