{
	"MyBook.sol": {
		"MyBook": {
			"abi": [
				{
					"inputs": [],
					"name": "getMessage",
					"outputs": [
						{
							"internalType": "string",
							"name": "",
							"type": "string"
						},
						{
							"internalType": "uint16",
							"name": "",
							"type": "uint16"
						}
					],
					"stateMutability": "view",
					"type": "function"
				},
				{
					"inputs": [
						{
							"internalType": "string",
							"name": "_title",
							"type": "string"
						},
						{
							"internalType": "uint16",
							"name": "_price",
							"type": "uint16"
						}
					],
					"name": "setMessage",
					"outputs": [],
					"stateMutability": "nonpayable",
					"type": "function"
				}
			],
			"devdoc": {
				"kind": "dev",
				"methods": {},
				"version": 1
			},
			"evm": {
				"assembly": "    /* \"MyBook.sol\":56:332  contract MyBook{... */\n  mstore(0x40, 0x80)\n  callvalue\n  dup1\n  iszero\n  tag_1\n  jumpi\n  0x00\n  dup1\n  revert\ntag_1:\n  pop\n  dataSize(sub_0)\n  dup1\n  dataOffset(sub_0)\n  0x00\n  codecopy\n  0x00\n  return\nstop\n\nsub_0: assembly {\n        /* \"MyBook.sol\":56:332  contract MyBook{... */\n      mstore(0x40, 0x80)\n      callvalue\n      dup1\n      iszero\n      tag_1\n      jumpi\n      0x00\n      dup1\n      revert\n    tag_1:\n      pop\n      jumpi(tag_2, lt(calldatasize, 0x04))\n      shr(0xe0, calldataload(0x00))\n      dup1\n      0xce6d41de\n      eq\n      tag_3\n      jumpi\n      dup1\n      0xdcedb339\n      eq\n      tag_4\n      jumpi\n    tag_2:\n      0x00\n      dup1\n      revert\n        /* \"MyBook.sol\":114:213  function getMessage()public view returns(string memory,uint16){... */\n    tag_3:\n      tag_5\n      tag_6\n      jump\t// in\n    tag_5:\n      mload(0x40)\n      tag_7\n      swap3\n      swap2\n      swap1\n      tag_8\n      jump\t// in\n    tag_7:\n      mload(0x40)\n      dup1\n      swap2\n      sub\n      swap1\n      return\n        /* \"MyBook.sol\":218:330  function setMessage(string memory _title,uint16 _price)public{... */\n    tag_4:\n      tag_9\n      0x04\n      dup1\n      calldatasize\n      sub\n      dup2\n      add\n      swap1\n      tag_10\n      swap2\n      swap1\n      tag_11\n      jump\t// in\n    tag_10:\n      tag_12\n      jump\t// in\n    tag_9:\n      stop\n        /* \"MyBook.sol\":114:213  function getMessage()public view returns(string memory,uint16){... */\n    tag_6:\n        /* \"MyBook.sol\":155:168  string memory */\n      0x60\n        /* \"MyBook.sol\":169:175  uint16 */\n      0x00\n        /* \"MyBook.sol\":194:199  title */\n      dup1\n        /* \"MyBook.sol\":200:205  price */\n      0x01\n      0x00\n      swap1\n      sload\n      swap1\n      0x0100\n      exp\n      swap1\n      div\n      0xffff\n      and\n        /* \"MyBook.sol\":186:206  return (title,price) */\n      dup2\n      dup1\n      sload\n      tag_14\n      swap1\n      tag_15\n      jump\t// in\n    tag_14:\n      dup1\n      0x1f\n      add\n      0x20\n      dup1\n      swap2\n      div\n      mul\n      0x20\n      add\n      mload(0x40)\n      swap1\n      dup2\n      add\n      0x40\n      mstore\n      dup1\n      swap3\n      swap2\n      swap1\n      dup2\n      dup2\n      mstore\n      0x20\n      add\n      dup3\n      dup1\n      sload\n      tag_16\n      swap1\n      tag_15\n      jump\t// in\n    tag_16:\n      dup1\n      iszero\n      tag_17\n      jumpi\n      dup1\n      0x1f\n      lt\n      tag_18\n      jumpi\n      0x0100\n      dup1\n      dup4\n      sload\n      div\n      mul\n      dup4\n      mstore\n      swap2\n      0x20\n      add\n      swap2\n      jump(tag_17)\n    tag_18:\n      dup3\n      add\n      swap2\n      swap1\n      0x00\n      mstore\n      keccak256(0x00, 0x20)\n      swap1\n    tag_19:\n      dup2\n      sload\n      dup2\n      mstore\n      swap1\n      0x01\n      add\n      swap1\n      0x20\n      add\n      dup1\n      dup4\n      gt\n      tag_19\n      jumpi\n      dup3\n      swap1\n      sub\n      0x1f\n      and\n      dup3\n      add\n      swap2\n    tag_17:\n      pop\n      pop\n      pop\n      pop\n      pop\n      swap2\n      pop\n      swap2\n      pop\n      swap2\n      pop\n        /* \"MyBook.sol\":114:213  function getMessage()public view returns(string memory,uint16){... */\n      swap1\n      swap2\n      jump\t// out\n        /* \"MyBook.sol\":218:330  function setMessage(string memory _title,uint16 _price)public{... */\n    tag_12:\n        /* \"MyBook.sol\":295:301  _title */\n      dup2\n        /* \"MyBook.sol\":289:294  title */\n      0x00\n        /* \"MyBook.sol\":289:301  title=_title */\n      swap1\n      dup2\n      tag_21\n      swap2\n      swap1\n      tag_22\n      jump\t// in\n    tag_21:\n      pop\n        /* \"MyBook.sol\":317:323  _price */\n      dup1\n        /* \"MyBook.sol\":311:316  price */\n      0x01\n      0x00\n        /* \"MyBook.sol\":311:323  price=_price */\n      0x0100\n      exp\n      dup2\n      sload\n      dup2\n      0xffff\n      mul\n      not\n      and\n      swap1\n      dup4\n      0xffff\n      and\n      mul\n      or\n      swap1\n      sstore\n      pop\n        /* \"MyBook.sol\":218:330  function setMessage(string memory _title,uint16 _price)public{... */\n      pop\n      pop\n      jump\t// out\n        /* \"#utility.yul\":7:106   */\n    tag_23:\n        /* \"#utility.yul\":59:65   */\n      0x00\n        /* \"#utility.yul\":93:98   */\n      dup2\n        /* \"#utility.yul\":87:99   */\n      mload\n        /* \"#utility.yul\":77:99   */\n      swap1\n      pop\n        /* \"#utility.yul\":7:106   */\n      swap2\n      swap1\n      pop\n      jump\t// out\n        /* \"#utility.yul\":112:281   */\n    tag_24:\n        /* \"#utility.yul\":196:207   */\n      0x00\n        /* \"#utility.yul\":230:236   */\n      dup3\n        /* \"#utility.yul\":225:228   */\n      dup3\n        /* \"#utility.yul\":218:237   */\n      mstore\n        /* \"#utility.yul\":270:274   */\n      0x20\n        /* \"#utility.yul\":265:268   */\n      dup3\n        /* \"#utility.yul\":261:275   */\n      add\n        /* \"#utility.yul\":246:275   */\n      swap1\n      pop\n        /* \"#utility.yul\":112:281   */\n      swap3\n      swap2\n      pop\n      pop\n      jump\t// out\n        /* \"#utility.yul\":287:426   */\n    tag_25:\n        /* \"#utility.yul\":376:382   */\n      dup3\n        /* \"#utility.yul\":371:374   */\n      dup2\n        /* \"#utility.yul\":366:369   */\n      dup4\n        /* \"#utility.yul\":360:383   */\n      mcopy\n        /* \"#utility.yul\":417:418   */\n      0x00\n        /* \"#utility.yul\":408:414   */\n      dup4\n        /* \"#utility.yul\":403:406   */\n      dup4\n        /* \"#utility.yul\":399:415   */\n      add\n        /* \"#utility.yul\":392:419   */\n      mstore\n        /* \"#utility.yul\":287:426   */\n      pop\n      pop\n      pop\n      jump\t// out\n        /* \"#utility.yul\":432:534   */\n    tag_26:\n        /* \"#utility.yul\":473:479   */\n      0x00\n        /* \"#utility.yul\":524:526   */\n      0x1f\n        /* \"#utility.yul\":520:527   */\n      not\n        /* \"#utility.yul\":515:517   */\n      0x1f\n        /* \"#utility.yul\":508:513   */\n      dup4\n        /* \"#utility.yul\":504:518   */\n      add\n        /* \"#utility.yul\":500:528   */\n      and\n        /* \"#utility.yul\":490:528   */\n      swap1\n      pop\n        /* \"#utility.yul\":432:534   */\n      swap2\n      swap1\n      pop\n      jump\t// out\n        /* \"#utility.yul\":540:917   */\n    tag_27:\n        /* \"#utility.yul\":628:631   */\n      0x00\n        /* \"#utility.yul\":656:695   */\n      tag_67\n        /* \"#utility.yul\":689:694   */\n      dup3\n        /* \"#utility.yul\":656:695   */\n      tag_23\n      jump\t// in\n    tag_67:\n        /* \"#utility.yul\":711:782   */\n      tag_68\n        /* \"#utility.yul\":775:781   */\n      dup2\n        /* \"#utility.yul\":770:773   */\n      dup6\n        /* \"#utility.yul\":711:782   */\n      tag_24\n      jump\t// in\n    tag_68:\n        /* \"#utility.yul\":704:782   */\n      swap4\n      pop\n        /* \"#utility.yul\":791:856   */\n      tag_69\n        /* \"#utility.yul\":849:855   */\n      dup2\n        /* \"#utility.yul\":844:847   */\n      dup6\n        /* \"#utility.yul\":837:841   */\n      0x20\n        /* \"#utility.yul\":830:835   */\n      dup7\n        /* \"#utility.yul\":826:842   */\n      add\n        /* \"#utility.yul\":791:856   */\n      tag_25\n      jump\t// in\n    tag_69:\n        /* \"#utility.yul\":881:910   */\n      tag_70\n        /* \"#utility.yul\":903:909   */\n      dup2\n        /* \"#utility.yul\":881:910   */\n      tag_26\n      jump\t// in\n    tag_70:\n        /* \"#utility.yul\":876:879   */\n      dup5\n        /* \"#utility.yul\":872:911   */\n      add\n        /* \"#utility.yul\":865:911   */\n      swap2\n      pop\n        /* \"#utility.yul\":632:917   */\n      pop\n        /* \"#utility.yul\":540:917   */\n      swap3\n      swap2\n      pop\n      pop\n      jump\t// out\n        /* \"#utility.yul\":923:1012   */\n    tag_28:\n        /* \"#utility.yul\":959:966   */\n      0x00\n        /* \"#utility.yul\":999:1005   */\n      0xffff\n        /* \"#utility.yul\":992:997   */\n      dup3\n        /* \"#utility.yul\":988:1006   */\n      and\n        /* \"#utility.yul\":977:1006   */\n      swap1\n      pop\n        /* \"#utility.yul\":923:1012   */\n      swap2\n      swap1\n      pop\n      jump\t// out\n        /* \"#utility.yul\":1018:1133   */\n    tag_29:\n        /* \"#utility.yul\":1103:1126   */\n      tag_73\n        /* \"#utility.yul\":1120:1125   */\n      dup2\n        /* \"#utility.yul\":1103:1126   */\n      tag_28\n      jump\t// in\n    tag_73:\n        /* \"#utility.yul\":1098:1101   */\n      dup3\n        /* \"#utility.yul\":1091:1127   */\n      mstore\n        /* \"#utility.yul\":1018:1133   */\n      pop\n      pop\n      jump\t// out\n        /* \"#utility.yul\":1139:1558   */\n    tag_8:\n        /* \"#utility.yul\":1278:1282   */\n      0x00\n        /* \"#utility.yul\":1316:1318   */\n      0x40\n        /* \"#utility.yul\":1305:1314   */\n      dup3\n        /* \"#utility.yul\":1301:1319   */\n      add\n        /* \"#utility.yul\":1293:1319   */\n      swap1\n      pop\n        /* \"#utility.yul\":1365:1374   */\n      dup2\n        /* \"#utility.yul\":1359:1363   */\n      dup2\n        /* \"#utility.yul\":1355:1375   */\n      sub\n        /* \"#utility.yul\":1351:1352   */\n      0x00\n        /* \"#utility.yul\":1340:1349   */\n      dup4\n        /* \"#utility.yul\":1336:1353   */\n      add\n        /* \"#utility.yul\":1329:1376   */\n      mstore\n        /* \"#utility.yul\":1393:1471   */\n      tag_75\n        /* \"#utility.yul\":1466:1470   */\n      dup2\n        /* \"#utility.yul\":1457:1463   */\n      dup6\n        /* \"#utility.yul\":1393:1471   */\n      tag_27\n      jump\t// in\n    tag_75:\n        /* \"#utility.yul\":1385:1471   */\n      swap1\n      pop\n        /* \"#utility.yul\":1481:1551   */\n      tag_76\n        /* \"#utility.yul\":1547:1549   */\n      0x20\n        /* \"#utility.yul\":1536:1545   */\n      dup4\n        /* \"#utility.yul\":1532:1550   */\n      add\n        /* \"#utility.yul\":1523:1529   */\n      dup5\n        /* \"#utility.yul\":1481:1551   */\n      tag_29\n      jump\t// in\n    tag_76:\n        /* \"#utility.yul\":1139:1558   */\n      swap4\n      swap3\n      pop\n      pop\n      pop\n      jump\t// out\n        /* \"#utility.yul\":1564:1639   */\n    tag_30:\n        /* \"#utility.yul\":1597:1603   */\n      0x00\n        /* \"#utility.yul\":1630:1632   */\n      0x40\n        /* \"#utility.yul\":1624:1633   */\n      mload\n        /* \"#utility.yul\":1614:1633   */\n      swap1\n      pop\n        /* \"#utility.yul\":1564:1639   */\n      swap1\n      jump\t// out\n        /* \"#utility.yul\":1645:1762   */\n    tag_31:\n        /* \"#utility.yul\":1754:1755   */\n      0x00\n        /* \"#utility.yul\":1751:1752   */\n      dup1\n        /* \"#utility.yul\":1744:1756   */\n      revert\n        /* \"#utility.yul\":1768:1885   */\n    tag_32:\n        /* \"#utility.yul\":1877:1878   */\n      0x00\n        /* \"#utility.yul\":1874:1875   */\n      dup1\n        /* \"#utility.yul\":1867:1879   */\n      revert\n        /* \"#utility.yul\":1891:2008   */\n    tag_33:\n        /* \"#utility.yul\":2000:2001   */\n      0x00\n        /* \"#utility.yul\":1997:1998   */\n      dup1\n        /* \"#utility.yul\":1990:2002   */\n      revert\n        /* \"#utility.yul\":2014:2131   */\n    tag_34:\n        /* \"#utility.yul\":2123:2124   */\n      0x00\n        /* \"#utility.yul\":2120:2121   */\n      dup1\n        /* \"#utility.yul\":2113:2125   */\n      revert\n        /* \"#utility.yul\":2137:2317   */\n    tag_35:\n        /* \"#utility.yul\":2185:2262   */\n      0x4e487b7100000000000000000000000000000000000000000000000000000000\n        /* \"#utility.yul\":2182:2183   */\n      0x00\n        /* \"#utility.yul\":2175:2263   */\n      mstore\n        /* \"#utility.yul\":2282:2286   */\n      0x41\n        /* \"#utility.yul\":2279:2280   */\n      0x04\n        /* \"#utility.yul\":2272:2287   */\n      mstore\n        /* \"#utility.yul\":2306:2310   */\n      0x24\n        /* \"#utility.yul\":2303:2304   */\n      0x00\n        /* \"#utility.yul\":2296:2311   */\n      revert\n        /* \"#utility.yul\":2323:2604   */\n    tag_36:\n        /* \"#utility.yul\":2406:2433   */\n      tag_84\n        /* \"#utility.yul\":2428:2432   */\n      dup3\n        /* \"#utility.yul\":2406:2433   */\n      tag_26\n      jump\t// in\n    tag_84:\n        /* \"#utility.yul\":2398:2404   */\n      dup2\n        /* \"#utility.yul\":2394:2434   */\n      add\n        /* \"#utility.yul\":2536:2542   */\n      dup2\n        /* \"#utility.yul\":2524:2534   */\n      dup2\n        /* \"#utility.yul\":2521:2543   */\n      lt\n        /* \"#utility.yul\":2500:2518   */\n      0xffffffffffffffff\n        /* \"#utility.yul\":2488:2498   */\n      dup3\n        /* \"#utility.yul\":2485:2519   */\n      gt\n        /* \"#utility.yul\":2482:2544   */\n      or\n        /* \"#utility.yul\":2479:2567   */\n      iszero\n      tag_85\n      jumpi\n        /* \"#utility.yul\":2547:2565   */\n      tag_86\n      tag_35\n      jump\t// in\n    tag_86:\n        /* \"#utility.yul\":2479:2567   */\n    tag_85:\n        /* \"#utility.yul\":2587:2597   */\n      dup1\n        /* \"#utility.yul\":2583:2585   */\n      0x40\n        /* \"#utility.yul\":2576:2598   */\n      mstore\n        /* \"#utility.yul\":2366:2604   */\n      pop\n        /* \"#utility.yul\":2323:2604   */\n      pop\n      pop\n      jump\t// out\n        /* \"#utility.yul\":2610:2739   */\n    tag_37:\n        /* \"#utility.yul\":2644:2650   */\n      0x00\n        /* \"#utility.yul\":2671:2691   */\n      tag_88\n      tag_30\n      jump\t// in\n    tag_88:\n        /* \"#utility.yul\":2661:2691   */\n      swap1\n      pop\n        /* \"#utility.yul\":2700:2733   */\n      tag_89\n        /* \"#utility.yul\":2728:2732   */\n      dup3\n        /* \"#utility.yul\":2720:2726   */\n      dup3\n        /* \"#utility.yul\":2700:2733   */\n      tag_36\n      jump\t// in\n    tag_89:\n        /* \"#utility.yul\":2610:2739   */\n      swap2\n      swap1\n      pop\n      jump\t// out\n        /* \"#utility.yul\":2745:3053   */\n    tag_38:\n        /* \"#utility.yul\":2807:2811   */\n      0x00\n        /* \"#utility.yul\":2897:2915   */\n      0xffffffffffffffff\n        /* \"#utility.yul\":2889:2895   */\n      dup3\n        /* \"#utility.yul\":2886:2916   */\n      gt\n        /* \"#utility.yul\":2883:2939   */\n      iszero\n      tag_91\n      jumpi\n        /* \"#utility.yul\":2919:2937   */\n      tag_92\n      tag_35\n      jump\t// in\n    tag_92:\n        /* \"#utility.yul\":2883:2939   */\n    tag_91:\n        /* \"#utility.yul\":2957:2986   */\n      tag_93\n        /* \"#utility.yul\":2979:2985   */\n      dup3\n        /* \"#utility.yul\":2957:2986   */\n      tag_26\n      jump\t// in\n    tag_93:\n        /* \"#utility.yul\":2949:2986   */\n      swap1\n      pop\n        /* \"#utility.yul\":3041:3045   */\n      0x20\n        /* \"#utility.yul\":3035:3039   */\n      dup2\n        /* \"#utility.yul\":3031:3046   */\n      add\n        /* \"#utility.yul\":3023:3046   */\n      swap1\n      pop\n        /* \"#utility.yul\":2745:3053   */\n      swap2\n      swap1\n      pop\n      jump\t// out\n        /* \"#utility.yul\":3059:3207   */\n    tag_39:\n        /* \"#utility.yul\":3157:3163   */\n      dup3\n        /* \"#utility.yul\":3152:3155   */\n      dup2\n        /* \"#utility.yul\":3147:3150   */\n      dup4\n        /* \"#utility.yul\":3134:3164   */\n      calldatacopy\n        /* \"#utility.yul\":3198:3199   */\n      0x00\n        /* \"#utility.yul\":3189:3195   */\n      dup4\n        /* \"#utility.yul\":3184:3187   */\n      dup4\n        /* \"#utility.yul\":3180:3196   */\n      add\n        /* \"#utility.yul\":3173:3200   */\n      mstore\n        /* \"#utility.yul\":3059:3207   */\n      pop\n      pop\n      pop\n      jump\t// out\n        /* \"#utility.yul\":3213:3638   */\n    tag_40:\n        /* \"#utility.yul\":3291:3296   */\n      0x00\n        /* \"#utility.yul\":3316:3382   */\n      tag_96\n        /* \"#utility.yul\":3332:3381   */\n      tag_97\n        /* \"#utility.yul\":3374:3380   */\n      dup5\n        /* \"#utility.yul\":3332:3381   */\n      tag_38\n      jump\t// in\n    tag_97:\n        /* \"#utility.yul\":3316:3382   */\n      tag_37\n      jump\t// in\n    tag_96:\n        /* \"#utility.yul\":3307:3382   */\n      swap1\n      pop\n        /* \"#utility.yul\":3405:3411   */\n      dup3\n        /* \"#utility.yul\":3398:3403   */\n      dup2\n        /* \"#utility.yul\":3391:3412   */\n      mstore\n        /* \"#utility.yul\":3443:3447   */\n      0x20\n        /* \"#utility.yul\":3436:3441   */\n      dup2\n        /* \"#utility.yul\":3432:3448   */\n      add\n        /* \"#utility.yul\":3481:3484   */\n      dup5\n        /* \"#utility.yul\":3472:3478   */\n      dup5\n        /* \"#utility.yul\":3467:3470   */\n      dup5\n        /* \"#utility.yul\":3463:3479   */\n      add\n        /* \"#utility.yul\":3460:3485   */\n      gt\n        /* \"#utility.yul\":3457:3569   */\n      iszero\n      tag_98\n      jumpi\n        /* \"#utility.yul\":3488:3567   */\n      tag_99\n      tag_34\n      jump\t// in\n    tag_99:\n        /* \"#utility.yul\":3457:3569   */\n    tag_98:\n        /* \"#utility.yul\":3578:3632   */\n      tag_100\n        /* \"#utility.yul\":3625:3631   */\n      dup5\n        /* \"#utility.yul\":3620:3623   */\n      dup3\n        /* \"#utility.yul\":3615:3618   */\n      dup6\n        /* \"#utility.yul\":3578:3632   */\n      tag_39\n      jump\t// in\n    tag_100:\n        /* \"#utility.yul\":3297:3638   */\n      pop\n        /* \"#utility.yul\":3213:3638   */\n      swap4\n      swap3\n      pop\n      pop\n      pop\n      jump\t// out\n        /* \"#utility.yul\":3658:3998   */\n    tag_41:\n        /* \"#utility.yul\":3714:3719   */\n      0x00\n        /* \"#utility.yul\":3763:3766   */\n      dup3\n        /* \"#utility.yul\":3756:3760   */\n      0x1f\n        /* \"#utility.yul\":3748:3754   */\n      dup4\n        /* \"#utility.yul\":3744:3761   */\n      add\n        /* \"#utility.yul\":3740:3767   */\n      slt\n        /* \"#utility.yul\":3730:3852   */\n      tag_102\n      jumpi\n        /* \"#utility.yul\":3771:3850   */\n      tag_103\n      tag_33\n      jump\t// in\n    tag_103:\n        /* \"#utility.yul\":3730:3852   */\n    tag_102:\n        /* \"#utility.yul\":3888:3894   */\n      dup2\n        /* \"#utility.yul\":3875:3895   */\n      calldataload\n        /* \"#utility.yul\":3913:3992   */\n      tag_104\n        /* \"#utility.yul\":3988:3991   */\n      dup5\n        /* \"#utility.yul\":3980:3986   */\n      dup3\n        /* \"#utility.yul\":3973:3977   */\n      0x20\n        /* \"#utility.yul\":3965:3971   */\n      dup7\n        /* \"#utility.yul\":3961:3978   */\n      add\n        /* \"#utility.yul\":3913:3992   */\n      tag_40\n      jump\t// in\n    tag_104:\n        /* \"#utility.yul\":3904:3992   */\n      swap2\n      pop\n        /* \"#utility.yul\":3720:3998   */\n      pop\n        /* \"#utility.yul\":3658:3998   */\n      swap3\n      swap2\n      pop\n      pop\n      jump\t// out\n        /* \"#utility.yul\":4004:4124   */\n    tag_42:\n        /* \"#utility.yul\":4076:4099   */\n      tag_106\n        /* \"#utility.yul\":4093:4098   */\n      dup2\n        /* \"#utility.yul\":4076:4099   */\n      tag_28\n      jump\t// in\n    tag_106:\n        /* \"#utility.yul\":4069:4074   */\n      dup2\n        /* \"#utility.yul\":4066:4100   */\n      eq\n        /* \"#utility.yul\":4056:4118   */\n      tag_107\n      jumpi\n        /* \"#utility.yul\":4114:4115   */\n      0x00\n        /* \"#utility.yul\":4111:4112   */\n      dup1\n        /* \"#utility.yul\":4104:4116   */\n      revert\n        /* \"#utility.yul\":4056:4118   */\n    tag_107:\n        /* \"#utility.yul\":4004:4124   */\n      pop\n      jump\t// out\n        /* \"#utility.yul\":4130:4267   */\n    tag_43:\n        /* \"#utility.yul\":4175:4180   */\n      0x00\n        /* \"#utility.yul\":4213:4219   */\n      dup2\n        /* \"#utility.yul\":4200:4220   */\n      calldataload\n        /* \"#utility.yul\":4191:4220   */\n      swap1\n      pop\n        /* \"#utility.yul\":4229:4261   */\n      tag_109\n        /* \"#utility.yul\":4255:4260   */\n      dup2\n        /* \"#utility.yul\":4229:4261   */\n      tag_42\n      jump\t// in\n    tag_109:\n        /* \"#utility.yul\":4130:4267   */\n      swap3\n      swap2\n      pop\n      pop\n      jump\t// out\n        /* \"#utility.yul\":4273:4925   */\n    tag_11:\n        /* \"#utility.yul\":4350:4356   */\n      0x00\n        /* \"#utility.yul\":4358:4364   */\n      dup1\n        /* \"#utility.yul\":4407:4409   */\n      0x40\n        /* \"#utility.yul\":4395:4404   */\n      dup4\n        /* \"#utility.yul\":4386:4393   */\n      dup6\n        /* \"#utility.yul\":4382:4405   */\n      sub\n        /* \"#utility.yul\":4378:4410   */\n      slt\n        /* \"#utility.yul\":4375:4494   */\n      iszero\n      tag_111\n      jumpi\n        /* \"#utility.yul\":4413:4492   */\n      tag_112\n      tag_31\n      jump\t// in\n    tag_112:\n        /* \"#utility.yul\":4375:4494   */\n    tag_111:\n        /* \"#utility.yul\":4561:4562   */\n      0x00\n        /* \"#utility.yul\":4550:4559   */\n      dup4\n        /* \"#utility.yul\":4546:4563   */\n      add\n        /* \"#utility.yul\":4533:4564   */\n      calldataload\n        /* \"#utility.yul\":4591:4609   */\n      0xffffffffffffffff\n        /* \"#utility.yul\":4583:4589   */\n      dup2\n        /* \"#utility.yul\":4580:4610   */\n      gt\n        /* \"#utility.yul\":4577:4694   */\n      iszero\n      tag_113\n      jumpi\n        /* \"#utility.yul\":4613:4692   */\n      tag_114\n      tag_32\n      jump\t// in\n    tag_114:\n        /* \"#utility.yul\":4577:4694   */\n    tag_113:\n        /* \"#utility.yul\":4718:4781   */\n      tag_115\n        /* \"#utility.yul\":4773:4780   */\n      dup6\n        /* \"#utility.yul\":4764:4770   */\n      dup3\n        /* \"#utility.yul\":4753:4762   */\n      dup7\n        /* \"#utility.yul\":4749:4771   */\n      add\n        /* \"#utility.yul\":4718:4781   */\n      tag_41\n      jump\t// in\n    tag_115:\n        /* \"#utility.yul\":4708:4781   */\n      swap3\n      pop\n        /* \"#utility.yul\":4504:4791   */\n      pop\n        /* \"#utility.yul\":4830:4832   */\n      0x20\n        /* \"#utility.yul\":4856:4908   */\n      tag_116\n        /* \"#utility.yul\":4900:4907   */\n      dup6\n        /* \"#utility.yul\":4891:4897   */\n      dup3\n        /* \"#utility.yul\":4880:4889   */\n      dup7\n        /* \"#utility.yul\":4876:4898   */\n      add\n        /* \"#utility.yul\":4856:4908   */\n      tag_43\n      jump\t// in\n    tag_116:\n        /* \"#utility.yul\":4846:4908   */\n      swap2\n      pop\n        /* \"#utility.yul\":4801:4918   */\n      pop\n        /* \"#utility.yul\":4273:4925   */\n      swap3\n      pop\n      swap3\n      swap1\n      pop\n      jump\t// out\n        /* \"#utility.yul\":4931:5111   */\n    tag_44:\n        /* \"#utility.yul\":4979:5056   */\n      0x4e487b7100000000000000000000000000000000000000000000000000000000\n        /* \"#utility.yul\":4976:4977   */\n      0x00\n        /* \"#utility.yul\":4969:5057   */\n      mstore\n        /* \"#utility.yul\":5076:5080   */\n      0x22\n        /* \"#utility.yul\":5073:5074   */\n      0x04\n        /* \"#utility.yul\":5066:5081   */\n      mstore\n        /* \"#utility.yul\":5100:5104   */\n      0x24\n        /* \"#utility.yul\":5097:5098   */\n      0x00\n        /* \"#utility.yul\":5090:5105   */\n      revert\n        /* \"#utility.yul\":5117:5437   */\n    tag_15:\n        /* \"#utility.yul\":5161:5167   */\n      0x00\n        /* \"#utility.yul\":5198:5199   */\n      0x02\n        /* \"#utility.yul\":5192:5196   */\n      dup3\n        /* \"#utility.yul\":5188:5200   */\n      div\n        /* \"#utility.yul\":5178:5200   */\n      swap1\n      pop\n        /* \"#utility.yul\":5245:5246   */\n      0x01\n        /* \"#utility.yul\":5239:5243   */\n      dup3\n        /* \"#utility.yul\":5235:5247   */\n      and\n        /* \"#utility.yul\":5266:5284   */\n      dup1\n        /* \"#utility.yul\":5256:5337   */\n      tag_119\n      jumpi\n        /* \"#utility.yul\":5322:5326   */\n      0x7f\n        /* \"#utility.yul\":5314:5320   */\n      dup3\n        /* \"#utility.yul\":5310:5327   */\n      and\n        /* \"#utility.yul\":5300:5327   */\n      swap2\n      pop\n        /* \"#utility.yul\":5256:5337   */\n    tag_119:\n        /* \"#utility.yul\":5384:5386   */\n      0x20\n        /* \"#utility.yul\":5376:5382   */\n      dup3\n        /* \"#utility.yul\":5373:5387   */\n      lt\n        /* \"#utility.yul\":5353:5371   */\n      dup2\n        /* \"#utility.yul\":5350:5388   */\n      sub\n        /* \"#utility.yul\":5347:5431   */\n      tag_120\n      jumpi\n        /* \"#utility.yul\":5403:5421   */\n      tag_121\n      tag_44\n      jump\t// in\n    tag_121:\n        /* \"#utility.yul\":5347:5431   */\n    tag_120:\n        /* \"#utility.yul\":5168:5437   */\n      pop\n        /* \"#utility.yul\":5117:5437   */\n      swap2\n      swap1\n      pop\n      jump\t// out\n        /* \"#utility.yul\":5443:5584   */\n    tag_45:\n        /* \"#utility.yul\":5492:5496   */\n      0x00\n        /* \"#utility.yul\":5515:5518   */\n      dup2\n        /* \"#utility.yul\":5507:5518   */\n      swap1\n      pop\n        /* \"#utility.yul\":5538:5541   */\n      dup2\n        /* \"#utility.yul\":5535:5536   */\n      0x00\n        /* \"#utility.yul\":5528:5542   */\n      mstore\n        /* \"#utility.yul\":5572:5576   */\n      0x20\n        /* \"#utility.yul\":5569:5570   */\n      0x00\n        /* \"#utility.yul\":5559:5577   */\n      keccak256\n        /* \"#utility.yul\":5551:5577   */\n      swap1\n      pop\n        /* \"#utility.yul\":5443:5584   */\n      swap2\n      swap1\n      pop\n      jump\t// out\n        /* \"#utility.yul\":5590:5683   */\n    tag_46:\n        /* \"#utility.yul\":5627:5633   */\n      0x00\n        /* \"#utility.yul\":5674:5676   */\n      0x20\n        /* \"#utility.yul\":5669:5671   */\n      0x1f\n        /* \"#utility.yul\":5662:5667   */\n      dup4\n        /* \"#utility.yul\":5658:5672   */\n      add\n        /* \"#utility.yul\":5654:5677   */\n      div\n        /* \"#utility.yul\":5644:5677   */\n      swap1\n      pop\n        /* \"#utility.yul\":5590:5683   */\n      swap2\n      swap1\n      pop\n      jump\t// out\n        /* \"#utility.yul\":5689:5796   */\n    tag_47:\n        /* \"#utility.yul\":5733:5741   */\n      0x00\n        /* \"#utility.yul\":5783:5788   */\n      dup3\n        /* \"#utility.yul\":5777:5781   */\n      dup3\n        /* \"#utility.yul\":5773:5789   */\n      shl\n        /* \"#utility.yul\":5752:5789   */\n      swap1\n      pop\n        /* \"#utility.yul\":5689:5796   */\n      swap3\n      swap2\n      pop\n      pop\n      jump\t// out\n        /* \"#utility.yul\":5802:6195   */\n    tag_48:\n        /* \"#utility.yul\":5871:5877   */\n      0x00\n        /* \"#utility.yul\":5921:5922   */\n      0x08\n        /* \"#utility.yul\":5909:5919   */\n      dup4\n        /* \"#utility.yul\":5905:5923   */\n      mul\n        /* \"#utility.yul\":5944:6041   */\n      tag_126\n        /* \"#utility.yul\":5974:6040   */\n      0xffffffffffffffffffffffffffffffffffffffffffffffffffffffffffffffff\n        /* \"#utility.yul\":5963:5972   */\n      dup3\n        /* \"#utility.yul\":5944:6041   */\n      tag_47\n      jump\t// in\n    tag_126:\n        /* \"#utility.yul\":6062:6101   */\n      tag_127\n        /* \"#utility.yul\":6092:6100   */\n      dup7\n        /* \"#utility.yul\":6081:6090   */\n      dup4\n        /* \"#utility.yul\":6062:6101   */\n      tag_47\n      jump\t// in\n    tag_127:\n        /* \"#utility.yul\":6050:6101   */\n      swap6\n      pop\n        /* \"#utility.yul\":6134:6138   */\n      dup1\n        /* \"#utility.yul\":6130:6139   */\n      not\n        /* \"#utility.yul\":6123:6128   */\n      dup5\n        /* \"#utility.yul\":6119:6140   */\n      and\n        /* \"#utility.yul\":6110:6140   */\n      swap4\n      pop\n        /* \"#utility.yul\":6183:6187   */\n      dup1\n        /* \"#utility.yul\":6173:6181   */\n      dup7\n        /* \"#utility.yul\":6169:6188   */\n      and\n        /* \"#utility.yul\":6162:6167   */\n      dup5\n        /* \"#utility.yul\":6159:6189   */\n      or\n        /* \"#utility.yul\":6149:6189   */\n      swap3\n      pop\n        /* \"#utility.yul\":5878:6195   */\n      pop\n      pop\n        /* \"#utility.yul\":5802:6195   */\n      swap4\n      swap3\n      pop\n      pop\n      pop\n      jump\t// out\n        /* \"#utility.yul\":6201:6278   */\n    tag_49:\n        /* \"#utility.yul\":6238:6245   */\n      0x00\n        /* \"#utility.yul\":6267:6272   */\n      dup2\n        /* \"#utility.yul\":6256:6272   */\n      swap1\n      pop\n        /* \"#utility.yul\":6201:6278   */\n      swap2\n      swap1\n      pop\n      jump\t// out\n        /* \"#utility.yul\":6284:6344   */\n    tag_50:\n        /* \"#utility.yul\":6312:6315   */\n      0x00\n        /* \"#utility.yul\":6333:6338   */\n      dup2\n        /* \"#utility.yul\":6326:6338   */\n      swap1\n      pop\n        /* \"#utility.yul\":6284:6344   */\n      swap2\n      swap1\n      pop\n      jump\t// out\n        /* \"#utility.yul\":6350:6492   */\n    tag_51:\n        /* \"#utility.yul\":6400:6409   */\n      0x00\n        /* \"#utility.yul\":6433:6486   */\n      tag_131\n        /* \"#utility.yul\":6451:6485   */\n      tag_132\n        /* \"#utility.yul\":6460:6484   */\n      tag_133\n        /* \"#utility.yul\":6478:6483   */\n      dup5\n        /* \"#utility.yul\":6460:6484   */\n      tag_49\n      jump\t// in\n    tag_133:\n        /* \"#utility.yul\":6451:6485   */\n      tag_50\n      jump\t// in\n    tag_132:\n        /* \"#utility.yul\":6433:6486   */\n      tag_49\n      jump\t// in\n    tag_131:\n        /* \"#utility.yul\":6420:6486   */\n      swap1\n      pop\n        /* \"#utility.yul\":6350:6492   */\n      swap2\n      swap1\n      pop\n      jump\t// out\n        /* \"#utility.yul\":6498:6573   */\n    tag_52:\n        /* \"#utility.yul\":6541:6544   */\n      0x00\n        /* \"#utility.yul\":6562:6567   */\n      dup2\n        /* \"#utility.yul\":6555:6567   */\n      swap1\n      pop\n        /* \"#utility.yul\":6498:6573   */\n      swap2\n      swap1\n      pop\n      jump\t// out\n        /* \"#utility.yul\":6579:6848   */\n    tag_53:\n        /* \"#utility.yul\":6689:6728   */\n      tag_136\n        /* \"#utility.yul\":6720:6727   */\n      dup4\n        /* \"#utility.yul\":6689:6728   */\n      tag_51\n      jump\t// in\n    tag_136:\n        /* \"#utility.yul\":6750:6841   */\n      tag_137\n        /* \"#utility.yul\":6799:6840   */\n      tag_138\n        /* \"#utility.yul\":6823:6839   */\n      dup3\n        /* \"#utility.yul\":6799:6840   */\n      tag_52\n      jump\t// in\n    tag_138:\n        /* \"#utility.yul\":6791:6797   */\n      dup5\n        /* \"#utility.yul\":6784:6788   */\n      dup5\n        /* \"#utility.yul\":6778:6789   */\n      sload\n        /* \"#utility.yul\":6750:6841   */\n      tag_48\n      jump\t// in\n    tag_137:\n        /* \"#utility.yul\":6744:6748   */\n      dup3\n        /* \"#utility.yul\":6737:6842   */\n      sstore\n        /* \"#utility.yul\":6655:6848   */\n      pop\n        /* \"#utility.yul\":6579:6848   */\n      pop\n      pop\n      pop\n      jump\t// out\n        /* \"#utility.yul\":6854:6927   */\n    tag_54:\n        /* \"#utility.yul\":6899:6902   */\n      0x00\n        /* \"#utility.yul\":6854:6927   */\n      swap1\n      jump\t// out\n        /* \"#utility.yul\":6933:7122   */\n    tag_55:\n        /* \"#utility.yul\":7010:7042   */\n      tag_141\n      tag_54\n      jump\t// in\n    tag_141:\n        /* \"#utility.yul\":7051:7116   */\n      tag_142\n        /* \"#utility.yul\":7109:7115   */\n      dup2\n        /* \"#utility.yul\":7101:7107   */\n      dup5\n        /* \"#utility.yul\":7095:7099   */\n      dup5\n        /* \"#utility.yul\":7051:7116   */\n      tag_53\n      jump\t// in\n    tag_142:\n        /* \"#utility.yul\":6986:7122   */\n      pop\n        /* \"#utility.yul\":6933:7122   */\n      pop\n      pop\n      jump\t// out\n        /* \"#utility.yul\":7128:7314   */\n    tag_56:\n        /* \"#utility.yul\":7188:7308   */\n    tag_144:\n        /* \"#utility.yul\":7205:7208   */\n      dup2\n        /* \"#utility.yul\":7198:7203   */\n      dup2\n        /* \"#utility.yul\":7195:7209   */\n      lt\n        /* \"#utility.yul\":7188:7308   */\n      iszero\n      tag_146\n      jumpi\n        /* \"#utility.yul\":7259:7298   */\n      tag_147\n        /* \"#utility.yul\":7296:7297   */\n      0x00\n        /* \"#utility.yul\":7289:7294   */\n      dup3\n        /* \"#utility.yul\":7259:7298   */\n      tag_55\n      jump\t// in\n    tag_147:\n        /* \"#utility.yul\":7232:7233   */\n      0x01\n        /* \"#utility.yul\":7225:7230   */\n      dup2\n        /* \"#utility.yul\":7221:7234   */\n      add\n        /* \"#utility.yul\":7212:7234   */\n      swap1\n      pop\n        /* \"#utility.yul\":7188:7308   */\n      jump(tag_144)\n    tag_146:\n        /* \"#utility.yul\":7128:7314   */\n      pop\n      pop\n      jump\t// out\n        /* \"#utility.yul\":7320:7863   */\n    tag_57:\n        /* \"#utility.yul\":7421:7423   */\n      0x1f\n        /* \"#utility.yul\":7416:7419   */\n      dup3\n        /* \"#utility.yul\":7413:7424   */\n      gt\n        /* \"#utility.yul\":7410:7856   */\n      iszero\n      tag_149\n      jumpi\n        /* \"#utility.yul\":7455:7493   */\n      tag_150\n        /* \"#utility.yul\":7487:7492   */\n      dup2\n        /* \"#utility.yul\":7455:7493   */\n      tag_45\n      jump\t// in\n    tag_150:\n        /* \"#utility.yul\":7539:7568   */\n      tag_151\n        /* \"#utility.yul\":7557:7567   */\n      dup5\n        /* \"#utility.yul\":7539:7568   */\n      tag_46\n      jump\t// in\n    tag_151:\n        /* \"#utility.yul\":7529:7537   */\n      dup2\n        /* \"#utility.yul\":7525:7569   */\n      add\n        /* \"#utility.yul\":7722:7724   */\n      0x20\n        /* \"#utility.yul\":7710:7720   */\n      dup6\n        /* \"#utility.yul\":7707:7725   */\n      lt\n        /* \"#utility.yul\":7704:7753   */\n      iszero\n      tag_152\n      jumpi\n        /* \"#utility.yul\":7743:7751   */\n      dup2\n        /* \"#utility.yul\":7728:7751   */\n      swap1\n      pop\n        /* \"#utility.yul\":7704:7753   */\n    tag_152:\n        /* \"#utility.yul\":7766:7846   */\n      tag_153\n        /* \"#utility.yul\":7822:7844   */\n      tag_154\n        /* \"#utility.yul\":7840:7843   */\n      dup6\n        /* \"#utility.yul\":7822:7844   */\n      tag_46\n      jump\t// in\n    tag_154:\n        /* \"#utility.yul\":7812:7820   */\n      dup4\n        /* \"#utility.yul\":7808:7845   */\n      add\n        /* \"#utility.yul\":7795:7806   */\n      dup3\n        /* \"#utility.yul\":7766:7846   */\n      tag_56\n      jump\t// in\n    tag_153:\n        /* \"#utility.yul\":7425:7856   */\n      pop\n      pop\n        /* \"#utility.yul\":7410:7856   */\n    tag_149:\n        /* \"#utility.yul\":7320:7863   */\n      pop\n      pop\n      pop\n      jump\t// out\n        /* \"#utility.yul\":7869:7986   */\n    tag_58:\n        /* \"#utility.yul\":7923:7931   */\n      0x00\n        /* \"#utility.yul\":7973:7978   */\n      dup3\n        /* \"#utility.yul\":7967:7971   */\n      dup3\n        /* \"#utility.yul\":7963:7979   */\n      shr\n        /* \"#utility.yul\":7942:7979   */\n      swap1\n      pop\n        /* \"#utility.yul\":7869:7986   */\n      swap3\n      swap2\n      pop\n      pop\n      jump\t// out\n        /* \"#utility.yul\":7992:8161   */\n    tag_59:\n        /* \"#utility.yul\":8036:8042   */\n      0x00\n        /* \"#utility.yul\":8069:8120   */\n      tag_157\n        /* \"#utility.yul\":8117:8118   */\n      0x00\n        /* \"#utility.yul\":8113:8119   */\n      not\n        /* \"#utility.yul\":8105:8110   */\n      dup5\n        /* \"#utility.yul\":8102:8103   */\n      0x08\n        /* \"#utility.yul\":8098:8111   */\n      mul\n        /* \"#utility.yul\":8069:8120   */\n      tag_58\n      jump\t// in\n    tag_157:\n        /* \"#utility.yul\":8065:8121   */\n      not\n        /* \"#utility.yul\":8150:8154   */\n      dup1\n        /* \"#utility.yul\":8144:8148   */\n      dup4\n        /* \"#utility.yul\":8140:8155   */\n      and\n        /* \"#utility.yul\":8130:8155   */\n      swap2\n      pop\n        /* \"#utility.yul\":8043:8161   */\n      pop\n        /* \"#utility.yul\":7992:8161   */\n      swap3\n      swap2\n      pop\n      pop\n      jump\t// out\n        /* \"#utility.yul\":8166:8461   */\n    tag_60:\n        /* \"#utility.yul\":8242:8246   */\n      0x00\n        /* \"#utility.yul\":8388:8417   */\n      tag_159\n        /* \"#utility.yul\":8413:8416   */\n      dup4\n        /* \"#utility.yul\":8407:8411   */\n      dup4\n        /* \"#utility.yul\":8388:8417   */\n      tag_59\n      jump\t// in\n    tag_159:\n        /* \"#utility.yul\":8380:8417   */\n      swap2\n      pop\n        /* \"#utility.yul\":8450:8453   */\n      dup3\n        /* \"#utility.yul\":8447:8448   */\n      0x02\n        /* \"#utility.yul\":8443:8454   */\n      mul\n        /* \"#utility.yul\":8437:8441   */\n      dup3\n        /* \"#utility.yul\":8434:8455   */\n      or\n        /* \"#utility.yul\":8426:8455   */\n      swap1\n      pop\n        /* \"#utility.yul\":8166:8461   */\n      swap3\n      swap2\n      pop\n      pop\n      jump\t// out\n        /* \"#utility.yul\":8466:9861   */\n    tag_22:\n        /* \"#utility.yul\":8583:8620   */\n      tag_161\n        /* \"#utility.yul\":8616:8619   */\n      dup3\n        /* \"#utility.yul\":8583:8620   */\n      tag_23\n      jump\t// in\n    tag_161:\n        /* \"#utility.yul\":8685:8703   */\n      0xffffffffffffffff\n        /* \"#utility.yul\":8677:8683   */\n      dup2\n        /* \"#utility.yul\":8674:8704   */\n      gt\n        /* \"#utility.yul\":8671:8727   */\n      iszero\n      tag_162\n      jumpi\n        /* \"#utility.yul\":8707:8725   */\n      tag_163\n      tag_35\n      jump\t// in\n    tag_163:\n        /* \"#utility.yul\":8671:8727   */\n    tag_162:\n        /* \"#utility.yul\":8751:8789   */\n      tag_164\n        /* \"#utility.yul\":8783:8787   */\n      dup3\n        /* \"#utility.yul\":8777:8788   */\n      sload\n        /* \"#utility.yul\":8751:8789   */\n      tag_15\n      jump\t// in\n    tag_164:\n        /* \"#utility.yul\":8836:8903   */\n      tag_165\n        /* \"#utility.yul\":8896:8902   */\n      dup3\n        /* \"#utility.yul\":8888:8894   */\n      dup3\n        /* \"#utility.yul\":8882:8886   */\n      dup6\n        /* \"#utility.yul\":8836:8903   */\n      tag_57\n      jump\t// in\n    tag_165:\n        /* \"#utility.yul\":8930:8931   */\n      0x00\n        /* \"#utility.yul\":8954:8958   */\n      0x20\n        /* \"#utility.yul\":8941:8958   */\n      swap1\n      pop\n        /* \"#utility.yul\":8986:8988   */\n      0x1f\n        /* \"#utility.yul\":8978:8984   */\n      dup4\n        /* \"#utility.yul\":8975:8989   */\n      gt\n        /* \"#utility.yul\":9003:9004   */\n      0x01\n        /* \"#utility.yul\":8998:9616   */\n      dup2\n      eq\n      tag_167\n      jumpi\n        /* \"#utility.yul\":9660:9661   */\n      0x00\n        /* \"#utility.yul\":9677:9683   */\n      dup5\n        /* \"#utility.yul\":9674:9751   */\n      iszero\n      tag_168\n      jumpi\n        /* \"#utility.yul\":9726:9735   */\n      dup3\n        /* \"#utility.yul\":9721:9724   */\n      dup8\n        /* \"#utility.yul\":9717:9736   */\n      add\n        /* \"#utility.yul\":9711:9737   */\n      mload\n        /* \"#utility.yul\":9702:9737   */\n      swap1\n      pop\n        /* \"#utility.yul\":9674:9751   */\n    tag_168:\n        /* \"#utility.yul\":9777:9844   */\n      tag_169\n        /* \"#utility.yul\":9837:9843   */\n      dup6\n        /* \"#utility.yul\":9830:9835   */\n      dup3\n        /* \"#utility.yul\":9777:9844   */\n      tag_60\n      jump\t// in\n    tag_169:\n        /* \"#utility.yul\":9771:9775   */\n      dup7\n        /* \"#utility.yul\":9764:9845   */\n      sstore\n        /* \"#utility.yul\":9633:9855   */\n      pop\n        /* \"#utility.yul\":8968:9855   */\n      jump(tag_166)\n        /* \"#utility.yul\":8998:9616   */\n    tag_167:\n        /* \"#utility.yul\":9050:9054   */\n      0x1f\n        /* \"#utility.yul\":9046:9055   */\n      not\n        /* \"#utility.yul\":9038:9044   */\n      dup5\n        /* \"#utility.yul\":9034:9056   */\n      and\n        /* \"#utility.yul\":9084:9121   */\n      tag_170\n        /* \"#utility.yul\":9116:9120   */\n      dup7\n        /* \"#utility.yul\":9084:9121   */\n      tag_45\n      jump\t// in\n    tag_170:\n        /* \"#utility.yul\":9143:9144   */\n      0x00\n        /* \"#utility.yul\":9157:9365   */\n    tag_171:\n        /* \"#utility.yul\":9171:9178   */\n      dup3\n        /* \"#utility.yul\":9168:9169   */\n      dup2\n        /* \"#utility.yul\":9165:9179   */\n      lt\n        /* \"#utility.yul\":9157:9365   */\n      iszero\n      tag_173\n      jumpi\n        /* \"#utility.yul\":9250:9259   */\n      dup5\n        /* \"#utility.yul\":9245:9248   */\n      dup10\n        /* \"#utility.yul\":9241:9260   */\n      add\n        /* \"#utility.yul\":9235:9261   */\n      mload\n        /* \"#utility.yul\":9227:9233   */\n      dup3\n        /* \"#utility.yul\":9220:9262   */\n      sstore\n        /* \"#utility.yul\":9301:9302   */\n      0x01\n        /* \"#utility.yul\":9293:9299   */\n      dup3\n        /* \"#utility.yul\":9289:9303   */\n      add\n        /* \"#utility.yul\":9279:9303   */\n      swap2\n      pop\n        /* \"#utility.yul\":9348:9350   */\n      0x20\n        /* \"#utility.yul\":9337:9346   */\n      dup6\n        /* \"#utility.yul\":9333:9351   */\n      add\n        /* \"#utility.yul\":9320:9351   */\n      swap5\n      pop\n        /* \"#utility.yul\":9194:9198   */\n      0x20\n        /* \"#utility.yul\":9191:9192   */\n      dup2\n        /* \"#utility.yul\":9187:9199   */\n      add\n        /* \"#utility.yul\":9182:9199   */\n      swap1\n      pop\n        /* \"#utility.yul\":9157:9365   */\n      jump(tag_171)\n    tag_173:\n        /* \"#utility.yul\":9393:9399   */\n      dup7\n        /* \"#utility.yul\":9384:9391   */\n      dup4\n        /* \"#utility.yul\":9381:9400   */\n      lt\n        /* \"#utility.yul\":9378:9557   */\n      iszero\n      tag_174\n      jumpi\n        /* \"#utility.yul\":9451:9460   */\n      dup5\n        /* \"#utility.yul\":9446:9449   */\n      dup10\n        /* \"#utility.yul\":9442:9461   */\n      add\n        /* \"#utility.yul\":9436:9462   */\n      mload\n        /* \"#utility.yul\":9494:9542   */\n      tag_175\n        /* \"#utility.yul\":9536:9540   */\n      0x1f\n        /* \"#utility.yul\":9528:9534   */\n      dup10\n        /* \"#utility.yul\":9524:9541   */\n      and\n        /* \"#utility.yul\":9513:9522   */\n      dup3\n        /* \"#utility.yul\":9494:9542   */\n      tag_59\n      jump\t// in\n    tag_175:\n        /* \"#utility.yul\":9486:9492   */\n      dup4\n        /* \"#utility.yul\":9479:9543   */\n      sstore\n        /* \"#utility.yul\":9401:9557   */\n      pop\n        /* \"#utility.yul\":9378:9557   */\n    tag_174:\n        /* \"#utility.yul\":9603:9604   */\n      0x01\n        /* \"#utility.yul\":9599:9600   */\n      0x02\n        /* \"#utility.yul\":9591:9597   */\n      dup9\n        /* \"#utility.yul\":9587:9601   */\n      mul\n        /* \"#utility.yul\":9583:9605   */\n      add\n        /* \"#utility.yul\":9577:9581   */\n      dup9\n        /* \"#utility.yul\":9570:9606   */\n      sstore\n        /* \"#utility.yul\":9005:9616   */\n      pop\n      pop\n      pop\n        /* \"#utility.yul\":8968:9855   */\n    tag_166:\n      pop\n        /* \"#utility.yul\":8558:9861   */\n      pop\n      pop\n      pop\n        /* \"#utility.yul\":8466:9861   */\n      pop\n      pop\n      jump\t// out\n\n    auxdata: 0xa2646970667358221220600298b01153b64989d5b2eaf9d5e263526eaf6872e7110b3de4b7de6b42711164736f6c634300081a0033\n}\n",
				"bytecode": {
					"linkReferences": {},
					"object": "6080604052348015600e575f80fd5b506106cb8061001c5f395ff3fe608060405234801561000f575f80fd5b5060043610610034575f3560e01c8063ce6d41de14610038578063dcedb33914610057575b5f80fd5b610040610073565b60405161004e9291906101d4565b60405180910390f35b610071600480360381019061006c9190610369565b610119565b005b60605f8060015f9054906101000a900461ffff16818054610093906103f0565b80601f01602080910402602001604051908101604052809291908181526020018280546100bf906103f0565b801561010a5780601f106100e15761010080835404028352916020019161010a565b820191905f5260205f20905b8154815290600101906020018083116100ed57829003601f168201915b50505050509150915091509091565b815f908161012791906105c6565b508060015f6101000a81548161ffff021916908361ffff1602179055505050565b5f81519050919050565b5f82825260208201905092915050565b8281835e5f83830152505050565b5f601f19601f8301169050919050565b5f61018a82610148565b6101948185610152565b93506101a4818560208601610162565b6101ad81610170565b840191505092915050565b5f61ffff82169050919050565b6101ce816101b8565b82525050565b5f6040820190508181035f8301526101ec8185610180565b90506101fb60208301846101c5565b9392505050565b5f604051905090565b5f80fd5b5f80fd5b5f80fd5b5f80fd5b7f4e487b71000000000000000000000000000000000000000000000000000000005f52604160045260245ffd5b61025182610170565b810181811067ffffffffffffffff821117156102705761026f61021b565b5b80604052505050565b5f610282610202565b905061028e8282610248565b919050565b5f67ffffffffffffffff8211156102ad576102ac61021b565b5b6102b682610170565b9050602081019050919050565b828183375f83830152505050565b5f6102e36102de84610293565b610279565b9050828152602081018484840111156102ff576102fe610217565b5b61030a8482856102c3565b509392505050565b5f82601f83011261032657610325610213565b5b81356103368482602086016102d1565b91505092915050565b610348816101b8565b8114610352575f80fd5b50565b5f813590506103638161033f565b92915050565b5f806040838503121561037f5761037e61020b565b5b5f83013567ffffffffffffffff81111561039c5761039b61020f565b5b6103a885828601610312565b92505060206103b985828601610355565b9150509250929050565b7f4e487b71000000000000000000000000000000000000000000000000000000005f52602260045260245ffd5b5f600282049050600182168061040757607f821691505b60208210810361041a576104196103c3565b5b50919050565b5f819050815f5260205f209050919050565b5f6020601f8301049050919050565b5f82821b905092915050565b5f6008830261047c7fffffffffffffffffffffffffffffffffffffffffffffffffffffffffffffffff82610441565b6104868683610441565b95508019841693508086168417925050509392505050565b5f819050919050565b5f819050919050565b5f6104ca6104c56104c08461049e565b6104a7565b61049e565b9050919050565b5f819050919050565b6104e3836104b0565b6104f76104ef826104d1565b84845461044d565b825550505050565b5f90565b61050b6104ff565b6105168184846104da565b505050565b5b818110156105395761052e5f82610503565b60018101905061051c565b5050565b601f82111561057e5761054f81610420565b61055884610432565b81016020851015610567578190505b61057b61057385610432565b83018261051b565b50505b505050565b5f82821c905092915050565b5f61059e5f1984600802610583565b1980831691505092915050565b5f6105b6838361058f565b9150826002028217905092915050565b6105cf82610148565b67ffffffffffffffff8111156105e8576105e761021b565b5b6105f282546103f0565b6105fd82828561053d565b5f60209050601f83116001811461062e575f841561061c578287015190505b61062685826105ab565b86555061068d565b601f19841661063c86610420565b5f5b828110156106635784890151825560018201915060208501945060208101905061063e565b86831015610680578489015161067c601f89168261058f565b8355505b6001600288020188555050505b50505050505056fea2646970667358221220600298b01153b64989d5b2eaf9d5e263526eaf6872e7110b3de4b7de6b42711164736f6c634300081a0033",
					"opcodes": "PUSH1 0x80 PUSH1 0x40 MSTORE CALLVALUE DUP1 ISZERO PUSH1 0xE JUMPI PUSH0 DUP1 REVERT JUMPDEST POP PUSH2 0x6CB DUP1 PUSH2 0x1C PUSH0 CODECOPY PUSH0 RETURN INVALID PUSH1 0x80 PUSH1 0x40 MSTORE CALLVALUE DUP1 ISZERO PUSH2 0xF JUMPI PUSH0 DUP1 REVERT JUMPDEST POP PUSH1 0x4 CALLDATASIZE LT PUSH2 0x34 JUMPI PUSH0 CALLDATALOAD PUSH1 0xE0 SHR DUP1 PUSH4 0xCE6D41DE EQ PUSH2 0x38 JUMPI DUP1 PUSH4 0xDCEDB339 EQ PUSH2 0x57 JUMPI JUMPDEST PUSH0 DUP1 REVERT JUMPDEST PUSH2 0x40 PUSH2 0x73 JUMP JUMPDEST PUSH1 0x40 MLOAD PUSH2 0x4E SWAP3 SWAP2 SWAP1 PUSH2 0x1D4 JUMP JUMPDEST PUSH1 0x40 MLOAD DUP1 SWAP2 SUB SWAP1 RETURN JUMPDEST PUSH2 0x71 PUSH1 0x4 DUP1 CALLDATASIZE SUB DUP2 ADD SWAP1 PUSH2 0x6C SWAP2 SWAP1 PUSH2 0x369 JUMP JUMPDEST PUSH2 0x119 JUMP JUMPDEST STOP JUMPDEST PUSH1 0x60 PUSH0 DUP1 PUSH1 0x1 PUSH0 SWAP1 SLOAD SWAP1 PUSH2 0x100 EXP SWAP1 DIV PUSH2 0xFFFF AND DUP2 DUP1 SLOAD PUSH2 0x93 SWAP1 PUSH2 0x3F0 JUMP JUMPDEST DUP1 PUSH1 0x1F ADD PUSH1 0x20 DUP1 SWAP2 DIV MUL PUSH1 0x20 ADD PUSH1 0x40 MLOAD SWAP1 DUP2 ADD PUSH1 0x40 MSTORE DUP1 SWAP3 SWAP2 SWAP1 DUP2 DUP2 MSTORE PUSH1 0x20 ADD DUP3 DUP1 SLOAD PUSH2 0xBF SWAP1 PUSH2 0x3F0 JUMP JUMPDEST DUP1 ISZERO PUSH2 0x10A JUMPI DUP1 PUSH1 0x1F LT PUSH2 0xE1 JUMPI PUSH2 0x100 DUP1 DUP4 SLOAD DIV MUL DUP4 MSTORE SWAP2 PUSH1 0x20 ADD SWAP2 PUSH2 0x10A JUMP JUMPDEST DUP3 ADD SWAP2 SWAP1 PUSH0 MSTORE PUSH1 0x20 PUSH0 KECCAK256 SWAP1 JUMPDEST DUP2 SLOAD DUP2 MSTORE SWAP1 PUSH1 0x1 ADD SWAP1 PUSH1 0x20 ADD DUP1 DUP4 GT PUSH2 0xED JUMPI DUP3 SWAP1 SUB PUSH1 0x1F AND DUP3 ADD SWAP2 JUMPDEST POP POP POP POP POP SWAP2 POP SWAP2 POP SWAP2 POP SWAP1 SWAP2 JUMP JUMPDEST DUP2 PUSH0 SWAP1 DUP2 PUSH2 0x127 SWAP2 SWAP1 PUSH2 0x5C6 JUMP JUMPDEST POP DUP1 PUSH1 0x1 PUSH0 PUSH2 0x100 EXP DUP2 SLOAD DUP2 PUSH2 0xFFFF MUL NOT AND SWAP1 DUP4 PUSH2 0xFFFF AND MUL OR SWAP1 SSTORE POP POP POP JUMP JUMPDEST PUSH0 DUP2 MLOAD SWAP1 POP SWAP2 SWAP1 POP JUMP JUMPDEST PUSH0 DUP3 DUP3 MSTORE PUSH1 0x20 DUP3 ADD SWAP1 POP SWAP3 SWAP2 POP POP JUMP JUMPDEST DUP3 DUP2 DUP4 MCOPY PUSH0 DUP4 DUP4 ADD MSTORE POP POP POP JUMP JUMPDEST PUSH0 PUSH1 0x1F NOT PUSH1 0x1F DUP4 ADD AND SWAP1 POP SWAP2 SWAP1 POP JUMP JUMPDEST PUSH0 PUSH2 0x18A DUP3 PUSH2 0x148 JUMP JUMPDEST PUSH2 0x194 DUP2 DUP6 PUSH2 0x152 JUMP JUMPDEST SWAP4 POP PUSH2 0x1A4 DUP2 DUP6 PUSH1 0x20 DUP7 ADD PUSH2 0x162 JUMP JUMPDEST PUSH2 0x1AD DUP2 PUSH2 0x170 JUMP JUMPDEST DUP5 ADD SWAP2 POP POP SWAP3 SWAP2 POP POP JUMP JUMPDEST PUSH0 PUSH2 0xFFFF DUP3 AND SWAP1 POP SWAP2 SWAP1 POP JUMP JUMPDEST PUSH2 0x1CE DUP2 PUSH2 0x1B8 JUMP JUMPDEST DUP3 MSTORE POP POP JUMP JUMPDEST PUSH0 PUSH1 0x40 DUP3 ADD SWAP1 POP DUP2 DUP2 SUB PUSH0 DUP4 ADD MSTORE PUSH2 0x1EC DUP2 DUP6 PUSH2 0x180 JUMP JUMPDEST SWAP1 POP PUSH2 0x1FB PUSH1 0x20 DUP4 ADD DUP5 PUSH2 0x1C5 JUMP JUMPDEST SWAP4 SWAP3 POP POP POP JUMP JUMPDEST PUSH0 PUSH1 0x40 MLOAD SWAP1 POP SWAP1 JUMP JUMPDEST PUSH0 DUP1 REVERT JUMPDEST PUSH0 DUP1 REVERT JUMPDEST PUSH0 DUP1 REVERT JUMPDEST PUSH0 DUP1 REVERT JUMPDEST PUSH32 0x4E487B7100000000000000000000000000000000000000000000000000000000 PUSH0 MSTORE PUSH1 0x41 PUSH1 0x4 MSTORE PUSH1 0x24 PUSH0 REVERT JUMPDEST PUSH2 0x251 DUP3 PUSH2 0x170 JUMP JUMPDEST DUP2 ADD DUP2 DUP2 LT PUSH8 0xFFFFFFFFFFFFFFFF DUP3 GT OR ISZERO PUSH2 0x270 JUMPI PUSH2 0x26F PUSH2 0x21B JUMP JUMPDEST JUMPDEST DUP1 PUSH1 0x40 MSTORE POP POP POP JUMP JUMPDEST PUSH0 PUSH2 0x282 PUSH2 0x202 JUMP JUMPDEST SWAP1 POP PUSH2 0x28E DUP3 DUP3 PUSH2 0x248 JUMP JUMPDEST SWAP2 SWAP1 POP JUMP JUMPDEST PUSH0 PUSH8 0xFFFFFFFFFFFFFFFF DUP3 GT ISZERO PUSH2 0x2AD JUMPI PUSH2 0x2AC PUSH2 0x21B JUMP JUMPDEST JUMPDEST PUSH2 0x2B6 DUP3 PUSH2 0x170 JUMP JUMPDEST SWAP1 POP PUSH1 0x20 DUP2 ADD SWAP1 POP SWAP2 SWAP1 POP JUMP JUMPDEST DUP3 DUP2 DUP4 CALLDATACOPY PUSH0 DUP4 DUP4 ADD MSTORE POP POP POP JUMP JUMPDEST PUSH0 PUSH2 0x2E3 PUSH2 0x2DE DUP5 PUSH2 0x293 JUMP JUMPDEST PUSH2 0x279 JUMP JUMPDEST SWAP1 POP DUP3 DUP2 MSTORE PUSH1 0x20 DUP2 ADD DUP5 DUP5 DUP5 ADD GT ISZERO PUSH2 0x2FF JUMPI PUSH2 0x2FE PUSH2 0x217 JUMP JUMPDEST JUMPDEST PUSH2 0x30A DUP5 DUP3 DUP6 PUSH2 0x2C3 JUMP JUMPDEST POP SWAP4 SWAP3 POP POP POP JUMP JUMPDEST PUSH0 DUP3 PUSH1 0x1F DUP4 ADD SLT PUSH2 0x326 JUMPI PUSH2 0x325 PUSH2 0x213 JUMP JUMPDEST JUMPDEST DUP2 CALLDATALOAD PUSH2 0x336 DUP5 DUP3 PUSH1 0x20 DUP7 ADD PUSH2 0x2D1 JUMP JUMPDEST SWAP2 POP POP SWAP3 SWAP2 POP POP JUMP JUMPDEST PUSH2 0x348 DUP2 PUSH2 0x1B8 JUMP JUMPDEST DUP2 EQ PUSH2 0x352 JUMPI PUSH0 DUP1 REVERT JUMPDEST POP JUMP JUMPDEST PUSH0 DUP2 CALLDATALOAD SWAP1 POP PUSH2 0x363 DUP2 PUSH2 0x33F JUMP JUMPDEST SWAP3 SWAP2 POP POP JUMP JUMPDEST PUSH0 DUP1 PUSH1 0x40 DUP4 DUP6 SUB SLT ISZERO PUSH2 0x37F JUMPI PUSH2 0x37E PUSH2 0x20B JUMP JUMPDEST JUMPDEST PUSH0 DUP4 ADD CALLDATALOAD PUSH8 0xFFFFFFFFFFFFFFFF DUP2 GT ISZERO PUSH2 0x39C JUMPI PUSH2 0x39B PUSH2 0x20F JUMP JUMPDEST JUMPDEST PUSH2 0x3A8 DUP6 DUP3 DUP7 ADD PUSH2 0x312 JUMP JUMPDEST SWAP3 POP POP PUSH1 0x20 PUSH2 0x3B9 DUP6 DUP3 DUP7 ADD PUSH2 0x355 JUMP JUMPDEST SWAP2 POP POP SWAP3 POP SWAP3 SWAP1 POP JUMP JUMPDEST PUSH32 0x4E487B7100000000000000000000000000000000000000000000000000000000 PUSH0 MSTORE PUSH1 0x22 PUSH1 0x4 MSTORE PUSH1 0x24 PUSH0 REVERT JUMPDEST PUSH0 PUSH1 0x2 DUP3 DIV SWAP1 POP PUSH1 0x1 DUP3 AND DUP1 PUSH2 0x407 JUMPI PUSH1 0x7F DUP3 AND SWAP2 POP JUMPDEST PUSH1 0x20 DUP3 LT DUP2 SUB PUSH2 0x41A JUMPI PUSH2 0x419 PUSH2 0x3C3 JUMP JUMPDEST JUMPDEST POP SWAP2 SWAP1 POP JUMP JUMPDEST PUSH0 DUP2 SWAP1 POP DUP2 PUSH0 MSTORE PUSH1 0x20 PUSH0 KECCAK256 SWAP1 POP SWAP2 SWAP1 POP JUMP JUMPDEST PUSH0 PUSH1 0x20 PUSH1 0x1F DUP4 ADD DIV SWAP1 POP SWAP2 SWAP1 POP JUMP JUMPDEST PUSH0 DUP3 DUP3 SHL SWAP1 POP SWAP3 SWAP2 POP POP JUMP JUMPDEST PUSH0 PUSH1 0x8 DUP4 MUL PUSH2 0x47C PUSH32 0xFFFFFFFFFFFFFFFFFFFFFFFFFFFFFFFFFFFFFFFFFFFFFFFFFFFFFFFFFFFFFFFF DUP3 PUSH2 0x441 JUMP JUMPDEST PUSH2 0x486 DUP7 DUP4 PUSH2 0x441 JUMP JUMPDEST SWAP6 POP DUP1 NOT DUP5 AND SWAP4 POP DUP1 DUP7 AND DUP5 OR SWAP3 POP POP POP SWAP4 SWAP3 POP POP POP JUMP JUMPDEST PUSH0 DUP2 SWAP1 POP SWAP2 SWAP1 POP JUMP JUMPDEST PUSH0 DUP2 SWAP1 POP SWAP2 SWAP1 POP JUMP JUMPDEST PUSH0 PUSH2 0x4CA PUSH2 0x4C5 PUSH2 0x4C0 DUP5 PUSH2 0x49E JUMP JUMPDEST PUSH2 0x4A7 JUMP JUMPDEST PUSH2 0x49E JUMP JUMPDEST SWAP1 POP SWAP2 SWAP1 POP JUMP JUMPDEST PUSH0 DUP2 SWAP1 POP SWAP2 SWAP1 POP JUMP JUMPDEST PUSH2 0x4E3 DUP4 PUSH2 0x4B0 JUMP JUMPDEST PUSH2 0x4F7 PUSH2 0x4EF DUP3 PUSH2 0x4D1 JUMP JUMPDEST DUP5 DUP5 SLOAD PUSH2 0x44D JUMP JUMPDEST DUP3 SSTORE POP POP POP POP JUMP JUMPDEST PUSH0 SWAP1 JUMP JUMPDEST PUSH2 0x50B PUSH2 0x4FF JUMP JUMPDEST PUSH2 0x516 DUP2 DUP5 DUP5 PUSH2 0x4DA JUMP JUMPDEST POP POP POP JUMP JUMPDEST JUMPDEST DUP2 DUP2 LT ISZERO PUSH2 0x539 JUMPI PUSH2 0x52E PUSH0 DUP3 PUSH2 0x503 JUMP JUMPDEST PUSH1 0x1 DUP2 ADD SWAP1 POP PUSH2 0x51C JUMP JUMPDEST POP POP JUMP JUMPDEST PUSH1 0x1F DUP3 GT ISZERO PUSH2 0x57E JUMPI PUSH2 0x54F DUP2 PUSH2 0x420 JUMP JUMPDEST PUSH2 0x558 DUP5 PUSH2 0x432 JUMP JUMPDEST DUP2 ADD PUSH1 0x20 DUP6 LT ISZERO PUSH2 0x567 JUMPI DUP2 SWAP1 POP JUMPDEST PUSH2 0x57B PUSH2 0x573 DUP6 PUSH2 0x432 JUMP JUMPDEST DUP4 ADD DUP3 PUSH2 0x51B JUMP JUMPDEST POP POP JUMPDEST POP POP POP JUMP JUMPDEST PUSH0 DUP3 DUP3 SHR SWAP1 POP SWAP3 SWAP2 POP POP JUMP JUMPDEST PUSH0 PUSH2 0x59E PUSH0 NOT DUP5 PUSH1 0x8 MUL PUSH2 0x583 JUMP JUMPDEST NOT DUP1 DUP4 AND SWAP2 POP POP SWAP3 SWAP2 POP POP JUMP JUMPDEST PUSH0 PUSH2 0x5B6 DUP4 DUP4 PUSH2 0x58F JUMP JUMPDEST SWAP2 POP DUP3 PUSH1 0x2 MUL DUP3 OR SWAP1 POP SWAP3 SWAP2 POP POP JUMP JUMPDEST PUSH2 0x5CF DUP3 PUSH2 0x148 JUMP JUMPDEST PUSH8 0xFFFFFFFFFFFFFFFF DUP2 GT ISZERO PUSH2 0x5E8 JUMPI PUSH2 0x5E7 PUSH2 0x21B JUMP JUMPDEST JUMPDEST PUSH2 0x5F2 DUP3 SLOAD PUSH2 0x3F0 JUMP JUMPDEST PUSH2 0x5FD DUP3 DUP3 DUP6 PUSH2 0x53D JUMP JUMPDEST PUSH0 PUSH1 0x20 SWAP1 POP PUSH1 0x1F DUP4 GT PUSH1 0x1 DUP2 EQ PUSH2 0x62E JUMPI PUSH0 DUP5 ISZERO PUSH2 0x61C JUMPI DUP3 DUP8 ADD MLOAD SWAP1 POP JUMPDEST PUSH2 0x626 DUP6 DUP3 PUSH2 0x5AB JUMP JUMPDEST DUP7 SSTORE POP PUSH2 0x68D JUMP JUMPDEST PUSH1 0x1F NOT DUP5 AND PUSH2 0x63C DUP7 PUSH2 0x420 JUMP JUMPDEST PUSH0 JUMPDEST DUP3 DUP2 LT ISZERO PUSH2 0x663 JUMPI DUP5 DUP10 ADD MLOAD DUP3 SSTORE PUSH1 0x1 DUP3 ADD SWAP2 POP PUSH1 0x20 DUP6 ADD SWAP5 POP PUSH1 0x20 DUP2 ADD SWAP1 POP PUSH2 0x63E JUMP JUMPDEST DUP7 DUP4 LT ISZERO PUSH2 0x680 JUMPI DUP5 DUP10 ADD MLOAD PUSH2 0x67C PUSH1 0x1F DUP10 AND DUP3 PUSH2 0x58F JUMP JUMPDEST DUP4 SSTORE POP JUMPDEST PUSH1 0x1 PUSH1 0x2 DUP9 MUL ADD DUP9 SSTORE POP POP POP JUMPDEST POP POP POP POP POP POP JUMP INVALID LOG2 PUSH5 0x6970667358 0x22 SLT KECCAK256 PUSH1 0x2 SWAP9 0xB0 GT MSTORE8 0xB6 BLOBHASH DUP10 0xD5 0xB2 0xEA 0xF9 0xD5 0xE2 PUSH4 0x526EAF68 PUSH19 0xE7110B3DE4B7DE6B42711164736F6C63430008 BYTE STOP CALLER "
				},
				"gasEstimates": {
					"creation": {
						"codeDepositCost": "347800",
						"executionCost": "384",
						"totalCost": "348184"
					},
					"external": {
						"getMessage()": "infinite",
						"setMessage(string,uint16)": "infinite"
					}
				},
				"methodIdentifiers": {
					"getMessage()": "ce6d41de",
					"setMessage(string,uint16)": "dcedb339"
				}
			},
			"storageLayout": {
				"storage": [
					{
						"astId": 3,
						"contract": "MyBook.sol:MyBook",
						"label": "title",
						"offset": 0,
						"slot": "0",
						"type": "t_string_storage"
					},
					{
						"astId": 5,
						"contract": "MyBook.sol:MyBook",
						"label": "price",
						"offset": 0,
						"slot": "1",
						"type": "t_uint16"
					}
				],
				"types": {
					"t_string_storage": {
						"encoding": "bytes",
						"label": "string",
						"numberOfBytes": "32"
					},
					"t_uint16": {
						"encoding": "inplace",
						"label": "uint16",
						"numberOfBytes": "2"
					}
				}
			},
			"userdoc": {
				"kind": "user",
				"methods": {},
				"version": 1
			}
		}
	}
}