{
	"Remix/Aution.sol": {
		"Aution": {
			"abi": [
				{
					"inputs": [],
					"stateMutability": "nonpayable",
					"type": "constructor"
				},
				{
					"inputs": [
						{
							"internalType": "uint16",
							"name": "_id",
							"type": "uint16"
						}
					],
					"name": "aution",
					"outputs": [],
					"stateMutability": "payable",
					"type": "function"
				},
				{
					"inputs": [
						{
							"internalType": "uint16",
							"name": "_id",
							"type": "uint16"
						}
					],
					"name": "caraution",
					"outputs": [
						{
							"internalType": "string",
							"name": "car",
							"type": "string"
						},
						{
							"internalType": "string",
							"name": "model",
							"type": "string"
						},
						{
							"internalType": "uint16",
							"name": "price",
							"type": "uint16"
						}
					],
					"stateMutability": "view",
					"type": "function"
				},
				{
					"inputs": [
						{
							"internalType": "uint16",
							"name": "_id",
							"type": "uint16"
						},
						{
							"internalType": "string",
							"name": "_car",
							"type": "string"
						},
						{
							"internalType": "string",
							"name": "_model",
							"type": "string"
						},
						{
							"internalType": "uint16",
							"name": "_price",
							"type": "uint16"
						}
					],
					"name": "issue",
					"outputs": [],
					"stateMutability": "nonpayable",
					"type": "function"
				}
			],
			"devdoc": {
				"kind": "dev",
				"methods": {},
				"version": 1
			},
			"evm": {
				"assembly": "    /* \"Remix/Aution.sol\":57:1032  contract Aution{... */\n  mstore(0x40, 0x80)\n    /* \"Remix/Aution.sol\":299:345  constructor(){... */\n  callvalue\n  dup1\n  iszero\n  tag_1\n  jumpi\n  0x00\n  dup1\n  revert\ntag_1:\n  pop\n    /* \"Remix/Aution.sol\":328:338  msg.sender */\n  caller\n    /* \"Remix/Aution.sol\":322:327  admin */\n  0x00\n  dup1\n    /* \"Remix/Aution.sol\":322:338  admin=msg.sender */\n  0x0100\n  exp\n  dup2\n  sload\n  dup2\n  0xffffffffffffffffffffffffffffffffffffffff\n  mul\n  not\n  and\n  swap1\n  dup4\n  0xffffffffffffffffffffffffffffffffffffffff\n  and\n  mul\n  or\n  swap1\n  sstore\n  pop\n    /* \"Remix/Aution.sol\":57:1032  contract Aution{... */\n  dataSize(sub_0)\n  dup1\n  dataOffset(sub_0)\n  0x00\n  codecopy\n  0x00\n  return\nstop\n\nsub_0: assembly {\n        /* \"Remix/Aution.sol\":57:1032  contract Aution{... */\n      mstore(0x40, 0x80)\n      jumpi(tag_1, lt(calldatasize, 0x04))\n      shr(0xe0, calldataload(0x00))\n      dup1\n      0xaf55fa66\n      eq\n      tag_2\n      jumpi\n      dup1\n      0xcdd266b3\n      eq\n      tag_3\n      jumpi\n      dup1\n      0xf68542b2\n      eq\n      tag_4\n      jumpi\n    tag_1:\n      0x00\n      dup1\n      revert\n        /* \"Remix/Aution.sol\":641:1030  function aution(uint16 _id)public payable {... */\n    tag_2:\n      tag_5\n      0x04\n      dup1\n      calldatasize\n      sub\n      dup2\n      add\n      swap1\n      tag_6\n      swap2\n      swap1\n      tag_7\n      jump\t// in\n    tag_6:\n      tag_8\n      jump\t// in\n    tag_5:\n      stop\n        /* \"Remix/Aution.sol\":243:292  mapping (uint16 _id => carAution)public caraution */\n    tag_3:\n      callvalue\n      dup1\n      iszero\n      tag_9\n      jumpi\n      0x00\n      dup1\n      revert\n    tag_9:\n      pop\n      tag_10\n      0x04\n      dup1\n      calldatasize\n      sub\n      dup2\n      add\n      swap1\n      tag_11\n      swap2\n      swap1\n      tag_7\n      jump\t// in\n    tag_11:\n      tag_12\n      jump\t// in\n    tag_10:\n      mload(0x40)\n      tag_13\n      swap4\n      swap3\n      swap2\n      swap1\n      tag_14\n      jump\t// in\n    tag_13:\n      mload(0x40)\n      dup1\n      swap2\n      sub\n      swap1\n      return\n        /* \"Remix/Aution.sol\":444:636  function issue(uint16 _id,string memory _car,string memory _model,uint16 _price)public onlyAdmin{... */\n    tag_4:\n      callvalue\n      dup1\n      iszero\n      tag_15\n      jumpi\n      0x00\n      dup1\n      revert\n    tag_15:\n      pop\n      tag_16\n      0x04\n      dup1\n      calldatasize\n      sub\n      dup2\n      add\n      swap1\n      tag_17\n      swap2\n      swap1\n      tag_18\n      jump\t// in\n    tag_17:\n      tag_19\n      jump\t// in\n    tag_16:\n      stop\n        /* \"Remix/Aution.sol\":641:1030  function aution(uint16 _id)public payable {... */\n    tag_8:\n        /* \"Remix/Aution.sol\":706:715  caraution */\n      0x03\n        /* \"Remix/Aution.sol\":706:720  caraution[_id] */\n      0x00\n        /* \"Remix/Aution.sol\":716:719  _id */\n      dup3\n        /* \"Remix/Aution.sol\":706:720  caraution[_id] */\n      0xffff\n      and\n      0xffff\n      and\n      dup2\n      mstore\n      0x20\n      add\n      swap1\n      dup2\n      mstore\n      0x20\n      add\n      0x00\n      keccak256\n        /* \"Remix/Aution.sol\":706:726  caraution[_id].price */\n      0x02\n      add\n      0x00\n      swap1\n      sload\n      swap1\n      0x0100\n      exp\n      swap1\n      div\n      0xffff\n      and\n        /* \"Remix/Aution.sol\":696:726  msg.value>caraution[_id].price */\n      0xffff\n      and\n        /* \"Remix/Aution.sol\":696:705  msg.value */\n      callvalue\n        /* \"Remix/Aution.sol\":696:726  msg.value>caraution[_id].price */\n      gt\n        /* \"Remix/Aution.sol\":693:1024  if(msg.value>caraution[_id].price){... */\n      iszero\n      tag_21\n      jumpi\n        /* \"Remix/Aution.sol\":741:749  uint bal */\n      0x00\n        /* \"Remix/Aution.sol\":760:769  caraution */\n      0x03\n        /* \"Remix/Aution.sol\":760:774  caraution[_id] */\n      0x00\n        /* \"Remix/Aution.sol\":770:773  _id */\n      dup4\n        /* \"Remix/Aution.sol\":760:774  caraution[_id] */\n      0xffff\n      and\n      0xffff\n      and\n      dup2\n      mstore\n      0x20\n      add\n      swap1\n      dup2\n      mstore\n      0x20\n      add\n      0x00\n      keccak256\n        /* \"Remix/Aution.sol\":760:780  caraution[_id].price */\n      0x02\n      add\n      0x00\n      swap1\n      sload\n      swap1\n      0x0100\n      exp\n      swap1\n      div\n      0xffff\n      and\n        /* \"Remix/Aution.sol\":750:780  msg.value-caraution[_id].price */\n      0xffff\n      and\n        /* \"Remix/Aution.sol\":750:759  msg.value */\n      callvalue\n        /* \"Remix/Aution.sol\":750:780  msg.value-caraution[_id].price */\n      tag_22\n      swap2\n      swap1\n      tag_23\n      jump\t// in\n    tag_22:\n        /* \"Remix/Aution.sol\":741:780  uint bal=msg.value-caraution[_id].price */\n      swap1\n      pop\n        /* \"Remix/Aution.sol\":801:802  0 */\n      0x00\n        /* \"Remix/Aution.sol\":797:800  bal */\n      dup2\n        /* \"Remix/Aution.sol\":797:802  bal>0 */\n      gt\n        /* \"Remix/Aution.sol\":794:854  if(bal>0)... */\n      iszero\n      tag_24\n      jumpi\n        /* \"Remix/Aution.sol\":829:839  msg.sender */\n      caller\n        /* \"Remix/Aution.sol\":820:849  payable (msg.sender).transfer */\n      0xffffffffffffffffffffffffffffffffffffffff\n      and\n        /* \"Remix/Aution.sol\":820:854  payable (msg.sender).transfer(bal) */\n      0x08fc\n        /* \"Remix/Aution.sol\":850:853  bal */\n      dup3\n        /* \"Remix/Aution.sol\":820:854  payable (msg.sender).transfer(bal) */\n      swap1\n      dup2\n      iszero\n      mul\n      swap1\n      mload(0x40)\n      0x00\n      mload(0x40)\n      dup1\n      dup4\n      sub\n      dup2\n      dup6\n      dup9\n      dup9\n      call\n      swap4\n      pop\n      pop\n      pop\n      pop\n      iszero\n      dup1\n      iszero\n      tag_26\n      jumpi\n      returndatasize\n      0x00\n      dup1\n      returndatacopy\n      revert(0x00, returndatasize)\n    tag_26:\n      pop\n        /* \"Remix/Aution.sol\":794:854  if(bal>0)... */\n    tag_24:\n        /* \"Remix/Aution.sol\":879:889  msg.sender */\n      caller\n        /* \"Remix/Aution.sol\":873:878  owner */\n      0x01\n      0x00\n        /* \"Remix/Aution.sol\":873:889  owner=msg.sender */\n      0x0100\n      exp\n      dup2\n      sload\n      dup2\n      0xffffffffffffffffffffffffffffffffffffffff\n      mul\n      not\n      and\n      swap1\n      dup4\n      0xffffffffffffffffffffffffffffffffffffffff\n      and\n      mul\n      or\n      swap1\n      sstore\n      pop\n        /* \"Remix/Aution.sol\":727:900  {... */\n      pop\n        /* \"Remix/Aution.sol\":693:1024  if(msg.value>caraution[_id].price){... */\n      jump(tag_27)\n    tag_21:\n        /* \"Remix/Aution.sol\":928:933  buyer */\n      0x02\n      0x00\n      swap1\n      sload\n      swap1\n      0x0100\n      exp\n      swap1\n      div\n      0xffffffffffffffffffffffffffffffffffffffff\n      and\n        /* \"Remix/Aution.sol\":919:943  payable (buyer).transfer */\n      0xffffffffffffffffffffffffffffffffffffffff\n      and\n        /* \"Remix/Aution.sol\":919:954  payable (buyer).transfer(msg.value) */\n      0x08fc\n        /* \"Remix/Aution.sol\":944:953  msg.value */\n      callvalue\n        /* \"Remix/Aution.sol\":919:954  payable (buyer).transfer(msg.value) */\n      swap1\n      dup2\n      iszero\n      mul\n      swap1\n      mload(0x40)\n      0x00\n      mload(0x40)\n      dup1\n      dup4\n      sub\n      dup2\n      dup6\n      dup9\n      dup9\n      call\n      swap4\n      pop\n      pop\n      pop\n      pop\n      iszero\n      dup1\n      iszero\n      tag_29\n      jumpi\n      returndatasize\n      0x00\n      dup1\n      returndatacopy\n      revert(0x00, returndatasize)\n    tag_29:\n      pop\n        /* \"Remix/Aution.sol\":968:1013  revert(\"Insufficient funds .amount refunded\") */\n      mload(0x40)\n      0x08c379a000000000000000000000000000000000000000000000000000000000\n      dup2\n      mstore\n      0x04\n      add\n      tag_30\n      swap1\n      tag_31\n      jump\t// in\n    tag_30:\n      mload(0x40)\n      dup1\n      swap2\n      sub\n      swap1\n      revert\n        /* \"Remix/Aution.sol\":693:1024  if(msg.value>caraution[_id].price){... */\n    tag_27:\n        /* \"Remix/Aution.sol\":641:1030  function aution(uint16 _id)public payable {... */\n      pop\n      jump\t// out\n        /* \"Remix/Aution.sol\":243:292  mapping (uint16 _id => carAution)public caraution */\n    tag_12:\n      mstore(0x20, 0x03)\n      dup1\n      0x00\n      mstore\n      keccak256(0x00, 0x40)\n      0x00\n      swap2\n      pop\n      swap1\n      pop\n      dup1\n      0x00\n      add\n      dup1\n      sload\n      tag_32\n      swap1\n      tag_33\n      jump\t// in\n    tag_32:\n      dup1\n      0x1f\n      add\n      0x20\n      dup1\n      swap2\n      div\n      mul\n      0x20\n      add\n      mload(0x40)\n      swap1\n      dup2\n      add\n      0x40\n      mstore\n      dup1\n      swap3\n      swap2\n      swap1\n      dup2\n      dup2\n      mstore\n      0x20\n      add\n      dup3\n      dup1\n      sload\n      tag_34\n      swap1\n      tag_33\n      jump\t// in\n    tag_34:\n      dup1\n      iszero\n      tag_35\n      jumpi\n      dup1\n      0x1f\n      lt\n      tag_36\n      jumpi\n      0x0100\n      dup1\n      dup4\n      sload\n      div\n      mul\n      dup4\n      mstore\n      swap2\n      0x20\n      add\n      swap2\n      jump(tag_35)\n    tag_36:\n      dup3\n      add\n      swap2\n      swap1\n      0x00\n      mstore\n      keccak256(0x00, 0x20)\n      swap1\n    tag_37:\n      dup2\n      sload\n      dup2\n      mstore\n      swap1\n      0x01\n      add\n      swap1\n      0x20\n      add\n      dup1\n      dup4\n      gt\n      tag_37\n      jumpi\n      dup3\n      swap1\n      sub\n      0x1f\n      and\n      dup3\n      add\n      swap2\n    tag_35:\n      pop\n      pop\n      pop\n      pop\n      pop\n      swap1\n      dup1\n      0x01\n      add\n      dup1\n      sload\n      tag_38\n      swap1\n      tag_33\n      jump\t// in\n    tag_38:\n      dup1\n      0x1f\n      add\n      0x20\n      dup1\n      swap2\n      div\n      mul\n      0x20\n      add\n      mload(0x40)\n      swap1\n      dup2\n      add\n      0x40\n      mstore\n      dup1\n      swap3\n      swap2\n      swap1\n      dup2\n      dup2\n      mstore\n      0x20\n      add\n      dup3\n      dup1\n      sload\n      tag_39\n      swap1\n      tag_33\n      jump\t// in\n    tag_39:\n      dup1\n      iszero\n      tag_40\n      jumpi\n      dup1\n      0x1f\n      lt\n      tag_41\n      jumpi\n      0x0100\n      dup1\n      dup4\n      sload\n      div\n      mul\n      dup4\n      mstore\n      swap2\n      0x20\n      add\n      swap2\n      jump(tag_40)\n    tag_41:\n      dup3\n      add\n      swap2\n      swap1\n      0x00\n      mstore\n      keccak256(0x00, 0x20)\n      swap1\n    tag_42:\n      dup2\n      sload\n      dup2\n      mstore\n      swap1\n      0x01\n      add\n      swap1\n      0x20\n      add\n      dup1\n      dup4\n      gt\n      tag_42\n      jumpi\n      dup3\n      swap1\n      sub\n      0x1f\n      and\n      dup3\n      add\n      swap2\n    tag_40:\n      pop\n      pop\n      pop\n      pop\n      pop\n      swap1\n      dup1\n      0x02\n      add\n      0x00\n      swap1\n      sload\n      swap1\n      0x0100\n      exp\n      swap1\n      div\n      0xffff\n      and\n      swap1\n      pop\n      dup4\n      jump\t// out\n        /* \"Remix/Aution.sol\":444:636  function issue(uint16 _id,string memory _car,string memory _model,uint16 _price)public onlyAdmin{... */\n    tag_19:\n        /* \"Remix/Aution.sol\":400:405  admin */\n      0x00\n      dup1\n      sload\n      swap1\n      0x0100\n      exp\n      swap1\n      div\n      0xffffffffffffffffffffffffffffffffffffffff\n      and\n        /* \"Remix/Aution.sol\":388:405  msg.sender==admin */\n      0xffffffffffffffffffffffffffffffffffffffff\n      and\n        /* \"Remix/Aution.sol\":388:398  msg.sender */\n      caller\n        /* \"Remix/Aution.sol\":388:405  msg.sender==admin */\n      0xffffffffffffffffffffffffffffffffffffffff\n      and\n      eq\n        /* \"Remix/Aution.sol\":380:421  require(msg.sender==admin,\"Unauthorized\") */\n      tag_44\n      jumpi\n      mload(0x40)\n      0x08c379a000000000000000000000000000000000000000000000000000000000\n      dup2\n      mstore\n      0x04\n      add\n      tag_45\n      swap1\n      tag_46\n      jump\t// in\n    tag_45:\n      mload(0x40)\n      dup1\n      swap2\n      sub\n      swap1\n      revert\n    tag_44:\n        /* \"Remix/Aution.sol\":569:598  carAution(_car,_model,_price) */\n      mload(0x40)\n      dup1\n      0x60\n      add\n      0x40\n      mstore\n      dup1\n        /* \"Remix/Aution.sol\":579:583  _car */\n      dup5\n        /* \"Remix/Aution.sol\":569:598  carAution(_car,_model,_price) */\n      dup2\n      mstore\n      0x20\n      add\n        /* \"Remix/Aution.sol\":584:590  _model */\n      dup4\n        /* \"Remix/Aution.sol\":569:598  carAution(_car,_model,_price) */\n      dup2\n      mstore\n      0x20\n      add\n        /* \"Remix/Aution.sol\":591:597  _price */\n      dup3\n        /* \"Remix/Aution.sol\":569:598  carAution(_car,_model,_price) */\n      0xffff\n      and\n      dup2\n      mstore\n      pop\n        /* \"Remix/Aution.sol\":554:563  caraution */\n      0x03\n        /* \"Remix/Aution.sol\":554:568  caraution[_id] */\n      0x00\n        /* \"Remix/Aution.sol\":564:567  _id */\n      dup7\n        /* \"Remix/Aution.sol\":554:568  caraution[_id] */\n      0xffff\n      and\n      0xffff\n      and\n      dup2\n      mstore\n      0x20\n      add\n      swap1\n      dup2\n      mstore\n      0x20\n      add\n      0x00\n      keccak256\n        /* \"Remix/Aution.sol\":554:598  caraution[_id]=carAution(_car,_model,_price) */\n      0x00\n      dup3\n      add\n      mload\n      dup2\n      0x00\n      add\n      swap1\n      dup2\n      tag_48\n      swap2\n      swap1\n      tag_49\n      jump\t// in\n    tag_48:\n      pop\n      0x20\n      dup3\n      add\n      mload\n      dup2\n      0x01\n      add\n      swap1\n      dup2\n      tag_50\n      swap2\n      swap1\n      tag_49\n      jump\t// in\n    tag_50:\n      pop\n      0x40\n      dup3\n      add\n      mload\n      dup2\n      0x02\n      add\n      exp(0x0100, 0x00)\n      dup2\n      sload\n      dup2\n      0xffff\n      mul\n      not\n      and\n      swap1\n      dup4\n      0xffff\n      and\n      mul\n      or\n      swap1\n      sstore\n      pop\n      swap1\n      pop\n      pop\n        /* \"Remix/Aution.sol\":618:628  msg.sender */\n      caller\n        /* \"Remix/Aution.sol\":612:617  owner */\n      0x01\n      0x00\n        /* \"Remix/Aution.sol\":612:628  owner=msg.sender */\n      0x0100\n      exp\n      dup2\n      sload\n      dup2\n      0xffffffffffffffffffffffffffffffffffffffff\n      mul\n      not\n      and\n      swap1\n      dup4\n      0xffffffffffffffffffffffffffffffffffffffff\n      and\n      mul\n      or\n      swap1\n      sstore\n      pop\n        /* \"Remix/Aution.sol\":444:636  function issue(uint16 _id,string memory _car,string memory _model,uint16 _price)public onlyAdmin{... */\n      pop\n      pop\n      pop\n      pop\n      jump\t// out\n        /* \"#utility.yul\":7:82   */\n    tag_51:\n        /* \"#utility.yul\":40:46   */\n      0x00\n        /* \"#utility.yul\":73:75   */\n      0x40\n        /* \"#utility.yul\":67:76   */\n      mload\n        /* \"#utility.yul\":57:76   */\n      swap1\n      pop\n        /* \"#utility.yul\":7:82   */\n      swap1\n      jump\t// out\n        /* \"#utility.yul\":88:205   */\n    tag_52:\n        /* \"#utility.yul\":197:198   */\n      0x00\n        /* \"#utility.yul\":194:195   */\n      dup1\n        /* \"#utility.yul\":187:199   */\n      revert\n        /* \"#utility.yul\":211:328   */\n    tag_53:\n        /* \"#utility.yul\":320:321   */\n      0x00\n        /* \"#utility.yul\":317:318   */\n      dup1\n        /* \"#utility.yul\":310:322   */\n      revert\n        /* \"#utility.yul\":334:423   */\n    tag_54:\n        /* \"#utility.yul\":370:377   */\n      0x00\n        /* \"#utility.yul\":410:416   */\n      0xffff\n        /* \"#utility.yul\":403:408   */\n      dup3\n        /* \"#utility.yul\":399:417   */\n      and\n        /* \"#utility.yul\":388:417   */\n      swap1\n      pop\n        /* \"#utility.yul\":334:423   */\n      swap2\n      swap1\n      pop\n      jump\t// out\n        /* \"#utility.yul\":429:549   */\n    tag_55:\n        /* \"#utility.yul\":501:524   */\n      tag_100\n        /* \"#utility.yul\":518:523   */\n      dup2\n        /* \"#utility.yul\":501:524   */\n      tag_54\n      jump\t// in\n    tag_100:\n        /* \"#utility.yul\":494:499   */\n      dup2\n        /* \"#utility.yul\":491:525   */\n      eq\n        /* \"#utility.yul\":481:543   */\n      tag_101\n      jumpi\n        /* \"#utility.yul\":539:540   */\n      0x00\n        /* \"#utility.yul\":536:537   */\n      dup1\n        /* \"#utility.yul\":529:541   */\n      revert\n        /* \"#utility.yul\":481:543   */\n    tag_101:\n        /* \"#utility.yul\":429:549   */\n      pop\n      jump\t// out\n        /* \"#utility.yul\":555:692   */\n    tag_56:\n        /* \"#utility.yul\":600:605   */\n      0x00\n        /* \"#utility.yul\":638:644   */\n      dup2\n        /* \"#utility.yul\":625:645   */\n      calldataload\n        /* \"#utility.yul\":616:645   */\n      swap1\n      pop\n        /* \"#utility.yul\":654:686   */\n      tag_103\n        /* \"#utility.yul\":680:685   */\n      dup2\n        /* \"#utility.yul\":654:686   */\n      tag_55\n      jump\t// in\n    tag_103:\n        /* \"#utility.yul\":555:692   */\n      swap3\n      swap2\n      pop\n      pop\n      jump\t// out\n        /* \"#utility.yul\":698:1025   */\n    tag_7:\n        /* \"#utility.yul\":756:762   */\n      0x00\n        /* \"#utility.yul\":805:807   */\n      0x20\n        /* \"#utility.yul\":793:802   */\n      dup3\n        /* \"#utility.yul\":784:791   */\n      dup5\n        /* \"#utility.yul\":780:803   */\n      sub\n        /* \"#utility.yul\":776:808   */\n      slt\n        /* \"#utility.yul\":773:892   */\n      iszero\n      tag_105\n      jumpi\n        /* \"#utility.yul\":811:890   */\n      tag_106\n      tag_52\n      jump\t// in\n    tag_106:\n        /* \"#utility.yul\":773:892   */\n    tag_105:\n        /* \"#utility.yul\":931:932   */\n      0x00\n        /* \"#utility.yul\":956:1008   */\n      tag_107\n        /* \"#utility.yul\":1000:1007   */\n      dup5\n        /* \"#utility.yul\":991:997   */\n      dup3\n        /* \"#utility.yul\":980:989   */\n      dup6\n        /* \"#utility.yul\":976:998   */\n      add\n        /* \"#utility.yul\":956:1008   */\n      tag_56\n      jump\t// in\n    tag_107:\n        /* \"#utility.yul\":946:1008   */\n      swap2\n      pop\n        /* \"#utility.yul\":902:1018   */\n      pop\n        /* \"#utility.yul\":698:1025   */\n      swap3\n      swap2\n      pop\n      pop\n      jump\t// out\n        /* \"#utility.yul\":1031:1130   */\n    tag_57:\n        /* \"#utility.yul\":1083:1089   */\n      0x00\n        /* \"#utility.yul\":1117:1122   */\n      dup2\n        /* \"#utility.yul\":1111:1123   */\n      mload\n        /* \"#utility.yul\":1101:1123   */\n      swap1\n      pop\n        /* \"#utility.yul\":1031:1130   */\n      swap2\n      swap1\n      pop\n      jump\t// out\n        /* \"#utility.yul\":1136:1305   */\n    tag_58:\n        /* \"#utility.yul\":1220:1231   */\n      0x00\n        /* \"#utility.yul\":1254:1260   */\n      dup3\n        /* \"#utility.yul\":1249:1252   */\n      dup3\n        /* \"#utility.yul\":1242:1261   */\n      mstore\n        /* \"#utility.yul\":1294:1298   */\n      0x20\n        /* \"#utility.yul\":1289:1292   */\n      dup3\n        /* \"#utility.yul\":1285:1299   */\n      add\n        /* \"#utility.yul\":1270:1299   */\n      swap1\n      pop\n        /* \"#utility.yul\":1136:1305   */\n      swap3\n      swap2\n      pop\n      pop\n      jump\t// out\n        /* \"#utility.yul\":1311:1450   */\n    tag_59:\n        /* \"#utility.yul\":1400:1406   */\n      dup3\n        /* \"#utility.yul\":1395:1398   */\n      dup2\n        /* \"#utility.yul\":1390:1393   */\n      dup4\n        /* \"#utility.yul\":1384:1407   */\n      mcopy\n        /* \"#utility.yul\":1441:1442   */\n      0x00\n        /* \"#utility.yul\":1432:1438   */\n      dup4\n        /* \"#utility.yul\":1427:1430   */\n      dup4\n        /* \"#utility.yul\":1423:1439   */\n      add\n        /* \"#utility.yul\":1416:1443   */\n      mstore\n        /* \"#utility.yul\":1311:1450   */\n      pop\n      pop\n      pop\n      jump\t// out\n        /* \"#utility.yul\":1456:1558   */\n    tag_60:\n        /* \"#utility.yul\":1497:1503   */\n      0x00\n        /* \"#utility.yul\":1548:1550   */\n      0x1f\n        /* \"#utility.yul\":1544:1551   */\n      not\n        /* \"#utility.yul\":1539:1541   */\n      0x1f\n        /* \"#utility.yul\":1532:1537   */\n      dup4\n        /* \"#utility.yul\":1528:1542   */\n      add\n        /* \"#utility.yul\":1524:1552   */\n      and\n        /* \"#utility.yul\":1514:1552   */\n      swap1\n      pop\n        /* \"#utility.yul\":1456:1558   */\n      swap2\n      swap1\n      pop\n      jump\t// out\n        /* \"#utility.yul\":1564:1941   */\n    tag_61:\n        /* \"#utility.yul\":1652:1655   */\n      0x00\n        /* \"#utility.yul\":1680:1719   */\n      tag_113\n        /* \"#utility.yul\":1713:1718   */\n      dup3\n        /* \"#utility.yul\":1680:1719   */\n      tag_57\n      jump\t// in\n    tag_113:\n        /* \"#utility.yul\":1735:1806   */\n      tag_114\n        /* \"#utility.yul\":1799:1805   */\n      dup2\n        /* \"#utility.yul\":1794:1797   */\n      dup6\n        /* \"#utility.yul\":1735:1806   */\n      tag_58\n      jump\t// in\n    tag_114:\n        /* \"#utility.yul\":1728:1806   */\n      swap4\n      pop\n        /* \"#utility.yul\":1815:1880   */\n      tag_115\n        /* \"#utility.yul\":1873:1879   */\n      dup2\n        /* \"#utility.yul\":1868:1871   */\n      dup6\n        /* \"#utility.yul\":1861:1865   */\n      0x20\n        /* \"#utility.yul\":1854:1859   */\n      dup7\n        /* \"#utility.yul\":1850:1866   */\n      add\n        /* \"#utility.yul\":1815:1880   */\n      tag_59\n      jump\t// in\n    tag_115:\n        /* \"#utility.yul\":1905:1934   */\n      tag_116\n        /* \"#utility.yul\":1927:1933   */\n      dup2\n        /* \"#utility.yul\":1905:1934   */\n      tag_60\n      jump\t// in\n    tag_116:\n        /* \"#utility.yul\":1900:1903   */\n      dup5\n        /* \"#utility.yul\":1896:1935   */\n      add\n        /* \"#utility.yul\":1889:1935   */\n      swap2\n      pop\n        /* \"#utility.yul\":1656:1941   */\n      pop\n        /* \"#utility.yul\":1564:1941   */\n      swap3\n      swap2\n      pop\n      pop\n      jump\t// out\n        /* \"#utility.yul\":1947:2062   */\n    tag_62:\n        /* \"#utility.yul\":2032:2055   */\n      tag_118\n        /* \"#utility.yul\":2049:2054   */\n      dup2\n        /* \"#utility.yul\":2032:2055   */\n      tag_54\n      jump\t// in\n    tag_118:\n        /* \"#utility.yul\":2027:2030   */\n      dup3\n        /* \"#utility.yul\":2020:2056   */\n      mstore\n        /* \"#utility.yul\":1947:2062   */\n      pop\n      pop\n      jump\t// out\n        /* \"#utility.yul\":2068:2688   */\n    tag_14:\n        /* \"#utility.yul\":2255:2259   */\n      0x00\n        /* \"#utility.yul\":2293:2295   */\n      0x60\n        /* \"#utility.yul\":2282:2291   */\n      dup3\n        /* \"#utility.yul\":2278:2296   */\n      add\n        /* \"#utility.yul\":2270:2296   */\n      swap1\n      pop\n        /* \"#utility.yul\":2342:2351   */\n      dup2\n        /* \"#utility.yul\":2336:2340   */\n      dup2\n        /* \"#utility.yul\":2332:2352   */\n      sub\n        /* \"#utility.yul\":2328:2329   */\n      0x00\n        /* \"#utility.yul\":2317:2326   */\n      dup4\n        /* \"#utility.yul\":2313:2330   */\n      add\n        /* \"#utility.yul\":2306:2353   */\n      mstore\n        /* \"#utility.yul\":2370:2448   */\n      tag_120\n        /* \"#utility.yul\":2443:2447   */\n      dup2\n        /* \"#utility.yul\":2434:2440   */\n      dup7\n        /* \"#utility.yul\":2370:2448   */\n      tag_61\n      jump\t// in\n    tag_120:\n        /* \"#utility.yul\":2362:2448   */\n      swap1\n      pop\n        /* \"#utility.yul\":2495:2504   */\n      dup2\n        /* \"#utility.yul\":2489:2493   */\n      dup2\n        /* \"#utility.yul\":2485:2505   */\n      sub\n        /* \"#utility.yul\":2480:2482   */\n      0x20\n        /* \"#utility.yul\":2469:2478   */\n      dup4\n        /* \"#utility.yul\":2465:2483   */\n      add\n        /* \"#utility.yul\":2458:2506   */\n      mstore\n        /* \"#utility.yul\":2523:2601   */\n      tag_121\n        /* \"#utility.yul\":2596:2600   */\n      dup2\n        /* \"#utility.yul\":2587:2593   */\n      dup6\n        /* \"#utility.yul\":2523:2601   */\n      tag_61\n      jump\t// in\n    tag_121:\n        /* \"#utility.yul\":2515:2601   */\n      swap1\n      pop\n        /* \"#utility.yul\":2611:2681   */\n      tag_122\n        /* \"#utility.yul\":2677:2679   */\n      0x40\n        /* \"#utility.yul\":2666:2675   */\n      dup4\n        /* \"#utility.yul\":2662:2680   */\n      add\n        /* \"#utility.yul\":2653:2659   */\n      dup5\n        /* \"#utility.yul\":2611:2681   */\n      tag_62\n      jump\t// in\n    tag_122:\n        /* \"#utility.yul\":2068:2688   */\n      swap5\n      swap4\n      pop\n      pop\n      pop\n      pop\n      jump\t// out\n        /* \"#utility.yul\":2694:2811   */\n    tag_63:\n        /* \"#utility.yul\":2803:2804   */\n      0x00\n        /* \"#utility.yul\":2800:2801   */\n      dup1\n        /* \"#utility.yul\":2793:2805   */\n      revert\n        /* \"#utility.yul\":2817:2934   */\n    tag_64:\n        /* \"#utility.yul\":2926:2927   */\n      0x00\n        /* \"#utility.yul\":2923:2924   */\n      dup1\n        /* \"#utility.yul\":2916:2928   */\n      revert\n        /* \"#utility.yul\":2940:3120   */\n    tag_65:\n        /* \"#utility.yul\":2988:3065   */\n      0x4e487b7100000000000000000000000000000000000000000000000000000000\n        /* \"#utility.yul\":2985:2986   */\n      0x00\n        /* \"#utility.yul\":2978:3066   */\n      mstore\n        /* \"#utility.yul\":3085:3089   */\n      0x41\n        /* \"#utility.yul\":3082:3083   */\n      0x04\n        /* \"#utility.yul\":3075:3090   */\n      mstore\n        /* \"#utility.yul\":3109:3113   */\n      0x24\n        /* \"#utility.yul\":3106:3107   */\n      0x00\n        /* \"#utility.yul\":3099:3114   */\n      revert\n        /* \"#utility.yul\":3126:3407   */\n    tag_66:\n        /* \"#utility.yul\":3209:3236   */\n      tag_127\n        /* \"#utility.yul\":3231:3235   */\n      dup3\n        /* \"#utility.yul\":3209:3236   */\n      tag_60\n      jump\t// in\n    tag_127:\n        /* \"#utility.yul\":3201:3207   */\n      dup2\n        /* \"#utility.yul\":3197:3237   */\n      add\n        /* \"#utility.yul\":3339:3345   */\n      dup2\n        /* \"#utility.yul\":3327:3337   */\n      dup2\n        /* \"#utility.yul\":3324:3346   */\n      lt\n        /* \"#utility.yul\":3303:3321   */\n      0xffffffffffffffff\n        /* \"#utility.yul\":3291:3301   */\n      dup3\n        /* \"#utility.yul\":3288:3322   */\n      gt\n        /* \"#utility.yul\":3285:3347   */\n      or\n        /* \"#utility.yul\":3282:3370   */\n      iszero\n      tag_128\n      jumpi\n        /* \"#utility.yul\":3350:3368   */\n      tag_129\n      tag_65\n      jump\t// in\n    tag_129:\n        /* \"#utility.yul\":3282:3370   */\n    tag_128:\n        /* \"#utility.yul\":3390:3400   */\n      dup1\n        /* \"#utility.yul\":3386:3388   */\n      0x40\n        /* \"#utility.yul\":3379:3401   */\n      mstore\n        /* \"#utility.yul\":3169:3407   */\n      pop\n        /* \"#utility.yul\":3126:3407   */\n      pop\n      pop\n      jump\t// out\n        /* \"#utility.yul\":3413:3542   */\n    tag_67:\n        /* \"#utility.yul\":3447:3453   */\n      0x00\n        /* \"#utility.yul\":3474:3494   */\n      tag_131\n      tag_51\n      jump\t// in\n    tag_131:\n        /* \"#utility.yul\":3464:3494   */\n      swap1\n      pop\n        /* \"#utility.yul\":3503:3536   */\n      tag_132\n        /* \"#utility.yul\":3531:3535   */\n      dup3\n        /* \"#utility.yul\":3523:3529   */\n      dup3\n        /* \"#utility.yul\":3503:3536   */\n      tag_66\n      jump\t// in\n    tag_132:\n        /* \"#utility.yul\":3413:3542   */\n      swap2\n      swap1\n      pop\n      jump\t// out\n        /* \"#utility.yul\":3548:3856   */\n    tag_68:\n        /* \"#utility.yul\":3610:3614   */\n      0x00\n        /* \"#utility.yul\":3700:3718   */\n      0xffffffffffffffff\n        /* \"#utility.yul\":3692:3698   */\n      dup3\n        /* \"#utility.yul\":3689:3719   */\n      gt\n        /* \"#utility.yul\":3686:3742   */\n      iszero\n      tag_134\n      jumpi\n        /* \"#utility.yul\":3722:3740   */\n      tag_135\n      tag_65\n      jump\t// in\n    tag_135:\n        /* \"#utility.yul\":3686:3742   */\n    tag_134:\n        /* \"#utility.yul\":3760:3789   */\n      tag_136\n        /* \"#utility.yul\":3782:3788   */\n      dup3\n        /* \"#utility.yul\":3760:3789   */\n      tag_60\n      jump\t// in\n    tag_136:\n        /* \"#utility.yul\":3752:3789   */\n      swap1\n      pop\n        /* \"#utility.yul\":3844:3848   */\n      0x20\n        /* \"#utility.yul\":3838:3842   */\n      dup2\n        /* \"#utility.yul\":3834:3849   */\n      add\n        /* \"#utility.yul\":3826:3849   */\n      swap1\n      pop\n        /* \"#utility.yul\":3548:3856   */\n      swap2\n      swap1\n      pop\n      jump\t// out\n        /* \"#utility.yul\":3862:4010   */\n    tag_69:\n        /* \"#utility.yul\":3960:3966   */\n      dup3\n        /* \"#utility.yul\":3955:3958   */\n      dup2\n        /* \"#utility.yul\":3950:3953   */\n      dup4\n        /* \"#utility.yul\":3937:3967   */\n      calldatacopy\n        /* \"#utility.yul\":4001:4002   */\n      0x00\n        /* \"#utility.yul\":3992:3998   */\n      dup4\n        /* \"#utility.yul\":3987:3990   */\n      dup4\n        /* \"#utility.yul\":3983:3999   */\n      add\n        /* \"#utility.yul\":3976:4003   */\n      mstore\n        /* \"#utility.yul\":3862:4010   */\n      pop\n      pop\n      pop\n      jump\t// out\n        /* \"#utility.yul\":4016:4441   */\n    tag_70:\n        /* \"#utility.yul\":4094:4099   */\n      0x00\n        /* \"#utility.yul\":4119:4185   */\n      tag_139\n        /* \"#utility.yul\":4135:4184   */\n      tag_140\n        /* \"#utility.yul\":4177:4183   */\n      dup5\n        /* \"#utility.yul\":4135:4184   */\n      tag_68\n      jump\t// in\n    tag_140:\n        /* \"#utility.yul\":4119:4185   */\n      tag_67\n      jump\t// in\n    tag_139:\n        /* \"#utility.yul\":4110:4185   */\n      swap1\n      pop\n        /* \"#utility.yul\":4208:4214   */\n      dup3\n        /* \"#utility.yul\":4201:4206   */\n      dup2\n        /* \"#utility.yul\":4194:4215   */\n      mstore\n        /* \"#utility.yul\":4246:4250   */\n      0x20\n        /* \"#utility.yul\":4239:4244   */\n      dup2\n        /* \"#utility.yul\":4235:4251   */\n      add\n        /* \"#utility.yul\":4284:4287   */\n      dup5\n        /* \"#utility.yul\":4275:4281   */\n      dup5\n        /* \"#utility.yul\":4270:4273   */\n      dup5\n        /* \"#utility.yul\":4266:4282   */\n      add\n        /* \"#utility.yul\":4263:4288   */\n      gt\n        /* \"#utility.yul\":4260:4372   */\n      iszero\n      tag_141\n      jumpi\n        /* \"#utility.yul\":4291:4370   */\n      tag_142\n      tag_64\n      jump\t// in\n    tag_142:\n        /* \"#utility.yul\":4260:4372   */\n    tag_141:\n        /* \"#utility.yul\":4381:4435   */\n      tag_143\n        /* \"#utility.yul\":4428:4434   */\n      dup5\n        /* \"#utility.yul\":4423:4426   */\n      dup3\n        /* \"#utility.yul\":4418:4421   */\n      dup6\n        /* \"#utility.yul\":4381:4435   */\n      tag_69\n      jump\t// in\n    tag_143:\n        /* \"#utility.yul\":4100:4441   */\n      pop\n        /* \"#utility.yul\":4016:4441   */\n      swap4\n      swap3\n      pop\n      pop\n      pop\n      jump\t// out\n        /* \"#utility.yul\":4461:4801   */\n    tag_71:\n        /* \"#utility.yul\":4517:4522   */\n      0x00\n        /* \"#utility.yul\":4566:4569   */\n      dup3\n        /* \"#utility.yul\":4559:4563   */\n      0x1f\n        /* \"#utility.yul\":4551:4557   */\n      dup4\n        /* \"#utility.yul\":4547:4564   */\n      add\n        /* \"#utility.yul\":4543:4570   */\n      slt\n        /* \"#utility.yul\":4533:4655   */\n      tag_145\n      jumpi\n        /* \"#utility.yul\":4574:4653   */\n      tag_146\n      tag_63\n      jump\t// in\n    tag_146:\n        /* \"#utility.yul\":4533:4655   */\n    tag_145:\n        /* \"#utility.yul\":4691:4697   */\n      dup2\n        /* \"#utility.yul\":4678:4698   */\n      calldataload\n        /* \"#utility.yul\":4716:4795   */\n      tag_147\n        /* \"#utility.yul\":4791:4794   */\n      dup5\n        /* \"#utility.yul\":4783:4789   */\n      dup3\n        /* \"#utility.yul\":4776:4780   */\n      0x20\n        /* \"#utility.yul\":4768:4774   */\n      dup7\n        /* \"#utility.yul\":4764:4781   */\n      add\n        /* \"#utility.yul\":4716:4795   */\n      tag_70\n      jump\t// in\n    tag_147:\n        /* \"#utility.yul\":4707:4795   */\n      swap2\n      pop\n        /* \"#utility.yul\":4523:4801   */\n      pop\n        /* \"#utility.yul\":4461:4801   */\n      swap3\n      swap2\n      pop\n      pop\n      jump\t// out\n        /* \"#utility.yul\":4807:5928   */\n    tag_18:\n        /* \"#utility.yul\":4911:4917   */\n      0x00\n        /* \"#utility.yul\":4919:4925   */\n      dup1\n        /* \"#utility.yul\":4927:4933   */\n      0x00\n        /* \"#utility.yul\":4935:4941   */\n      dup1\n        /* \"#utility.yul\":4984:4987   */\n      0x80\n        /* \"#utility.yul\":4972:4981   */\n      dup6\n        /* \"#utility.yul\":4963:4970   */\n      dup8\n        /* \"#utility.yul\":4959:4982   */\n      sub\n        /* \"#utility.yul\":4955:4988   */\n      slt\n        /* \"#utility.yul\":4952:5072   */\n      iszero\n      tag_149\n      jumpi\n        /* \"#utility.yul\":4991:5070   */\n      tag_150\n      tag_52\n      jump\t// in\n    tag_150:\n        /* \"#utility.yul\":4952:5072   */\n    tag_149:\n        /* \"#utility.yul\":5111:5112   */\n      0x00\n        /* \"#utility.yul\":5136:5188   */\n      tag_151\n        /* \"#utility.yul\":5180:5187   */\n      dup8\n        /* \"#utility.yul\":5171:5177   */\n      dup3\n        /* \"#utility.yul\":5160:5169   */\n      dup9\n        /* \"#utility.yul\":5156:5178   */\n      add\n        /* \"#utility.yul\":5136:5188   */\n      tag_56\n      jump\t// in\n    tag_151:\n        /* \"#utility.yul\":5126:5188   */\n      swap5\n      pop\n        /* \"#utility.yul\":5082:5198   */\n      pop\n        /* \"#utility.yul\":5265:5267   */\n      0x20\n        /* \"#utility.yul\":5254:5263   */\n      dup6\n        /* \"#utility.yul\":5250:5268   */\n      add\n        /* \"#utility.yul\":5237:5269   */\n      calldataload\n        /* \"#utility.yul\":5296:5314   */\n      0xffffffffffffffff\n        /* \"#utility.yul\":5288:5294   */\n      dup2\n        /* \"#utility.yul\":5285:5315   */\n      gt\n        /* \"#utility.yul\":5282:5399   */\n      iszero\n      tag_152\n      jumpi\n        /* \"#utility.yul\":5318:5397   */\n      tag_153\n      tag_53\n      jump\t// in\n    tag_153:\n        /* \"#utility.yul\":5282:5399   */\n    tag_152:\n        /* \"#utility.yul\":5423:5486   */\n      tag_154\n        /* \"#utility.yul\":5478:5485   */\n      dup8\n        /* \"#utility.yul\":5469:5475   */\n      dup3\n        /* \"#utility.yul\":5458:5467   */\n      dup9\n        /* \"#utility.yul\":5454:5476   */\n      add\n        /* \"#utility.yul\":5423:5486   */\n      tag_71\n      jump\t// in\n    tag_154:\n        /* \"#utility.yul\":5413:5486   */\n      swap4\n      pop\n        /* \"#utility.yul\":5208:5496   */\n      pop\n        /* \"#utility.yul\":5563:5565   */\n      0x40\n        /* \"#utility.yul\":5552:5561   */\n      dup6\n        /* \"#utility.yul\":5548:5566   */\n      add\n        /* \"#utility.yul\":5535:5567   */\n      calldataload\n        /* \"#utility.yul\":5594:5612   */\n      0xffffffffffffffff\n        /* \"#utility.yul\":5586:5592   */\n      dup2\n        /* \"#utility.yul\":5583:5613   */\n      gt\n        /* \"#utility.yul\":5580:5697   */\n      iszero\n      tag_155\n      jumpi\n        /* \"#utility.yul\":5616:5695   */\n      tag_156\n      tag_53\n      jump\t// in\n    tag_156:\n        /* \"#utility.yul\":5580:5697   */\n    tag_155:\n        /* \"#utility.yul\":5721:5784   */\n      tag_157\n        /* \"#utility.yul\":5776:5783   */\n      dup8\n        /* \"#utility.yul\":5767:5773   */\n      dup3\n        /* \"#utility.yul\":5756:5765   */\n      dup9\n        /* \"#utility.yul\":5752:5774   */\n      add\n        /* \"#utility.yul\":5721:5784   */\n      tag_71\n      jump\t// in\n    tag_157:\n        /* \"#utility.yul\":5711:5784   */\n      swap3\n      pop\n        /* \"#utility.yul\":5506:5794   */\n      pop\n        /* \"#utility.yul\":5833:5835   */\n      0x60\n        /* \"#utility.yul\":5859:5911   */\n      tag_158\n        /* \"#utility.yul\":5903:5910   */\n      dup8\n        /* \"#utility.yul\":5894:5900   */\n      dup3\n        /* \"#utility.yul\":5883:5892   */\n      dup9\n        /* \"#utility.yul\":5879:5901   */\n      add\n        /* \"#utility.yul\":5859:5911   */\n      tag_56\n      jump\t// in\n    tag_158:\n        /* \"#utility.yul\":5849:5911   */\n      swap2\n      pop\n        /* \"#utility.yul\":5804:5921   */\n      pop\n        /* \"#utility.yul\":4807:5928   */\n      swap3\n      swap6\n      swap2\n      swap5\n      pop\n      swap3\n      pop\n      jump\t// out\n        /* \"#utility.yul\":5934:6011   */\n    tag_72:\n        /* \"#utility.yul\":5971:5978   */\n      0x00\n        /* \"#utility.yul\":6000:6005   */\n      dup2\n        /* \"#utility.yul\":5989:6005   */\n      swap1\n      pop\n        /* \"#utility.yul\":5934:6011   */\n      swap2\n      swap1\n      pop\n      jump\t// out\n        /* \"#utility.yul\":6017:6197   */\n    tag_73:\n        /* \"#utility.yul\":6065:6142   */\n      0x4e487b7100000000000000000000000000000000000000000000000000000000\n        /* \"#utility.yul\":6062:6063   */\n      0x00\n        /* \"#utility.yul\":6055:6143   */\n      mstore\n        /* \"#utility.yul\":6162:6166   */\n      0x11\n        /* \"#utility.yul\":6159:6160   */\n      0x04\n        /* \"#utility.yul\":6152:6167   */\n      mstore\n        /* \"#utility.yul\":6186:6190   */\n      0x24\n        /* \"#utility.yul\":6183:6184   */\n      0x00\n        /* \"#utility.yul\":6176:6191   */\n      revert\n        /* \"#utility.yul\":6203:6397   */\n    tag_23:\n        /* \"#utility.yul\":6243:6247   */\n      0x00\n        /* \"#utility.yul\":6263:6283   */\n      tag_162\n        /* \"#utility.yul\":6281:6282   */\n      dup3\n        /* \"#utility.yul\":6263:6283   */\n      tag_72\n      jump\t// in\n    tag_162:\n        /* \"#utility.yul\":6258:6283   */\n      swap2\n      pop\n        /* \"#utility.yul\":6297:6317   */\n      tag_163\n        /* \"#utility.yul\":6315:6316   */\n      dup4\n        /* \"#utility.yul\":6297:6317   */\n      tag_72\n      jump\t// in\n    tag_163:\n        /* \"#utility.yul\":6292:6317   */\n      swap3\n      pop\n        /* \"#utility.yul\":6341:6342   */\n      dup3\n        /* \"#utility.yul\":6338:6339   */\n      dup3\n        /* \"#utility.yul\":6334:6343   */\n      sub\n        /* \"#utility.yul\":6326:6343   */\n      swap1\n      pop\n        /* \"#utility.yul\":6365:6366   */\n      dup2\n        /* \"#utility.yul\":6359:6363   */\n      dup2\n        /* \"#utility.yul\":6356:6367   */\n      gt\n        /* \"#utility.yul\":6353:6390   */\n      iszero\n      tag_164\n      jumpi\n        /* \"#utility.yul\":6370:6388   */\n      tag_165\n      tag_73\n      jump\t// in\n    tag_165:\n        /* \"#utility.yul\":6353:6390   */\n    tag_164:\n        /* \"#utility.yul\":6203:6397   */\n      swap3\n      swap2\n      pop\n      pop\n      jump\t// out\n        /* \"#utility.yul\":6403:6625   */\n    tag_74:\n        /* \"#utility.yul\":6543:6577   */\n      0x496e73756666696369656e742066756e6473202e616d6f756e7420726566756e\n        /* \"#utility.yul\":6539:6540   */\n      0x00\n        /* \"#utility.yul\":6531:6537   */\n      dup3\n        /* \"#utility.yul\":6527:6541   */\n      add\n        /* \"#utility.yul\":6520:6578   */\n      mstore\n        /* \"#utility.yul\":6612:6617   */\n      0x6465640000000000000000000000000000000000000000000000000000000000\n        /* \"#utility.yul\":6607:6609   */\n      0x20\n        /* \"#utility.yul\":6599:6605   */\n      dup3\n        /* \"#utility.yul\":6595:6610   */\n      add\n        /* \"#utility.yul\":6588:6618   */\n      mstore\n        /* \"#utility.yul\":6403:6625   */\n      pop\n      jump\t// out\n        /* \"#utility.yul\":6631:6997   */\n    tag_75:\n        /* \"#utility.yul\":6773:6776   */\n      0x00\n        /* \"#utility.yul\":6794:6861   */\n      tag_168\n        /* \"#utility.yul\":6858:6860   */\n      0x23\n        /* \"#utility.yul\":6853:6856   */\n      dup4\n        /* \"#utility.yul\":6794:6861   */\n      tag_58\n      jump\t// in\n    tag_168:\n        /* \"#utility.yul\":6787:6861   */\n      swap2\n      pop\n        /* \"#utility.yul\":6870:6963   */\n      tag_169\n        /* \"#utility.yul\":6959:6962   */\n      dup3\n        /* \"#utility.yul\":6870:6963   */\n      tag_74\n      jump\t// in\n    tag_169:\n        /* \"#utility.yul\":6988:6990   */\n      0x40\n        /* \"#utility.yul\":6983:6986   */\n      dup3\n        /* \"#utility.yul\":6979:6991   */\n      add\n        /* \"#utility.yul\":6972:6991   */\n      swap1\n      pop\n        /* \"#utility.yul\":6631:6997   */\n      swap2\n      swap1\n      pop\n      jump\t// out\n        /* \"#utility.yul\":7003:7422   */\n    tag_31:\n        /* \"#utility.yul\":7169:7173   */\n      0x00\n        /* \"#utility.yul\":7207:7209   */\n      0x20\n        /* \"#utility.yul\":7196:7205   */\n      dup3\n        /* \"#utility.yul\":7192:7210   */\n      add\n        /* \"#utility.yul\":7184:7210   */\n      swap1\n      pop\n        /* \"#utility.yul\":7256:7265   */\n      dup2\n        /* \"#utility.yul\":7250:7254   */\n      dup2\n        /* \"#utility.yul\":7246:7266   */\n      sub\n        /* \"#utility.yul\":7242:7243   */\n      0x00\n        /* \"#utility.yul\":7231:7240   */\n      dup4\n        /* \"#utility.yul\":7227:7244   */\n      add\n        /* \"#utility.yul\":7220:7267   */\n      mstore\n        /* \"#utility.yul\":7284:7415   */\n      tag_171\n        /* \"#utility.yul\":7410:7414   */\n      dup2\n        /* \"#utility.yul\":7284:7415   */\n      tag_75\n      jump\t// in\n    tag_171:\n        /* \"#utility.yul\":7276:7415   */\n      swap1\n      pop\n        /* \"#utility.yul\":7003:7422   */\n      swap2\n      swap1\n      pop\n      jump\t// out\n        /* \"#utility.yul\":7428:7608   */\n    tag_76:\n        /* \"#utility.yul\":7476:7553   */\n      0x4e487b7100000000000000000000000000000000000000000000000000000000\n        /* \"#utility.yul\":7473:7474   */\n      0x00\n        /* \"#utility.yul\":7466:7554   */\n      mstore\n        /* \"#utility.yul\":7573:7577   */\n      0x22\n        /* \"#utility.yul\":7570:7571   */\n      0x04\n        /* \"#utility.yul\":7563:7578   */\n      mstore\n        /* \"#utility.yul\":7597:7601   */\n      0x24\n        /* \"#utility.yul\":7594:7595   */\n      0x00\n        /* \"#utility.yul\":7587:7602   */\n      revert\n        /* \"#utility.yul\":7614:7934   */\n    tag_33:\n        /* \"#utility.yul\":7658:7664   */\n      0x00\n        /* \"#utility.yul\":7695:7696   */\n      0x02\n        /* \"#utility.yul\":7689:7693   */\n      dup3\n        /* \"#utility.yul\":7685:7697   */\n      div\n        /* \"#utility.yul\":7675:7697   */\n      swap1\n      pop\n        /* \"#utility.yul\":7742:7743   */\n      0x01\n        /* \"#utility.yul\":7736:7740   */\n      dup3\n        /* \"#utility.yul\":7732:7744   */\n      and\n        /* \"#utility.yul\":7763:7781   */\n      dup1\n        /* \"#utility.yul\":7753:7834   */\n      tag_174\n      jumpi\n        /* \"#utility.yul\":7819:7823   */\n      0x7f\n        /* \"#utility.yul\":7811:7817   */\n      dup3\n        /* \"#utility.yul\":7807:7824   */\n      and\n        /* \"#utility.yul\":7797:7824   */\n      swap2\n      pop\n        /* \"#utility.yul\":7753:7834   */\n    tag_174:\n        /* \"#utility.yul\":7881:7883   */\n      0x20\n        /* \"#utility.yul\":7873:7879   */\n      dup3\n        /* \"#utility.yul\":7870:7884   */\n      lt\n        /* \"#utility.yul\":7850:7868   */\n      dup2\n        /* \"#utility.yul\":7847:7885   */\n      sub\n        /* \"#utility.yul\":7844:7928   */\n      tag_175\n      jumpi\n        /* \"#utility.yul\":7900:7918   */\n      tag_176\n      tag_76\n      jump\t// in\n    tag_176:\n        /* \"#utility.yul\":7844:7928   */\n    tag_175:\n        /* \"#utility.yul\":7665:7934   */\n      pop\n        /* \"#utility.yul\":7614:7934   */\n      swap2\n      swap1\n      pop\n      jump\t// out\n        /* \"#utility.yul\":7940:8102   */\n    tag_77:\n        /* \"#utility.yul\":8080:8094   */\n      0x556e617574686f72697a65640000000000000000000000000000000000000000\n        /* \"#utility.yul\":8076:8077   */\n      0x00\n        /* \"#utility.yul\":8068:8074   */\n      dup3\n        /* \"#utility.yul\":8064:8078   */\n      add\n        /* \"#utility.yul\":8057:8095   */\n      mstore\n        /* \"#utility.yul\":7940:8102   */\n      pop\n      jump\t// out\n        /* \"#utility.yul\":8108:8474   */\n    tag_78:\n        /* \"#utility.yul\":8250:8253   */\n      0x00\n        /* \"#utility.yul\":8271:8338   */\n      tag_179\n        /* \"#utility.yul\":8335:8337   */\n      0x0c\n        /* \"#utility.yul\":8330:8333   */\n      dup4\n        /* \"#utility.yul\":8271:8338   */\n      tag_58\n      jump\t// in\n    tag_179:\n        /* \"#utility.yul\":8264:8338   */\n      swap2\n      pop\n        /* \"#utility.yul\":8347:8440   */\n      tag_180\n        /* \"#utility.yul\":8436:8439   */\n      dup3\n        /* \"#utility.yul\":8347:8440   */\n      tag_77\n      jump\t// in\n    tag_180:\n        /* \"#utility.yul\":8465:8467   */\n      0x20\n        /* \"#utility.yul\":8460:8463   */\n      dup3\n        /* \"#utility.yul\":8456:8468   */\n      add\n        /* \"#utility.yul\":8449:8468   */\n      swap1\n      pop\n        /* \"#utility.yul\":8108:8474   */\n      swap2\n      swap1\n      pop\n      jump\t// out\n        /* \"#utility.yul\":8480:8899   */\n    tag_46:\n        /* \"#utility.yul\":8646:8650   */\n      0x00\n        /* \"#utility.yul\":8684:8686   */\n      0x20\n        /* \"#utility.yul\":8673:8682   */\n      dup3\n        /* \"#utility.yul\":8669:8687   */\n      add\n        /* \"#utility.yul\":8661:8687   */\n      swap1\n      pop\n        /* \"#utility.yul\":8733:8742   */\n      dup2\n        /* \"#utility.yul\":8727:8731   */\n      dup2\n        /* \"#utility.yul\":8723:8743   */\n      sub\n        /* \"#utility.yul\":8719:8720   */\n      0x00\n        /* \"#utility.yul\":8708:8717   */\n      dup4\n        /* \"#utility.yul\":8704:8721   */\n      add\n        /* \"#utility.yul\":8697:8744   */\n      mstore\n        /* \"#utility.yul\":8761:8892   */\n      tag_182\n        /* \"#utility.yul\":8887:8891   */\n      dup2\n        /* \"#utility.yul\":8761:8892   */\n      tag_78\n      jump\t// in\n    tag_182:\n        /* \"#utility.yul\":8753:8892   */\n      swap1\n      pop\n        /* \"#utility.yul\":8480:8899   */\n      swap2\n      swap1\n      pop\n      jump\t// out\n        /* \"#utility.yul\":8905:9046   */\n    tag_79:\n        /* \"#utility.yul\":8954:8958   */\n      0x00\n        /* \"#utility.yul\":8977:8980   */\n      dup2\n        /* \"#utility.yul\":8969:8980   */\n      swap1\n      pop\n        /* \"#utility.yul\":9000:9003   */\n      dup2\n        /* \"#utility.yul\":8997:8998   */\n      0x00\n        /* \"#utility.yul\":8990:9004   */\n      mstore\n        /* \"#utility.yul\":9034:9038   */\n      0x20\n        /* \"#utility.yul\":9031:9032   */\n      0x00\n        /* \"#utility.yul\":9021:9039   */\n      keccak256\n        /* \"#utility.yul\":9013:9039   */\n      swap1\n      pop\n        /* \"#utility.yul\":8905:9046   */\n      swap2\n      swap1\n      pop\n      jump\t// out\n        /* \"#utility.yul\":9052:9145   */\n    tag_80:\n        /* \"#utility.yul\":9089:9095   */\n      0x00\n        /* \"#utility.yul\":9136:9138   */\n      0x20\n        /* \"#utility.yul\":9131:9133   */\n      0x1f\n        /* \"#utility.yul\":9124:9129   */\n      dup4\n        /* \"#utility.yul\":9120:9134   */\n      add\n        /* \"#utility.yul\":9116:9139   */\n      div\n        /* \"#utility.yul\":9106:9139   */\n      swap1\n      pop\n        /* \"#utility.yul\":9052:9145   */\n      swap2\n      swap1\n      pop\n      jump\t// out\n        /* \"#utility.yul\":9151:9258   */\n    tag_81:\n        /* \"#utility.yul\":9195:9203   */\n      0x00\n        /* \"#utility.yul\":9245:9250   */\n      dup3\n        /* \"#utility.yul\":9239:9243   */\n      dup3\n        /* \"#utility.yul\":9235:9251   */\n      shl\n        /* \"#utility.yul\":9214:9251   */\n      swap1\n      pop\n        /* \"#utility.yul\":9151:9258   */\n      swap3\n      swap2\n      pop\n      pop\n      jump\t// out\n        /* \"#utility.yul\":9264:9657   */\n    tag_82:\n        /* \"#utility.yul\":9333:9339   */\n      0x00\n        /* \"#utility.yul\":9383:9384   */\n      0x08\n        /* \"#utility.yul\":9371:9381   */\n      dup4\n        /* \"#utility.yul\":9367:9385   */\n      mul\n        /* \"#utility.yul\":9406:9503   */\n      tag_187\n        /* \"#utility.yul\":9436:9502   */\n      0xffffffffffffffffffffffffffffffffffffffffffffffffffffffffffffffff\n        /* \"#utility.yul\":9425:9434   */\n      dup3\n        /* \"#utility.yul\":9406:9503   */\n      tag_81\n      jump\t// in\n    tag_187:\n        /* \"#utility.yul\":9524:9563   */\n      tag_188\n        /* \"#utility.yul\":9554:9562   */\n      dup7\n        /* \"#utility.yul\":9543:9552   */\n      dup4\n        /* \"#utility.yul\":9524:9563   */\n      tag_81\n      jump\t// in\n    tag_188:\n        /* \"#utility.yul\":9512:9563   */\n      swap6\n      pop\n        /* \"#utility.yul\":9596:9600   */\n      dup1\n        /* \"#utility.yul\":9592:9601   */\n      not\n        /* \"#utility.yul\":9585:9590   */\n      dup5\n        /* \"#utility.yul\":9581:9602   */\n      and\n        /* \"#utility.yul\":9572:9602   */\n      swap4\n      pop\n        /* \"#utility.yul\":9645:9649   */\n      dup1\n        /* \"#utility.yul\":9635:9643   */\n      dup7\n        /* \"#utility.yul\":9631:9650   */\n      and\n        /* \"#utility.yul\":9624:9629   */\n      dup5\n        /* \"#utility.yul\":9621:9651   */\n      or\n        /* \"#utility.yul\":9611:9651   */\n      swap3\n      pop\n        /* \"#utility.yul\":9340:9657   */\n      pop\n      pop\n        /* \"#utility.yul\":9264:9657   */\n      swap4\n      swap3\n      pop\n      pop\n      pop\n      jump\t// out\n        /* \"#utility.yul\":9663:9723   */\n    tag_83:\n        /* \"#utility.yul\":9691:9694   */\n      0x00\n        /* \"#utility.yul\":9712:9717   */\n      dup2\n        /* \"#utility.yul\":9705:9717   */\n      swap1\n      pop\n        /* \"#utility.yul\":9663:9723   */\n      swap2\n      swap1\n      pop\n      jump\t// out\n        /* \"#utility.yul\":9729:9871   */\n    tag_84:\n        /* \"#utility.yul\":9779:9788   */\n      0x00\n        /* \"#utility.yul\":9812:9865   */\n      tag_191\n        /* \"#utility.yul\":9830:9864   */\n      tag_192\n        /* \"#utility.yul\":9839:9863   */\n      tag_193\n        /* \"#utility.yul\":9857:9862   */\n      dup5\n        /* \"#utility.yul\":9839:9863   */\n      tag_72\n      jump\t// in\n    tag_193:\n        /* \"#utility.yul\":9830:9864   */\n      tag_83\n      jump\t// in\n    tag_192:\n        /* \"#utility.yul\":9812:9865   */\n      tag_72\n      jump\t// in\n    tag_191:\n        /* \"#utility.yul\":9799:9865   */\n      swap1\n      pop\n        /* \"#utility.yul\":9729:9871   */\n      swap2\n      swap1\n      pop\n      jump\t// out\n        /* \"#utility.yul\":9877:9952   */\n    tag_85:\n        /* \"#utility.yul\":9920:9923   */\n      0x00\n        /* \"#utility.yul\":9941:9946   */\n      dup2\n        /* \"#utility.yul\":9934:9946   */\n      swap1\n      pop\n        /* \"#utility.yul\":9877:9952   */\n      swap2\n      swap1\n      pop\n      jump\t// out\n        /* \"#utility.yul\":9958:10227   */\n    tag_86:\n        /* \"#utility.yul\":10068:10107   */\n      tag_196\n        /* \"#utility.yul\":10099:10106   */\n      dup4\n        /* \"#utility.yul\":10068:10107   */\n      tag_84\n      jump\t// in\n    tag_196:\n        /* \"#utility.yul\":10129:10220   */\n      tag_197\n        /* \"#utility.yul\":10178:10219   */\n      tag_198\n        /* \"#utility.yul\":10202:10218   */\n      dup3\n        /* \"#utility.yul\":10178:10219   */\n      tag_85\n      jump\t// in\n    tag_198:\n        /* \"#utility.yul\":10170:10176   */\n      dup5\n        /* \"#utility.yul\":10163:10167   */\n      dup5\n        /* \"#utility.yul\":10157:10168   */\n      sload\n        /* \"#utility.yul\":10129:10220   */\n      tag_82\n      jump\t// in\n    tag_197:\n        /* \"#utility.yul\":10123:10127   */\n      dup3\n        /* \"#utility.yul\":10116:10221   */\n      sstore\n        /* \"#utility.yul\":10034:10227   */\n      pop\n        /* \"#utility.yul\":9958:10227   */\n      pop\n      pop\n      pop\n      jump\t// out\n        /* \"#utility.yul\":10233:10306   */\n    tag_87:\n        /* \"#utility.yul\":10278:10281   */\n      0x00\n        /* \"#utility.yul\":10233:10306   */\n      swap1\n      jump\t// out\n        /* \"#utility.yul\":10312:10501   */\n    tag_88:\n        /* \"#utility.yul\":10389:10421   */\n      tag_201\n      tag_87\n      jump\t// in\n    tag_201:\n        /* \"#utility.yul\":10430:10495   */\n      tag_202\n        /* \"#utility.yul\":10488:10494   */\n      dup2\n        /* \"#utility.yul\":10480:10486   */\n      dup5\n        /* \"#utility.yul\":10474:10478   */\n      dup5\n        /* \"#utility.yul\":10430:10495   */\n      tag_86\n      jump\t// in\n    tag_202:\n        /* \"#utility.yul\":10365:10501   */\n      pop\n        /* \"#utility.yul\":10312:10501   */\n      pop\n      pop\n      jump\t// out\n        /* \"#utility.yul\":10507:10693   */\n    tag_89:\n        /* \"#utility.yul\":10567:10687   */\n    tag_204:\n        /* \"#utility.yul\":10584:10587   */\n      dup2\n        /* \"#utility.yul\":10577:10582   */\n      dup2\n        /* \"#utility.yul\":10574:10588   */\n      lt\n        /* \"#utility.yul\":10567:10687   */\n      iszero\n      tag_206\n      jumpi\n        /* \"#utility.yul\":10638:10677   */\n      tag_207\n        /* \"#utility.yul\":10675:10676   */\n      0x00\n        /* \"#utility.yul\":10668:10673   */\n      dup3\n        /* \"#utility.yul\":10638:10677   */\n      tag_88\n      jump\t// in\n    tag_207:\n        /* \"#utility.yul\":10611:10612   */\n      0x01\n        /* \"#utility.yul\":10604:10609   */\n      dup2\n        /* \"#utility.yul\":10600:10613   */\n      add\n        /* \"#utility.yul\":10591:10613   */\n      swap1\n      pop\n        /* \"#utility.yul\":10567:10687   */\n      jump(tag_204)\n    tag_206:\n        /* \"#utility.yul\":10507:10693   */\n      pop\n      pop\n      jump\t// out\n        /* \"#utility.yul\":10699:11242   */\n    tag_90:\n        /* \"#utility.yul\":10800:10802   */\n      0x1f\n        /* \"#utility.yul\":10795:10798   */\n      dup3\n        /* \"#utility.yul\":10792:10803   */\n      gt\n        /* \"#utility.yul\":10789:11235   */\n      iszero\n      tag_209\n      jumpi\n        /* \"#utility.yul\":10834:10872   */\n      tag_210\n        /* \"#utility.yul\":10866:10871   */\n      dup2\n        /* \"#utility.yul\":10834:10872   */\n      tag_79\n      jump\t// in\n    tag_210:\n        /* \"#utility.yul\":10918:10947   */\n      tag_211\n        /* \"#utility.yul\":10936:10946   */\n      dup5\n        /* \"#utility.yul\":10918:10947   */\n      tag_80\n      jump\t// in\n    tag_211:\n        /* \"#utility.yul\":10908:10916   */\n      dup2\n        /* \"#utility.yul\":10904:10948   */\n      add\n        /* \"#utility.yul\":11101:11103   */\n      0x20\n        /* \"#utility.yul\":11089:11099   */\n      dup6\n        /* \"#utility.yul\":11086:11104   */\n      lt\n        /* \"#utility.yul\":11083:11132   */\n      iszero\n      tag_212\n      jumpi\n        /* \"#utility.yul\":11122:11130   */\n      dup2\n        /* \"#utility.yul\":11107:11130   */\n      swap1\n      pop\n        /* \"#utility.yul\":11083:11132   */\n    tag_212:\n        /* \"#utility.yul\":11145:11225   */\n      tag_213\n        /* \"#utility.yul\":11201:11223   */\n      tag_214\n        /* \"#utility.yul\":11219:11222   */\n      dup6\n        /* \"#utility.yul\":11201:11223   */\n      tag_80\n      jump\t// in\n    tag_214:\n        /* \"#utility.yul\":11191:11199   */\n      dup4\n        /* \"#utility.yul\":11187:11224   */\n      add\n        /* \"#utility.yul\":11174:11185   */\n      dup3\n        /* \"#utility.yul\":11145:11225   */\n      tag_89\n      jump\t// in\n    tag_213:\n        /* \"#utility.yul\":10804:11235   */\n      pop\n      pop\n        /* \"#utility.yul\":10789:11235   */\n    tag_209:\n        /* \"#utility.yul\":10699:11242   */\n      pop\n      pop\n      pop\n      jump\t// out\n        /* \"#utility.yul\":11248:11365   */\n    tag_91:\n        /* \"#utility.yul\":11302:11310   */\n      0x00\n        /* \"#utility.yul\":11352:11357   */\n      dup3\n        /* \"#utility.yul\":11346:11350   */\n      dup3\n        /* \"#utility.yul\":11342:11358   */\n      shr\n        /* \"#utility.yul\":11321:11358   */\n      swap1\n      pop\n        /* \"#utility.yul\":11248:11365   */\n      swap3\n      swap2\n      pop\n      pop\n      jump\t// out\n        /* \"#utility.yul\":11371:11540   */\n    tag_92:\n        /* \"#utility.yul\":11415:11421   */\n      0x00\n        /* \"#utility.yul\":11448:11499   */\n      tag_217\n        /* \"#utility.yul\":11496:11497   */\n      0x00\n        /* \"#utility.yul\":11492:11498   */\n      not\n        /* \"#utility.yul\":11484:11489   */\n      dup5\n        /* \"#utility.yul\":11481:11482   */\n      0x08\n        /* \"#utility.yul\":11477:11490   */\n      mul\n        /* \"#utility.yul\":11448:11499   */\n      tag_91\n      jump\t// in\n    tag_217:\n        /* \"#utility.yul\":11444:11500   */\n      not\n        /* \"#utility.yul\":11529:11533   */\n      dup1\n        /* \"#utility.yul\":11523:11527   */\n      dup4\n        /* \"#utility.yul\":11519:11534   */\n      and\n        /* \"#utility.yul\":11509:11534   */\n      swap2\n      pop\n        /* \"#utility.yul\":11422:11540   */\n      pop\n        /* \"#utility.yul\":11371:11540   */\n      swap3\n      swap2\n      pop\n      pop\n      jump\t// out\n        /* \"#utility.yul\":11545:11840   */\n    tag_93:\n        /* \"#utility.yul\":11621:11625   */\n      0x00\n        /* \"#utility.yul\":11767:11796   */\n      tag_219\n        /* \"#utility.yul\":11792:11795   */\n      dup4\n        /* \"#utility.yul\":11786:11790   */\n      dup4\n        /* \"#utility.yul\":11767:11796   */\n      tag_92\n      jump\t// in\n    tag_219:\n        /* \"#utility.yul\":11759:11796   */\n      swap2\n      pop\n        /* \"#utility.yul\":11829:11832   */\n      dup3\n        /* \"#utility.yul\":11826:11827   */\n      0x02\n        /* \"#utility.yul\":11822:11833   */\n      mul\n        /* \"#utility.yul\":11816:11820   */\n      dup3\n        /* \"#utility.yul\":11813:11834   */\n      or\n        /* \"#utility.yul\":11805:11834   */\n      swap1\n      pop\n        /* \"#utility.yul\":11545:11840   */\n      swap3\n      swap2\n      pop\n      pop\n      jump\t// out\n        /* \"#utility.yul\":11845:13240   */\n    tag_49:\n        /* \"#utility.yul\":11962:11999   */\n      tag_221\n        /* \"#utility.yul\":11995:11998   */\n      dup3\n        /* \"#utility.yul\":11962:11999   */\n      tag_57\n      jump\t// in\n    tag_221:\n        /* \"#utility.yul\":12064:12082   */\n      0xffffffffffffffff\n        /* \"#utility.yul\":12056:12062   */\n      dup2\n        /* \"#utility.yul\":12053:12083   */\n      gt\n        /* \"#utility.yul\":12050:12106   */\n      iszero\n      tag_222\n      jumpi\n        /* \"#utility.yul\":12086:12104   */\n      tag_223\n      tag_65\n      jump\t// in\n    tag_223:\n        /* \"#utility.yul\":12050:12106   */\n    tag_222:\n        /* \"#utility.yul\":12130:12168   */\n      tag_224\n        /* \"#utility.yul\":12162:12166   */\n      dup3\n        /* \"#utility.yul\":12156:12167   */\n      sload\n        /* \"#utility.yul\":12130:12168   */\n      tag_33\n      jump\t// in\n    tag_224:\n        /* \"#utility.yul\":12215:12282   */\n      tag_225\n        /* \"#utility.yul\":12275:12281   */\n      dup3\n        /* \"#utility.yul\":12267:12273   */\n      dup3\n        /* \"#utility.yul\":12261:12265   */\n      dup6\n        /* \"#utility.yul\":12215:12282   */\n      tag_90\n      jump\t// in\n    tag_225:\n        /* \"#utility.yul\":12309:12310   */\n      0x00\n        /* \"#utility.yul\":12333:12337   */\n      0x20\n        /* \"#utility.yul\":12320:12337   */\n      swap1\n      pop\n        /* \"#utility.yul\":12365:12367   */\n      0x1f\n        /* \"#utility.yul\":12357:12363   */\n      dup4\n        /* \"#utility.yul\":12354:12368   */\n      gt\n        /* \"#utility.yul\":12382:12383   */\n      0x01\n        /* \"#utility.yul\":12377:12995   */\n      dup2\n      eq\n      tag_227\n      jumpi\n        /* \"#utility.yul\":13039:13040   */\n      0x00\n        /* \"#utility.yul\":13056:13062   */\n      dup5\n        /* \"#utility.yul\":13053:13130   */\n      iszero\n      tag_228\n      jumpi\n        /* \"#utility.yul\":13105:13114   */\n      dup3\n        /* \"#utility.yul\":13100:13103   */\n      dup8\n        /* \"#utility.yul\":13096:13115   */\n      add\n        /* \"#utility.yul\":13090:13116   */\n      mload\n        /* \"#utility.yul\":13081:13116   */\n      swap1\n      pop\n        /* \"#utility.yul\":13053:13130   */\n    tag_228:\n        /* \"#utility.yul\":13156:13223   */\n      tag_229\n        /* \"#utility.yul\":13216:13222   */\n      dup6\n        /* \"#utility.yul\":13209:13214   */\n      dup3\n        /* \"#utility.yul\":13156:13223   */\n      tag_93\n      jump\t// in\n    tag_229:\n        /* \"#utility.yul\":13150:13154   */\n      dup7\n        /* \"#utility.yul\":13143:13224   */\n      sstore\n        /* \"#utility.yul\":13012:13234   */\n      pop\n        /* \"#utility.yul\":12347:13234   */\n      jump(tag_226)\n        /* \"#utility.yul\":12377:12995   */\n    tag_227:\n        /* \"#utility.yul\":12429:12433   */\n      0x1f\n        /* \"#utility.yul\":12425:12434   */\n      not\n        /* \"#utility.yul\":12417:12423   */\n      dup5\n        /* \"#utility.yul\":12413:12435   */\n      and\n        /* \"#utility.yul\":12463:12500   */\n      tag_230\n        /* \"#utility.yul\":12495:12499   */\n      dup7\n        /* \"#utility.yul\":12463:12500   */\n      tag_79\n      jump\t// in\n    tag_230:\n        /* \"#utility.yul\":12522:12523   */\n      0x00\n        /* \"#utility.yul\":12536:12744   */\n    tag_231:\n        /* \"#utility.yul\":12550:12557   */\n      dup3\n        /* \"#utility.yul\":12547:12548   */\n      dup2\n        /* \"#utility.yul\":12544:12558   */\n      lt\n        /* \"#utility.yul\":12536:12744   */\n      iszero\n      tag_233\n      jumpi\n        /* \"#utility.yul\":12629:12638   */\n      dup5\n        /* \"#utility.yul\":12624:12627   */\n      dup10\n        /* \"#utility.yul\":12620:12639   */\n      add\n        /* \"#utility.yul\":12614:12640   */\n      mload\n        /* \"#utility.yul\":12606:12612   */\n      dup3\n        /* \"#utility.yul\":12599:12641   */\n      sstore\n        /* \"#utility.yul\":12680:12681   */\n      0x01\n        /* \"#utility.yul\":12672:12678   */\n      dup3\n        /* \"#utility.yul\":12668:12682   */\n      add\n        /* \"#utility.yul\":12658:12682   */\n      swap2\n      pop\n        /* \"#utility.yul\":12727:12729   */\n      0x20\n        /* \"#utility.yul\":12716:12725   */\n      dup6\n        /* \"#utility.yul\":12712:12730   */\n      add\n        /* \"#utility.yul\":12699:12730   */\n      swap5\n      pop\n        /* \"#utility.yul\":12573:12577   */\n      0x20\n        /* \"#utility.yul\":12570:12571   */\n      dup2\n        /* \"#utility.yul\":12566:12578   */\n      add\n        /* \"#utility.yul\":12561:12578   */\n      swap1\n      pop\n        /* \"#utility.yul\":12536:12744   */\n      jump(tag_231)\n    tag_233:\n        /* \"#utility.yul\":12772:12778   */\n      dup7\n        /* \"#utility.yul\":12763:12770   */\n      dup4\n        /* \"#utility.yul\":12760:12779   */\n      lt\n        /* \"#utility.yul\":12757:12936   */\n      iszero\n      tag_234\n      jumpi\n        /* \"#utility.yul\":12830:12839   */\n      dup5\n        /* \"#utility.yul\":12825:12828   */\n      dup10\n        /* \"#utility.yul\":12821:12840   */\n      add\n        /* \"#utility.yul\":12815:12841   */\n      mload\n        /* \"#utility.yul\":12873:12921   */\n      tag_235\n        /* \"#utility.yul\":12915:12919   */\n      0x1f\n        /* \"#utility.yul\":12907:12913   */\n      dup10\n        /* \"#utility.yul\":12903:12920   */\n      and\n        /* \"#utility.yul\":12892:12901   */\n      dup3\n        /* \"#utility.yul\":12873:12921   */\n      tag_92\n      jump\t// in\n    tag_235:\n        /* \"#utility.yul\":12865:12871   */\n      dup4\n        /* \"#utility.yul\":12858:12922   */\n      sstore\n        /* \"#utility.yul\":12780:12936   */\n      pop\n        /* \"#utility.yul\":12757:12936   */\n    tag_234:\n        /* \"#utility.yul\":12982:12983   */\n      0x01\n        /* \"#utility.yul\":12978:12979   */\n      0x02\n        /* \"#utility.yul\":12970:12976   */\n      dup9\n        /* \"#utility.yul\":12966:12980   */\n      mul\n        /* \"#utility.yul\":12962:12984   */\n      add\n        /* \"#utility.yul\":12956:12960   */\n      dup9\n        /* \"#utility.yul\":12949:12985   */\n      sstore\n        /* \"#utility.yul\":12384:12995   */\n      pop\n      pop\n      pop\n        /* \"#utility.yul\":12347:13234   */\n    tag_226:\n      pop\n        /* \"#utility.yul\":11937:13240   */\n      pop\n      pop\n      pop\n        /* \"#utility.yul\":11845:13240   */\n      pop\n      pop\n      jump\t// out\n\n    auxdata: 0xa2646970667358221220511d0ea23c7169e32298d1068a09a52b283a9685fb6252ad4fe959e7c207620364736f6c634300081a0033\n}\n",
				"bytecode": {
					"linkReferences": {},
					"object": "6080604052348015600e575f80fd5b50335f806101000a81548173ffffffffffffffffffffffffffffffffffffffff021916908373ffffffffffffffffffffffffffffffffffffffff160217905550610c548061005b5f395ff3fe608060405260043610610033575f3560e01c8063af55fa6614610037578063cdd266b314610053578063f68542b214610091575b5f80fd5b610051600480360381019061004c9190610541565b6100b9565b005b34801561005e575f80fd5b5061007960048036038101906100749190610541565b610260565b604051610088939291906105eb565b60405180910390f35b34801561009c575f80fd5b506100b760048036038101906100b2919061075a565b61039f565b005b60035f8261ffff1661ffff1681526020019081526020015f206002015f9054906101000a900461ffff1661ffff163411156101bd575f60035f8361ffff1661ffff1681526020019081526020015f206002015f9054906101000a900461ffff1661ffff1634610128919061082c565b90505f811115610177573373ffffffffffffffffffffffffffffffffffffffff166108fc8290811502906040515f60405180830381858888f19350505050158015610175573d5f803e3d5ffd5b505b3360015f6101000a81548173ffffffffffffffffffffffffffffffffffffffff021916908373ffffffffffffffffffffffffffffffffffffffff1602179055505061025d565b60025f9054906101000a900473ffffffffffffffffffffffffffffffffffffffff1673ffffffffffffffffffffffffffffffffffffffff166108fc3490811502906040515f60405180830381858888f19350505050158015610221573d5f803e3d5ffd5b506040517f08c379a0000000000000000000000000000000000000000000000000000000008152600401610254906108cf565b60405180910390fd5b50565b6003602052805f5260405f205f91509050805f01805461027f9061091a565b80601f01602080910402602001604051908101604052809291908181526020018280546102ab9061091a565b80156102f65780601f106102cd576101008083540402835291602001916102f6565b820191905f5260205f20905b8154815290600101906020018083116102d957829003601f168201915b50505050509080600101805461030b9061091a565b80601f01602080910402602001604051908101604052809291908181526020018280546103379061091a565b80156103825780601f1061035957610100808354040283529160200191610382565b820191905f5260205f20905b81548152906001019060200180831161036557829003601f168201915b505050505090806002015f9054906101000a900461ffff16905083565b5f8054906101000a900473ffffffffffffffffffffffffffffffffffffffff1673ffffffffffffffffffffffffffffffffffffffff163373ffffffffffffffffffffffffffffffffffffffff161461042c576040517f08c379a000000000000000000000000000000000000000000000000000000000815260040161042390610994565b60405180910390fd5b60405180606001604052808481526020018381526020018261ffff1681525060035f8661ffff1661ffff1681526020019081526020015f205f820151815f0190816104779190610b4f565b50602082015181600101908161048d9190610b4f565b506040820151816002015f6101000a81548161ffff021916908361ffff1602179055509050503360015f6101000a81548173ffffffffffffffffffffffffffffffffffffffff021916908373ffffffffffffffffffffffffffffffffffffffff16021790555050505050565b5f604051905090565b5f80fd5b5f80fd5b5f61ffff82169050919050565b6105208161050a565b811461052a575f80fd5b50565b5f8135905061053b81610517565b92915050565b5f6020828403121561055657610555610502565b5b5f6105638482850161052d565b91505092915050565b5f81519050919050565b5f82825260208201905092915050565b8281835e5f83830152505050565b5f601f19601f8301169050919050565b5f6105ae8261056c565b6105b88185610576565b93506105c8818560208601610586565b6105d181610594565b840191505092915050565b6105e58161050a565b82525050565b5f6060820190508181035f83015261060381866105a4565b9050818103602083015261061781856105a4565b905061062660408301846105dc565b949350505050565b5f80fd5b5f80fd5b7f4e487b71000000000000000000000000000000000000000000000000000000005f52604160045260245ffd5b61066c82610594565b810181811067ffffffffffffffff8211171561068b5761068a610636565b5b80604052505050565b5f61069d6104f9565b90506106a98282610663565b919050565b5f67ffffffffffffffff8211156106c8576106c7610636565b5b6106d182610594565b9050602081019050919050565b828183375f83830152505050565b5f6106fe6106f9846106ae565b610694565b90508281526020810184848401111561071a57610719610632565b5b6107258482856106de565b509392505050565b5f82601f8301126107415761074061062e565b5b81356107518482602086016106ec565b91505092915050565b5f805f806080858703121561077257610771610502565b5b5f61077f8782880161052d565b945050602085013567ffffffffffffffff8111156107a05761079f610506565b5b6107ac8782880161072d565b935050604085013567ffffffffffffffff8111156107cd576107cc610506565b5b6107d98782880161072d565b92505060606107ea8782880161052d565b91505092959194509250565b5f819050919050565b7f4e487b71000000000000000000000000000000000000000000000000000000005f52601160045260245ffd5b5f610836826107f6565b9150610841836107f6565b9250828203905081811115610859576108586107ff565b5b92915050565b7f496e73756666696369656e742066756e6473202e616d6f756e7420726566756e5f8201527f6465640000000000000000000000000000000000000000000000000000000000602082015250565b5f6108b9602383610576565b91506108c48261085f565b604082019050919050565b5f6020820190508181035f8301526108e6816108ad565b9050919050565b7f4e487b71000000000000000000000000000000000000000000000000000000005f52602260045260245ffd5b5f600282049050600182168061093157607f821691505b602082108103610944576109436108ed565b5b50919050565b7f556e617574686f72697a656400000000000000000000000000000000000000005f82015250565b5f61097e600c83610576565b91506109898261094a565b602082019050919050565b5f6020820190508181035f8301526109ab81610972565b9050919050565b5f819050815f5260205f209050919050565b5f6020601f8301049050919050565b5f82821b905092915050565b5f60088302610a0e7fffffffffffffffffffffffffffffffffffffffffffffffffffffffffffffffff826109d3565b610a1886836109d3565b95508019841693508086168417925050509392505050565b5f819050919050565b5f610a53610a4e610a49846107f6565b610a30565b6107f6565b9050919050565b5f819050919050565b610a6c83610a39565b610a80610a7882610a5a565b8484546109df565b825550505050565b5f90565b610a94610a88565b610a9f818484610a63565b505050565b5b81811015610ac257610ab75f82610a8c565b600181019050610aa5565b5050565b601f821115610b0757610ad8816109b2565b610ae1846109c4565b81016020851015610af0578190505b610b04610afc856109c4565b830182610aa4565b50505b505050565b5f82821c905092915050565b5f610b275f1984600802610b0c565b1980831691505092915050565b5f610b3f8383610b18565b9150826002028217905092915050565b610b588261056c565b67ffffffffffffffff811115610b7157610b70610636565b5b610b7b825461091a565b610b86828285610ac6565b5f60209050601f831160018114610bb7575f8415610ba5578287015190505b610baf8582610b34565b865550610c16565b601f198416610bc5866109b2565b5f5b82811015610bec57848901518255600182019150602085019450602081019050610bc7565b86831015610c095784890151610c05601f891682610b18565b8355505b6001600288020188555050505b50505050505056fea2646970667358221220511d0ea23c7169e32298d1068a09a52b283a9685fb6252ad4fe959e7c207620364736f6c634300081a0033",
					"opcodes": "PUSH1 0x80 PUSH1 0x40 MSTORE CALLVALUE DUP1 ISZERO PUSH1 0xE JUMPI PUSH0 DUP1 REVERT JUMPDEST POP CALLER PUSH0 DUP1 PUSH2 0x100 EXP DUP2 SLOAD DUP2 PUSH20 0xFFFFFFFFFFFFFFFFFFFFFFFFFFFFFFFFFFFFFFFF MUL NOT AND SWAP1 DUP4 PUSH20 0xFFFFFFFFFFFFFFFFFFFFFFFFFFFFFFFFFFFFFFFF AND MUL OR SWAP1 SSTORE POP PUSH2 0xC54 DUP1 PUSH2 0x5B PUSH0 CODECOPY PUSH0 RETURN INVALID PUSH1 0x80 PUSH1 0x40 MSTORE PUSH1 0x4 CALLDATASIZE LT PUSH2 0x33 JUMPI PUSH0 CALLDATALOAD PUSH1 0xE0 SHR DUP1 PUSH4 0xAF55FA66 EQ PUSH2 0x37 JUMPI DUP1 PUSH4 0xCDD266B3 EQ PUSH2 0x53 JUMPI DUP1 PUSH4 0xF68542B2 EQ PUSH2 0x91 JUMPI JUMPDEST PUSH0 DUP1 REVERT JUMPDEST PUSH2 0x51 PUSH1 0x4 DUP1 CALLDATASIZE SUB DUP2 ADD SWAP1 PUSH2 0x4C SWAP2 SWAP1 PUSH2 0x541 JUMP JUMPDEST PUSH2 0xB9 JUMP JUMPDEST STOP JUMPDEST CALLVALUE DUP1 ISZERO PUSH2 0x5E JUMPI PUSH0 DUP1 REVERT JUMPDEST POP PUSH2 0x79 PUSH1 0x4 DUP1 CALLDATASIZE SUB DUP2 ADD SWAP1 PUSH2 0x74 SWAP2 SWAP1 PUSH2 0x541 JUMP JUMPDEST PUSH2 0x260 JUMP JUMPDEST PUSH1 0x40 MLOAD PUSH2 0x88 SWAP4 SWAP3 SWAP2 SWAP1 PUSH2 0x5EB JUMP JUMPDEST PUSH1 0x40 MLOAD DUP1 SWAP2 SUB SWAP1 RETURN JUMPDEST CALLVALUE DUP1 ISZERO PUSH2 0x9C JUMPI PUSH0 DUP1 REVERT JUMPDEST POP PUSH2 0xB7 PUSH1 0x4 DUP1 CALLDATASIZE SUB DUP2 ADD SWAP1 PUSH2 0xB2 SWAP2 SWAP1 PUSH2 0x75A JUMP JUMPDEST PUSH2 0x39F JUMP JUMPDEST STOP JUMPDEST PUSH1 0x3 PUSH0 DUP3 PUSH2 0xFFFF AND PUSH2 0xFFFF AND DUP2 MSTORE PUSH1 0x20 ADD SWAP1 DUP2 MSTORE PUSH1 0x20 ADD PUSH0 KECCAK256 PUSH1 0x2 ADD PUSH0 SWAP1 SLOAD SWAP1 PUSH2 0x100 EXP SWAP1 DIV PUSH2 0xFFFF AND PUSH2 0xFFFF AND CALLVALUE GT ISZERO PUSH2 0x1BD JUMPI PUSH0 PUSH1 0x3 PUSH0 DUP4 PUSH2 0xFFFF AND PUSH2 0xFFFF AND DUP2 MSTORE PUSH1 0x20 ADD SWAP1 DUP2 MSTORE PUSH1 0x20 ADD PUSH0 KECCAK256 PUSH1 0x2 ADD PUSH0 SWAP1 SLOAD SWAP1 PUSH2 0x100 EXP SWAP1 DIV PUSH2 0xFFFF AND PUSH2 0xFFFF AND CALLVALUE PUSH2 0x128 SWAP2 SWAP1 PUSH2 0x82C JUMP JUMPDEST SWAP1 POP PUSH0 DUP2 GT ISZERO PUSH2 0x177 JUMPI CALLER PUSH20 0xFFFFFFFFFFFFFFFFFFFFFFFFFFFFFFFFFFFFFFFF AND PUSH2 0x8FC DUP3 SWAP1 DUP2 ISZERO MUL SWAP1 PUSH1 0x40 MLOAD PUSH0 PUSH1 0x40 MLOAD DUP1 DUP4 SUB DUP2 DUP6 DUP9 DUP9 CALL SWAP4 POP POP POP POP ISZERO DUP1 ISZERO PUSH2 0x175 JUMPI RETURNDATASIZE PUSH0 DUP1 RETURNDATACOPY RETURNDATASIZE PUSH0 REVERT JUMPDEST POP JUMPDEST CALLER PUSH1 0x1 PUSH0 PUSH2 0x100 EXP DUP2 SLOAD DUP2 PUSH20 0xFFFFFFFFFFFFFFFFFFFFFFFFFFFFFFFFFFFFFFFF MUL NOT AND SWAP1 DUP4 PUSH20 0xFFFFFFFFFFFFFFFFFFFFFFFFFFFFFFFFFFFFFFFF AND MUL OR SWAP1 SSTORE POP POP PUSH2 0x25D JUMP JUMPDEST PUSH1 0x2 PUSH0 SWAP1 SLOAD SWAP1 PUSH2 0x100 EXP SWAP1 DIV PUSH20 0xFFFFFFFFFFFFFFFFFFFFFFFFFFFFFFFFFFFFFFFF AND PUSH20 0xFFFFFFFFFFFFFFFFFFFFFFFFFFFFFFFFFFFFFFFF AND PUSH2 0x8FC CALLVALUE SWAP1 DUP2 ISZERO MUL SWAP1 PUSH1 0x40 MLOAD PUSH0 PUSH1 0x40 MLOAD DUP1 DUP4 SUB DUP2 DUP6 DUP9 DUP9 CALL SWAP4 POP POP POP POP ISZERO DUP1 ISZERO PUSH2 0x221 JUMPI RETURNDATASIZE PUSH0 DUP1 RETURNDATACOPY RETURNDATASIZE PUSH0 REVERT JUMPDEST POP PUSH1 0x40 MLOAD PUSH32 0x8C379A000000000000000000000000000000000000000000000000000000000 DUP2 MSTORE PUSH1 0x4 ADD PUSH2 0x254 SWAP1 PUSH2 0x8CF JUMP JUMPDEST PUSH1 0x40 MLOAD DUP1 SWAP2 SUB SWAP1 REVERT JUMPDEST POP JUMP JUMPDEST PUSH1 0x3 PUSH1 0x20 MSTORE DUP1 PUSH0 MSTORE PUSH1 0x40 PUSH0 KECCAK256 PUSH0 SWAP2 POP SWAP1 POP DUP1 PUSH0 ADD DUP1 SLOAD PUSH2 0x27F SWAP1 PUSH2 0x91A JUMP JUMPDEST DUP1 PUSH1 0x1F ADD PUSH1 0x20 DUP1 SWAP2 DIV MUL PUSH1 0x20 ADD PUSH1 0x40 MLOAD SWAP1 DUP2 ADD PUSH1 0x40 MSTORE DUP1 SWAP3 SWAP2 SWAP1 DUP2 DUP2 MSTORE PUSH1 0x20 ADD DUP3 DUP1 SLOAD PUSH2 0x2AB SWAP1 PUSH2 0x91A JUMP JUMPDEST DUP1 ISZERO PUSH2 0x2F6 JUMPI DUP1 PUSH1 0x1F LT PUSH2 0x2CD JUMPI PUSH2 0x100 DUP1 DUP4 SLOAD DIV MUL DUP4 MSTORE SWAP2 PUSH1 0x20 ADD SWAP2 PUSH2 0x2F6 JUMP JUMPDEST DUP3 ADD SWAP2 SWAP1 PUSH0 MSTORE PUSH1 0x20 PUSH0 KECCAK256 SWAP1 JUMPDEST DUP2 SLOAD DUP2 MSTORE SWAP1 PUSH1 0x1 ADD SWAP1 PUSH1 0x20 ADD DUP1 DUP4 GT PUSH2 0x2D9 JUMPI DUP3 SWAP1 SUB PUSH1 0x1F AND DUP3 ADD SWAP2 JUMPDEST POP POP POP POP POP SWAP1 DUP1 PUSH1 0x1 ADD DUP1 SLOAD PUSH2 0x30B SWAP1 PUSH2 0x91A JUMP JUMPDEST DUP1 PUSH1 0x1F ADD PUSH1 0x20 DUP1 SWAP2 DIV MUL PUSH1 0x20 ADD PUSH1 0x40 MLOAD SWAP1 DUP2 ADD PUSH1 0x40 MSTORE DUP1 SWAP3 SWAP2 SWAP1 DUP2 DUP2 MSTORE PUSH1 0x20 ADD DUP3 DUP1 SLOAD PUSH2 0x337 SWAP1 PUSH2 0x91A JUMP JUMPDEST DUP1 ISZERO PUSH2 0x382 JUMPI DUP1 PUSH1 0x1F LT PUSH2 0x359 JUMPI PUSH2 0x100 DUP1 DUP4 SLOAD DIV MUL DUP4 MSTORE SWAP2 PUSH1 0x20 ADD SWAP2 PUSH2 0x382 JUMP JUMPDEST DUP3 ADD SWAP2 SWAP1 PUSH0 MSTORE PUSH1 0x20 PUSH0 KECCAK256 SWAP1 JUMPDEST DUP2 SLOAD DUP2 MSTORE SWAP1 PUSH1 0x1 ADD SWAP1 PUSH1 0x20 ADD DUP1 DUP4 GT PUSH2 0x365 JUMPI DUP3 SWAP1 SUB PUSH1 0x1F AND DUP3 ADD SWAP2 JUMPDEST POP POP POP POP POP SWAP1 DUP1 PUSH1 0x2 ADD PUSH0 SWAP1 SLOAD SWAP1 PUSH2 0x100 EXP SWAP1 DIV PUSH2 0xFFFF AND SWAP1 POP DUP4 JUMP JUMPDEST PUSH0 DUP1 SLOAD SWAP1 PUSH2 0x100 EXP SWAP1 DIV PUSH20 0xFFFFFFFFFFFFFFFFFFFFFFFFFFFFFFFFFFFFFFFF AND PUSH20 0xFFFFFFFFFFFFFFFFFFFFFFFFFFFFFFFFFFFFFFFF AND CALLER PUSH20 0xFFFFFFFFFFFFFFFFFFFFFFFFFFFFFFFFFFFFFFFF AND EQ PUSH2 0x42C JUMPI PUSH1 0x40 MLOAD PUSH32 0x8C379A000000000000000000000000000000000000000000000000000000000 DUP2 MSTORE PUSH1 0x4 ADD PUSH2 0x423 SWAP1 PUSH2 0x994 JUMP JUMPDEST PUSH1 0x40 MLOAD DUP1 SWAP2 SUB SWAP1 REVERT JUMPDEST PUSH1 0x40 MLOAD DUP1 PUSH1 0x60 ADD PUSH1 0x40 MSTORE DUP1 DUP5 DUP2 MSTORE PUSH1 0x20 ADD DUP4 DUP2 MSTORE PUSH1 0x20 ADD DUP3 PUSH2 0xFFFF AND DUP2 MSTORE POP PUSH1 0x3 PUSH0 DUP7 PUSH2 0xFFFF AND PUSH2 0xFFFF AND DUP2 MSTORE PUSH1 0x20 ADD SWAP1 DUP2 MSTORE PUSH1 0x20 ADD PUSH0 KECCAK256 PUSH0 DUP3 ADD MLOAD DUP2 PUSH0 ADD SWAP1 DUP2 PUSH2 0x477 SWAP2 SWAP1 PUSH2 0xB4F JUMP JUMPDEST POP PUSH1 0x20 DUP3 ADD MLOAD DUP2 PUSH1 0x1 ADD SWAP1 DUP2 PUSH2 0x48D SWAP2 SWAP1 PUSH2 0xB4F JUMP JUMPDEST POP PUSH1 0x40 DUP3 ADD MLOAD DUP2 PUSH1 0x2 ADD PUSH0 PUSH2 0x100 EXP DUP2 SLOAD DUP2 PUSH2 0xFFFF MUL NOT AND SWAP1 DUP4 PUSH2 0xFFFF AND MUL OR SWAP1 SSTORE POP SWAP1 POP POP CALLER PUSH1 0x1 PUSH0 PUSH2 0x100 EXP DUP2 SLOAD DUP2 PUSH20 0xFFFFFFFFFFFFFFFFFFFFFFFFFFFFFFFFFFFFFFFF MUL NOT AND SWAP1 DUP4 PUSH20 0xFFFFFFFFFFFFFFFFFFFFFFFFFFFFFFFFFFFFFFFF AND MUL OR SWAP1 SSTORE POP POP POP POP POP JUMP JUMPDEST PUSH0 PUSH1 0x40 MLOAD SWAP1 POP SWAP1 JUMP JUMPDEST PUSH0 DUP1 REVERT JUMPDEST PUSH0 DUP1 REVERT JUMPDEST PUSH0 PUSH2 0xFFFF DUP3 AND SWAP1 POP SWAP2 SWAP1 POP JUMP JUMPDEST PUSH2 0x520 DUP2 PUSH2 0x50A JUMP JUMPDEST DUP2 EQ PUSH2 0x52A JUMPI PUSH0 DUP1 REVERT JUMPDEST POP JUMP JUMPDEST PUSH0 DUP2 CALLDATALOAD SWAP1 POP PUSH2 0x53B DUP2 PUSH2 0x517 JUMP JUMPDEST SWAP3 SWAP2 POP POP JUMP JUMPDEST PUSH0 PUSH1 0x20 DUP3 DUP5 SUB SLT ISZERO PUSH2 0x556 JUMPI PUSH2 0x555 PUSH2 0x502 JUMP JUMPDEST JUMPDEST PUSH0 PUSH2 0x563 DUP5 DUP3 DUP6 ADD PUSH2 0x52D JUMP JUMPDEST SWAP2 POP POP SWAP3 SWAP2 POP POP JUMP JUMPDEST PUSH0 DUP2 MLOAD SWAP1 POP SWAP2 SWAP1 POP JUMP JUMPDEST PUSH0 DUP3 DUP3 MSTORE PUSH1 0x20 DUP3 ADD SWAP1 POP SWAP3 SWAP2 POP POP JUMP JUMPDEST DUP3 DUP2 DUP4 MCOPY PUSH0 DUP4 DUP4 ADD MSTORE POP POP POP JUMP JUMPDEST PUSH0 PUSH1 0x1F NOT PUSH1 0x1F DUP4 ADD AND SWAP1 POP SWAP2 SWAP1 POP JUMP JUMPDEST PUSH0 PUSH2 0x5AE DUP3 PUSH2 0x56C JUMP JUMPDEST PUSH2 0x5B8 DUP2 DUP6 PUSH2 0x576 JUMP JUMPDEST SWAP4 POP PUSH2 0x5C8 DUP2 DUP6 PUSH1 0x20 DUP7 ADD PUSH2 0x586 JUMP JUMPDEST PUSH2 0x5D1 DUP2 PUSH2 0x594 JUMP JUMPDEST DUP5 ADD SWAP2 POP POP SWAP3 SWAP2 POP POP JUMP JUMPDEST PUSH2 0x5E5 DUP2 PUSH2 0x50A JUMP JUMPDEST DUP3 MSTORE POP POP JUMP JUMPDEST PUSH0 PUSH1 0x60 DUP3 ADD SWAP1 POP DUP2 DUP2 SUB PUSH0 DUP4 ADD MSTORE PUSH2 0x603 DUP2 DUP7 PUSH2 0x5A4 JUMP JUMPDEST SWAP1 POP DUP2 DUP2 SUB PUSH1 0x20 DUP4 ADD MSTORE PUSH2 0x617 DUP2 DUP6 PUSH2 0x5A4 JUMP JUMPDEST SWAP1 POP PUSH2 0x626 PUSH1 0x40 DUP4 ADD DUP5 PUSH2 0x5DC JUMP JUMPDEST SWAP5 SWAP4 POP POP POP POP JUMP JUMPDEST PUSH0 DUP1 REVERT JUMPDEST PUSH0 DUP1 REVERT JUMPDEST PUSH32 0x4E487B7100000000000000000000000000000000000000000000000000000000 PUSH0 MSTORE PUSH1 0x41 PUSH1 0x4 MSTORE PUSH1 0x24 PUSH0 REVERT JUMPDEST PUSH2 0x66C DUP3 PUSH2 0x594 JUMP JUMPDEST DUP2 ADD DUP2 DUP2 LT PUSH8 0xFFFFFFFFFFFFFFFF DUP3 GT OR ISZERO PUSH2 0x68B JUMPI PUSH2 0x68A PUSH2 0x636 JUMP JUMPDEST JUMPDEST DUP1 PUSH1 0x40 MSTORE POP POP POP JUMP JUMPDEST PUSH0 PUSH2 0x69D PUSH2 0x4F9 JUMP JUMPDEST SWAP1 POP PUSH2 0x6A9 DUP3 DUP3 PUSH2 0x663 JUMP JUMPDEST SWAP2 SWAP1 POP JUMP JUMPDEST PUSH0 PUSH8 0xFFFFFFFFFFFFFFFF DUP3 GT ISZERO PUSH2 0x6C8 JUMPI PUSH2 0x6C7 PUSH2 0x636 JUMP JUMPDEST JUMPDEST PUSH2 0x6D1 DUP3 PUSH2 0x594 JUMP JUMPDEST SWAP1 POP PUSH1 0x20 DUP2 ADD SWAP1 POP SWAP2 SWAP1 POP JUMP JUMPDEST DUP3 DUP2 DUP4 CALLDATACOPY PUSH0 DUP4 DUP4 ADD MSTORE POP POP POP JUMP JUMPDEST PUSH0 PUSH2 0x6FE PUSH2 0x6F9 DUP5 PUSH2 0x6AE JUMP JUMPDEST PUSH2 0x694 JUMP JUMPDEST SWAP1 POP DUP3 DUP2 MSTORE PUSH1 0x20 DUP2 ADD DUP5 DUP5 DUP5 ADD GT ISZERO PUSH2 0x71A JUMPI PUSH2 0x719 PUSH2 0x632 JUMP JUMPDEST JUMPDEST PUSH2 0x725 DUP5 DUP3 DUP6 PUSH2 0x6DE JUMP JUMPDEST POP SWAP4 SWAP3 POP POP POP JUMP JUMPDEST PUSH0 DUP3 PUSH1 0x1F DUP4 ADD SLT PUSH2 0x741 JUMPI PUSH2 0x740 PUSH2 0x62E JUMP JUMPDEST JUMPDEST DUP2 CALLDATALOAD PUSH2 0x751 DUP5 DUP3 PUSH1 0x20 DUP7 ADD PUSH2 0x6EC JUMP JUMPDEST SWAP2 POP POP SWAP3 SWAP2 POP POP JUMP JUMPDEST PUSH0 DUP1 PUSH0 DUP1 PUSH1 0x80 DUP6 DUP8 SUB SLT ISZERO PUSH2 0x772 JUMPI PUSH2 0x771 PUSH2 0x502 JUMP JUMPDEST JUMPDEST PUSH0 PUSH2 0x77F DUP8 DUP3 DUP9 ADD PUSH2 0x52D JUMP JUMPDEST SWAP5 POP POP PUSH1 0x20 DUP6 ADD CALLDATALOAD PUSH8 0xFFFFFFFFFFFFFFFF DUP2 GT ISZERO PUSH2 0x7A0 JUMPI PUSH2 0x79F PUSH2 0x506 JUMP JUMPDEST JUMPDEST PUSH2 0x7AC DUP8 DUP3 DUP9 ADD PUSH2 0x72D JUMP JUMPDEST SWAP4 POP POP PUSH1 0x40 DUP6 ADD CALLDATALOAD PUSH8 0xFFFFFFFFFFFFFFFF DUP2 GT ISZERO PUSH2 0x7CD JUMPI PUSH2 0x7CC PUSH2 0x506 JUMP JUMPDEST JUMPDEST PUSH2 0x7D9 DUP8 DUP3 DUP9 ADD PUSH2 0x72D JUMP JUMPDEST SWAP3 POP POP PUSH1 0x60 PUSH2 0x7EA DUP8 DUP3 DUP9 ADD PUSH2 0x52D JUMP JUMPDEST SWAP2 POP POP SWAP3 SWAP6 SWAP2 SWAP5 POP SWAP3 POP JUMP JUMPDEST PUSH0 DUP2 SWAP1 POP SWAP2 SWAP1 POP JUMP JUMPDEST PUSH32 0x4E487B7100000000000000000000000000000000000000000000000000000000 PUSH0 MSTORE PUSH1 0x11 PUSH1 0x4 MSTORE PUSH1 0x24 PUSH0 REVERT JUMPDEST PUSH0 PUSH2 0x836 DUP3 PUSH2 0x7F6 JUMP JUMPDEST SWAP2 POP PUSH2 0x841 DUP4 PUSH2 0x7F6 JUMP JUMPDEST SWAP3 POP DUP3 DUP3 SUB SWAP1 POP DUP2 DUP2 GT ISZERO PUSH2 0x859 JUMPI PUSH2 0x858 PUSH2 0x7FF JUMP JUMPDEST JUMPDEST SWAP3 SWAP2 POP POP JUMP JUMPDEST PUSH32 0x496E73756666696369656E742066756E6473202E616D6F756E7420726566756E PUSH0 DUP3 ADD MSTORE PUSH32 0x6465640000000000000000000000000000000000000000000000000000000000 PUSH1 0x20 DUP3 ADD MSTORE POP JUMP JUMPDEST PUSH0 PUSH2 0x8B9 PUSH1 0x23 DUP4 PUSH2 0x576 JUMP JUMPDEST SWAP2 POP PUSH2 0x8C4 DUP3 PUSH2 0x85F JUMP JUMPDEST PUSH1 0x40 DUP3 ADD SWAP1 POP SWAP2 SWAP1 POP JUMP JUMPDEST PUSH0 PUSH1 0x20 DUP3 ADD SWAP1 POP DUP2 DUP2 SUB PUSH0 DUP4 ADD MSTORE PUSH2 0x8E6 DUP2 PUSH2 0x8AD JUMP JUMPDEST SWAP1 POP SWAP2 SWAP1 POP JUMP JUMPDEST PUSH32 0x4E487B7100000000000000000000000000000000000000000000000000000000 PUSH0 MSTORE PUSH1 0x22 PUSH1 0x4 MSTORE PUSH1 0x24 PUSH0 REVERT JUMPDEST PUSH0 PUSH1 0x2 DUP3 DIV SWAP1 POP PUSH1 0x1 DUP3 AND DUP1 PUSH2 0x931 JUMPI PUSH1 0x7F DUP3 AND SWAP2 POP JUMPDEST PUSH1 0x20 DUP3 LT DUP2 SUB PUSH2 0x944 JUMPI PUSH2 0x943 PUSH2 0x8ED JUMP JUMPDEST JUMPDEST POP SWAP2 SWAP1 POP JUMP JUMPDEST PUSH32 0x556E617574686F72697A65640000000000000000000000000000000000000000 PUSH0 DUP3 ADD MSTORE POP JUMP JUMPDEST PUSH0 PUSH2 0x97E PUSH1 0xC DUP4 PUSH2 0x576 JUMP JUMPDEST SWAP2 POP PUSH2 0x989 DUP3 PUSH2 0x94A JUMP JUMPDEST PUSH1 0x20 DUP3 ADD SWAP1 POP SWAP2 SWAP1 POP JUMP JUMPDEST PUSH0 PUSH1 0x20 DUP3 ADD SWAP1 POP DUP2 DUP2 SUB PUSH0 DUP4 ADD MSTORE PUSH2 0x9AB DUP2 PUSH2 0x972 JUMP JUMPDEST SWAP1 POP SWAP2 SWAP1 POP JUMP JUMPDEST PUSH0 DUP2 SWAP1 POP DUP2 PUSH0 MSTORE PUSH1 0x20 PUSH0 KECCAK256 SWAP1 POP SWAP2 SWAP1 POP JUMP JUMPDEST PUSH0 PUSH1 0x20 PUSH1 0x1F DUP4 ADD DIV SWAP1 POP SWAP2 SWAP1 POP JUMP JUMPDEST PUSH0 DUP3 DUP3 SHL SWAP1 POP SWAP3 SWAP2 POP POP JUMP JUMPDEST PUSH0 PUSH1 0x8 DUP4 MUL PUSH2 0xA0E PUSH32 0xFFFFFFFFFFFFFFFFFFFFFFFFFFFFFFFFFFFFFFFFFFFFFFFFFFFFFFFFFFFFFFFF DUP3 PUSH2 0x9D3 JUMP JUMPDEST PUSH2 0xA18 DUP7 DUP4 PUSH2 0x9D3 JUMP JUMPDEST SWAP6 POP DUP1 NOT DUP5 AND SWAP4 POP DUP1 DUP7 AND DUP5 OR SWAP3 POP POP POP SWAP4 SWAP3 POP POP POP JUMP JUMPDEST PUSH0 DUP2 SWAP1 POP SWAP2 SWAP1 POP JUMP JUMPDEST PUSH0 PUSH2 0xA53 PUSH2 0xA4E PUSH2 0xA49 DUP5 PUSH2 0x7F6 JUMP JUMPDEST PUSH2 0xA30 JUMP JUMPDEST PUSH2 0x7F6 JUMP JUMPDEST SWAP1 POP SWAP2 SWAP1 POP JUMP JUMPDEST PUSH0 DUP2 SWAP1 POP SWAP2 SWAP1 POP JUMP JUMPDEST PUSH2 0xA6C DUP4 PUSH2 0xA39 JUMP JUMPDEST PUSH2 0xA80 PUSH2 0xA78 DUP3 PUSH2 0xA5A JUMP JUMPDEST DUP5 DUP5 SLOAD PUSH2 0x9DF JUMP JUMPDEST DUP3 SSTORE POP POP POP POP JUMP JUMPDEST PUSH0 SWAP1 JUMP JUMPDEST PUSH2 0xA94 PUSH2 0xA88 JUMP JUMPDEST PUSH2 0xA9F DUP2 DUP5 DUP5 PUSH2 0xA63 JUMP JUMPDEST POP POP POP JUMP JUMPDEST JUMPDEST DUP2 DUP2 LT ISZERO PUSH2 0xAC2 JUMPI PUSH2 0xAB7 PUSH0 DUP3 PUSH2 0xA8C JUMP JUMPDEST PUSH1 0x1 DUP2 ADD SWAP1 POP PUSH2 0xAA5 JUMP JUMPDEST POP POP JUMP JUMPDEST PUSH1 0x1F DUP3 GT ISZERO PUSH2 0xB07 JUMPI PUSH2 0xAD8 DUP2 PUSH2 0x9B2 JUMP JUMPDEST PUSH2 0xAE1 DUP5 PUSH2 0x9C4 JUMP JUMPDEST DUP2 ADD PUSH1 0x20 DUP6 LT ISZERO PUSH2 0xAF0 JUMPI DUP2 SWAP1 POP JUMPDEST PUSH2 0xB04 PUSH2 0xAFC DUP6 PUSH2 0x9C4 JUMP JUMPDEST DUP4 ADD DUP3 PUSH2 0xAA4 JUMP JUMPDEST POP POP JUMPDEST POP POP POP JUMP JUMPDEST PUSH0 DUP3 DUP3 SHR SWAP1 POP SWAP3 SWAP2 POP POP JUMP JUMPDEST PUSH0 PUSH2 0xB27 PUSH0 NOT DUP5 PUSH1 0x8 MUL PUSH2 0xB0C JUMP JUMPDEST NOT DUP1 DUP4 AND SWAP2 POP POP SWAP3 SWAP2 POP POP JUMP JUMPDEST PUSH0 PUSH2 0xB3F DUP4 DUP4 PUSH2 0xB18 JUMP JUMPDEST SWAP2 POP DUP3 PUSH1 0x2 MUL DUP3 OR SWAP1 POP SWAP3 SWAP2 POP POP JUMP JUMPDEST PUSH2 0xB58 DUP3 PUSH2 0x56C JUMP JUMPDEST PUSH8 0xFFFFFFFFFFFFFFFF DUP2 GT ISZERO PUSH2 0xB71 JUMPI PUSH2 0xB70 PUSH2 0x636 JUMP JUMPDEST JUMPDEST PUSH2 0xB7B DUP3 SLOAD PUSH2 0x91A JUMP JUMPDEST PUSH2 0xB86 DUP3 DUP3 DUP6 PUSH2 0xAC6 JUMP JUMPDEST PUSH0 PUSH1 0x20 SWAP1 POP PUSH1 0x1F DUP4 GT PUSH1 0x1 DUP2 EQ PUSH2 0xBB7 JUMPI PUSH0 DUP5 ISZERO PUSH2 0xBA5 JUMPI DUP3 DUP8 ADD MLOAD SWAP1 POP JUMPDEST PUSH2 0xBAF DUP6 DUP3 PUSH2 0xB34 JUMP JUMPDEST DUP7 SSTORE POP PUSH2 0xC16 JUMP JUMPDEST PUSH1 0x1F NOT DUP5 AND PUSH2 0xBC5 DUP7 PUSH2 0x9B2 JUMP JUMPDEST PUSH0 JUMPDEST DUP3 DUP2 LT ISZERO PUSH2 0xBEC JUMPI DUP5 DUP10 ADD MLOAD DUP3 SSTORE PUSH1 0x1 DUP3 ADD SWAP2 POP PUSH1 0x20 DUP6 ADD SWAP5 POP PUSH1 0x20 DUP2 ADD SWAP1 POP PUSH2 0xBC7 JUMP JUMPDEST DUP7 DUP4 LT ISZERO PUSH2 0xC09 JUMPI DUP5 DUP10 ADD MLOAD PUSH2 0xC05 PUSH1 0x1F DUP10 AND DUP3 PUSH2 0xB18 JUMP JUMPDEST DUP4 SSTORE POP JUMPDEST PUSH1 0x1 PUSH1 0x2 DUP9 MUL ADD DUP9 SSTORE POP POP POP JUMPDEST POP POP POP POP POP POP JUMP INVALID LOG2 PUSH5 0x6970667358 0x22 SLT KECCAK256 MLOAD SAR 0xE LOG2 EXTCODECOPY PUSH18 0x69E32298D1068A09A52B283A9685FB6252AD 0x4F 0xE9 MSIZE 0xE7 0xC2 SMOD PUSH3 0x36473 PUSH16 0x6C634300081A00330000000000000000 "
				},
				"gasEstimates": {
					"creation": {
						"codeDepositCost": "631200",
						"executionCost": "24927",
						"totalCost": "656127"
					},
					"external": {
						"aution(uint16)": "infinite",
						"caraution(uint16)": "infinite",
						"issue(uint16,string,string,uint16)": "infinite"
					}
				},
				"methodIdentifiers": {
					"aution(uint16)": "af55fa66",
					"caraution(uint16)": "cdd266b3",
					"issue(uint16,string,string,uint16)": "f68542b2"
				}
			},
			"storageLayout": {
				"storage": [
					{
						"astId": 10,
						"contract": "Remix/Aution.sol:Aution",
						"label": "admin",
						"offset": 0,
						"slot": "0",
						"type": "t_address"
					},
					{
						"astId": 12,
						"contract": "Remix/Aution.sol:Aution",
						"label": "owner",
						"offset": 0,
						"slot": "1",
						"type": "t_address"
					},
					{
						"astId": 14,
						"contract": "Remix/Aution.sol:Aution",
						"label": "buyer",
						"offset": 0,
						"slot": "2",
						"type": "t_address"
					},
					{
						"astId": 19,
						"contract": "Remix/Aution.sol:Aution",
						"label": "caraution",
						"offset": 0,
						"slot": "3",
						"type": "t_mapping(t_uint16,t_struct(carAution)8_storage)"
					}
				],
				"types": {
					"t_address": {
						"encoding": "inplace",
						"label": "address",
						"numberOfBytes": "20"
					},
					"t_mapping(t_uint16,t_struct(carAution)8_storage)": {
						"encoding": "mapping",
						"key": "t_uint16",
						"label": "mapping(uint16 => struct Aution.carAution)",
						"numberOfBytes": "32",
						"value": "t_struct(carAution)8_storage"
					},
					"t_string_storage": {
						"encoding": "bytes",
						"label": "string",
						"numberOfBytes": "32"
					},
					"t_struct(carAution)8_storage": {
						"encoding": "inplace",
						"label": "struct Aution.carAution",
						"members": [
							{
								"astId": 3,
								"contract": "Remix/Aution.sol:Aution",
								"label": "car",
								"offset": 0,
								"slot": "0",
								"type": "t_string_storage"
							},
							{
								"astId": 5,
								"contract": "Remix/Aution.sol:Aution",
								"label": "model",
								"offset": 0,
								"slot": "1",
								"type": "t_string_storage"
							},
							{
								"astId": 7,
								"contract": "Remix/Aution.sol:Aution",
								"label": "price",
								"offset": 0,
								"slot": "2",
								"type": "t_uint16"
							}
						],
						"numberOfBytes": "96"
					},
					"t_uint16": {
						"encoding": "inplace",
						"label": "uint16",
						"numberOfBytes": "2"
					}
				}
			},
			"userdoc": {
				"kind": "user",
				"methods": {},
				"version": 1
			}
		}
	}
}