{
	"Remix/Certi.sol": {
		"Certi": {
			"abi": [
				{
					"inputs": [],
					"stateMutability": "nonpayable",
					"type": "constructor"
				},
				{
					"inputs": [
						{
							"internalType": "uint256",
							"name": "_id",
							"type": "uint256"
						}
					],
					"name": "certificates",
					"outputs": [
						{
							"internalType": "string",
							"name": "name",
							"type": "string"
						},
						{
							"internalType": "string",
							"name": "course",
							"type": "string"
						},
						{
							"internalType": "string",
							"name": "grade",
							"type": "string"
						},
						{
							"internalType": "string",
							"name": "date",
							"type": "string"
						}
					],
					"stateMutability": "view",
					"type": "function"
				},
				{
					"inputs": [
						{
							"internalType": "uint256",
							"name": "_id",
							"type": "uint256"
						},
						{
							"internalType": "string",
							"name": "_name",
							"type": "string"
						},
						{
							"internalType": "string",
							"name": "_coures",
							"type": "string"
						},
						{
							"internalType": "string",
							"name": "_grade",
							"type": "string"
						},
						{
							"internalType": "string",
							"name": "_date",
							"type": "string"
						}
					],
					"name": "issue",
					"outputs": [],
					"stateMutability": "nonpayable",
					"type": "function"
				}
			],
			"devdoc": {
				"kind": "dev",
				"methods": {},
				"version": 1
			},
			"evm": {
				"assembly": "    /* \"Remix/Certi.sol\":57:809  contract Certi{... */\n  mstore(0x40, 0x80)\n    /* \"Remix/Certi.sol\":308:354  constructor(){... */\n  callvalue\n  dup1\n  iszero\n  tag_1\n  jumpi\n  0x00\n  dup1\n  revert\ntag_1:\n  pop\n    /* \"Remix/Certi.sol\":337:347  msg.sender */\n  caller\n    /* \"Remix/Certi.sol\":331:336  admin */\n  0x00\n  dup1\n    /* \"Remix/Certi.sol\":331:347  admin=msg.sender */\n  0x0100\n  exp\n  dup2\n  sload\n  dup2\n  0xffffffffffffffffffffffffffffffffffffffff\n  mul\n  not\n  and\n  swap1\n  dup4\n  0xffffffffffffffffffffffffffffffffffffffff\n  and\n  mul\n  or\n  swap1\n  sstore\n  pop\n    /* \"Remix/Certi.sol\":57:809  contract Certi{... */\n  dataSize(sub_0)\n  dup1\n  dataOffset(sub_0)\n  0x00\n  codecopy\n  0x00\n  return\nstop\n\nsub_0: assembly {\n        /* \"Remix/Certi.sol\":57:809  contract Certi{... */\n      mstore(0x40, 0x80)\n      callvalue\n      dup1\n      iszero\n      tag_1\n      jumpi\n      0x00\n      dup1\n      revert\n    tag_1:\n      pop\n      jumpi(tag_2, lt(calldatasize, 0x04))\n      shr(0xe0, calldataload(0x00))\n      dup1\n      0x663b3e22\n      eq\n      tag_3\n      jumpi\n      dup1\n      0xd1e7be26\n      eq\n      tag_4\n      jumpi\n    tag_2:\n      0x00\n      dup1\n      revert\n        /* \"Remix/Certi.sol\":246:301  mapping (uint256 _id => Certificate)public certificates */\n    tag_3:\n      tag_5\n      0x04\n      dup1\n      calldatasize\n      sub\n      dup2\n      add\n      swap1\n      tag_6\n      swap2\n      swap1\n      tag_7\n      jump\t// in\n    tag_6:\n      tag_8\n      jump\t// in\n    tag_5:\n      mload(0x40)\n      tag_9\n      swap5\n      swap4\n      swap3\n      swap2\n      swap1\n      tag_10\n      jump\t// in\n    tag_9:\n      mload(0x40)\n      dup1\n      swap2\n      sub\n      swap1\n      return\n        /* \"Remix/Certi.sol\":454:807  function issue(uint256 _id,string memory _name,string memory _coures,string memory _grade,string memory _date)public onlyAdmin{... */\n    tag_4:\n      tag_11\n      0x04\n      dup1\n      calldatasize\n      sub\n      dup2\n      add\n      swap1\n      tag_12\n      swap2\n      swap1\n      tag_13\n      jump\t// in\n    tag_12:\n      tag_14\n      jump\t// in\n    tag_11:\n      stop\n        /* \"Remix/Certi.sol\":246:301  mapping (uint256 _id => Certificate)public certificates */\n    tag_8:\n      mstore(0x20, 0x01)\n      dup1\n      0x00\n      mstore\n      keccak256(0x00, 0x40)\n      0x00\n      swap2\n      pop\n      swap1\n      pop\n      dup1\n      0x00\n      add\n      dup1\n      sload\n      tag_15\n      swap1\n      tag_16\n      jump\t// in\n    tag_15:\n      dup1\n      0x1f\n      add\n      0x20\n      dup1\n      swap2\n      div\n      mul\n      0x20\n      add\n      mload(0x40)\n      swap1\n      dup2\n      add\n      0x40\n      mstore\n      dup1\n      swap3\n      swap2\n      swap1\n      dup2\n      dup2\n      mstore\n      0x20\n      add\n      dup3\n      dup1\n      sload\n      tag_17\n      swap1\n      tag_16\n      jump\t// in\n    tag_17:\n      dup1\n      iszero\n      tag_18\n      jumpi\n      dup1\n      0x1f\n      lt\n      tag_19\n      jumpi\n      0x0100\n      dup1\n      dup4\n      sload\n      div\n      mul\n      dup4\n      mstore\n      swap2\n      0x20\n      add\n      swap2\n      jump(tag_18)\n    tag_19:\n      dup3\n      add\n      swap2\n      swap1\n      0x00\n      mstore\n      keccak256(0x00, 0x20)\n      swap1\n    tag_20:\n      dup2\n      sload\n      dup2\n      mstore\n      swap1\n      0x01\n      add\n      swap1\n      0x20\n      add\n      dup1\n      dup4\n      gt\n      tag_20\n      jumpi\n      dup3\n      swap1\n      sub\n      0x1f\n      and\n      dup3\n      add\n      swap2\n    tag_18:\n      pop\n      pop\n      pop\n      pop\n      pop\n      swap1\n      dup1\n      0x01\n      add\n      dup1\n      sload\n      tag_21\n      swap1\n      tag_16\n      jump\t// in\n    tag_21:\n      dup1\n      0x1f\n      add\n      0x20\n      dup1\n      swap2\n      div\n      mul\n      0x20\n      add\n      mload(0x40)\n      swap1\n      dup2\n      add\n      0x40\n      mstore\n      dup1\n      swap3\n      swap2\n      swap1\n      dup2\n      dup2\n      mstore\n      0x20\n      add\n      dup3\n      dup1\n      sload\n      tag_22\n      swap1\n      tag_16\n      jump\t// in\n    tag_22:\n      dup1\n      iszero\n      tag_23\n      jumpi\n      dup1\n      0x1f\n      lt\n      tag_24\n      jumpi\n      0x0100\n      dup1\n      dup4\n      sload\n      div\n      mul\n      dup4\n      mstore\n      swap2\n      0x20\n      add\n      swap2\n      jump(tag_23)\n    tag_24:\n      dup3\n      add\n      swap2\n      swap1\n      0x00\n      mstore\n      keccak256(0x00, 0x20)\n      swap1\n    tag_25:\n      dup2\n      sload\n      dup2\n      mstore\n      swap1\n      0x01\n      add\n      swap1\n      0x20\n      add\n      dup1\n      dup4\n      gt\n      tag_25\n      jumpi\n      dup3\n      swap1\n      sub\n      0x1f\n      and\n      dup3\n      add\n      swap2\n    tag_23:\n      pop\n      pop\n      pop\n      pop\n      pop\n      swap1\n      dup1\n      0x02\n      add\n      dup1\n      sload\n      tag_26\n      swap1\n      tag_16\n      jump\t// in\n    tag_26:\n      dup1\n      0x1f\n      add\n      0x20\n      dup1\n      swap2\n      div\n      mul\n      0x20\n      add\n      mload(0x40)\n      swap1\n      dup2\n      add\n      0x40\n      mstore\n      dup1\n      swap3\n      swap2\n      swap1\n      dup2\n      dup2\n      mstore\n      0x20\n      add\n      dup3\n      dup1\n      sload\n      tag_27\n      swap1\n      tag_16\n      jump\t// in\n    tag_27:\n      dup1\n      iszero\n      tag_28\n      jumpi\n      dup1\n      0x1f\n      lt\n      tag_29\n      jumpi\n      0x0100\n      dup1\n      dup4\n      sload\n      div\n      mul\n      dup4\n      mstore\n      swap2\n      0x20\n      add\n      swap2\n      jump(tag_28)\n    tag_29:\n      dup3\n      add\n      swap2\n      swap1\n      0x00\n      mstore\n      keccak256(0x00, 0x20)\n      swap1\n    tag_30:\n      dup2\n      sload\n      dup2\n      mstore\n      swap1\n      0x01\n      add\n      swap1\n      0x20\n      add\n      dup1\n      dup4\n      gt\n      tag_30\n      jumpi\n      dup3\n      swap1\n      sub\n      0x1f\n      and\n      dup3\n      add\n      swap2\n    tag_28:\n      pop\n      pop\n      pop\n      pop\n      pop\n      swap1\n      dup1\n      0x03\n      add\n      dup1\n      sload\n      tag_31\n      swap1\n      tag_16\n      jump\t// in\n    tag_31:\n      dup1\n      0x1f\n      add\n      0x20\n      dup1\n      swap2\n      div\n      mul\n      0x20\n      add\n      mload(0x40)\n      swap1\n      dup2\n      add\n      0x40\n      mstore\n      dup1\n      swap3\n      swap2\n      swap1\n      dup2\n      dup2\n      mstore\n      0x20\n      add\n      dup3\n      dup1\n      sload\n      tag_32\n      swap1\n      tag_16\n      jump\t// in\n    tag_32:\n      dup1\n      iszero\n      tag_33\n      jumpi\n      dup1\n      0x1f\n      lt\n      tag_34\n      jumpi\n      0x0100\n      dup1\n      dup4\n      sload\n      div\n      mul\n      dup4\n      mstore\n      swap2\n      0x20\n      add\n      swap2\n      jump(tag_33)\n    tag_34:\n      dup3\n      add\n      swap2\n      swap1\n      0x00\n      mstore\n      keccak256(0x00, 0x20)\n      swap1\n    tag_35:\n      dup2\n      sload\n      dup2\n      mstore\n      swap1\n      0x01\n      add\n      swap1\n      0x20\n      add\n      dup1\n      dup4\n      gt\n      tag_35\n      jumpi\n      dup3\n      swap1\n      sub\n      0x1f\n      and\n      dup3\n      add\n      swap2\n    tag_33:\n      pop\n      pop\n      pop\n      pop\n      pop\n      swap1\n      pop\n      dup5\n      jump\t// out\n        /* \"Remix/Certi.sol\":454:807  function issue(uint256 _id,string memory _name,string memory _coures,string memory _grade,string memory _date)public onlyAdmin{... */\n    tag_14:\n        /* \"Remix/Certi.sol\":409:414  admin */\n      0x00\n      dup1\n      sload\n      swap1\n      0x0100\n      exp\n      swap1\n      div\n      0xffffffffffffffffffffffffffffffffffffffff\n      and\n        /* \"Remix/Certi.sol\":397:414  msg.sender==admin */\n      0xffffffffffffffffffffffffffffffffffffffff\n      and\n        /* \"Remix/Certi.sol\":397:407  msg.sender */\n      caller\n        /* \"Remix/Certi.sol\":397:414  msg.sender==admin */\n      0xffffffffffffffffffffffffffffffffffffffff\n      and\n      eq\n        /* \"Remix/Certi.sol\":389:430  require(msg.sender==admin,\"Unauthorized\") */\n      tag_37\n      jumpi\n      mload(0x40)\n      0x08c379a000000000000000000000000000000000000000000000000000000000\n      dup2\n      mstore\n      0x04\n      add\n      tag_38\n      swap1\n      tag_39\n      jump\t// in\n    tag_38:\n      mload(0x40)\n      dup1\n      swap2\n      sub\n      swap1\n      revert\n    tag_37:\n        /* \"Remix/Certi.sol\":761:800  Certificate(_name,_coures,_grade,_date) */\n      mload(0x40)\n      dup1\n      0x80\n      add\n      0x40\n      mstore\n      dup1\n        /* \"Remix/Certi.sol\":773:778  _name */\n      dup6\n        /* \"Remix/Certi.sol\":761:800  Certificate(_name,_coures,_grade,_date) */\n      dup2\n      mstore\n      0x20\n      add\n        /* \"Remix/Certi.sol\":779:786  _coures */\n      dup5\n        /* \"Remix/Certi.sol\":761:800  Certificate(_name,_coures,_grade,_date) */\n      dup2\n      mstore\n      0x20\n      add\n        /* \"Remix/Certi.sol\":787:793  _grade */\n      dup4\n        /* \"Remix/Certi.sol\":761:800  Certificate(_name,_coures,_grade,_date) */\n      dup2\n      mstore\n      0x20\n      add\n        /* \"Remix/Certi.sol\":794:799  _date */\n      dup3\n        /* \"Remix/Certi.sol\":761:800  Certificate(_name,_coures,_grade,_date) */\n      dup2\n      mstore\n      pop\n        /* \"Remix/Certi.sol\":743:755  certificates */\n      0x01\n        /* \"Remix/Certi.sol\":743:760  certificates[_id] */\n      0x00\n        /* \"Remix/Certi.sol\":756:759  _id */\n      dup8\n        /* \"Remix/Certi.sol\":743:760  certificates[_id] */\n      dup2\n      mstore\n      0x20\n      add\n      swap1\n      dup2\n      mstore\n      0x20\n      add\n      0x00\n      keccak256\n        /* \"Remix/Certi.sol\":743:800  certificates[_id]=Certificate(_name,_coures,_grade,_date) */\n      0x00\n      dup3\n      add\n      mload\n      dup2\n      0x00\n      add\n      swap1\n      dup2\n      tag_41\n      swap2\n      swap1\n      tag_42\n      jump\t// in\n    tag_41:\n      pop\n      0x20\n      dup3\n      add\n      mload\n      dup2\n      0x01\n      add\n      swap1\n      dup2\n      tag_43\n      swap2\n      swap1\n      tag_42\n      jump\t// in\n    tag_43:\n      pop\n      0x40\n      dup3\n      add\n      mload\n      dup2\n      0x02\n      add\n      swap1\n      dup2\n      tag_44\n      swap2\n      swap1\n      tag_42\n      jump\t// in\n    tag_44:\n      pop\n      0x60\n      dup3\n      add\n      mload\n      dup2\n      0x03\n      add\n      swap1\n      dup2\n      tag_45\n      swap2\n      swap1\n      tag_42\n      jump\t// in\n    tag_45:\n      pop\n      swap1\n      pop\n      pop\n        /* \"Remix/Certi.sol\":454:807  function issue(uint256 _id,string memory _name,string memory _coures,string memory _grade,string memory _date)public onlyAdmin{... */\n      pop\n      pop\n      pop\n      pop\n      pop\n      jump\t// out\n        /* \"#utility.yul\":7:82   */\n    tag_46:\n        /* \"#utility.yul\":40:46   */\n      0x00\n        /* \"#utility.yul\":73:75   */\n      0x40\n        /* \"#utility.yul\":67:76   */\n      mload\n        /* \"#utility.yul\":57:76   */\n      swap1\n      pop\n        /* \"#utility.yul\":7:82   */\n      swap1\n      jump\t// out\n        /* \"#utility.yul\":88:205   */\n    tag_47:\n        /* \"#utility.yul\":197:198   */\n      0x00\n        /* \"#utility.yul\":194:195   */\n      dup1\n        /* \"#utility.yul\":187:199   */\n      revert\n        /* \"#utility.yul\":211:328   */\n    tag_48:\n        /* \"#utility.yul\":320:321   */\n      0x00\n        /* \"#utility.yul\":317:318   */\n      dup1\n        /* \"#utility.yul\":310:322   */\n      revert\n        /* \"#utility.yul\":334:411   */\n    tag_49:\n        /* \"#utility.yul\":371:378   */\n      0x00\n        /* \"#utility.yul\":400:405   */\n      dup2\n        /* \"#utility.yul\":389:405   */\n      swap1\n      pop\n        /* \"#utility.yul\":334:411   */\n      swap2\n      swap1\n      pop\n      jump\t// out\n        /* \"#utility.yul\":417:539   */\n    tag_50:\n        /* \"#utility.yul\":490:514   */\n      tag_90\n        /* \"#utility.yul\":508:513   */\n      dup2\n        /* \"#utility.yul\":490:514   */\n      tag_49\n      jump\t// in\n    tag_90:\n        /* \"#utility.yul\":483:488   */\n      dup2\n        /* \"#utility.yul\":480:515   */\n      eq\n        /* \"#utility.yul\":470:533   */\n      tag_91\n      jumpi\n        /* \"#utility.yul\":529:530   */\n      0x00\n        /* \"#utility.yul\":526:527   */\n      dup1\n        /* \"#utility.yul\":519:531   */\n      revert\n        /* \"#utility.yul\":470:533   */\n    tag_91:\n        /* \"#utility.yul\":417:539   */\n      pop\n      jump\t// out\n        /* \"#utility.yul\":545:684   */\n    tag_51:\n        /* \"#utility.yul\":591:596   */\n      0x00\n        /* \"#utility.yul\":629:635   */\n      dup2\n        /* \"#utility.yul\":616:636   */\n      calldataload\n        /* \"#utility.yul\":607:636   */\n      swap1\n      pop\n        /* \"#utility.yul\":645:678   */\n      tag_93\n        /* \"#utility.yul\":672:677   */\n      dup2\n        /* \"#utility.yul\":645:678   */\n      tag_50\n      jump\t// in\n    tag_93:\n        /* \"#utility.yul\":545:684   */\n      swap3\n      swap2\n      pop\n      pop\n      jump\t// out\n        /* \"#utility.yul\":690:1019   */\n    tag_7:\n        /* \"#utility.yul\":749:755   */\n      0x00\n        /* \"#utility.yul\":798:800   */\n      0x20\n        /* \"#utility.yul\":786:795   */\n      dup3\n        /* \"#utility.yul\":777:784   */\n      dup5\n        /* \"#utility.yul\":773:796   */\n      sub\n        /* \"#utility.yul\":769:801   */\n      slt\n        /* \"#utility.yul\":766:885   */\n      iszero\n      tag_95\n      jumpi\n        /* \"#utility.yul\":804:883   */\n      tag_96\n      tag_47\n      jump\t// in\n    tag_96:\n        /* \"#utility.yul\":766:885   */\n    tag_95:\n        /* \"#utility.yul\":924:925   */\n      0x00\n        /* \"#utility.yul\":949:1002   */\n      tag_97\n        /* \"#utility.yul\":994:1001   */\n      dup5\n        /* \"#utility.yul\":985:991   */\n      dup3\n        /* \"#utility.yul\":974:983   */\n      dup6\n        /* \"#utility.yul\":970:992   */\n      add\n        /* \"#utility.yul\":949:1002   */\n      tag_51\n      jump\t// in\n    tag_97:\n        /* \"#utility.yul\":939:1002   */\n      swap2\n      pop\n        /* \"#utility.yul\":895:1012   */\n      pop\n        /* \"#utility.yul\":690:1019   */\n      swap3\n      swap2\n      pop\n      pop\n      jump\t// out\n        /* \"#utility.yul\":1025:1124   */\n    tag_52:\n        /* \"#utility.yul\":1077:1083   */\n      0x00\n        /* \"#utility.yul\":1111:1116   */\n      dup2\n        /* \"#utility.yul\":1105:1117   */\n      mload\n        /* \"#utility.yul\":1095:1117   */\n      swap1\n      pop\n        /* \"#utility.yul\":1025:1124   */\n      swap2\n      swap1\n      pop\n      jump\t// out\n        /* \"#utility.yul\":1130:1299   */\n    tag_53:\n        /* \"#utility.yul\":1214:1225   */\n      0x00\n        /* \"#utility.yul\":1248:1254   */\n      dup3\n        /* \"#utility.yul\":1243:1246   */\n      dup3\n        /* \"#utility.yul\":1236:1255   */\n      mstore\n        /* \"#utility.yul\":1288:1292   */\n      0x20\n        /* \"#utility.yul\":1283:1286   */\n      dup3\n        /* \"#utility.yul\":1279:1293   */\n      add\n        /* \"#utility.yul\":1264:1293   */\n      swap1\n      pop\n        /* \"#utility.yul\":1130:1299   */\n      swap3\n      swap2\n      pop\n      pop\n      jump\t// out\n        /* \"#utility.yul\":1305:1444   */\n    tag_54:\n        /* \"#utility.yul\":1394:1400   */\n      dup3\n        /* \"#utility.yul\":1389:1392   */\n      dup2\n        /* \"#utility.yul\":1384:1387   */\n      dup4\n        /* \"#utility.yul\":1378:1401   */\n      mcopy\n        /* \"#utility.yul\":1435:1436   */\n      0x00\n        /* \"#utility.yul\":1426:1432   */\n      dup4\n        /* \"#utility.yul\":1421:1424   */\n      dup4\n        /* \"#utility.yul\":1417:1433   */\n      add\n        /* \"#utility.yul\":1410:1437   */\n      mstore\n        /* \"#utility.yul\":1305:1444   */\n      pop\n      pop\n      pop\n      jump\t// out\n        /* \"#utility.yul\":1450:1552   */\n    tag_55:\n        /* \"#utility.yul\":1491:1497   */\n      0x00\n        /* \"#utility.yul\":1542:1544   */\n      0x1f\n        /* \"#utility.yul\":1538:1545   */\n      not\n        /* \"#utility.yul\":1533:1535   */\n      0x1f\n        /* \"#utility.yul\":1526:1531   */\n      dup4\n        /* \"#utility.yul\":1522:1536   */\n      add\n        /* \"#utility.yul\":1518:1546   */\n      and\n        /* \"#utility.yul\":1508:1546   */\n      swap1\n      pop\n        /* \"#utility.yul\":1450:1552   */\n      swap2\n      swap1\n      pop\n      jump\t// out\n        /* \"#utility.yul\":1558:1935   */\n    tag_56:\n        /* \"#utility.yul\":1646:1649   */\n      0x00\n        /* \"#utility.yul\":1674:1713   */\n      tag_103\n        /* \"#utility.yul\":1707:1712   */\n      dup3\n        /* \"#utility.yul\":1674:1713   */\n      tag_52\n      jump\t// in\n    tag_103:\n        /* \"#utility.yul\":1729:1800   */\n      tag_104\n        /* \"#utility.yul\":1793:1799   */\n      dup2\n        /* \"#utility.yul\":1788:1791   */\n      dup6\n        /* \"#utility.yul\":1729:1800   */\n      tag_53\n      jump\t// in\n    tag_104:\n        /* \"#utility.yul\":1722:1800   */\n      swap4\n      pop\n        /* \"#utility.yul\":1809:1874   */\n      tag_105\n        /* \"#utility.yul\":1867:1873   */\n      dup2\n        /* \"#utility.yul\":1862:1865   */\n      dup6\n        /* \"#utility.yul\":1855:1859   */\n      0x20\n        /* \"#utility.yul\":1848:1853   */\n      dup7\n        /* \"#utility.yul\":1844:1860   */\n      add\n        /* \"#utility.yul\":1809:1874   */\n      tag_54\n      jump\t// in\n    tag_105:\n        /* \"#utility.yul\":1899:1928   */\n      tag_106\n        /* \"#utility.yul\":1921:1927   */\n      dup2\n        /* \"#utility.yul\":1899:1928   */\n      tag_55\n      jump\t// in\n    tag_106:\n        /* \"#utility.yul\":1894:1897   */\n      dup5\n        /* \"#utility.yul\":1890:1929   */\n      add\n        /* \"#utility.yul\":1883:1929   */\n      swap2\n      pop\n        /* \"#utility.yul\":1650:1935   */\n      pop\n        /* \"#utility.yul\":1558:1935   */\n      swap3\n      swap2\n      pop\n      pop\n      jump\t// out\n        /* \"#utility.yul\":1941:2858   */\n    tag_10:\n        /* \"#utility.yul\":2198:2202   */\n      0x00\n        /* \"#utility.yul\":2236:2239   */\n      0x80\n        /* \"#utility.yul\":2225:2234   */\n      dup3\n        /* \"#utility.yul\":2221:2240   */\n      add\n        /* \"#utility.yul\":2213:2240   */\n      swap1\n      pop\n        /* \"#utility.yul\":2286:2295   */\n      dup2\n        /* \"#utility.yul\":2280:2284   */\n      dup2\n        /* \"#utility.yul\":2276:2296   */\n      sub\n        /* \"#utility.yul\":2272:2273   */\n      0x00\n        /* \"#utility.yul\":2261:2270   */\n      dup4\n        /* \"#utility.yul\":2257:2274   */\n      add\n        /* \"#utility.yul\":2250:2297   */\n      mstore\n        /* \"#utility.yul\":2314:2392   */\n      tag_108\n        /* \"#utility.yul\":2387:2391   */\n      dup2\n        /* \"#utility.yul\":2378:2384   */\n      dup8\n        /* \"#utility.yul\":2314:2392   */\n      tag_56\n      jump\t// in\n    tag_108:\n        /* \"#utility.yul\":2306:2392   */\n      swap1\n      pop\n        /* \"#utility.yul\":2439:2448   */\n      dup2\n        /* \"#utility.yul\":2433:2437   */\n      dup2\n        /* \"#utility.yul\":2429:2449   */\n      sub\n        /* \"#utility.yul\":2424:2426   */\n      0x20\n        /* \"#utility.yul\":2413:2422   */\n      dup4\n        /* \"#utility.yul\":2409:2427   */\n      add\n        /* \"#utility.yul\":2402:2450   */\n      mstore\n        /* \"#utility.yul\":2467:2545   */\n      tag_109\n        /* \"#utility.yul\":2540:2544   */\n      dup2\n        /* \"#utility.yul\":2531:2537   */\n      dup7\n        /* \"#utility.yul\":2467:2545   */\n      tag_56\n      jump\t// in\n    tag_109:\n        /* \"#utility.yul\":2459:2545   */\n      swap1\n      pop\n        /* \"#utility.yul\":2592:2601   */\n      dup2\n        /* \"#utility.yul\":2586:2590   */\n      dup2\n        /* \"#utility.yul\":2582:2602   */\n      sub\n        /* \"#utility.yul\":2577:2579   */\n      0x40\n        /* \"#utility.yul\":2566:2575   */\n      dup4\n        /* \"#utility.yul\":2562:2580   */\n      add\n        /* \"#utility.yul\":2555:2603   */\n      mstore\n        /* \"#utility.yul\":2620:2698   */\n      tag_110\n        /* \"#utility.yul\":2693:2697   */\n      dup2\n        /* \"#utility.yul\":2684:2690   */\n      dup6\n        /* \"#utility.yul\":2620:2698   */\n      tag_56\n      jump\t// in\n    tag_110:\n        /* \"#utility.yul\":2612:2698   */\n      swap1\n      pop\n        /* \"#utility.yul\":2745:2754   */\n      dup2\n        /* \"#utility.yul\":2739:2743   */\n      dup2\n        /* \"#utility.yul\":2735:2755   */\n      sub\n        /* \"#utility.yul\":2730:2732   */\n      0x60\n        /* \"#utility.yul\":2719:2728   */\n      dup4\n        /* \"#utility.yul\":2715:2733   */\n      add\n        /* \"#utility.yul\":2708:2756   */\n      mstore\n        /* \"#utility.yul\":2773:2851   */\n      tag_111\n        /* \"#utility.yul\":2846:2850   */\n      dup2\n        /* \"#utility.yul\":2837:2843   */\n      dup5\n        /* \"#utility.yul\":2773:2851   */\n      tag_56\n      jump\t// in\n    tag_111:\n        /* \"#utility.yul\":2765:2851   */\n      swap1\n      pop\n        /* \"#utility.yul\":1941:2858   */\n      swap6\n      swap5\n      pop\n      pop\n      pop\n      pop\n      pop\n      jump\t// out\n        /* \"#utility.yul\":2864:2981   */\n    tag_57:\n        /* \"#utility.yul\":2973:2974   */\n      0x00\n        /* \"#utility.yul\":2970:2971   */\n      dup1\n        /* \"#utility.yul\":2963:2975   */\n      revert\n        /* \"#utility.yul\":2987:3104   */\n    tag_58:\n        /* \"#utility.yul\":3096:3097   */\n      0x00\n        /* \"#utility.yul\":3093:3094   */\n      dup1\n        /* \"#utility.yul\":3086:3098   */\n      revert\n        /* \"#utility.yul\":3110:3290   */\n    tag_59:\n        /* \"#utility.yul\":3158:3235   */\n      0x4e487b7100000000000000000000000000000000000000000000000000000000\n        /* \"#utility.yul\":3155:3156   */\n      0x00\n        /* \"#utility.yul\":3148:3236   */\n      mstore\n        /* \"#utility.yul\":3255:3259   */\n      0x41\n        /* \"#utility.yul\":3252:3253   */\n      0x04\n        /* \"#utility.yul\":3245:3260   */\n      mstore\n        /* \"#utility.yul\":3279:3283   */\n      0x24\n        /* \"#utility.yul\":3276:3277   */\n      0x00\n        /* \"#utility.yul\":3269:3284   */\n      revert\n        /* \"#utility.yul\":3296:3577   */\n    tag_60:\n        /* \"#utility.yul\":3379:3406   */\n      tag_116\n        /* \"#utility.yul\":3401:3405   */\n      dup3\n        /* \"#utility.yul\":3379:3406   */\n      tag_55\n      jump\t// in\n    tag_116:\n        /* \"#utility.yul\":3371:3377   */\n      dup2\n        /* \"#utility.yul\":3367:3407   */\n      add\n        /* \"#utility.yul\":3509:3515   */\n      dup2\n        /* \"#utility.yul\":3497:3507   */\n      dup2\n        /* \"#utility.yul\":3494:3516   */\n      lt\n        /* \"#utility.yul\":3473:3491   */\n      0xffffffffffffffff\n        /* \"#utility.yul\":3461:3471   */\n      dup3\n        /* \"#utility.yul\":3458:3492   */\n      gt\n        /* \"#utility.yul\":3455:3517   */\n      or\n        /* \"#utility.yul\":3452:3540   */\n      iszero\n      tag_117\n      jumpi\n        /* \"#utility.yul\":3520:3538   */\n      tag_118\n      tag_59\n      jump\t// in\n    tag_118:\n        /* \"#utility.yul\":3452:3540   */\n    tag_117:\n        /* \"#utility.yul\":3560:3570   */\n      dup1\n        /* \"#utility.yul\":3556:3558   */\n      0x40\n        /* \"#utility.yul\":3549:3571   */\n      mstore\n        /* \"#utility.yul\":3339:3577   */\n      pop\n        /* \"#utility.yul\":3296:3577   */\n      pop\n      pop\n      jump\t// out\n        /* \"#utility.yul\":3583:3712   */\n    tag_61:\n        /* \"#utility.yul\":3617:3623   */\n      0x00\n        /* \"#utility.yul\":3644:3664   */\n      tag_120\n      tag_46\n      jump\t// in\n    tag_120:\n        /* \"#utility.yul\":3634:3664   */\n      swap1\n      pop\n        /* \"#utility.yul\":3673:3706   */\n      tag_121\n        /* \"#utility.yul\":3701:3705   */\n      dup3\n        /* \"#utility.yul\":3693:3699   */\n      dup3\n        /* \"#utility.yul\":3673:3706   */\n      tag_60\n      jump\t// in\n    tag_121:\n        /* \"#utility.yul\":3583:3712   */\n      swap2\n      swap1\n      pop\n      jump\t// out\n        /* \"#utility.yul\":3718:4026   */\n    tag_62:\n        /* \"#utility.yul\":3780:3784   */\n      0x00\n        /* \"#utility.yul\":3870:3888   */\n      0xffffffffffffffff\n        /* \"#utility.yul\":3862:3868   */\n      dup3\n        /* \"#utility.yul\":3859:3889   */\n      gt\n        /* \"#utility.yul\":3856:3912   */\n      iszero\n      tag_123\n      jumpi\n        /* \"#utility.yul\":3892:3910   */\n      tag_124\n      tag_59\n      jump\t// in\n    tag_124:\n        /* \"#utility.yul\":3856:3912   */\n    tag_123:\n        /* \"#utility.yul\":3930:3959   */\n      tag_125\n        /* \"#utility.yul\":3952:3958   */\n      dup3\n        /* \"#utility.yul\":3930:3959   */\n      tag_55\n      jump\t// in\n    tag_125:\n        /* \"#utility.yul\":3922:3959   */\n      swap1\n      pop\n        /* \"#utility.yul\":4014:4018   */\n      0x20\n        /* \"#utility.yul\":4008:4012   */\n      dup2\n        /* \"#utility.yul\":4004:4019   */\n      add\n        /* \"#utility.yul\":3996:4019   */\n      swap1\n      pop\n        /* \"#utility.yul\":3718:4026   */\n      swap2\n      swap1\n      pop\n      jump\t// out\n        /* \"#utility.yul\":4032:4180   */\n    tag_63:\n        /* \"#utility.yul\":4130:4136   */\n      dup3\n        /* \"#utility.yul\":4125:4128   */\n      dup2\n        /* \"#utility.yul\":4120:4123   */\n      dup4\n        /* \"#utility.yul\":4107:4137   */\n      calldatacopy\n        /* \"#utility.yul\":4171:4172   */\n      0x00\n        /* \"#utility.yul\":4162:4168   */\n      dup4\n        /* \"#utility.yul\":4157:4160   */\n      dup4\n        /* \"#utility.yul\":4153:4169   */\n      add\n        /* \"#utility.yul\":4146:4173   */\n      mstore\n        /* \"#utility.yul\":4032:4180   */\n      pop\n      pop\n      pop\n      jump\t// out\n        /* \"#utility.yul\":4186:4611   */\n    tag_64:\n        /* \"#utility.yul\":4264:4269   */\n      0x00\n        /* \"#utility.yul\":4289:4355   */\n      tag_128\n        /* \"#utility.yul\":4305:4354   */\n      tag_129\n        /* \"#utility.yul\":4347:4353   */\n      dup5\n        /* \"#utility.yul\":4305:4354   */\n      tag_62\n      jump\t// in\n    tag_129:\n        /* \"#utility.yul\":4289:4355   */\n      tag_61\n      jump\t// in\n    tag_128:\n        /* \"#utility.yul\":4280:4355   */\n      swap1\n      pop\n        /* \"#utility.yul\":4378:4384   */\n      dup3\n        /* \"#utility.yul\":4371:4376   */\n      dup2\n        /* \"#utility.yul\":4364:4385   */\n      mstore\n        /* \"#utility.yul\":4416:4420   */\n      0x20\n        /* \"#utility.yul\":4409:4414   */\n      dup2\n        /* \"#utility.yul\":4405:4421   */\n      add\n        /* \"#utility.yul\":4454:4457   */\n      dup5\n        /* \"#utility.yul\":4445:4451   */\n      dup5\n        /* \"#utility.yul\":4440:4443   */\n      dup5\n        /* \"#utility.yul\":4436:4452   */\n      add\n        /* \"#utility.yul\":4433:4458   */\n      gt\n        /* \"#utility.yul\":4430:4542   */\n      iszero\n      tag_130\n      jumpi\n        /* \"#utility.yul\":4461:4540   */\n      tag_131\n      tag_58\n      jump\t// in\n    tag_131:\n        /* \"#utility.yul\":4430:4542   */\n    tag_130:\n        /* \"#utility.yul\":4551:4605   */\n      tag_132\n        /* \"#utility.yul\":4598:4604   */\n      dup5\n        /* \"#utility.yul\":4593:4596   */\n      dup3\n        /* \"#utility.yul\":4588:4591   */\n      dup6\n        /* \"#utility.yul\":4551:4605   */\n      tag_63\n      jump\t// in\n    tag_132:\n        /* \"#utility.yul\":4270:4611   */\n      pop\n        /* \"#utility.yul\":4186:4611   */\n      swap4\n      swap3\n      pop\n      pop\n      pop\n      jump\t// out\n        /* \"#utility.yul\":4631:4971   */\n    tag_65:\n        /* \"#utility.yul\":4687:4692   */\n      0x00\n        /* \"#utility.yul\":4736:4739   */\n      dup3\n        /* \"#utility.yul\":4729:4733   */\n      0x1f\n        /* \"#utility.yul\":4721:4727   */\n      dup4\n        /* \"#utility.yul\":4717:4734   */\n      add\n        /* \"#utility.yul\":4713:4740   */\n      slt\n        /* \"#utility.yul\":4703:4825   */\n      tag_134\n      jumpi\n        /* \"#utility.yul\":4744:4823   */\n      tag_135\n      tag_57\n      jump\t// in\n    tag_135:\n        /* \"#utility.yul\":4703:4825   */\n    tag_134:\n        /* \"#utility.yul\":4861:4867   */\n      dup2\n        /* \"#utility.yul\":4848:4868   */\n      calldataload\n        /* \"#utility.yul\":4886:4965   */\n      tag_136\n        /* \"#utility.yul\":4961:4964   */\n      dup5\n        /* \"#utility.yul\":4953:4959   */\n      dup3\n        /* \"#utility.yul\":4946:4950   */\n      0x20\n        /* \"#utility.yul\":4938:4944   */\n      dup7\n        /* \"#utility.yul\":4934:4951   */\n      add\n        /* \"#utility.yul\":4886:4965   */\n      tag_64\n      jump\t// in\n    tag_136:\n        /* \"#utility.yul\":4877:4965   */\n      swap2\n      pop\n        /* \"#utility.yul\":4693:4971   */\n      pop\n        /* \"#utility.yul\":4631:4971   */\n      swap3\n      swap2\n      pop\n      pop\n      jump\t// out\n        /* \"#utility.yul\":4977:6608   */\n    tag_13:\n        /* \"#utility.yul\":5112:5118   */\n      0x00\n        /* \"#utility.yul\":5120:5126   */\n      dup1\n        /* \"#utility.yul\":5128:5134   */\n      0x00\n        /* \"#utility.yul\":5136:5142   */\n      dup1\n        /* \"#utility.yul\":5144:5150   */\n      0x00\n        /* \"#utility.yul\":5193:5196   */\n      0xa0\n        /* \"#utility.yul\":5181:5190   */\n      dup7\n        /* \"#utility.yul\":5172:5179   */\n      dup9\n        /* \"#utility.yul\":5168:5191   */\n      sub\n        /* \"#utility.yul\":5164:5197   */\n      slt\n        /* \"#utility.yul\":5161:5281   */\n      iszero\n      tag_138\n      jumpi\n        /* \"#utility.yul\":5200:5279   */\n      tag_139\n      tag_47\n      jump\t// in\n    tag_139:\n        /* \"#utility.yul\":5161:5281   */\n    tag_138:\n        /* \"#utility.yul\":5320:5321   */\n      0x00\n        /* \"#utility.yul\":5345:5398   */\n      tag_140\n        /* \"#utility.yul\":5390:5397   */\n      dup9\n        /* \"#utility.yul\":5381:5387   */\n      dup3\n        /* \"#utility.yul\":5370:5379   */\n      dup10\n        /* \"#utility.yul\":5366:5388   */\n      add\n        /* \"#utility.yul\":5345:5398   */\n      tag_51\n      jump\t// in\n    tag_140:\n        /* \"#utility.yul\":5335:5398   */\n      swap6\n      pop\n        /* \"#utility.yul\":5291:5408   */\n      pop\n        /* \"#utility.yul\":5475:5477   */\n      0x20\n        /* \"#utility.yul\":5464:5473   */\n      dup7\n        /* \"#utility.yul\":5460:5478   */\n      add\n        /* \"#utility.yul\":5447:5479   */\n      calldataload\n        /* \"#utility.yul\":5506:5524   */\n      0xffffffffffffffff\n        /* \"#utility.yul\":5498:5504   */\n      dup2\n        /* \"#utility.yul\":5495:5525   */\n      gt\n        /* \"#utility.yul\":5492:5609   */\n      iszero\n      tag_141\n      jumpi\n        /* \"#utility.yul\":5528:5607   */\n      tag_142\n      tag_48\n      jump\t// in\n    tag_142:\n        /* \"#utility.yul\":5492:5609   */\n    tag_141:\n        /* \"#utility.yul\":5633:5696   */\n      tag_143\n        /* \"#utility.yul\":5688:5695   */\n      dup9\n        /* \"#utility.yul\":5679:5685   */\n      dup3\n        /* \"#utility.yul\":5668:5677   */\n      dup10\n        /* \"#utility.yul\":5664:5686   */\n      add\n        /* \"#utility.yul\":5633:5696   */\n      tag_65\n      jump\t// in\n    tag_143:\n        /* \"#utility.yul\":5623:5696   */\n      swap5\n      pop\n        /* \"#utility.yul\":5418:5706   */\n      pop\n        /* \"#utility.yul\":5773:5775   */\n      0x40\n        /* \"#utility.yul\":5762:5771   */\n      dup7\n        /* \"#utility.yul\":5758:5776   */\n      add\n        /* \"#utility.yul\":5745:5777   */\n      calldataload\n        /* \"#utility.yul\":5804:5822   */\n      0xffffffffffffffff\n        /* \"#utility.yul\":5796:5802   */\n      dup2\n        /* \"#utility.yul\":5793:5823   */\n      gt\n        /* \"#utility.yul\":5790:5907   */\n      iszero\n      tag_144\n      jumpi\n        /* \"#utility.yul\":5826:5905   */\n      tag_145\n      tag_48\n      jump\t// in\n    tag_145:\n        /* \"#utility.yul\":5790:5907   */\n    tag_144:\n        /* \"#utility.yul\":5931:5994   */\n      tag_146\n        /* \"#utility.yul\":5986:5993   */\n      dup9\n        /* \"#utility.yul\":5977:5983   */\n      dup3\n        /* \"#utility.yul\":5966:5975   */\n      dup10\n        /* \"#utility.yul\":5962:5984   */\n      add\n        /* \"#utility.yul\":5931:5994   */\n      tag_65\n      jump\t// in\n    tag_146:\n        /* \"#utility.yul\":5921:5994   */\n      swap4\n      pop\n        /* \"#utility.yul\":5716:6004   */\n      pop\n        /* \"#utility.yul\":6071:6073   */\n      0x60\n        /* \"#utility.yul\":6060:6069   */\n      dup7\n        /* \"#utility.yul\":6056:6074   */\n      add\n        /* \"#utility.yul\":6043:6075   */\n      calldataload\n        /* \"#utility.yul\":6102:6120   */\n      0xffffffffffffffff\n        /* \"#utility.yul\":6094:6100   */\n      dup2\n        /* \"#utility.yul\":6091:6121   */\n      gt\n        /* \"#utility.yul\":6088:6205   */\n      iszero\n      tag_147\n      jumpi\n        /* \"#utility.yul\":6124:6203   */\n      tag_148\n      tag_48\n      jump\t// in\n    tag_148:\n        /* \"#utility.yul\":6088:6205   */\n    tag_147:\n        /* \"#utility.yul\":6229:6292   */\n      tag_149\n        /* \"#utility.yul\":6284:6291   */\n      dup9\n        /* \"#utility.yul\":6275:6281   */\n      dup3\n        /* \"#utility.yul\":6264:6273   */\n      dup10\n        /* \"#utility.yul\":6260:6282   */\n      add\n        /* \"#utility.yul\":6229:6292   */\n      tag_65\n      jump\t// in\n    tag_149:\n        /* \"#utility.yul\":6219:6292   */\n      swap3\n      pop\n        /* \"#utility.yul\":6014:6302   */\n      pop\n        /* \"#utility.yul\":6369:6372   */\n      0x80\n        /* \"#utility.yul\":6358:6367   */\n      dup7\n        /* \"#utility.yul\":6354:6373   */\n      add\n        /* \"#utility.yul\":6341:6374   */\n      calldataload\n        /* \"#utility.yul\":6401:6419   */\n      0xffffffffffffffff\n        /* \"#utility.yul\":6393:6399   */\n      dup2\n        /* \"#utility.yul\":6390:6420   */\n      gt\n        /* \"#utility.yul\":6387:6504   */\n      iszero\n      tag_150\n      jumpi\n        /* \"#utility.yul\":6423:6502   */\n      tag_151\n      tag_48\n      jump\t// in\n    tag_151:\n        /* \"#utility.yul\":6387:6504   */\n    tag_150:\n        /* \"#utility.yul\":6528:6591   */\n      tag_152\n        /* \"#utility.yul\":6583:6590   */\n      dup9\n        /* \"#utility.yul\":6574:6580   */\n      dup3\n        /* \"#utility.yul\":6563:6572   */\n      dup10\n        /* \"#utility.yul\":6559:6581   */\n      add\n        /* \"#utility.yul\":6528:6591   */\n      tag_65\n      jump\t// in\n    tag_152:\n        /* \"#utility.yul\":6518:6591   */\n      swap2\n      pop\n        /* \"#utility.yul\":6312:6601   */\n      pop\n        /* \"#utility.yul\":4977:6608   */\n      swap3\n      swap6\n      pop\n      swap3\n      swap6\n      swap1\n      swap4\n      pop\n      jump\t// out\n        /* \"#utility.yul\":6614:6794   */\n    tag_66:\n        /* \"#utility.yul\":6662:6739   */\n      0x4e487b7100000000000000000000000000000000000000000000000000000000\n        /* \"#utility.yul\":6659:6660   */\n      0x00\n        /* \"#utility.yul\":6652:6740   */\n      mstore\n        /* \"#utility.yul\":6759:6763   */\n      0x22\n        /* \"#utility.yul\":6756:6757   */\n      0x04\n        /* \"#utility.yul\":6749:6764   */\n      mstore\n        /* \"#utility.yul\":6783:6787   */\n      0x24\n        /* \"#utility.yul\":6780:6781   */\n      0x00\n        /* \"#utility.yul\":6773:6788   */\n      revert\n        /* \"#utility.yul\":6800:7120   */\n    tag_16:\n        /* \"#utility.yul\":6844:6850   */\n      0x00\n        /* \"#utility.yul\":6881:6882   */\n      0x02\n        /* \"#utility.yul\":6875:6879   */\n      dup3\n        /* \"#utility.yul\":6871:6883   */\n      div\n        /* \"#utility.yul\":6861:6883   */\n      swap1\n      pop\n        /* \"#utility.yul\":6928:6929   */\n      0x01\n        /* \"#utility.yul\":6922:6926   */\n      dup3\n        /* \"#utility.yul\":6918:6930   */\n      and\n        /* \"#utility.yul\":6949:6967   */\n      dup1\n        /* \"#utility.yul\":6939:7020   */\n      tag_155\n      jumpi\n        /* \"#utility.yul\":7005:7009   */\n      0x7f\n        /* \"#utility.yul\":6997:7003   */\n      dup3\n        /* \"#utility.yul\":6993:7010   */\n      and\n        /* \"#utility.yul\":6983:7010   */\n      swap2\n      pop\n        /* \"#utility.yul\":6939:7020   */\n    tag_155:\n        /* \"#utility.yul\":7067:7069   */\n      0x20\n        /* \"#utility.yul\":7059:7065   */\n      dup3\n        /* \"#utility.yul\":7056:7070   */\n      lt\n        /* \"#utility.yul\":7036:7054   */\n      dup2\n        /* \"#utility.yul\":7033:7071   */\n      sub\n        /* \"#utility.yul\":7030:7114   */\n      tag_156\n      jumpi\n        /* \"#utility.yul\":7086:7104   */\n      tag_157\n      tag_66\n      jump\t// in\n    tag_157:\n        /* \"#utility.yul\":7030:7114   */\n    tag_156:\n        /* \"#utility.yul\":6851:7120   */\n      pop\n        /* \"#utility.yul\":6800:7120   */\n      swap2\n      swap1\n      pop\n      jump\t// out\n        /* \"#utility.yul\":7126:7288   */\n    tag_67:\n        /* \"#utility.yul\":7266:7280   */\n      0x556e617574686f72697a65640000000000000000000000000000000000000000\n        /* \"#utility.yul\":7262:7263   */\n      0x00\n        /* \"#utility.yul\":7254:7260   */\n      dup3\n        /* \"#utility.yul\":7250:7264   */\n      add\n        /* \"#utility.yul\":7243:7281   */\n      mstore\n        /* \"#utility.yul\":7126:7288   */\n      pop\n      jump\t// out\n        /* \"#utility.yul\":7294:7660   */\n    tag_68:\n        /* \"#utility.yul\":7436:7439   */\n      0x00\n        /* \"#utility.yul\":7457:7524   */\n      tag_160\n        /* \"#utility.yul\":7521:7523   */\n      0x0c\n        /* \"#utility.yul\":7516:7519   */\n      dup4\n        /* \"#utility.yul\":7457:7524   */\n      tag_53\n      jump\t// in\n    tag_160:\n        /* \"#utility.yul\":7450:7524   */\n      swap2\n      pop\n        /* \"#utility.yul\":7533:7626   */\n      tag_161\n        /* \"#utility.yul\":7622:7625   */\n      dup3\n        /* \"#utility.yul\":7533:7626   */\n      tag_67\n      jump\t// in\n    tag_161:\n        /* \"#utility.yul\":7651:7653   */\n      0x20\n        /* \"#utility.yul\":7646:7649   */\n      dup3\n        /* \"#utility.yul\":7642:7654   */\n      add\n        /* \"#utility.yul\":7635:7654   */\n      swap1\n      pop\n        /* \"#utility.yul\":7294:7660   */\n      swap2\n      swap1\n      pop\n      jump\t// out\n        /* \"#utility.yul\":7666:8085   */\n    tag_39:\n        /* \"#utility.yul\":7832:7836   */\n      0x00\n        /* \"#utility.yul\":7870:7872   */\n      0x20\n        /* \"#utility.yul\":7859:7868   */\n      dup3\n        /* \"#utility.yul\":7855:7873   */\n      add\n        /* \"#utility.yul\":7847:7873   */\n      swap1\n      pop\n        /* \"#utility.yul\":7919:7928   */\n      dup2\n        /* \"#utility.yul\":7913:7917   */\n      dup2\n        /* \"#utility.yul\":7909:7929   */\n      sub\n        /* \"#utility.yul\":7905:7906   */\n      0x00\n        /* \"#utility.yul\":7894:7903   */\n      dup4\n        /* \"#utility.yul\":7890:7907   */\n      add\n        /* \"#utility.yul\":7883:7930   */\n      mstore\n        /* \"#utility.yul\":7947:8078   */\n      tag_163\n        /* \"#utility.yul\":8073:8077   */\n      dup2\n        /* \"#utility.yul\":7947:8078   */\n      tag_68\n      jump\t// in\n    tag_163:\n        /* \"#utility.yul\":7939:8078   */\n      swap1\n      pop\n        /* \"#utility.yul\":7666:8085   */\n      swap2\n      swap1\n      pop\n      jump\t// out\n        /* \"#utility.yul\":8091:8232   */\n    tag_69:\n        /* \"#utility.yul\":8140:8144   */\n      0x00\n        /* \"#utility.yul\":8163:8166   */\n      dup2\n        /* \"#utility.yul\":8155:8166   */\n      swap1\n      pop\n        /* \"#utility.yul\":8186:8189   */\n      dup2\n        /* \"#utility.yul\":8183:8184   */\n      0x00\n        /* \"#utility.yul\":8176:8190   */\n      mstore\n        /* \"#utility.yul\":8220:8224   */\n      0x20\n        /* \"#utility.yul\":8217:8218   */\n      0x00\n        /* \"#utility.yul\":8207:8225   */\n      keccak256\n        /* \"#utility.yul\":8199:8225   */\n      swap1\n      pop\n        /* \"#utility.yul\":8091:8232   */\n      swap2\n      swap1\n      pop\n      jump\t// out\n        /* \"#utility.yul\":8238:8331   */\n    tag_70:\n        /* \"#utility.yul\":8275:8281   */\n      0x00\n        /* \"#utility.yul\":8322:8324   */\n      0x20\n        /* \"#utility.yul\":8317:8319   */\n      0x1f\n        /* \"#utility.yul\":8310:8315   */\n      dup4\n        /* \"#utility.yul\":8306:8320   */\n      add\n        /* \"#utility.yul\":8302:8325   */\n      div\n        /* \"#utility.yul\":8292:8325   */\n      swap1\n      pop\n        /* \"#utility.yul\":8238:8331   */\n      swap2\n      swap1\n      pop\n      jump\t// out\n        /* \"#utility.yul\":8337:8444   */\n    tag_71:\n        /* \"#utility.yul\":8381:8389   */\n      0x00\n        /* \"#utility.yul\":8431:8436   */\n      dup3\n        /* \"#utility.yul\":8425:8429   */\n      dup3\n        /* \"#utility.yul\":8421:8437   */\n      shl\n        /* \"#utility.yul\":8400:8437   */\n      swap1\n      pop\n        /* \"#utility.yul\":8337:8444   */\n      swap3\n      swap2\n      pop\n      pop\n      jump\t// out\n        /* \"#utility.yul\":8450:8843   */\n    tag_72:\n        /* \"#utility.yul\":8519:8525   */\n      0x00\n        /* \"#utility.yul\":8569:8570   */\n      0x08\n        /* \"#utility.yul\":8557:8567   */\n      dup4\n        /* \"#utility.yul\":8553:8571   */\n      mul\n        /* \"#utility.yul\":8592:8689   */\n      tag_168\n        /* \"#utility.yul\":8622:8688   */\n      0xffffffffffffffffffffffffffffffffffffffffffffffffffffffffffffffff\n        /* \"#utility.yul\":8611:8620   */\n      dup3\n        /* \"#utility.yul\":8592:8689   */\n      tag_71\n      jump\t// in\n    tag_168:\n        /* \"#utility.yul\":8710:8749   */\n      tag_169\n        /* \"#utility.yul\":8740:8748   */\n      dup7\n        /* \"#utility.yul\":8729:8738   */\n      dup4\n        /* \"#utility.yul\":8710:8749   */\n      tag_71\n      jump\t// in\n    tag_169:\n        /* \"#utility.yul\":8698:8749   */\n      swap6\n      pop\n        /* \"#utility.yul\":8782:8786   */\n      dup1\n        /* \"#utility.yul\":8778:8787   */\n      not\n        /* \"#utility.yul\":8771:8776   */\n      dup5\n        /* \"#utility.yul\":8767:8788   */\n      and\n        /* \"#utility.yul\":8758:8788   */\n      swap4\n      pop\n        /* \"#utility.yul\":8831:8835   */\n      dup1\n        /* \"#utility.yul\":8821:8829   */\n      dup7\n        /* \"#utility.yul\":8817:8836   */\n      and\n        /* \"#utility.yul\":8810:8815   */\n      dup5\n        /* \"#utility.yul\":8807:8837   */\n      or\n        /* \"#utility.yul\":8797:8837   */\n      swap3\n      pop\n        /* \"#utility.yul\":8526:8843   */\n      pop\n      pop\n        /* \"#utility.yul\":8450:8843   */\n      swap4\n      swap3\n      pop\n      pop\n      pop\n      jump\t// out\n        /* \"#utility.yul\":8849:8909   */\n    tag_73:\n        /* \"#utility.yul\":8877:8880   */\n      0x00\n        /* \"#utility.yul\":8898:8903   */\n      dup2\n        /* \"#utility.yul\":8891:8903   */\n      swap1\n      pop\n        /* \"#utility.yul\":8849:8909   */\n      swap2\n      swap1\n      pop\n      jump\t// out\n        /* \"#utility.yul\":8915:9057   */\n    tag_74:\n        /* \"#utility.yul\":8965:8974   */\n      0x00\n        /* \"#utility.yul\":8998:9051   */\n      tag_172\n        /* \"#utility.yul\":9016:9050   */\n      tag_173\n        /* \"#utility.yul\":9025:9049   */\n      tag_174\n        /* \"#utility.yul\":9043:9048   */\n      dup5\n        /* \"#utility.yul\":9025:9049   */\n      tag_49\n      jump\t// in\n    tag_174:\n        /* \"#utility.yul\":9016:9050   */\n      tag_73\n      jump\t// in\n    tag_173:\n        /* \"#utility.yul\":8998:9051   */\n      tag_49\n      jump\t// in\n    tag_172:\n        /* \"#utility.yul\":8985:9051   */\n      swap1\n      pop\n        /* \"#utility.yul\":8915:9057   */\n      swap2\n      swap1\n      pop\n      jump\t// out\n        /* \"#utility.yul\":9063:9138   */\n    tag_75:\n        /* \"#utility.yul\":9106:9109   */\n      0x00\n        /* \"#utility.yul\":9127:9132   */\n      dup2\n        /* \"#utility.yul\":9120:9132   */\n      swap1\n      pop\n        /* \"#utility.yul\":9063:9138   */\n      swap2\n      swap1\n      pop\n      jump\t// out\n        /* \"#utility.yul\":9144:9413   */\n    tag_76:\n        /* \"#utility.yul\":9254:9293   */\n      tag_177\n        /* \"#utility.yul\":9285:9292   */\n      dup4\n        /* \"#utility.yul\":9254:9293   */\n      tag_74\n      jump\t// in\n    tag_177:\n        /* \"#utility.yul\":9315:9406   */\n      tag_178\n        /* \"#utility.yul\":9364:9405   */\n      tag_179\n        /* \"#utility.yul\":9388:9404   */\n      dup3\n        /* \"#utility.yul\":9364:9405   */\n      tag_75\n      jump\t// in\n    tag_179:\n        /* \"#utility.yul\":9356:9362   */\n      dup5\n        /* \"#utility.yul\":9349:9353   */\n      dup5\n        /* \"#utility.yul\":9343:9354   */\n      sload\n        /* \"#utility.yul\":9315:9406   */\n      tag_72\n      jump\t// in\n    tag_178:\n        /* \"#utility.yul\":9309:9313   */\n      dup3\n        /* \"#utility.yul\":9302:9407   */\n      sstore\n        /* \"#utility.yul\":9220:9413   */\n      pop\n        /* \"#utility.yul\":9144:9413   */\n      pop\n      pop\n      pop\n      jump\t// out\n        /* \"#utility.yul\":9419:9492   */\n    tag_77:\n        /* \"#utility.yul\":9464:9467   */\n      0x00\n        /* \"#utility.yul\":9419:9492   */\n      swap1\n      jump\t// out\n        /* \"#utility.yul\":9498:9687   */\n    tag_78:\n        /* \"#utility.yul\":9575:9607   */\n      tag_182\n      tag_77\n      jump\t// in\n    tag_182:\n        /* \"#utility.yul\":9616:9681   */\n      tag_183\n        /* \"#utility.yul\":9674:9680   */\n      dup2\n        /* \"#utility.yul\":9666:9672   */\n      dup5\n        /* \"#utility.yul\":9660:9664   */\n      dup5\n        /* \"#utility.yul\":9616:9681   */\n      tag_76\n      jump\t// in\n    tag_183:\n        /* \"#utility.yul\":9551:9687   */\n      pop\n        /* \"#utility.yul\":9498:9687   */\n      pop\n      pop\n      jump\t// out\n        /* \"#utility.yul\":9693:9879   */\n    tag_79:\n        /* \"#utility.yul\":9753:9873   */\n    tag_185:\n        /* \"#utility.yul\":9770:9773   */\n      dup2\n        /* \"#utility.yul\":9763:9768   */\n      dup2\n        /* \"#utility.yul\":9760:9774   */\n      lt\n        /* \"#utility.yul\":9753:9873   */\n      iszero\n      tag_187\n      jumpi\n        /* \"#utility.yul\":9824:9863   */\n      tag_188\n        /* \"#utility.yul\":9861:9862   */\n      0x00\n        /* \"#utility.yul\":9854:9859   */\n      dup3\n        /* \"#utility.yul\":9824:9863   */\n      tag_78\n      jump\t// in\n    tag_188:\n        /* \"#utility.yul\":9797:9798   */\n      0x01\n        /* \"#utility.yul\":9790:9795   */\n      dup2\n        /* \"#utility.yul\":9786:9799   */\n      add\n        /* \"#utility.yul\":9777:9799   */\n      swap1\n      pop\n        /* \"#utility.yul\":9753:9873   */\n      jump(tag_185)\n    tag_187:\n        /* \"#utility.yul\":9693:9879   */\n      pop\n      pop\n      jump\t// out\n        /* \"#utility.yul\":9885:10428   */\n    tag_80:\n        /* \"#utility.yul\":9986:9988   */\n      0x1f\n        /* \"#utility.yul\":9981:9984   */\n      dup3\n        /* \"#utility.yul\":9978:9989   */\n      gt\n        /* \"#utility.yul\":9975:10421   */\n      iszero\n      tag_190\n      jumpi\n        /* \"#utility.yul\":10020:10058   */\n      tag_191\n        /* \"#utility.yul\":10052:10057   */\n      dup2\n        /* \"#utility.yul\":10020:10058   */\n      tag_69\n      jump\t// in\n    tag_191:\n        /* \"#utility.yul\":10104:10133   */\n      tag_192\n        /* \"#utility.yul\":10122:10132   */\n      dup5\n        /* \"#utility.yul\":10104:10133   */\n      tag_70\n      jump\t// in\n    tag_192:\n        /* \"#utility.yul\":10094:10102   */\n      dup2\n        /* \"#utility.yul\":10090:10134   */\n      add\n        /* \"#utility.yul\":10287:10289   */\n      0x20\n        /* \"#utility.yul\":10275:10285   */\n      dup6\n        /* \"#utility.yul\":10272:10290   */\n      lt\n        /* \"#utility.yul\":10269:10318   */\n      iszero\n      tag_193\n      jumpi\n        /* \"#utility.yul\":10308:10316   */\n      dup2\n        /* \"#utility.yul\":10293:10316   */\n      swap1\n      pop\n        /* \"#utility.yul\":10269:10318   */\n    tag_193:\n        /* \"#utility.yul\":10331:10411   */\n      tag_194\n        /* \"#utility.yul\":10387:10409   */\n      tag_195\n        /* \"#utility.yul\":10405:10408   */\n      dup6\n        /* \"#utility.yul\":10387:10409   */\n      tag_70\n      jump\t// in\n    tag_195:\n        /* \"#utility.yul\":10377:10385   */\n      dup4\n        /* \"#utility.yul\":10373:10410   */\n      add\n        /* \"#utility.yul\":10360:10371   */\n      dup3\n        /* \"#utility.yul\":10331:10411   */\n      tag_79\n      jump\t// in\n    tag_194:\n        /* \"#utility.yul\":9990:10421   */\n      pop\n      pop\n        /* \"#utility.yul\":9975:10421   */\n    tag_190:\n        /* \"#utility.yul\":9885:10428   */\n      pop\n      pop\n      pop\n      jump\t// out\n        /* \"#utility.yul\":10434:10551   */\n    tag_81:\n        /* \"#utility.yul\":10488:10496   */\n      0x00\n        /* \"#utility.yul\":10538:10543   */\n      dup3\n        /* \"#utility.yul\":10532:10536   */\n      dup3\n        /* \"#utility.yul\":10528:10544   */\n      shr\n        /* \"#utility.yul\":10507:10544   */\n      swap1\n      pop\n        /* \"#utility.yul\":10434:10551   */\n      swap3\n      swap2\n      pop\n      pop\n      jump\t// out\n        /* \"#utility.yul\":10557:10726   */\n    tag_82:\n        /* \"#utility.yul\":10601:10607   */\n      0x00\n        /* \"#utility.yul\":10634:10685   */\n      tag_198\n        /* \"#utility.yul\":10682:10683   */\n      0x00\n        /* \"#utility.yul\":10678:10684   */\n      not\n        /* \"#utility.yul\":10670:10675   */\n      dup5\n        /* \"#utility.yul\":10667:10668   */\n      0x08\n        /* \"#utility.yul\":10663:10676   */\n      mul\n        /* \"#utility.yul\":10634:10685   */\n      tag_81\n      jump\t// in\n    tag_198:\n        /* \"#utility.yul\":10630:10686   */\n      not\n        /* \"#utility.yul\":10715:10719   */\n      dup1\n        /* \"#utility.yul\":10709:10713   */\n      dup4\n        /* \"#utility.yul\":10705:10720   */\n      and\n        /* \"#utility.yul\":10695:10720   */\n      swap2\n      pop\n        /* \"#utility.yul\":10608:10726   */\n      pop\n        /* \"#utility.yul\":10557:10726   */\n      swap3\n      swap2\n      pop\n      pop\n      jump\t// out\n        /* \"#utility.yul\":10731:11026   */\n    tag_83:\n        /* \"#utility.yul\":10807:10811   */\n      0x00\n        /* \"#utility.yul\":10953:10982   */\n      tag_200\n        /* \"#utility.yul\":10978:10981   */\n      dup4\n        /* \"#utility.yul\":10972:10976   */\n      dup4\n        /* \"#utility.yul\":10953:10982   */\n      tag_82\n      jump\t// in\n    tag_200:\n        /* \"#utility.yul\":10945:10982   */\n      swap2\n      pop\n        /* \"#utility.yul\":11015:11018   */\n      dup3\n        /* \"#utility.yul\":11012:11013   */\n      0x02\n        /* \"#utility.yul\":11008:11019   */\n      mul\n        /* \"#utility.yul\":11002:11006   */\n      dup3\n        /* \"#utility.yul\":10999:11020   */\n      or\n        /* \"#utility.yul\":10991:11020   */\n      swap1\n      pop\n        /* \"#utility.yul\":10731:11026   */\n      swap3\n      swap2\n      pop\n      pop\n      jump\t// out\n        /* \"#utility.yul\":11031:12426   */\n    tag_42:\n        /* \"#utility.yul\":11148:11185   */\n      tag_202\n        /* \"#utility.yul\":11181:11184   */\n      dup3\n        /* \"#utility.yul\":11148:11185   */\n      tag_52\n      jump\t// in\n    tag_202:\n        /* \"#utility.yul\":11250:11268   */\n      0xffffffffffffffff\n        /* \"#utility.yul\":11242:11248   */\n      dup2\n        /* \"#utility.yul\":11239:11269   */\n      gt\n        /* \"#utility.yul\":11236:11292   */\n      iszero\n      tag_203\n      jumpi\n        /* \"#utility.yul\":11272:11290   */\n      tag_204\n      tag_59\n      jump\t// in\n    tag_204:\n        /* \"#utility.yul\":11236:11292   */\n    tag_203:\n        /* \"#utility.yul\":11316:11354   */\n      tag_205\n        /* \"#utility.yul\":11348:11352   */\n      dup3\n        /* \"#utility.yul\":11342:11353   */\n      sload\n        /* \"#utility.yul\":11316:11354   */\n      tag_16\n      jump\t// in\n    tag_205:\n        /* \"#utility.yul\":11401:11468   */\n      tag_206\n        /* \"#utility.yul\":11461:11467   */\n      dup3\n        /* \"#utility.yul\":11453:11459   */\n      dup3\n        /* \"#utility.yul\":11447:11451   */\n      dup6\n        /* \"#utility.yul\":11401:11468   */\n      tag_80\n      jump\t// in\n    tag_206:\n        /* \"#utility.yul\":11495:11496   */\n      0x00\n        /* \"#utility.yul\":11519:11523   */\n      0x20\n        /* \"#utility.yul\":11506:11523   */\n      swap1\n      pop\n        /* \"#utility.yul\":11551:11553   */\n      0x1f\n        /* \"#utility.yul\":11543:11549   */\n      dup4\n        /* \"#utility.yul\":11540:11554   */\n      gt\n        /* \"#utility.yul\":11568:11569   */\n      0x01\n        /* \"#utility.yul\":11563:12181   */\n      dup2\n      eq\n      tag_208\n      jumpi\n        /* \"#utility.yul\":12225:12226   */\n      0x00\n        /* \"#utility.yul\":12242:12248   */\n      dup5\n        /* \"#utility.yul\":12239:12316   */\n      iszero\n      tag_209\n      jumpi\n        /* \"#utility.yul\":12291:12300   */\n      dup3\n        /* \"#utility.yul\":12286:12289   */\n      dup8\n        /* \"#utility.yul\":12282:12301   */\n      add\n        /* \"#utility.yul\":12276:12302   */\n      mload\n        /* \"#utility.yul\":12267:12302   */\n      swap1\n      pop\n        /* \"#utility.yul\":12239:12316   */\n    tag_209:\n        /* \"#utility.yul\":12342:12409   */\n      tag_210\n        /* \"#utility.yul\":12402:12408   */\n      dup6\n        /* \"#utility.yul\":12395:12400   */\n      dup3\n        /* \"#utility.yul\":12342:12409   */\n      tag_83\n      jump\t// in\n    tag_210:\n        /* \"#utility.yul\":12336:12340   */\n      dup7\n        /* \"#utility.yul\":12329:12410   */\n      sstore\n        /* \"#utility.yul\":12198:12420   */\n      pop\n        /* \"#utility.yul\":11533:12420   */\n      jump(tag_207)\n        /* \"#utility.yul\":11563:12181   */\n    tag_208:\n        /* \"#utility.yul\":11615:11619   */\n      0x1f\n        /* \"#utility.yul\":11611:11620   */\n      not\n        /* \"#utility.yul\":11603:11609   */\n      dup5\n        /* \"#utility.yul\":11599:11621   */\n      and\n        /* \"#utility.yul\":11649:11686   */\n      tag_211\n        /* \"#utility.yul\":11681:11685   */\n      dup7\n        /* \"#utility.yul\":11649:11686   */\n      tag_69\n      jump\t// in\n    tag_211:\n        /* \"#utility.yul\":11708:11709   */\n      0x00\n        /* \"#utility.yul\":11722:11930   */\n    tag_212:\n        /* \"#utility.yul\":11736:11743   */\n      dup3\n        /* \"#utility.yul\":11733:11734   */\n      dup2\n        /* \"#utility.yul\":11730:11744   */\n      lt\n        /* \"#utility.yul\":11722:11930   */\n      iszero\n      tag_214\n      jumpi\n        /* \"#utility.yul\":11815:11824   */\n      dup5\n        /* \"#utility.yul\":11810:11813   */\n      dup10\n        /* \"#utility.yul\":11806:11825   */\n      add\n        /* \"#utility.yul\":11800:11826   */\n      mload\n        /* \"#utility.yul\":11792:11798   */\n      dup3\n        /* \"#utility.yul\":11785:11827   */\n      sstore\n        /* \"#utility.yul\":11866:11867   */\n      0x01\n        /* \"#utility.yul\":11858:11864   */\n      dup3\n        /* \"#utility.yul\":11854:11868   */\n      add\n        /* \"#utility.yul\":11844:11868   */\n      swap2\n      pop\n        /* \"#utility.yul\":11913:11915   */\n      0x20\n        /* \"#utility.yul\":11902:11911   */\n      dup6\n        /* \"#utility.yul\":11898:11916   */\n      add\n        /* \"#utility.yul\":11885:11916   */\n      swap5\n      pop\n        /* \"#utility.yul\":11759:11763   */\n      0x20\n        /* \"#utility.yul\":11756:11757   */\n      dup2\n        /* \"#utility.yul\":11752:11764   */\n      add\n        /* \"#utility.yul\":11747:11764   */\n      swap1\n      pop\n        /* \"#utility.yul\":11722:11930   */\n      jump(tag_212)\n    tag_214:\n        /* \"#utility.yul\":11958:11964   */\n      dup7\n        /* \"#utility.yul\":11949:11956   */\n      dup4\n        /* \"#utility.yul\":11946:11965   */\n      lt\n        /* \"#utility.yul\":11943:12122   */\n      iszero\n      tag_215\n      jumpi\n        /* \"#utility.yul\":12016:12025   */\n      dup5\n        /* \"#utility.yul\":12011:12014   */\n      dup10\n        /* \"#utility.yul\":12007:12026   */\n      add\n        /* \"#utility.yul\":12001:12027   */\n      mload\n        /* \"#utility.yul\":12059:12107   */\n      tag_216\n        /* \"#utility.yul\":12101:12105   */\n      0x1f\n        /* \"#utility.yul\":12093:12099   */\n      dup10\n        /* \"#utility.yul\":12089:12106   */\n      and\n        /* \"#utility.yul\":12078:12087   */\n      dup3\n        /* \"#utility.yul\":12059:12107   */\n      tag_82\n      jump\t// in\n    tag_216:\n        /* \"#utility.yul\":12051:12057   */\n      dup4\n        /* \"#utility.yul\":12044:12108   */\n      sstore\n        /* \"#utility.yul\":11966:12122   */\n      pop\n        /* \"#utility.yul\":11943:12122   */\n    tag_215:\n        /* \"#utility.yul\":12168:12169   */\n      0x01\n        /* \"#utility.yul\":12164:12165   */\n      0x02\n        /* \"#utility.yul\":12156:12162   */\n      dup9\n        /* \"#utility.yul\":12152:12166   */\n      mul\n        /* \"#utility.yul\":12148:12170   */\n      add\n        /* \"#utility.yul\":12142:12146   */\n      dup9\n        /* \"#utility.yul\":12135:12171   */\n      sstore\n        /* \"#utility.yul\":11570:12181   */\n      pop\n      pop\n      pop\n        /* \"#utility.yul\":11533:12420   */\n    tag_207:\n      pop\n        /* \"#utility.yul\":11123:12426   */\n      pop\n      pop\n      pop\n        /* \"#utility.yul\":11031:12426   */\n      pop\n      pop\n      jump\t// out\n\n    auxdata: 0xa2646970667358221220ff4d64680b5970e601afcfde8c433f0f031d532b1e7af9df4652fbf6f450b64764736f6c634300081a0033\n}\n",
				"bytecode": {
					"linkReferences": {},
					"object": "6080604052348015600e575f80fd5b50335f806101000a81548173ffffffffffffffffffffffffffffffffffffffff021916908373ffffffffffffffffffffffffffffffffffffffff160217905550610aa28061005b5f395ff3fe608060405234801561000f575f80fd5b5060043610610034575f3560e01c8063663b3e2214610038578063d1e7be261461006b575b5f80fd5b610052600480360381019061004d919061042e565b610087565b60405161006294939291906104c9565b60405180910390f35b61008560048036038101906100809190610654565b6102cb565b005b6001602052805f5260405f205f91509050805f0180546100a690610768565b80601f01602080910402602001604051908101604052809291908181526020018280546100d290610768565b801561011d5780601f106100f45761010080835404028352916020019161011d565b820191905f5260205f20905b81548152906001019060200180831161010057829003601f168201915b50505050509080600101805461013290610768565b80601f016020809104026020016040519081016040528092919081815260200182805461015e90610768565b80156101a95780601f10610180576101008083540402835291602001916101a9565b820191905f5260205f20905b81548152906001019060200180831161018c57829003601f168201915b5050505050908060020180546101be90610768565b80601f01602080910402602001604051908101604052809291908181526020018280546101ea90610768565b80156102355780601f1061020c57610100808354040283529160200191610235565b820191905f5260205f20905b81548152906001019060200180831161021857829003601f168201915b50505050509080600301805461024a90610768565b80601f016020809104026020016040519081016040528092919081815260200182805461027690610768565b80156102c15780601f10610298576101008083540402835291602001916102c1565b820191905f5260205f20905b8154815290600101906020018083116102a457829003601f168201915b5050505050905084565b5f8054906101000a900473ffffffffffffffffffffffffffffffffffffffff1673ffffffffffffffffffffffffffffffffffffffff163373ffffffffffffffffffffffffffffffffffffffff1614610358576040517f08c379a000000000000000000000000000000000000000000000000000000000815260040161034f906107e2565b60405180910390fd5b60405180608001604052808581526020018481526020018381526020018281525060015f8781526020019081526020015f205f820151815f01908161039d919061099d565b5060208201518160010190816103b3919061099d565b5060408201518160020190816103c9919061099d565b5060608201518160030190816103df919061099d565b509050505050505050565b5f604051905090565b5f80fd5b5f80fd5b5f819050919050565b61040d816103fb565b8114610417575f80fd5b50565b5f8135905061042881610404565b92915050565b5f60208284031215610443576104426103f3565b5b5f6104508482850161041a565b91505092915050565b5f81519050919050565b5f82825260208201905092915050565b8281835e5f83830152505050565b5f601f19601f8301169050919050565b5f61049b82610459565b6104a58185610463565b93506104b5818560208601610473565b6104be81610481565b840191505092915050565b5f6080820190508181035f8301526104e18187610491565b905081810360208301526104f58186610491565b905081810360408301526105098185610491565b9050818103606083015261051d8184610491565b905095945050505050565b5f80fd5b5f80fd5b7f4e487b71000000000000000000000000000000000000000000000000000000005f52604160045260245ffd5b61056682610481565b810181811067ffffffffffffffff8211171561058557610584610530565b5b80604052505050565b5f6105976103ea565b90506105a3828261055d565b919050565b5f67ffffffffffffffff8211156105c2576105c1610530565b5b6105cb82610481565b9050602081019050919050565b828183375f83830152505050565b5f6105f86105f3846105a8565b61058e565b9050828152602081018484840111156106145761061361052c565b5b61061f8482856105d8565b509392505050565b5f82601f83011261063b5761063a610528565b5b813561064b8482602086016105e6565b91505092915050565b5f805f805f60a0868803121561066d5761066c6103f3565b5b5f61067a8882890161041a565b955050602086013567ffffffffffffffff81111561069b5761069a6103f7565b5b6106a788828901610627565b945050604086013567ffffffffffffffff8111156106c8576106c76103f7565b5b6106d488828901610627565b935050606086013567ffffffffffffffff8111156106f5576106f46103f7565b5b61070188828901610627565b925050608086013567ffffffffffffffff811115610722576107216103f7565b5b61072e88828901610627565b9150509295509295909350565b7f4e487b71000000000000000000000000000000000000000000000000000000005f52602260045260245ffd5b5f600282049050600182168061077f57607f821691505b6020821081036107925761079161073b565b5b50919050565b7f556e617574686f72697a656400000000000000000000000000000000000000005f82015250565b5f6107cc600c83610463565b91506107d782610798565b602082019050919050565b5f6020820190508181035f8301526107f9816107c0565b9050919050565b5f819050815f5260205f209050919050565b5f6020601f8301049050919050565b5f82821b905092915050565b5f6008830261085c7fffffffffffffffffffffffffffffffffffffffffffffffffffffffffffffffff82610821565b6108668683610821565b95508019841693508086168417925050509392505050565b5f819050919050565b5f6108a161089c610897846103fb565b61087e565b6103fb565b9050919050565b5f819050919050565b6108ba83610887565b6108ce6108c6826108a8565b84845461082d565b825550505050565b5f90565b6108e26108d6565b6108ed8184846108b1565b505050565b5b81811015610910576109055f826108da565b6001810190506108f3565b5050565b601f8211156109555761092681610800565b61092f84610812565b8101602085101561093e578190505b61095261094a85610812565b8301826108f2565b50505b505050565b5f82821c905092915050565b5f6109755f198460080261095a565b1980831691505092915050565b5f61098d8383610966565b9150826002028217905092915050565b6109a682610459565b67ffffffffffffffff8111156109bf576109be610530565b5b6109c98254610768565b6109d4828285610914565b5f60209050601f831160018114610a05575f84156109f3578287015190505b6109fd8582610982565b865550610a64565b601f198416610a1386610800565b5f5b82811015610a3a57848901518255600182019150602085019450602081019050610a15565b86831015610a575784890151610a53601f891682610966565b8355505b6001600288020188555050505b50505050505056fea2646970667358221220ff4d64680b5970e601afcfde8c433f0f031d532b1e7af9df4652fbf6f450b64764736f6c634300081a0033",
					"opcodes": "PUSH1 0x80 PUSH1 0x40 MSTORE CALLVALUE DUP1 ISZERO PUSH1 0xE JUMPI PUSH0 DUP1 REVERT JUMPDEST POP CALLER PUSH0 DUP1 PUSH2 0x100 EXP DUP2 SLOAD DUP2 PUSH20 0xFFFFFFFFFFFFFFFFFFFFFFFFFFFFFFFFFFFFFFFF MUL NOT AND SWAP1 DUP4 PUSH20 0xFFFFFFFFFFFFFFFFFFFFFFFFFFFFFFFFFFFFFFFF AND MUL OR SWAP1 SSTORE POP PUSH2 0xAA2 DUP1 PUSH2 0x5B PUSH0 CODECOPY PUSH0 RETURN INVALID PUSH1 0x80 PUSH1 0x40 MSTORE CALLVALUE DUP1 ISZERO PUSH2 0xF JUMPI PUSH0 DUP1 REVERT JUMPDEST POP PUSH1 0x4 CALLDATASIZE LT PUSH2 0x34 JUMPI PUSH0 CALLDATALOAD PUSH1 0xE0 SHR DUP1 PUSH4 0x663B3E22 EQ PUSH2 0x38 JUMPI DUP1 PUSH4 0xD1E7BE26 EQ PUSH2 0x6B JUMPI JUMPDEST PUSH0 DUP1 REVERT JUMPDEST PUSH2 0x52 PUSH1 0x4 DUP1 CALLDATASIZE SUB DUP2 ADD SWAP1 PUSH2 0x4D SWAP2 SWAP1 PUSH2 0x42E JUMP JUMPDEST PUSH2 0x87 JUMP JUMPDEST PUSH1 0x40 MLOAD PUSH2 0x62 SWAP5 SWAP4 SWAP3 SWAP2 SWAP1 PUSH2 0x4C9 JUMP JUMPDEST PUSH1 0x40 MLOAD DUP1 SWAP2 SUB SWAP1 RETURN JUMPDEST PUSH2 0x85 PUSH1 0x4 DUP1 CALLDATASIZE SUB DUP2 ADD SWAP1 PUSH2 0x80 SWAP2 SWAP1 PUSH2 0x654 JUMP JUMPDEST PUSH2 0x2CB JUMP JUMPDEST STOP JUMPDEST PUSH1 0x1 PUSH1 0x20 MSTORE DUP1 PUSH0 MSTORE PUSH1 0x40 PUSH0 KECCAK256 PUSH0 SWAP2 POP SWAP1 POP DUP1 PUSH0 ADD DUP1 SLOAD PUSH2 0xA6 SWAP1 PUSH2 0x768 JUMP JUMPDEST DUP1 PUSH1 0x1F ADD PUSH1 0x20 DUP1 SWAP2 DIV MUL PUSH1 0x20 ADD PUSH1 0x40 MLOAD SWAP1 DUP2 ADD PUSH1 0x40 MSTORE DUP1 SWAP3 SWAP2 SWAP1 DUP2 DUP2 MSTORE PUSH1 0x20 ADD DUP3 DUP1 SLOAD PUSH2 0xD2 SWAP1 PUSH2 0x768 JUMP JUMPDEST DUP1 ISZERO PUSH2 0x11D JUMPI DUP1 PUSH1 0x1F LT PUSH2 0xF4 JUMPI PUSH2 0x100 DUP1 DUP4 SLOAD DIV MUL DUP4 MSTORE SWAP2 PUSH1 0x20 ADD SWAP2 PUSH2 0x11D JUMP JUMPDEST DUP3 ADD SWAP2 SWAP1 PUSH0 MSTORE PUSH1 0x20 PUSH0 KECCAK256 SWAP1 JUMPDEST DUP2 SLOAD DUP2 MSTORE SWAP1 PUSH1 0x1 ADD SWAP1 PUSH1 0x20 ADD DUP1 DUP4 GT PUSH2 0x100 JUMPI DUP3 SWAP1 SUB PUSH1 0x1F AND DUP3 ADD SWAP2 JUMPDEST POP POP POP POP POP SWAP1 DUP1 PUSH1 0x1 ADD DUP1 SLOAD PUSH2 0x132 SWAP1 PUSH2 0x768 JUMP JUMPDEST DUP1 PUSH1 0x1F ADD PUSH1 0x20 DUP1 SWAP2 DIV MUL PUSH1 0x20 ADD PUSH1 0x40 MLOAD SWAP1 DUP2 ADD PUSH1 0x40 MSTORE DUP1 SWAP3 SWAP2 SWAP1 DUP2 DUP2 MSTORE PUSH1 0x20 ADD DUP3 DUP1 SLOAD PUSH2 0x15E SWAP1 PUSH2 0x768 JUMP JUMPDEST DUP1 ISZERO PUSH2 0x1A9 JUMPI DUP1 PUSH1 0x1F LT PUSH2 0x180 JUMPI PUSH2 0x100 DUP1 DUP4 SLOAD DIV MUL DUP4 MSTORE SWAP2 PUSH1 0x20 ADD SWAP2 PUSH2 0x1A9 JUMP JUMPDEST DUP3 ADD SWAP2 SWAP1 PUSH0 MSTORE PUSH1 0x20 PUSH0 KECCAK256 SWAP1 JUMPDEST DUP2 SLOAD DUP2 MSTORE SWAP1 PUSH1 0x1 ADD SWAP1 PUSH1 0x20 ADD DUP1 DUP4 GT PUSH2 0x18C JUMPI DUP3 SWAP1 SUB PUSH1 0x1F AND DUP3 ADD SWAP2 JUMPDEST POP POP POP POP POP SWAP1 DUP1 PUSH1 0x2 ADD DUP1 SLOAD PUSH2 0x1BE SWAP1 PUSH2 0x768 JUMP JUMPDEST DUP1 PUSH1 0x1F ADD PUSH1 0x20 DUP1 SWAP2 DIV MUL PUSH1 0x20 ADD PUSH1 0x40 MLOAD SWAP1 DUP2 ADD PUSH1 0x40 MSTORE DUP1 SWAP3 SWAP2 SWAP1 DUP2 DUP2 MSTORE PUSH1 0x20 ADD DUP3 DUP1 SLOAD PUSH2 0x1EA SWAP1 PUSH2 0x768 JUMP JUMPDEST DUP1 ISZERO PUSH2 0x235 JUMPI DUP1 PUSH1 0x1F LT PUSH2 0x20C JUMPI PUSH2 0x100 DUP1 DUP4 SLOAD DIV MUL DUP4 MSTORE SWAP2 PUSH1 0x20 ADD SWAP2 PUSH2 0x235 JUMP JUMPDEST DUP3 ADD SWAP2 SWAP1 PUSH0 MSTORE PUSH1 0x20 PUSH0 KECCAK256 SWAP1 JUMPDEST DUP2 SLOAD DUP2 MSTORE SWAP1 PUSH1 0x1 ADD SWAP1 PUSH1 0x20 ADD DUP1 DUP4 GT PUSH2 0x218 JUMPI DUP3 SWAP1 SUB PUSH1 0x1F AND DUP3 ADD SWAP2 JUMPDEST POP POP POP POP POP SWAP1 DUP1 PUSH1 0x3 ADD DUP1 SLOAD PUSH2 0x24A SWAP1 PUSH2 0x768 JUMP JUMPDEST DUP1 PUSH1 0x1F ADD PUSH1 0x20 DUP1 SWAP2 DIV MUL PUSH1 0x20 ADD PUSH1 0x40 MLOAD SWAP1 DUP2 ADD PUSH1 0x40 MSTORE DUP1 SWAP3 SWAP2 SWAP1 DUP2 DUP2 MSTORE PUSH1 0x20 ADD DUP3 DUP1 SLOAD PUSH2 0x276 SWAP1 PUSH2 0x768 JUMP JUMPDEST DUP1 ISZERO PUSH2 0x2C1 JUMPI DUP1 PUSH1 0x1F LT PUSH2 0x298 JUMPI PUSH2 0x100 DUP1 DUP4 SLOAD DIV MUL DUP4 MSTORE SWAP2 PUSH1 0x20 ADD SWAP2 PUSH2 0x2C1 JUMP JUMPDEST DUP3 ADD SWAP2 SWAP1 PUSH0 MSTORE PUSH1 0x20 PUSH0 KECCAK256 SWAP1 JUMPDEST DUP2 SLOAD DUP2 MSTORE SWAP1 PUSH1 0x1 ADD SWAP1 PUSH1 0x20 ADD DUP1 DUP4 GT PUSH2 0x2A4 JUMPI DUP3 SWAP1 SUB PUSH1 0x1F AND DUP3 ADD SWAP2 JUMPDEST POP POP POP POP POP SWAP1 POP DUP5 JUMP JUMPDEST PUSH0 DUP1 SLOAD SWAP1 PUSH2 0x100 EXP SWAP1 DIV PUSH20 0xFFFFFFFFFFFFFFFFFFFFFFFFFFFFFFFFFFFFFFFF AND PUSH20 0xFFFFFFFFFFFFFFFFFFFFFFFFFFFFFFFFFFFFFFFF AND CALLER PUSH20 0xFFFFFFFFFFFFFFFFFFFFFFFFFFFFFFFFFFFFFFFF AND EQ PUSH2 0x358 JUMPI PUSH1 0x40 MLOAD PUSH32 0x8C379A000000000000000000000000000000000000000000000000000000000 DUP2 MSTORE PUSH1 0x4 ADD PUSH2 0x34F SWAP1 PUSH2 0x7E2 JUMP JUMPDEST PUSH1 0x40 MLOAD DUP1 SWAP2 SUB SWAP1 REVERT JUMPDEST PUSH1 0x40 MLOAD DUP1 PUSH1 0x80 ADD PUSH1 0x40 MSTORE DUP1 DUP6 DUP2 MSTORE PUSH1 0x20 ADD DUP5 DUP2 MSTORE PUSH1 0x20 ADD DUP4 DUP2 MSTORE PUSH1 0x20 ADD DUP3 DUP2 MSTORE POP PUSH1 0x1 PUSH0 DUP8 DUP2 MSTORE PUSH1 0x20 ADD SWAP1 DUP2 MSTORE PUSH1 0x20 ADD PUSH0 KECCAK256 PUSH0 DUP3 ADD MLOAD DUP2 PUSH0 ADD SWAP1 DUP2 PUSH2 0x39D SWAP2 SWAP1 PUSH2 0x99D JUMP JUMPDEST POP PUSH1 0x20 DUP3 ADD MLOAD DUP2 PUSH1 0x1 ADD SWAP1 DUP2 PUSH2 0x3B3 SWAP2 SWAP1 PUSH2 0x99D JUMP JUMPDEST POP PUSH1 0x40 DUP3 ADD MLOAD DUP2 PUSH1 0x2 ADD SWAP1 DUP2 PUSH2 0x3C9 SWAP2 SWAP1 PUSH2 0x99D JUMP JUMPDEST POP PUSH1 0x60 DUP3 ADD MLOAD DUP2 PUSH1 0x3 ADD SWAP1 DUP2 PUSH2 0x3DF SWAP2 SWAP1 PUSH2 0x99D JUMP JUMPDEST POP SWAP1 POP POP POP POP POP POP POP JUMP JUMPDEST PUSH0 PUSH1 0x40 MLOAD SWAP1 POP SWAP1 JUMP JUMPDEST PUSH0 DUP1 REVERT JUMPDEST PUSH0 DUP1 REVERT JUMPDEST PUSH0 DUP2 SWAP1 POP SWAP2 SWAP1 POP JUMP JUMPDEST PUSH2 0x40D DUP2 PUSH2 0x3FB JUMP JUMPDEST DUP2 EQ PUSH2 0x417 JUMPI PUSH0 DUP1 REVERT JUMPDEST POP JUMP JUMPDEST PUSH0 DUP2 CALLDATALOAD SWAP1 POP PUSH2 0x428 DUP2 PUSH2 0x404 JUMP JUMPDEST SWAP3 SWAP2 POP POP JUMP JUMPDEST PUSH0 PUSH1 0x20 DUP3 DUP5 SUB SLT ISZERO PUSH2 0x443 JUMPI PUSH2 0x442 PUSH2 0x3F3 JUMP JUMPDEST JUMPDEST PUSH0 PUSH2 0x450 DUP5 DUP3 DUP6 ADD PUSH2 0x41A JUMP JUMPDEST SWAP2 POP POP SWAP3 SWAP2 POP POP JUMP JUMPDEST PUSH0 DUP2 MLOAD SWAP1 POP SWAP2 SWAP1 POP JUMP JUMPDEST PUSH0 DUP3 DUP3 MSTORE PUSH1 0x20 DUP3 ADD SWAP1 POP SWAP3 SWAP2 POP POP JUMP JUMPDEST DUP3 DUP2 DUP4 MCOPY PUSH0 DUP4 DUP4 ADD MSTORE POP POP POP JUMP JUMPDEST PUSH0 PUSH1 0x1F NOT PUSH1 0x1F DUP4 ADD AND SWAP1 POP SWAP2 SWAP1 POP JUMP JUMPDEST PUSH0 PUSH2 0x49B DUP3 PUSH2 0x459 JUMP JUMPDEST PUSH2 0x4A5 DUP2 DUP6 PUSH2 0x463 JUMP JUMPDEST SWAP4 POP PUSH2 0x4B5 DUP2 DUP6 PUSH1 0x20 DUP7 ADD PUSH2 0x473 JUMP JUMPDEST PUSH2 0x4BE DUP2 PUSH2 0x481 JUMP JUMPDEST DUP5 ADD SWAP2 POP POP SWAP3 SWAP2 POP POP JUMP JUMPDEST PUSH0 PUSH1 0x80 DUP3 ADD SWAP1 POP DUP2 DUP2 SUB PUSH0 DUP4 ADD MSTORE PUSH2 0x4E1 DUP2 DUP8 PUSH2 0x491 JUMP JUMPDEST SWAP1 POP DUP2 DUP2 SUB PUSH1 0x20 DUP4 ADD MSTORE PUSH2 0x4F5 DUP2 DUP7 PUSH2 0x491 JUMP JUMPDEST SWAP1 POP DUP2 DUP2 SUB PUSH1 0x40 DUP4 ADD MSTORE PUSH2 0x509 DUP2 DUP6 PUSH2 0x491 JUMP JUMPDEST SWAP1 POP DUP2 DUP2 SUB PUSH1 0x60 DUP4 ADD MSTORE PUSH2 0x51D DUP2 DUP5 PUSH2 0x491 JUMP JUMPDEST SWAP1 POP SWAP6 SWAP5 POP POP POP POP POP JUMP JUMPDEST PUSH0 DUP1 REVERT JUMPDEST PUSH0 DUP1 REVERT JUMPDEST PUSH32 0x4E487B7100000000000000000000000000000000000000000000000000000000 PUSH0 MSTORE PUSH1 0x41 PUSH1 0x4 MSTORE PUSH1 0x24 PUSH0 REVERT JUMPDEST PUSH2 0x566 DUP3 PUSH2 0x481 JUMP JUMPDEST DUP2 ADD DUP2 DUP2 LT PUSH8 0xFFFFFFFFFFFFFFFF DUP3 GT OR ISZERO PUSH2 0x585 JUMPI PUSH2 0x584 PUSH2 0x530 JUMP JUMPDEST JUMPDEST DUP1 PUSH1 0x40 MSTORE POP POP POP JUMP JUMPDEST PUSH0 PUSH2 0x597 PUSH2 0x3EA JUMP JUMPDEST SWAP1 POP PUSH2 0x5A3 DUP3 DUP3 PUSH2 0x55D JUMP JUMPDEST SWAP2 SWAP1 POP JUMP JUMPDEST PUSH0 PUSH8 0xFFFFFFFFFFFFFFFF DUP3 GT ISZERO PUSH2 0x5C2 JUMPI PUSH2 0x5C1 PUSH2 0x530 JUMP JUMPDEST JUMPDEST PUSH2 0x5CB DUP3 PUSH2 0x481 JUMP JUMPDEST SWAP1 POP PUSH1 0x20 DUP2 ADD SWAP1 POP SWAP2 SWAP1 POP JUMP JUMPDEST DUP3 DUP2 DUP4 CALLDATACOPY PUSH0 DUP4 DUP4 ADD MSTORE POP POP POP JUMP JUMPDEST PUSH0 PUSH2 0x5F8 PUSH2 0x5F3 DUP5 PUSH2 0x5A8 JUMP JUMPDEST PUSH2 0x58E JUMP JUMPDEST SWAP1 POP DUP3 DUP2 MSTORE PUSH1 0x20 DUP2 ADD DUP5 DUP5 DUP5 ADD GT ISZERO PUSH2 0x614 JUMPI PUSH2 0x613 PUSH2 0x52C JUMP JUMPDEST JUMPDEST PUSH2 0x61F DUP5 DUP3 DUP6 PUSH2 0x5D8 JUMP JUMPDEST POP SWAP4 SWAP3 POP POP POP JUMP JUMPDEST PUSH0 DUP3 PUSH1 0x1F DUP4 ADD SLT PUSH2 0x63B JUMPI PUSH2 0x63A PUSH2 0x528 JUMP JUMPDEST JUMPDEST DUP2 CALLDATALOAD PUSH2 0x64B DUP5 DUP3 PUSH1 0x20 DUP7 ADD PUSH2 0x5E6 JUMP JUMPDEST SWAP2 POP POP SWAP3 SWAP2 POP POP JUMP JUMPDEST PUSH0 DUP1 PUSH0 DUP1 PUSH0 PUSH1 0xA0 DUP7 DUP9 SUB SLT ISZERO PUSH2 0x66D JUMPI PUSH2 0x66C PUSH2 0x3F3 JUMP JUMPDEST JUMPDEST PUSH0 PUSH2 0x67A DUP9 DUP3 DUP10 ADD PUSH2 0x41A JUMP JUMPDEST SWAP6 POP POP PUSH1 0x20 DUP7 ADD CALLDATALOAD PUSH8 0xFFFFFFFFFFFFFFFF DUP2 GT ISZERO PUSH2 0x69B JUMPI PUSH2 0x69A PUSH2 0x3F7 JUMP JUMPDEST JUMPDEST PUSH2 0x6A7 DUP9 DUP3 DUP10 ADD PUSH2 0x627 JUMP JUMPDEST SWAP5 POP POP PUSH1 0x40 DUP7 ADD CALLDATALOAD PUSH8 0xFFFFFFFFFFFFFFFF DUP2 GT ISZERO PUSH2 0x6C8 JUMPI PUSH2 0x6C7 PUSH2 0x3F7 JUMP JUMPDEST JUMPDEST PUSH2 0x6D4 DUP9 DUP3 DUP10 ADD PUSH2 0x627 JUMP JUMPDEST SWAP4 POP POP PUSH1 0x60 DUP7 ADD CALLDATALOAD PUSH8 0xFFFFFFFFFFFFFFFF DUP2 GT ISZERO PUSH2 0x6F5 JUMPI PUSH2 0x6F4 PUSH2 0x3F7 JUMP JUMPDEST JUMPDEST PUSH2 0x701 DUP9 DUP3 DUP10 ADD PUSH2 0x627 JUMP JUMPDEST SWAP3 POP POP PUSH1 0x80 DUP7 ADD CALLDATALOAD PUSH8 0xFFFFFFFFFFFFFFFF DUP2 GT ISZERO PUSH2 0x722 JUMPI PUSH2 0x721 PUSH2 0x3F7 JUMP JUMPDEST JUMPDEST PUSH2 0x72E DUP9 DUP3 DUP10 ADD PUSH2 0x627 JUMP JUMPDEST SWAP2 POP POP SWAP3 SWAP6 POP SWAP3 SWAP6 SWAP1 SWAP4 POP JUMP JUMPDEST PUSH32 0x4E487B7100000000000000000000000000000000000000000000000000000000 PUSH0 MSTORE PUSH1 0x22 PUSH1 0x4 MSTORE PUSH1 0x24 PUSH0 REVERT JUMPDEST PUSH0 PUSH1 0x2 DUP3 DIV SWAP1 POP PUSH1 0x1 DUP3 AND DUP1 PUSH2 0x77F JUMPI PUSH1 0x7F DUP3 AND SWAP2 POP JUMPDEST PUSH1 0x20 DUP3 LT DUP2 SUB PUSH2 0x792 JUMPI PUSH2 0x791 PUSH2 0x73B JUMP JUMPDEST JUMPDEST POP SWAP2 SWAP1 POP JUMP JUMPDEST PUSH32 0x556E617574686F72697A65640000000000000000000000000000000000000000 PUSH0 DUP3 ADD MSTORE POP JUMP JUMPDEST PUSH0 PUSH2 0x7CC PUSH1 0xC DUP4 PUSH2 0x463 JUMP JUMPDEST SWAP2 POP PUSH2 0x7D7 DUP3 PUSH2 0x798 JUMP JUMPDEST PUSH1 0x20 DUP3 ADD SWAP1 POP SWAP2 SWAP1 POP JUMP JUMPDEST PUSH0 PUSH1 0x20 DUP3 ADD SWAP1 POP DUP2 DUP2 SUB PUSH0 DUP4 ADD MSTORE PUSH2 0x7F9 DUP2 PUSH2 0x7C0 JUMP JUMPDEST SWAP1 POP SWAP2 SWAP1 POP JUMP JUMPDEST PUSH0 DUP2 SWAP1 POP DUP2 PUSH0 MSTORE PUSH1 0x20 PUSH0 KECCAK256 SWAP1 POP SWAP2 SWAP1 POP JUMP JUMPDEST PUSH0 PUSH1 0x20 PUSH1 0x1F DUP4 ADD DIV SWAP1 POP SWAP2 SWAP1 POP JUMP JUMPDEST PUSH0 DUP3 DUP3 SHL SWAP1 POP SWAP3 SWAP2 POP POP JUMP JUMPDEST PUSH0 PUSH1 0x8 DUP4 MUL PUSH2 0x85C PUSH32 0xFFFFFFFFFFFFFFFFFFFFFFFFFFFFFFFFFFFFFFFFFFFFFFFFFFFFFFFFFFFFFFFF DUP3 PUSH2 0x821 JUMP JUMPDEST PUSH2 0x866 DUP7 DUP4 PUSH2 0x821 JUMP JUMPDEST SWAP6 POP DUP1 NOT DUP5 AND SWAP4 POP DUP1 DUP7 AND DUP5 OR SWAP3 POP POP POP SWAP4 SWAP3 POP POP POP JUMP JUMPDEST PUSH0 DUP2 SWAP1 POP SWAP2 SWAP1 POP JUMP JUMPDEST PUSH0 PUSH2 0x8A1 PUSH2 0x89C PUSH2 0x897 DUP5 PUSH2 0x3FB JUMP JUMPDEST PUSH2 0x87E JUMP JUMPDEST PUSH2 0x3FB JUMP JUMPDEST SWAP1 POP SWAP2 SWAP1 POP JUMP JUMPDEST PUSH0 DUP2 SWAP1 POP SWAP2 SWAP1 POP JUMP JUMPDEST PUSH2 0x8BA DUP4 PUSH2 0x887 JUMP JUMPDEST PUSH2 0x8CE PUSH2 0x8C6 DUP3 PUSH2 0x8A8 JUMP JUMPDEST DUP5 DUP5 SLOAD PUSH2 0x82D JUMP JUMPDEST DUP3 SSTORE POP POP POP POP JUMP JUMPDEST PUSH0 SWAP1 JUMP JUMPDEST PUSH2 0x8E2 PUSH2 0x8D6 JUMP JUMPDEST PUSH2 0x8ED DUP2 DUP5 DUP5 PUSH2 0x8B1 JUMP JUMPDEST POP POP POP JUMP JUMPDEST JUMPDEST DUP2 DUP2 LT ISZERO PUSH2 0x910 JUMPI PUSH2 0x905 PUSH0 DUP3 PUSH2 0x8DA JUMP JUMPDEST PUSH1 0x1 DUP2 ADD SWAP1 POP PUSH2 0x8F3 JUMP JUMPDEST POP POP JUMP JUMPDEST PUSH1 0x1F DUP3 GT ISZERO PUSH2 0x955 JUMPI PUSH2 0x926 DUP2 PUSH2 0x800 JUMP JUMPDEST PUSH2 0x92F DUP5 PUSH2 0x812 JUMP JUMPDEST DUP2 ADD PUSH1 0x20 DUP6 LT ISZERO PUSH2 0x93E JUMPI DUP2 SWAP1 POP JUMPDEST PUSH2 0x952 PUSH2 0x94A DUP6 PUSH2 0x812 JUMP JUMPDEST DUP4 ADD DUP3 PUSH2 0x8F2 JUMP JUMPDEST POP POP JUMPDEST POP POP POP JUMP JUMPDEST PUSH0 DUP3 DUP3 SHR SWAP1 POP SWAP3 SWAP2 POP POP JUMP JUMPDEST PUSH0 PUSH2 0x975 PUSH0 NOT DUP5 PUSH1 0x8 MUL PUSH2 0x95A JUMP JUMPDEST NOT DUP1 DUP4 AND SWAP2 POP POP SWAP3 SWAP2 POP POP JUMP JUMPDEST PUSH0 PUSH2 0x98D DUP4 DUP4 PUSH2 0x966 JUMP JUMPDEST SWAP2 POP DUP3 PUSH1 0x2 MUL DUP3 OR SWAP1 POP SWAP3 SWAP2 POP POP JUMP JUMPDEST PUSH2 0x9A6 DUP3 PUSH2 0x459 JUMP JUMPDEST PUSH8 0xFFFFFFFFFFFFFFFF DUP2 GT ISZERO PUSH2 0x9BF JUMPI PUSH2 0x9BE PUSH2 0x530 JUMP JUMPDEST JUMPDEST PUSH2 0x9C9 DUP3 SLOAD PUSH2 0x768 JUMP JUMPDEST PUSH2 0x9D4 DUP3 DUP3 DUP6 PUSH2 0x914 JUMP JUMPDEST PUSH0 PUSH1 0x20 SWAP1 POP PUSH1 0x1F DUP4 GT PUSH1 0x1 DUP2 EQ PUSH2 0xA05 JUMPI PUSH0 DUP5 ISZERO PUSH2 0x9F3 JUMPI DUP3 DUP8 ADD MLOAD SWAP1 POP JUMPDEST PUSH2 0x9FD DUP6 DUP3 PUSH2 0x982 JUMP JUMPDEST DUP7 SSTORE POP PUSH2 0xA64 JUMP JUMPDEST PUSH1 0x1F NOT DUP5 AND PUSH2 0xA13 DUP7 PUSH2 0x800 JUMP JUMPDEST PUSH0 JUMPDEST DUP3 DUP2 LT ISZERO PUSH2 0xA3A JUMPI DUP5 DUP10 ADD MLOAD DUP3 SSTORE PUSH1 0x1 DUP3 ADD SWAP2 POP PUSH1 0x20 DUP6 ADD SWAP5 POP PUSH1 0x20 DUP2 ADD SWAP1 POP PUSH2 0xA15 JUMP JUMPDEST DUP7 DUP4 LT ISZERO PUSH2 0xA57 JUMPI DUP5 DUP10 ADD MLOAD PUSH2 0xA53 PUSH1 0x1F DUP10 AND DUP3 PUSH2 0x966 JUMP JUMPDEST DUP4 SSTORE POP JUMPDEST PUSH1 0x1 PUSH1 0x2 DUP9 MUL ADD DUP9 SSTORE POP POP POP JUMPDEST POP POP POP POP POP POP JUMP INVALID LOG2 PUSH5 0x6970667358 0x22 SLT KECCAK256 SELFDESTRUCT 0x4D PUSH5 0x680B5970E6 ADD 0xAF 0xCF 0xDE DUP13 NUMBER EXTCODEHASH 0xF SUB SAR MSTORE8 0x2B 0x1E PUSH27 0xF9DF4652FBF6F450B64764736F6C634300081A0033000000000000 "
				},
				"gasEstimates": {
					"creation": {
						"codeDepositCost": "544400",
						"executionCost": "24844",
						"totalCost": "569244"
					},
					"external": {
						"certificates(uint256)": "infinite",
						"issue(uint256,string,string,string,string)": "infinite"
					}
				},
				"methodIdentifiers": {
					"certificates(uint256)": "663b3e22",
					"issue(uint256,string,string,string,string)": "d1e7be26"
				}
			},
			"storageLayout": {
				"storage": [
					{
						"astId": 12,
						"contract": "Remix/Certi.sol:Certi",
						"label": "admin",
						"offset": 0,
						"slot": "0",
						"type": "t_address"
					},
					{
						"astId": 17,
						"contract": "Remix/Certi.sol:Certi",
						"label": "certificates",
						"offset": 0,
						"slot": "1",
						"type": "t_mapping(t_uint256,t_struct(Certificate)10_storage)"
					}
				],
				"types": {
					"t_address": {
						"encoding": "inplace",
						"label": "address",
						"numberOfBytes": "20"
					},
					"t_mapping(t_uint256,t_struct(Certificate)10_storage)": {
						"encoding": "mapping",
						"key": "t_uint256",
						"label": "mapping(uint256 => struct Certi.Certificate)",
						"numberOfBytes": "32",
						"value": "t_struct(Certificate)10_storage"
					},
					"t_string_storage": {
						"encoding": "bytes",
						"label": "string",
						"numberOfBytes": "32"
					},
					"t_struct(Certificate)10_storage": {
						"encoding": "inplace",
						"label": "struct Certi.Certificate",
						"members": [
							{
								"astId": 3,
								"contract": "Remix/Certi.sol:Certi",
								"label": "name",
								"offset": 0,
								"slot": "0",
								"type": "t_string_storage"
							},
							{
								"astId": 5,
								"contract": "Remix/Certi.sol:Certi",
								"label": "course",
								"offset": 0,
								"slot": "1",
								"type": "t_string_storage"
							},
							{
								"astId": 7,
								"contract": "Remix/Certi.sol:Certi",
								"label": "grade",
								"offset": 0,
								"slot": "2",
								"type": "t_string_storage"
							},
							{
								"astId": 9,
								"contract": "Remix/Certi.sol:Certi",
								"label": "date",
								"offset": 0,
								"slot": "3",
								"type": "t_string_storage"
							}
						],
						"numberOfBytes": "128"
					},
					"t_uint256": {
						"encoding": "inplace",
						"label": "uint256",
						"numberOfBytes": "32"
					}
				}
			},
			"userdoc": {
				"kind": "user",
				"methods": {},
				"version": 1
			}
		}
	}
}