{
	"Remix/Inheritance.sol": {
		"Person": {
			"abi": [
				{
					"inputs": [],
					"name": "getPersonDetails",
					"outputs": [
						{
							"internalType": "string",
							"name": "",
							"type": "string"
						},
						{
							"internalType": "uint256",
							"name": "",
							"type": "uint256"
						}
					],
					"stateMutability": "view",
					"type": "function"
				},
				{
					"inputs": [
						{
							"internalType": "string",
							"name": "_name",
							"type": "string"
						},
						{
							"internalType": "uint256",
							"name": "_age",
							"type": "uint256"
						}
					],
					"name": "setPerson",
					"outputs": [],
					"stateMutability": "nonpayable",
					"type": "function"
				}
			],
			"devdoc": {
				"kind": "dev",
				"methods": {},
				"version": 1
			},
			"evm": {
				"assembly": "    /* \"Remix/Inheritance.sol\":57:376  contract Person{... */\n  mstore(0x40, 0x80)\n  callvalue\n  dup1\n  iszero\n  tag_1\n  jumpi\n  0x00\n  dup1\n  revert\ntag_1:\n  pop\n  dataSize(sub_0)\n  dup1\n  dataOffset(sub_0)\n  0x00\n  codecopy\n  0x00\n  return\nstop\n\nsub_0: assembly {\n        /* \"Remix/Inheritance.sol\":57:376  contract Person{... */\n      mstore(0x40, 0x80)\n      callvalue\n      dup1\n      iszero\n      tag_1\n      jumpi\n      0x00\n      dup1\n      revert\n    tag_1:\n      pop\n      jumpi(tag_2, lt(calldatasize, 0x04))\n      shr(0xe0, calldataload(0x00))\n      dup1\n      0x2fda437e\n      eq\n      tag_3\n      jumpi\n      dup1\n      0xd781a3a5\n      eq\n      tag_4\n      jumpi\n    tag_2:\n      0x00\n      dup1\n      revert\n        /* \"Remix/Inheritance.sol\":224:324  function setPerson(string memory _name,uint _age)public{... */\n    tag_3:\n      tag_5\n      0x04\n      dup1\n      calldatasize\n      sub\n      dup2\n      add\n      swap1\n      tag_6\n      swap2\n      swap1\n      tag_7\n      jump\t// in\n    tag_6:\n      tag_8\n      jump\t// in\n    tag_5:\n      stop\n        /* \"Remix/Inheritance.sol\":110:219  function getPersonDetails()public virtual view returns (string memory ,uint){... */\n    tag_4:\n      tag_9\n      tag_10\n      jump\t// in\n    tag_9:\n      mload(0x40)\n      tag_11\n      swap3\n      swap2\n      swap1\n      tag_12\n      jump\t// in\n    tag_11:\n      mload(0x40)\n      dup1\n      swap2\n      sub\n      swap1\n      return\n        /* \"Remix/Inheritance.sol\":224:324  function setPerson(string memory _name,uint _age)public{... */\n    tag_8:\n        /* \"Remix/Inheritance.sol\":294:299  _name */\n      dup2\n        /* \"Remix/Inheritance.sol\":289:293  name */\n      0x00\n        /* \"Remix/Inheritance.sol\":289:299  name=_name */\n      swap1\n      dup2\n      tag_14\n      swap2\n      swap1\n      tag_15\n      jump\t// in\n    tag_14:\n      pop\n        /* \"Remix/Inheritance.sol\":313:317  _age */\n      dup1\n        /* \"Remix/Inheritance.sol\":309:312  age */\n      0x01\n        /* \"Remix/Inheritance.sol\":309:317  age=_age */\n      dup2\n      swap1\n      sstore\n      pop\n        /* \"Remix/Inheritance.sol\":224:324  function setPerson(string memory _name,uint _age)public{... */\n      pop\n      pop\n      jump\t// out\n        /* \"Remix/Inheritance.sol\":110:219  function getPersonDetails()public virtual view returns (string memory ,uint){... */\n    tag_10:\n        /* \"Remix/Inheritance.sol\":166:179  string memory */\n      0x60\n        /* \"Remix/Inheritance.sol\":181:185  uint */\n      0x00\n        /* \"Remix/Inheritance.sol\":203:207  name */\n      dup1\n        /* \"Remix/Inheritance.sol\":208:211  age */\n      sload(0x01)\n        /* \"Remix/Inheritance.sol\":196:212  return(name,age) */\n      dup2\n      dup1\n      sload\n      tag_17\n      swap1\n      tag_18\n      jump\t// in\n    tag_17:\n      dup1\n      0x1f\n      add\n      0x20\n      dup1\n      swap2\n      div\n      mul\n      0x20\n      add\n      mload(0x40)\n      swap1\n      dup2\n      add\n      0x40\n      mstore\n      dup1\n      swap3\n      swap2\n      swap1\n      dup2\n      dup2\n      mstore\n      0x20\n      add\n      dup3\n      dup1\n      sload\n      tag_19\n      swap1\n      tag_18\n      jump\t// in\n    tag_19:\n      dup1\n      iszero\n      tag_20\n      jumpi\n      dup1\n      0x1f\n      lt\n      tag_21\n      jumpi\n      0x0100\n      dup1\n      dup4\n      sload\n      div\n      mul\n      dup4\n      mstore\n      swap2\n      0x20\n      add\n      swap2\n      jump(tag_20)\n    tag_21:\n      dup3\n      add\n      swap2\n      swap1\n      0x00\n      mstore\n      keccak256(0x00, 0x20)\n      swap1\n    tag_22:\n      dup2\n      sload\n      dup2\n      mstore\n      swap1\n      0x01\n      add\n      swap1\n      0x20\n      add\n      dup1\n      dup4\n      gt\n      tag_22\n      jumpi\n      dup3\n      swap1\n      sub\n      0x1f\n      and\n      dup3\n      add\n      swap2\n    tag_20:\n      pop\n      pop\n      pop\n      pop\n      pop\n      swap2\n      pop\n      swap2\n      pop\n      swap2\n      pop\n        /* \"Remix/Inheritance.sol\":110:219  function getPersonDetails()public virtual view returns (string memory ,uint){... */\n      swap1\n      swap2\n      jump\t// out\n        /* \"#utility.yul\":7:82   */\n    tag_23:\n        /* \"#utility.yul\":40:46   */\n      0x00\n        /* \"#utility.yul\":73:75   */\n      0x40\n        /* \"#utility.yul\":67:76   */\n      mload\n        /* \"#utility.yul\":57:76   */\n      swap1\n      pop\n        /* \"#utility.yul\":7:82   */\n      swap1\n      jump\t// out\n        /* \"#utility.yul\":88:205   */\n    tag_24:\n        /* \"#utility.yul\":197:198   */\n      0x00\n        /* \"#utility.yul\":194:195   */\n      dup1\n        /* \"#utility.yul\":187:199   */\n      revert\n        /* \"#utility.yul\":211:328   */\n    tag_25:\n        /* \"#utility.yul\":320:321   */\n      0x00\n        /* \"#utility.yul\":317:318   */\n      dup1\n        /* \"#utility.yul\":310:322   */\n      revert\n        /* \"#utility.yul\":334:451   */\n    tag_26:\n        /* \"#utility.yul\":443:444   */\n      0x00\n        /* \"#utility.yul\":440:441   */\n      dup1\n        /* \"#utility.yul\":433:445   */\n      revert\n        /* \"#utility.yul\":457:574   */\n    tag_27:\n        /* \"#utility.yul\":566:567   */\n      0x00\n        /* \"#utility.yul\":563:564   */\n      dup1\n        /* \"#utility.yul\":556:568   */\n      revert\n        /* \"#utility.yul\":580:682   */\n    tag_28:\n        /* \"#utility.yul\":621:627   */\n      0x00\n        /* \"#utility.yul\":672:674   */\n      0x1f\n        /* \"#utility.yul\":668:675   */\n      not\n        /* \"#utility.yul\":663:665   */\n      0x1f\n        /* \"#utility.yul\":656:661   */\n      dup4\n        /* \"#utility.yul\":652:666   */\n      add\n        /* \"#utility.yul\":648:676   */\n      and\n        /* \"#utility.yul\":638:676   */\n      swap1\n      pop\n        /* \"#utility.yul\":580:682   */\n      swap2\n      swap1\n      pop\n      jump\t// out\n        /* \"#utility.yul\":688:868   */\n    tag_29:\n        /* \"#utility.yul\":736:813   */\n      0x4e487b7100000000000000000000000000000000000000000000000000000000\n        /* \"#utility.yul\":733:734   */\n      0x00\n        /* \"#utility.yul\":726:814   */\n      mstore\n        /* \"#utility.yul\":833:837   */\n      0x41\n        /* \"#utility.yul\":830:831   */\n      0x04\n        /* \"#utility.yul\":823:838   */\n      mstore\n        /* \"#utility.yul\":857:861   */\n      0x24\n        /* \"#utility.yul\":854:855   */\n      0x00\n        /* \"#utility.yul\":847:862   */\n      revert\n        /* \"#utility.yul\":874:1155   */\n    tag_30:\n        /* \"#utility.yul\":957:984   */\n      tag_69\n        /* \"#utility.yul\":979:983   */\n      dup3\n        /* \"#utility.yul\":957:984   */\n      tag_28\n      jump\t// in\n    tag_69:\n        /* \"#utility.yul\":949:955   */\n      dup2\n        /* \"#utility.yul\":945:985   */\n      add\n        /* \"#utility.yul\":1087:1093   */\n      dup2\n        /* \"#utility.yul\":1075:1085   */\n      dup2\n        /* \"#utility.yul\":1072:1094   */\n      lt\n        /* \"#utility.yul\":1051:1069   */\n      0xffffffffffffffff\n        /* \"#utility.yul\":1039:1049   */\n      dup3\n        /* \"#utility.yul\":1036:1070   */\n      gt\n        /* \"#utility.yul\":1033:1095   */\n      or\n        /* \"#utility.yul\":1030:1118   */\n      iszero\n      tag_70\n      jumpi\n        /* \"#utility.yul\":1098:1116   */\n      tag_71\n      tag_29\n      jump\t// in\n    tag_71:\n        /* \"#utility.yul\":1030:1118   */\n    tag_70:\n        /* \"#utility.yul\":1138:1148   */\n      dup1\n        /* \"#utility.yul\":1134:1136   */\n      0x40\n        /* \"#utility.yul\":1127:1149   */\n      mstore\n        /* \"#utility.yul\":917:1155   */\n      pop\n        /* \"#utility.yul\":874:1155   */\n      pop\n      pop\n      jump\t// out\n        /* \"#utility.yul\":1161:1290   */\n    tag_31:\n        /* \"#utility.yul\":1195:1201   */\n      0x00\n        /* \"#utility.yul\":1222:1242   */\n      tag_73\n      tag_23\n      jump\t// in\n    tag_73:\n        /* \"#utility.yul\":1212:1242   */\n      swap1\n      pop\n        /* \"#utility.yul\":1251:1284   */\n      tag_74\n        /* \"#utility.yul\":1279:1283   */\n      dup3\n        /* \"#utility.yul\":1271:1277   */\n      dup3\n        /* \"#utility.yul\":1251:1284   */\n      tag_30\n      jump\t// in\n    tag_74:\n        /* \"#utility.yul\":1161:1290   */\n      swap2\n      swap1\n      pop\n      jump\t// out\n        /* \"#utility.yul\":1296:1604   */\n    tag_32:\n        /* \"#utility.yul\":1358:1362   */\n      0x00\n        /* \"#utility.yul\":1448:1466   */\n      0xffffffffffffffff\n        /* \"#utility.yul\":1440:1446   */\n      dup3\n        /* \"#utility.yul\":1437:1467   */\n      gt\n        /* \"#utility.yul\":1434:1490   */\n      iszero\n      tag_76\n      jumpi\n        /* \"#utility.yul\":1470:1488   */\n      tag_77\n      tag_29\n      jump\t// in\n    tag_77:\n        /* \"#utility.yul\":1434:1490   */\n    tag_76:\n        /* \"#utility.yul\":1508:1537   */\n      tag_78\n        /* \"#utility.yul\":1530:1536   */\n      dup3\n        /* \"#utility.yul\":1508:1537   */\n      tag_28\n      jump\t// in\n    tag_78:\n        /* \"#utility.yul\":1500:1537   */\n      swap1\n      pop\n        /* \"#utility.yul\":1592:1596   */\n      0x20\n        /* \"#utility.yul\":1586:1590   */\n      dup2\n        /* \"#utility.yul\":1582:1597   */\n      add\n        /* \"#utility.yul\":1574:1597   */\n      swap1\n      pop\n        /* \"#utility.yul\":1296:1604   */\n      swap2\n      swap1\n      pop\n      jump\t// out\n        /* \"#utility.yul\":1610:1758   */\n    tag_33:\n        /* \"#utility.yul\":1708:1714   */\n      dup3\n        /* \"#utility.yul\":1703:1706   */\n      dup2\n        /* \"#utility.yul\":1698:1701   */\n      dup4\n        /* \"#utility.yul\":1685:1715   */\n      calldatacopy\n        /* \"#utility.yul\":1749:1750   */\n      0x00\n        /* \"#utility.yul\":1740:1746   */\n      dup4\n        /* \"#utility.yul\":1735:1738   */\n      dup4\n        /* \"#utility.yul\":1731:1747   */\n      add\n        /* \"#utility.yul\":1724:1751   */\n      mstore\n        /* \"#utility.yul\":1610:1758   */\n      pop\n      pop\n      pop\n      jump\t// out\n        /* \"#utility.yul\":1764:2189   */\n    tag_34:\n        /* \"#utility.yul\":1842:1847   */\n      0x00\n        /* \"#utility.yul\":1867:1933   */\n      tag_81\n        /* \"#utility.yul\":1883:1932   */\n      tag_82\n        /* \"#utility.yul\":1925:1931   */\n      dup5\n        /* \"#utility.yul\":1883:1932   */\n      tag_32\n      jump\t// in\n    tag_82:\n        /* \"#utility.yul\":1867:1933   */\n      tag_31\n      jump\t// in\n    tag_81:\n        /* \"#utility.yul\":1858:1933   */\n      swap1\n      pop\n        /* \"#utility.yul\":1956:1962   */\n      dup3\n        /* \"#utility.yul\":1949:1954   */\n      dup2\n        /* \"#utility.yul\":1942:1963   */\n      mstore\n        /* \"#utility.yul\":1994:1998   */\n      0x20\n        /* \"#utility.yul\":1987:1992   */\n      dup2\n        /* \"#utility.yul\":1983:1999   */\n      add\n        /* \"#utility.yul\":2032:2035   */\n      dup5\n        /* \"#utility.yul\":2023:2029   */\n      dup5\n        /* \"#utility.yul\":2018:2021   */\n      dup5\n        /* \"#utility.yul\":2014:2030   */\n      add\n        /* \"#utility.yul\":2011:2036   */\n      gt\n        /* \"#utility.yul\":2008:2120   */\n      iszero\n      tag_83\n      jumpi\n        /* \"#utility.yul\":2039:2118   */\n      tag_84\n      tag_27\n      jump\t// in\n    tag_84:\n        /* \"#utility.yul\":2008:2120   */\n    tag_83:\n        /* \"#utility.yul\":2129:2183   */\n      tag_85\n        /* \"#utility.yul\":2176:2182   */\n      dup5\n        /* \"#utility.yul\":2171:2174   */\n      dup3\n        /* \"#utility.yul\":2166:2169   */\n      dup6\n        /* \"#utility.yul\":2129:2183   */\n      tag_33\n      jump\t// in\n    tag_85:\n        /* \"#utility.yul\":1848:2189   */\n      pop\n        /* \"#utility.yul\":1764:2189   */\n      swap4\n      swap3\n      pop\n      pop\n      pop\n      jump\t// out\n        /* \"#utility.yul\":2209:2549   */\n    tag_35:\n        /* \"#utility.yul\":2265:2270   */\n      0x00\n        /* \"#utility.yul\":2314:2317   */\n      dup3\n        /* \"#utility.yul\":2307:2311   */\n      0x1f\n        /* \"#utility.yul\":2299:2305   */\n      dup4\n        /* \"#utility.yul\":2295:2312   */\n      add\n        /* \"#utility.yul\":2291:2318   */\n      slt\n        /* \"#utility.yul\":2281:2403   */\n      tag_87\n      jumpi\n        /* \"#utility.yul\":2322:2401   */\n      tag_88\n      tag_26\n      jump\t// in\n    tag_88:\n        /* \"#utility.yul\":2281:2403   */\n    tag_87:\n        /* \"#utility.yul\":2439:2445   */\n      dup2\n        /* \"#utility.yul\":2426:2446   */\n      calldataload\n        /* \"#utility.yul\":2464:2543   */\n      tag_89\n        /* \"#utility.yul\":2539:2542   */\n      dup5\n        /* \"#utility.yul\":2531:2537   */\n      dup3\n        /* \"#utility.yul\":2524:2528   */\n      0x20\n        /* \"#utility.yul\":2516:2522   */\n      dup7\n        /* \"#utility.yul\":2512:2529   */\n      add\n        /* \"#utility.yul\":2464:2543   */\n      tag_34\n      jump\t// in\n    tag_89:\n        /* \"#utility.yul\":2455:2543   */\n      swap2\n      pop\n        /* \"#utility.yul\":2271:2549   */\n      pop\n        /* \"#utility.yul\":2209:2549   */\n      swap3\n      swap2\n      pop\n      pop\n      jump\t// out\n        /* \"#utility.yul\":2555:2632   */\n    tag_36:\n        /* \"#utility.yul\":2592:2599   */\n      0x00\n        /* \"#utility.yul\":2621:2626   */\n      dup2\n        /* \"#utility.yul\":2610:2626   */\n      swap1\n      pop\n        /* \"#utility.yul\":2555:2632   */\n      swap2\n      swap1\n      pop\n      jump\t// out\n        /* \"#utility.yul\":2638:2760   */\n    tag_37:\n        /* \"#utility.yul\":2711:2735   */\n      tag_92\n        /* \"#utility.yul\":2729:2734   */\n      dup2\n        /* \"#utility.yul\":2711:2735   */\n      tag_36\n      jump\t// in\n    tag_92:\n        /* \"#utility.yul\":2704:2709   */\n      dup2\n        /* \"#utility.yul\":2701:2736   */\n      eq\n        /* \"#utility.yul\":2691:2754   */\n      tag_93\n      jumpi\n        /* \"#utility.yul\":2750:2751   */\n      0x00\n        /* \"#utility.yul\":2747:2748   */\n      dup1\n        /* \"#utility.yul\":2740:2752   */\n      revert\n        /* \"#utility.yul\":2691:2754   */\n    tag_93:\n        /* \"#utility.yul\":2638:2760   */\n      pop\n      jump\t// out\n        /* \"#utility.yul\":2766:2905   */\n    tag_38:\n        /* \"#utility.yul\":2812:2817   */\n      0x00\n        /* \"#utility.yul\":2850:2856   */\n      dup2\n        /* \"#utility.yul\":2837:2857   */\n      calldataload\n        /* \"#utility.yul\":2828:2857   */\n      swap1\n      pop\n        /* \"#utility.yul\":2866:2899   */\n      tag_95\n        /* \"#utility.yul\":2893:2898   */\n      dup2\n        /* \"#utility.yul\":2866:2899   */\n      tag_37\n      jump\t// in\n    tag_95:\n        /* \"#utility.yul\":2766:2905   */\n      swap3\n      swap2\n      pop\n      pop\n      jump\t// out\n        /* \"#utility.yul\":2911:3565   */\n    tag_7:\n        /* \"#utility.yul\":2989:2995   */\n      0x00\n        /* \"#utility.yul\":2997:3003   */\n      dup1\n        /* \"#utility.yul\":3046:3048   */\n      0x40\n        /* \"#utility.yul\":3034:3043   */\n      dup4\n        /* \"#utility.yul\":3025:3032   */\n      dup6\n        /* \"#utility.yul\":3021:3044   */\n      sub\n        /* \"#utility.yul\":3017:3049   */\n      slt\n        /* \"#utility.yul\":3014:3133   */\n      iszero\n      tag_97\n      jumpi\n        /* \"#utility.yul\":3052:3131   */\n      tag_98\n      tag_24\n      jump\t// in\n    tag_98:\n        /* \"#utility.yul\":3014:3133   */\n    tag_97:\n        /* \"#utility.yul\":3200:3201   */\n      0x00\n        /* \"#utility.yul\":3189:3198   */\n      dup4\n        /* \"#utility.yul\":3185:3202   */\n      add\n        /* \"#utility.yul\":3172:3203   */\n      calldataload\n        /* \"#utility.yul\":3230:3248   */\n      0xffffffffffffffff\n        /* \"#utility.yul\":3222:3228   */\n      dup2\n        /* \"#utility.yul\":3219:3249   */\n      gt\n        /* \"#utility.yul\":3216:3333   */\n      iszero\n      tag_99\n      jumpi\n        /* \"#utility.yul\":3252:3331   */\n      tag_100\n      tag_25\n      jump\t// in\n    tag_100:\n        /* \"#utility.yul\":3216:3333   */\n    tag_99:\n        /* \"#utility.yul\":3357:3420   */\n      tag_101\n        /* \"#utility.yul\":3412:3419   */\n      dup6\n        /* \"#utility.yul\":3403:3409   */\n      dup3\n        /* \"#utility.yul\":3392:3401   */\n      dup7\n        /* \"#utility.yul\":3388:3410   */\n      add\n        /* \"#utility.yul\":3357:3420   */\n      tag_35\n      jump\t// in\n    tag_101:\n        /* \"#utility.yul\":3347:3420   */\n      swap3\n      pop\n        /* \"#utility.yul\":3143:3430   */\n      pop\n        /* \"#utility.yul\":3469:3471   */\n      0x20\n        /* \"#utility.yul\":3495:3548   */\n      tag_102\n        /* \"#utility.yul\":3540:3547   */\n      dup6\n        /* \"#utility.yul\":3531:3537   */\n      dup3\n        /* \"#utility.yul\":3520:3529   */\n      dup7\n        /* \"#utility.yul\":3516:3538   */\n      add\n        /* \"#utility.yul\":3495:3548   */\n      tag_38\n      jump\t// in\n    tag_102:\n        /* \"#utility.yul\":3485:3548   */\n      swap2\n      pop\n        /* \"#utility.yul\":3440:3558   */\n      pop\n        /* \"#utility.yul\":2911:3565   */\n      swap3\n      pop\n      swap3\n      swap1\n      pop\n      jump\t// out\n        /* \"#utility.yul\":3571:3670   */\n    tag_39:\n        /* \"#utility.yul\":3623:3629   */\n      0x00\n        /* \"#utility.yul\":3657:3662   */\n      dup2\n        /* \"#utility.yul\":3651:3663   */\n      mload\n        /* \"#utility.yul\":3641:3663   */\n      swap1\n      pop\n        /* \"#utility.yul\":3571:3670   */\n      swap2\n      swap1\n      pop\n      jump\t// out\n        /* \"#utility.yul\":3676:3845   */\n    tag_40:\n        /* \"#utility.yul\":3760:3771   */\n      0x00\n        /* \"#utility.yul\":3794:3800   */\n      dup3\n        /* \"#utility.yul\":3789:3792   */\n      dup3\n        /* \"#utility.yul\":3782:3801   */\n      mstore\n        /* \"#utility.yul\":3834:3838   */\n      0x20\n        /* \"#utility.yul\":3829:3832   */\n      dup3\n        /* \"#utility.yul\":3825:3839   */\n      add\n        /* \"#utility.yul\":3810:3839   */\n      swap1\n      pop\n        /* \"#utility.yul\":3676:3845   */\n      swap3\n      swap2\n      pop\n      pop\n      jump\t// out\n        /* \"#utility.yul\":3851:3990   */\n    tag_41:\n        /* \"#utility.yul\":3940:3946   */\n      dup3\n        /* \"#utility.yul\":3935:3938   */\n      dup2\n        /* \"#utility.yul\":3930:3933   */\n      dup4\n        /* \"#utility.yul\":3924:3947   */\n      mcopy\n        /* \"#utility.yul\":3981:3982   */\n      0x00\n        /* \"#utility.yul\":3972:3978   */\n      dup4\n        /* \"#utility.yul\":3967:3970   */\n      dup4\n        /* \"#utility.yul\":3963:3979   */\n      add\n        /* \"#utility.yul\":3956:3983   */\n      mstore\n        /* \"#utility.yul\":3851:3990   */\n      pop\n      pop\n      pop\n      jump\t// out\n        /* \"#utility.yul\":3996:4373   */\n    tag_42:\n        /* \"#utility.yul\":4084:4087   */\n      0x00\n        /* \"#utility.yul\":4112:4151   */\n      tag_107\n        /* \"#utility.yul\":4145:4150   */\n      dup3\n        /* \"#utility.yul\":4112:4151   */\n      tag_39\n      jump\t// in\n    tag_107:\n        /* \"#utility.yul\":4167:4238   */\n      tag_108\n        /* \"#utility.yul\":4231:4237   */\n      dup2\n        /* \"#utility.yul\":4226:4229   */\n      dup6\n        /* \"#utility.yul\":4167:4238   */\n      tag_40\n      jump\t// in\n    tag_108:\n        /* \"#utility.yul\":4160:4238   */\n      swap4\n      pop\n        /* \"#utility.yul\":4247:4312   */\n      tag_109\n        /* \"#utility.yul\":4305:4311   */\n      dup2\n        /* \"#utility.yul\":4300:4303   */\n      dup6\n        /* \"#utility.yul\":4293:4297   */\n      0x20\n        /* \"#utility.yul\":4286:4291   */\n      dup7\n        /* \"#utility.yul\":4282:4298   */\n      add\n        /* \"#utility.yul\":4247:4312   */\n      tag_41\n      jump\t// in\n    tag_109:\n        /* \"#utility.yul\":4337:4366   */\n      tag_110\n        /* \"#utility.yul\":4359:4365   */\n      dup2\n        /* \"#utility.yul\":4337:4366   */\n      tag_28\n      jump\t// in\n    tag_110:\n        /* \"#utility.yul\":4332:4335   */\n      dup5\n        /* \"#utility.yul\":4328:4367   */\n      add\n        /* \"#utility.yul\":4321:4367   */\n      swap2\n      pop\n        /* \"#utility.yul\":4088:4373   */\n      pop\n        /* \"#utility.yul\":3996:4373   */\n      swap3\n      swap2\n      pop\n      pop\n      jump\t// out\n        /* \"#utility.yul\":4379:4497   */\n    tag_43:\n        /* \"#utility.yul\":4466:4490   */\n      tag_112\n        /* \"#utility.yul\":4484:4489   */\n      dup2\n        /* \"#utility.yul\":4466:4490   */\n      tag_36\n      jump\t// in\n    tag_112:\n        /* \"#utility.yul\":4461:4464   */\n      dup3\n        /* \"#utility.yul\":4454:4491   */\n      mstore\n        /* \"#utility.yul\":4379:4497   */\n      pop\n      pop\n      jump\t// out\n        /* \"#utility.yul\":4503:4926   */\n    tag_12:\n        /* \"#utility.yul\":4644:4648   */\n      0x00\n        /* \"#utility.yul\":4682:4684   */\n      0x40\n        /* \"#utility.yul\":4671:4680   */\n      dup3\n        /* \"#utility.yul\":4667:4685   */\n      add\n        /* \"#utility.yul\":4659:4685   */\n      swap1\n      pop\n        /* \"#utility.yul\":4731:4740   */\n      dup2\n        /* \"#utility.yul\":4725:4729   */\n      dup2\n        /* \"#utility.yul\":4721:4741   */\n      sub\n        /* \"#utility.yul\":4717:4718   */\n      0x00\n        /* \"#utility.yul\":4706:4715   */\n      dup4\n        /* \"#utility.yul\":4702:4719   */\n      add\n        /* \"#utility.yul\":4695:4742   */\n      mstore\n        /* \"#utility.yul\":4759:4837   */\n      tag_114\n        /* \"#utility.yul\":4832:4836   */\n      dup2\n        /* \"#utility.yul\":4823:4829   */\n      dup6\n        /* \"#utility.yul\":4759:4837   */\n      tag_42\n      jump\t// in\n    tag_114:\n        /* \"#utility.yul\":4751:4837   */\n      swap1\n      pop\n        /* \"#utility.yul\":4847:4919   */\n      tag_115\n        /* \"#utility.yul\":4915:4917   */\n      0x20\n        /* \"#utility.yul\":4904:4913   */\n      dup4\n        /* \"#utility.yul\":4900:4918   */\n      add\n        /* \"#utility.yul\":4891:4897   */\n      dup5\n        /* \"#utility.yul\":4847:4919   */\n      tag_43\n      jump\t// in\n    tag_115:\n        /* \"#utility.yul\":4503:4926   */\n      swap4\n      swap3\n      pop\n      pop\n      pop\n      jump\t// out\n        /* \"#utility.yul\":4932:5112   */\n    tag_44:\n        /* \"#utility.yul\":4980:5057   */\n      0x4e487b7100000000000000000000000000000000000000000000000000000000\n        /* \"#utility.yul\":4977:4978   */\n      0x00\n        /* \"#utility.yul\":4970:5058   */\n      mstore\n        /* \"#utility.yul\":5077:5081   */\n      0x22\n        /* \"#utility.yul\":5074:5075   */\n      0x04\n        /* \"#utility.yul\":5067:5082   */\n      mstore\n        /* \"#utility.yul\":5101:5105   */\n      0x24\n        /* \"#utility.yul\":5098:5099   */\n      0x00\n        /* \"#utility.yul\":5091:5106   */\n      revert\n        /* \"#utility.yul\":5118:5438   */\n    tag_18:\n        /* \"#utility.yul\":5162:5168   */\n      0x00\n        /* \"#utility.yul\":5199:5200   */\n      0x02\n        /* \"#utility.yul\":5193:5197   */\n      dup3\n        /* \"#utility.yul\":5189:5201   */\n      div\n        /* \"#utility.yul\":5179:5201   */\n      swap1\n      pop\n        /* \"#utility.yul\":5246:5247   */\n      0x01\n        /* \"#utility.yul\":5240:5244   */\n      dup3\n        /* \"#utility.yul\":5236:5248   */\n      and\n        /* \"#utility.yul\":5267:5285   */\n      dup1\n        /* \"#utility.yul\":5257:5338   */\n      tag_118\n      jumpi\n        /* \"#utility.yul\":5323:5327   */\n      0x7f\n        /* \"#utility.yul\":5315:5321   */\n      dup3\n        /* \"#utility.yul\":5311:5328   */\n      and\n        /* \"#utility.yul\":5301:5328   */\n      swap2\n      pop\n        /* \"#utility.yul\":5257:5338   */\n    tag_118:\n        /* \"#utility.yul\":5385:5387   */\n      0x20\n        /* \"#utility.yul\":5377:5383   */\n      dup3\n        /* \"#utility.yul\":5374:5388   */\n      lt\n        /* \"#utility.yul\":5354:5372   */\n      dup2\n        /* \"#utility.yul\":5351:5389   */\n      sub\n        /* \"#utility.yul\":5348:5432   */\n      tag_119\n      jumpi\n        /* \"#utility.yul\":5404:5422   */\n      tag_120\n      tag_44\n      jump\t// in\n    tag_120:\n        /* \"#utility.yul\":5348:5432   */\n    tag_119:\n        /* \"#utility.yul\":5169:5438   */\n      pop\n        /* \"#utility.yul\":5118:5438   */\n      swap2\n      swap1\n      pop\n      jump\t// out\n        /* \"#utility.yul\":5444:5585   */\n    tag_45:\n        /* \"#utility.yul\":5493:5497   */\n      0x00\n        /* \"#utility.yul\":5516:5519   */\n      dup2\n        /* \"#utility.yul\":5508:5519   */\n      swap1\n      pop\n        /* \"#utility.yul\":5539:5542   */\n      dup2\n        /* \"#utility.yul\":5536:5537   */\n      0x00\n        /* \"#utility.yul\":5529:5543   */\n      mstore\n        /* \"#utility.yul\":5573:5577   */\n      0x20\n        /* \"#utility.yul\":5570:5571   */\n      0x00\n        /* \"#utility.yul\":5560:5578   */\n      keccak256\n        /* \"#utility.yul\":5552:5578   */\n      swap1\n      pop\n        /* \"#utility.yul\":5444:5585   */\n      swap2\n      swap1\n      pop\n      jump\t// out\n        /* \"#utility.yul\":5591:5684   */\n    tag_46:\n        /* \"#utility.yul\":5628:5634   */\n      0x00\n        /* \"#utility.yul\":5675:5677   */\n      0x20\n        /* \"#utility.yul\":5670:5672   */\n      0x1f\n        /* \"#utility.yul\":5663:5668   */\n      dup4\n        /* \"#utility.yul\":5659:5673   */\n      add\n        /* \"#utility.yul\":5655:5678   */\n      div\n        /* \"#utility.yul\":5645:5678   */\n      swap1\n      pop\n        /* \"#utility.yul\":5591:5684   */\n      swap2\n      swap1\n      pop\n      jump\t// out\n        /* \"#utility.yul\":5690:5797   */\n    tag_47:\n        /* \"#utility.yul\":5734:5742   */\n      0x00\n        /* \"#utility.yul\":5784:5789   */\n      dup3\n        /* \"#utility.yul\":5778:5782   */\n      dup3\n        /* \"#utility.yul\":5774:5790   */\n      shl\n        /* \"#utility.yul\":5753:5790   */\n      swap1\n      pop\n        /* \"#utility.yul\":5690:5797   */\n      swap3\n      swap2\n      pop\n      pop\n      jump\t// out\n        /* \"#utility.yul\":5803:6196   */\n    tag_48:\n        /* \"#utility.yul\":5872:5878   */\n      0x00\n        /* \"#utility.yul\":5922:5923   */\n      0x08\n        /* \"#utility.yul\":5910:5920   */\n      dup4\n        /* \"#utility.yul\":5906:5924   */\n      mul\n        /* \"#utility.yul\":5945:6042   */\n      tag_125\n        /* \"#utility.yul\":5975:6041   */\n      0xffffffffffffffffffffffffffffffffffffffffffffffffffffffffffffffff\n        /* \"#utility.yul\":5964:5973   */\n      dup3\n        /* \"#utility.yul\":5945:6042   */\n      tag_47\n      jump\t// in\n    tag_125:\n        /* \"#utility.yul\":6063:6102   */\n      tag_126\n        /* \"#utility.yul\":6093:6101   */\n      dup7\n        /* \"#utility.yul\":6082:6091   */\n      dup4\n        /* \"#utility.yul\":6063:6102   */\n      tag_47\n      jump\t// in\n    tag_126:\n        /* \"#utility.yul\":6051:6102   */\n      swap6\n      pop\n        /* \"#utility.yul\":6135:6139   */\n      dup1\n        /* \"#utility.yul\":6131:6140   */\n      not\n        /* \"#utility.yul\":6124:6129   */\n      dup5\n        /* \"#utility.yul\":6120:6141   */\n      and\n        /* \"#utility.yul\":6111:6141   */\n      swap4\n      pop\n        /* \"#utility.yul\":6184:6188   */\n      dup1\n        /* \"#utility.yul\":6174:6182   */\n      dup7\n        /* \"#utility.yul\":6170:6189   */\n      and\n        /* \"#utility.yul\":6163:6168   */\n      dup5\n        /* \"#utility.yul\":6160:6190   */\n      or\n        /* \"#utility.yul\":6150:6190   */\n      swap3\n      pop\n        /* \"#utility.yul\":5879:6196   */\n      pop\n      pop\n        /* \"#utility.yul\":5803:6196   */\n      swap4\n      swap3\n      pop\n      pop\n      pop\n      jump\t// out\n        /* \"#utility.yul\":6202:6262   */\n    tag_49:\n        /* \"#utility.yul\":6230:6233   */\n      0x00\n        /* \"#utility.yul\":6251:6256   */\n      dup2\n        /* \"#utility.yul\":6244:6256   */\n      swap1\n      pop\n        /* \"#utility.yul\":6202:6262   */\n      swap2\n      swap1\n      pop\n      jump\t// out\n        /* \"#utility.yul\":6268:6410   */\n    tag_50:\n        /* \"#utility.yul\":6318:6327   */\n      0x00\n        /* \"#utility.yul\":6351:6404   */\n      tag_129\n        /* \"#utility.yul\":6369:6403   */\n      tag_130\n        /* \"#utility.yul\":6378:6402   */\n      tag_131\n        /* \"#utility.yul\":6396:6401   */\n      dup5\n        /* \"#utility.yul\":6378:6402   */\n      tag_36\n      jump\t// in\n    tag_131:\n        /* \"#utility.yul\":6369:6403   */\n      tag_49\n      jump\t// in\n    tag_130:\n        /* \"#utility.yul\":6351:6404   */\n      tag_36\n      jump\t// in\n    tag_129:\n        /* \"#utility.yul\":6338:6404   */\n      swap1\n      pop\n        /* \"#utility.yul\":6268:6410   */\n      swap2\n      swap1\n      pop\n      jump\t// out\n        /* \"#utility.yul\":6416:6491   */\n    tag_51:\n        /* \"#utility.yul\":6459:6462   */\n      0x00\n        /* \"#utility.yul\":6480:6485   */\n      dup2\n        /* \"#utility.yul\":6473:6485   */\n      swap1\n      pop\n        /* \"#utility.yul\":6416:6491   */\n      swap2\n      swap1\n      pop\n      jump\t// out\n        /* \"#utility.yul\":6497:6766   */\n    tag_52:\n        /* \"#utility.yul\":6607:6646   */\n      tag_134\n        /* \"#utility.yul\":6638:6645   */\n      dup4\n        /* \"#utility.yul\":6607:6646   */\n      tag_50\n      jump\t// in\n    tag_134:\n        /* \"#utility.yul\":6668:6759   */\n      tag_135\n        /* \"#utility.yul\":6717:6758   */\n      tag_136\n        /* \"#utility.yul\":6741:6757   */\n      dup3\n        /* \"#utility.yul\":6717:6758   */\n      tag_51\n      jump\t// in\n    tag_136:\n        /* \"#utility.yul\":6709:6715   */\n      dup5\n        /* \"#utility.yul\":6702:6706   */\n      dup5\n        /* \"#utility.yul\":6696:6707   */\n      sload\n        /* \"#utility.yul\":6668:6759   */\n      tag_48\n      jump\t// in\n    tag_135:\n        /* \"#utility.yul\":6662:6666   */\n      dup3\n        /* \"#utility.yul\":6655:6760   */\n      sstore\n        /* \"#utility.yul\":6573:6766   */\n      pop\n        /* \"#utility.yul\":6497:6766   */\n      pop\n      pop\n      pop\n      jump\t// out\n        /* \"#utility.yul\":6772:6845   */\n    tag_53:\n        /* \"#utility.yul\":6817:6820   */\n      0x00\n        /* \"#utility.yul\":6772:6845   */\n      swap1\n      jump\t// out\n        /* \"#utility.yul\":6851:7040   */\n    tag_54:\n        /* \"#utility.yul\":6928:6960   */\n      tag_139\n      tag_53\n      jump\t// in\n    tag_139:\n        /* \"#utility.yul\":6969:7034   */\n      tag_140\n        /* \"#utility.yul\":7027:7033   */\n      dup2\n        /* \"#utility.yul\":7019:7025   */\n      dup5\n        /* \"#utility.yul\":7013:7017   */\n      dup5\n        /* \"#utility.yul\":6969:7034   */\n      tag_52\n      jump\t// in\n    tag_140:\n        /* \"#utility.yul\":6904:7040   */\n      pop\n        /* \"#utility.yul\":6851:7040   */\n      pop\n      pop\n      jump\t// out\n        /* \"#utility.yul\":7046:7232   */\n    tag_55:\n        /* \"#utility.yul\":7106:7226   */\n    tag_142:\n        /* \"#utility.yul\":7123:7126   */\n      dup2\n        /* \"#utility.yul\":7116:7121   */\n      dup2\n        /* \"#utility.yul\":7113:7127   */\n      lt\n        /* \"#utility.yul\":7106:7226   */\n      iszero\n      tag_144\n      jumpi\n        /* \"#utility.yul\":7177:7216   */\n      tag_145\n        /* \"#utility.yul\":7214:7215   */\n      0x00\n        /* \"#utility.yul\":7207:7212   */\n      dup3\n        /* \"#utility.yul\":7177:7216   */\n      tag_54\n      jump\t// in\n    tag_145:\n        /* \"#utility.yul\":7150:7151   */\n      0x01\n        /* \"#utility.yul\":7143:7148   */\n      dup2\n        /* \"#utility.yul\":7139:7152   */\n      add\n        /* \"#utility.yul\":7130:7152   */\n      swap1\n      pop\n        /* \"#utility.yul\":7106:7226   */\n      jump(tag_142)\n    tag_144:\n        /* \"#utility.yul\":7046:7232   */\n      pop\n      pop\n      jump\t// out\n        /* \"#utility.yul\":7238:7781   */\n    tag_56:\n        /* \"#utility.yul\":7339:7341   */\n      0x1f\n        /* \"#utility.yul\":7334:7337   */\n      dup3\n        /* \"#utility.yul\":7331:7342   */\n      gt\n        /* \"#utility.yul\":7328:7774   */\n      iszero\n      tag_147\n      jumpi\n        /* \"#utility.yul\":7373:7411   */\n      tag_148\n        /* \"#utility.yul\":7405:7410   */\n      dup2\n        /* \"#utility.yul\":7373:7411   */\n      tag_45\n      jump\t// in\n    tag_148:\n        /* \"#utility.yul\":7457:7486   */\n      tag_149\n        /* \"#utility.yul\":7475:7485   */\n      dup5\n        /* \"#utility.yul\":7457:7486   */\n      tag_46\n      jump\t// in\n    tag_149:\n        /* \"#utility.yul\":7447:7455   */\n      dup2\n        /* \"#utility.yul\":7443:7487   */\n      add\n        /* \"#utility.yul\":7640:7642   */\n      0x20\n        /* \"#utility.yul\":7628:7638   */\n      dup6\n        /* \"#utility.yul\":7625:7643   */\n      lt\n        /* \"#utility.yul\":7622:7671   */\n      iszero\n      tag_150\n      jumpi\n        /* \"#utility.yul\":7661:7669   */\n      dup2\n        /* \"#utility.yul\":7646:7669   */\n      swap1\n      pop\n        /* \"#utility.yul\":7622:7671   */\n    tag_150:\n        /* \"#utility.yul\":7684:7764   */\n      tag_151\n        /* \"#utility.yul\":7740:7762   */\n      tag_152\n        /* \"#utility.yul\":7758:7761   */\n      dup6\n        /* \"#utility.yul\":7740:7762   */\n      tag_46\n      jump\t// in\n    tag_152:\n        /* \"#utility.yul\":7730:7738   */\n      dup4\n        /* \"#utility.yul\":7726:7763   */\n      add\n        /* \"#utility.yul\":7713:7724   */\n      dup3\n        /* \"#utility.yul\":7684:7764   */\n      tag_55\n      jump\t// in\n    tag_151:\n        /* \"#utility.yul\":7343:7774   */\n      pop\n      pop\n        /* \"#utility.yul\":7328:7774   */\n    tag_147:\n        /* \"#utility.yul\":7238:7781   */\n      pop\n      pop\n      pop\n      jump\t// out\n        /* \"#utility.yul\":7787:7904   */\n    tag_57:\n        /* \"#utility.yul\":7841:7849   */\n      0x00\n        /* \"#utility.yul\":7891:7896   */\n      dup3\n        /* \"#utility.yul\":7885:7889   */\n      dup3\n        /* \"#utility.yul\":7881:7897   */\n      shr\n        /* \"#utility.yul\":7860:7897   */\n      swap1\n      pop\n        /* \"#utility.yul\":7787:7904   */\n      swap3\n      swap2\n      pop\n      pop\n      jump\t// out\n        /* \"#utility.yul\":7910:8079   */\n    tag_58:\n        /* \"#utility.yul\":7954:7960   */\n      0x00\n        /* \"#utility.yul\":7987:8038   */\n      tag_155\n        /* \"#utility.yul\":8035:8036   */\n      0x00\n        /* \"#utility.yul\":8031:8037   */\n      not\n        /* \"#utility.yul\":8023:8028   */\n      dup5\n        /* \"#utility.yul\":8020:8021   */\n      0x08\n        /* \"#utility.yul\":8016:8029   */\n      mul\n        /* \"#utility.yul\":7987:8038   */\n      tag_57\n      jump\t// in\n    tag_155:\n        /* \"#utility.yul\":7983:8039   */\n      not\n        /* \"#utility.yul\":8068:8072   */\n      dup1\n        /* \"#utility.yul\":8062:8066   */\n      dup4\n        /* \"#utility.yul\":8058:8073   */\n      and\n        /* \"#utility.yul\":8048:8073   */\n      swap2\n      pop\n        /* \"#utility.yul\":7961:8079   */\n      pop\n        /* \"#utility.yul\":7910:8079   */\n      swap3\n      swap2\n      pop\n      pop\n      jump\t// out\n        /* \"#utility.yul\":8084:8379   */\n    tag_59:\n        /* \"#utility.yul\":8160:8164   */\n      0x00\n        /* \"#utility.yul\":8306:8335   */\n      tag_157\n        /* \"#utility.yul\":8331:8334   */\n      dup4\n        /* \"#utility.yul\":8325:8329   */\n      dup4\n        /* \"#utility.yul\":8306:8335   */\n      tag_58\n      jump\t// in\n    tag_157:\n        /* \"#utility.yul\":8298:8335   */\n      swap2\n      pop\n        /* \"#utility.yul\":8368:8371   */\n      dup3\n        /* \"#utility.yul\":8365:8366   */\n      0x02\n        /* \"#utility.yul\":8361:8372   */\n      mul\n        /* \"#utility.yul\":8355:8359   */\n      dup3\n        /* \"#utility.yul\":8352:8373   */\n      or\n        /* \"#utility.yul\":8344:8373   */\n      swap1\n      pop\n        /* \"#utility.yul\":8084:8379   */\n      swap3\n      swap2\n      pop\n      pop\n      jump\t// out\n        /* \"#utility.yul\":8384:9779   */\n    tag_15:\n        /* \"#utility.yul\":8501:8538   */\n      tag_159\n        /* \"#utility.yul\":8534:8537   */\n      dup3\n        /* \"#utility.yul\":8501:8538   */\n      tag_39\n      jump\t// in\n    tag_159:\n        /* \"#utility.yul\":8603:8621   */\n      0xffffffffffffffff\n        /* \"#utility.yul\":8595:8601   */\n      dup2\n        /* \"#utility.yul\":8592:8622   */\n      gt\n        /* \"#utility.yul\":8589:8645   */\n      iszero\n      tag_160\n      jumpi\n        /* \"#utility.yul\":8625:8643   */\n      tag_161\n      tag_29\n      jump\t// in\n    tag_161:\n        /* \"#utility.yul\":8589:8645   */\n    tag_160:\n        /* \"#utility.yul\":8669:8707   */\n      tag_162\n        /* \"#utility.yul\":8701:8705   */\n      dup3\n        /* \"#utility.yul\":8695:8706   */\n      sload\n        /* \"#utility.yul\":8669:8707   */\n      tag_18\n      jump\t// in\n    tag_162:\n        /* \"#utility.yul\":8754:8821   */\n      tag_163\n        /* \"#utility.yul\":8814:8820   */\n      dup3\n        /* \"#utility.yul\":8806:8812   */\n      dup3\n        /* \"#utility.yul\":8800:8804   */\n      dup6\n        /* \"#utility.yul\":8754:8821   */\n      tag_56\n      jump\t// in\n    tag_163:\n        /* \"#utility.yul\":8848:8849   */\n      0x00\n        /* \"#utility.yul\":8872:8876   */\n      0x20\n        /* \"#utility.yul\":8859:8876   */\n      swap1\n      pop\n        /* \"#utility.yul\":8904:8906   */\n      0x1f\n        /* \"#utility.yul\":8896:8902   */\n      dup4\n        /* \"#utility.yul\":8893:8907   */\n      gt\n        /* \"#utility.yul\":8921:8922   */\n      0x01\n        /* \"#utility.yul\":8916:9534   */\n      dup2\n      eq\n      tag_165\n      jumpi\n        /* \"#utility.yul\":9578:9579   */\n      0x00\n        /* \"#utility.yul\":9595:9601   */\n      dup5\n        /* \"#utility.yul\":9592:9669   */\n      iszero\n      tag_166\n      jumpi\n        /* \"#utility.yul\":9644:9653   */\n      dup3\n        /* \"#utility.yul\":9639:9642   */\n      dup8\n        /* \"#utility.yul\":9635:9654   */\n      add\n        /* \"#utility.yul\":9629:9655   */\n      mload\n        /* \"#utility.yul\":9620:9655   */\n      swap1\n      pop\n        /* \"#utility.yul\":9592:9669   */\n    tag_166:\n        /* \"#utility.yul\":9695:9762   */\n      tag_167\n        /* \"#utility.yul\":9755:9761   */\n      dup6\n        /* \"#utility.yul\":9748:9753   */\n      dup3\n        /* \"#utility.yul\":9695:9762   */\n      tag_59\n      jump\t// in\n    tag_167:\n        /* \"#utility.yul\":9689:9693   */\n      dup7\n        /* \"#utility.yul\":9682:9763   */\n      sstore\n        /* \"#utility.yul\":9551:9773   */\n      pop\n        /* \"#utility.yul\":8886:9773   */\n      jump(tag_164)\n        /* \"#utility.yul\":8916:9534   */\n    tag_165:\n        /* \"#utility.yul\":8968:8972   */\n      0x1f\n        /* \"#utility.yul\":8964:8973   */\n      not\n        /* \"#utility.yul\":8956:8962   */\n      dup5\n        /* \"#utility.yul\":8952:8974   */\n      and\n        /* \"#utility.yul\":9002:9039   */\n      tag_168\n        /* \"#utility.yul\":9034:9038   */\n      dup7\n        /* \"#utility.yul\":9002:9039   */\n      tag_45\n      jump\t// in\n    tag_168:\n        /* \"#utility.yul\":9061:9062   */\n      0x00\n        /* \"#utility.yul\":9075:9283   */\n    tag_169:\n        /* \"#utility.yul\":9089:9096   */\n      dup3\n        /* \"#utility.yul\":9086:9087   */\n      dup2\n        /* \"#utility.yul\":9083:9097   */\n      lt\n        /* \"#utility.yul\":9075:9283   */\n      iszero\n      tag_171\n      jumpi\n        /* \"#utility.yul\":9168:9177   */\n      dup5\n        /* \"#utility.yul\":9163:9166   */\n      dup10\n        /* \"#utility.yul\":9159:9178   */\n      add\n        /* \"#utility.yul\":9153:9179   */\n      mload\n        /* \"#utility.yul\":9145:9151   */\n      dup3\n        /* \"#utility.yul\":9138:9180   */\n      sstore\n        /* \"#utility.yul\":9219:9220   */\n      0x01\n        /* \"#utility.yul\":9211:9217   */\n      dup3\n        /* \"#utility.yul\":9207:9221   */\n      add\n        /* \"#utility.yul\":9197:9221   */\n      swap2\n      pop\n        /* \"#utility.yul\":9266:9268   */\n      0x20\n        /* \"#utility.yul\":9255:9264   */\n      dup6\n        /* \"#utility.yul\":9251:9269   */\n      add\n        /* \"#utility.yul\":9238:9269   */\n      swap5\n      pop\n        /* \"#utility.yul\":9112:9116   */\n      0x20\n        /* \"#utility.yul\":9109:9110   */\n      dup2\n        /* \"#utility.yul\":9105:9117   */\n      add\n        /* \"#utility.yul\":9100:9117   */\n      swap1\n      pop\n        /* \"#utility.yul\":9075:9283   */\n      jump(tag_169)\n    tag_171:\n        /* \"#utility.yul\":9311:9317   */\n      dup7\n        /* \"#utility.yul\":9302:9309   */\n      dup4\n        /* \"#utility.yul\":9299:9318   */\n      lt\n        /* \"#utility.yul\":9296:9475   */\n      iszero\n      tag_172\n      jumpi\n        /* \"#utility.yul\":9369:9378   */\n      dup5\n        /* \"#utility.yul\":9364:9367   */\n      dup10\n        /* \"#utility.yul\":9360:9379   */\n      add\n        /* \"#utility.yul\":9354:9380   */\n      mload\n        /* \"#utility.yul\":9412:9460   */\n      tag_173\n        /* \"#utility.yul\":9454:9458   */\n      0x1f\n        /* \"#utility.yul\":9446:9452   */\n      dup10\n        /* \"#utility.yul\":9442:9459   */\n      and\n        /* \"#utility.yul\":9431:9440   */\n      dup3\n        /* \"#utility.yul\":9412:9460   */\n      tag_58\n      jump\t// in\n    tag_173:\n        /* \"#utility.yul\":9404:9410   */\n      dup4\n        /* \"#utility.yul\":9397:9461   */\n      sstore\n        /* \"#utility.yul\":9319:9475   */\n      pop\n        /* \"#utility.yul\":9296:9475   */\n    tag_172:\n        /* \"#utility.yul\":9521:9522   */\n      0x01\n        /* \"#utility.yul\":9517:9518   */\n      0x02\n        /* \"#utility.yul\":9509:9515   */\n      dup9\n        /* \"#utility.yul\":9505:9519   */\n      mul\n        /* \"#utility.yul\":9501:9523   */\n      add\n        /* \"#utility.yul\":9495:9499   */\n      dup9\n        /* \"#utility.yul\":9488:9524   */\n      sstore\n        /* \"#utility.yul\":8923:9534   */\n      pop\n      pop\n      pop\n        /* \"#utility.yul\":8886:9773   */\n    tag_164:\n      pop\n        /* \"#utility.yul\":8476:9779   */\n      pop\n      pop\n      pop\n        /* \"#utility.yul\":8384:9779   */\n      pop\n      pop\n      jump\t// out\n\n    auxdata: 0xa2646970667358221220a137d07f5c2e5ebe7c92bc6e22ff37a829b0cb357bf0ac5a10f1990e3351497f64736f6c634300081a0033\n}\n",
				"bytecode": {
					"linkReferences": {},
					"object": "6080604052348015600e575f80fd5b5061069c8061001c5f395ff3fe608060405234801561000f575f80fd5b5060043610610034575f3560e01c80632fda437e14610038578063d781a3a514610054575b5f80fd5b610052600480360381019061004d91906102a6565b610073565b005b61005c61008d565b60405161006a92919061036f565b60405180910390f35b815f90816100819190610597565b50806001819055505050565b60605f806001548180546100a0906103ca565b80601f01602080910402602001604051908101604052809291908181526020018280546100cc906103ca565b80156101175780601f106100ee57610100808354040283529160200191610117565b820191905f5260205f20905b8154815290600101906020018083116100fa57829003601f168201915b50505050509150915091509091565b5f604051905090565b5f80fd5b5f80fd5b5f80fd5b5f80fd5b5f601f19601f8301169050919050565b7f4e487b71000000000000000000000000000000000000000000000000000000005f52604160045260245ffd5b6101858261013f565b810181811067ffffffffffffffff821117156101a4576101a361014f565b5b80604052505050565b5f6101b6610126565b90506101c2828261017c565b919050565b5f67ffffffffffffffff8211156101e1576101e061014f565b5b6101ea8261013f565b9050602081019050919050565b828183375f83830152505050565b5f610217610212846101c7565b6101ad565b9050828152602081018484840111156102335761023261013b565b5b61023e8482856101f7565b509392505050565b5f82601f83011261025a57610259610137565b5b813561026a848260208601610205565b91505092915050565b5f819050919050565b61028581610273565b811461028f575f80fd5b50565b5f813590506102a08161027c565b92915050565b5f80604083850312156102bc576102bb61012f565b5b5f83013567ffffffffffffffff8111156102d9576102d8610133565b5b6102e585828601610246565b92505060206102f685828601610292565b9150509250929050565b5f81519050919050565b5f82825260208201905092915050565b8281835e5f83830152505050565b5f61033282610300565b61033c818561030a565b935061034c81856020860161031a565b6103558161013f565b840191505092915050565b61036981610273565b82525050565b5f6040820190508181035f8301526103878185610328565b90506103966020830184610360565b9392505050565b7f4e487b71000000000000000000000000000000000000000000000000000000005f52602260045260245ffd5b5f60028204905060018216806103e157607f821691505b6020821081036103f4576103f361039d565b5b50919050565b5f819050815f5260205f209050919050565b5f6020601f8301049050919050565b5f82821b905092915050565b5f600883026104567fffffffffffffffffffffffffffffffffffffffffffffffffffffffffffffffff8261041b565b610460868361041b565b95508019841693508086168417925050509392505050565b5f819050919050565b5f61049b61049661049184610273565b610478565b610273565b9050919050565b5f819050919050565b6104b483610481565b6104c86104c0826104a2565b848454610427565b825550505050565b5f90565b6104dc6104d0565b6104e78184846104ab565b505050565b5b8181101561050a576104ff5f826104d4565b6001810190506104ed565b5050565b601f82111561054f57610520816103fa565b6105298461040c565b81016020851015610538578190505b61054c6105448561040c565b8301826104ec565b50505b505050565b5f82821c905092915050565b5f61056f5f1984600802610554565b1980831691505092915050565b5f6105878383610560565b9150826002028217905092915050565b6105a082610300565b67ffffffffffffffff8111156105b9576105b861014f565b5b6105c382546103ca565b6105ce82828561050e565b5f60209050601f8311600181146105ff575f84156105ed578287015190505b6105f7858261057c565b86555061065e565b601f19841661060d866103fa565b5f5b828110156106345784890151825560018201915060208501945060208101905061060f565b86831015610651578489015161064d601f891682610560565b8355505b6001600288020188555050505b50505050505056fea2646970667358221220a137d07f5c2e5ebe7c92bc6e22ff37a829b0cb357bf0ac5a10f1990e3351497f64736f6c634300081a0033",
					"opcodes": "PUSH1 0x80 PUSH1 0x40 MSTORE CALLVALUE DUP1 ISZERO PUSH1 0xE JUMPI PUSH0 DUP1 REVERT JUMPDEST POP PUSH2 0x69C DUP1 PUSH2 0x1C PUSH0 CODECOPY PUSH0 RETURN INVALID PUSH1 0x80 PUSH1 0x40 MSTORE CALLVALUE DUP1 ISZERO PUSH2 0xF JUMPI PUSH0 DUP1 REVERT JUMPDEST POP PUSH1 0x4 CALLDATASIZE LT PUSH2 0x34 JUMPI PUSH0 CALLDATALOAD PUSH1 0xE0 SHR DUP1 PUSH4 0x2FDA437E EQ PUSH2 0x38 JUMPI DUP1 PUSH4 0xD781A3A5 EQ PUSH2 0x54 JUMPI JUMPDEST PUSH0 DUP1 REVERT JUMPDEST PUSH2 0x52 PUSH1 0x4 DUP1 CALLDATASIZE SUB DUP2 ADD SWAP1 PUSH2 0x4D SWAP2 SWAP1 PUSH2 0x2A6 JUMP JUMPDEST PUSH2 0x73 JUMP JUMPDEST STOP JUMPDEST PUSH2 0x5C PUSH2 0x8D JUMP JUMPDEST PUSH1 0x40 MLOAD PUSH2 0x6A SWAP3 SWAP2 SWAP1 PUSH2 0x36F JUMP JUMPDEST PUSH1 0x40 MLOAD DUP1 SWAP2 SUB SWAP1 RETURN JUMPDEST DUP2 PUSH0 SWAP1 DUP2 PUSH2 0x81 SWAP2 SWAP1 PUSH2 0x597 JUMP JUMPDEST POP DUP1 PUSH1 0x1 DUP2 SWAP1 SSTORE POP POP POP JUMP JUMPDEST PUSH1 0x60 PUSH0 DUP1 PUSH1 0x1 SLOAD DUP2 DUP1 SLOAD PUSH2 0xA0 SWAP1 PUSH2 0x3CA JUMP JUMPDEST DUP1 PUSH1 0x1F ADD PUSH1 0x20 DUP1 SWAP2 DIV MUL PUSH1 0x20 ADD PUSH1 0x40 MLOAD SWAP1 DUP2 ADD PUSH1 0x40 MSTORE DUP1 SWAP3 SWAP2 SWAP1 DUP2 DUP2 MSTORE PUSH1 0x20 ADD DUP3 DUP1 SLOAD PUSH2 0xCC SWAP1 PUSH2 0x3CA JUMP JUMPDEST DUP1 ISZERO PUSH2 0x117 JUMPI DUP1 PUSH1 0x1F LT PUSH2 0xEE JUMPI PUSH2 0x100 DUP1 DUP4 SLOAD DIV MUL DUP4 MSTORE SWAP2 PUSH1 0x20 ADD SWAP2 PUSH2 0x117 JUMP JUMPDEST DUP3 ADD SWAP2 SWAP1 PUSH0 MSTORE PUSH1 0x20 PUSH0 KECCAK256 SWAP1 JUMPDEST DUP2 SLOAD DUP2 MSTORE SWAP1 PUSH1 0x1 ADD SWAP1 PUSH1 0x20 ADD DUP1 DUP4 GT PUSH2 0xFA JUMPI DUP3 SWAP1 SUB PUSH1 0x1F AND DUP3 ADD SWAP2 JUMPDEST POP POP POP POP POP SWAP2 POP SWAP2 POP SWAP2 POP SWAP1 SWAP2 JUMP JUMPDEST PUSH0 PUSH1 0x40 MLOAD SWAP1 POP SWAP1 JUMP JUMPDEST PUSH0 DUP1 REVERT JUMPDEST PUSH0 DUP1 REVERT JUMPDEST PUSH0 DUP1 REVERT JUMPDEST PUSH0 DUP1 REVERT JUMPDEST PUSH0 PUSH1 0x1F NOT PUSH1 0x1F DUP4 ADD AND SWAP1 POP SWAP2 SWAP1 POP JUMP JUMPDEST PUSH32 0x4E487B7100000000000000000000000000000000000000000000000000000000 PUSH0 MSTORE PUSH1 0x41 PUSH1 0x4 MSTORE PUSH1 0x24 PUSH0 REVERT JUMPDEST PUSH2 0x185 DUP3 PUSH2 0x13F JUMP JUMPDEST DUP2 ADD DUP2 DUP2 LT PUSH8 0xFFFFFFFFFFFFFFFF DUP3 GT OR ISZERO PUSH2 0x1A4 JUMPI PUSH2 0x1A3 PUSH2 0x14F JUMP JUMPDEST JUMPDEST DUP1 PUSH1 0x40 MSTORE POP POP POP JUMP JUMPDEST PUSH0 PUSH2 0x1B6 PUSH2 0x126 JUMP JUMPDEST SWAP1 POP PUSH2 0x1C2 DUP3 DUP3 PUSH2 0x17C JUMP JUMPDEST SWAP2 SWAP1 POP JUMP JUMPDEST PUSH0 PUSH8 0xFFFFFFFFFFFFFFFF DUP3 GT ISZERO PUSH2 0x1E1 JUMPI PUSH2 0x1E0 PUSH2 0x14F JUMP JUMPDEST JUMPDEST PUSH2 0x1EA DUP3 PUSH2 0x13F JUMP JUMPDEST SWAP1 POP PUSH1 0x20 DUP2 ADD SWAP1 POP SWAP2 SWAP1 POP JUMP JUMPDEST DUP3 DUP2 DUP4 CALLDATACOPY PUSH0 DUP4 DUP4 ADD MSTORE POP POP POP JUMP JUMPDEST PUSH0 PUSH2 0x217 PUSH2 0x212 DUP5 PUSH2 0x1C7 JUMP JUMPDEST PUSH2 0x1AD JUMP JUMPDEST SWAP1 POP DUP3 DUP2 MSTORE PUSH1 0x20 DUP2 ADD DUP5 DUP5 DUP5 ADD GT ISZERO PUSH2 0x233 JUMPI PUSH2 0x232 PUSH2 0x13B JUMP JUMPDEST JUMPDEST PUSH2 0x23E DUP5 DUP3 DUP6 PUSH2 0x1F7 JUMP JUMPDEST POP SWAP4 SWAP3 POP POP POP JUMP JUMPDEST PUSH0 DUP3 PUSH1 0x1F DUP4 ADD SLT PUSH2 0x25A JUMPI PUSH2 0x259 PUSH2 0x137 JUMP JUMPDEST JUMPDEST DUP2 CALLDATALOAD PUSH2 0x26A DUP5 DUP3 PUSH1 0x20 DUP7 ADD PUSH2 0x205 JUMP JUMPDEST SWAP2 POP POP SWAP3 SWAP2 POP POP JUMP JUMPDEST PUSH0 DUP2 SWAP1 POP SWAP2 SWAP1 POP JUMP JUMPDEST PUSH2 0x285 DUP2 PUSH2 0x273 JUMP JUMPDEST DUP2 EQ PUSH2 0x28F JUMPI PUSH0 DUP1 REVERT JUMPDEST POP JUMP JUMPDEST PUSH0 DUP2 CALLDATALOAD SWAP1 POP PUSH2 0x2A0 DUP2 PUSH2 0x27C JUMP JUMPDEST SWAP3 SWAP2 POP POP JUMP JUMPDEST PUSH0 DUP1 PUSH1 0x40 DUP4 DUP6 SUB SLT ISZERO PUSH2 0x2BC JUMPI PUSH2 0x2BB PUSH2 0x12F JUMP JUMPDEST JUMPDEST PUSH0 DUP4 ADD CALLDATALOAD PUSH8 0xFFFFFFFFFFFFFFFF DUP2 GT ISZERO PUSH2 0x2D9 JUMPI PUSH2 0x2D8 PUSH2 0x133 JUMP JUMPDEST JUMPDEST PUSH2 0x2E5 DUP6 DUP3 DUP7 ADD PUSH2 0x246 JUMP JUMPDEST SWAP3 POP POP PUSH1 0x20 PUSH2 0x2F6 DUP6 DUP3 DUP7 ADD PUSH2 0x292 JUMP JUMPDEST SWAP2 POP POP SWAP3 POP SWAP3 SWAP1 POP JUMP JUMPDEST PUSH0 DUP2 MLOAD SWAP1 POP SWAP2 SWAP1 POP JUMP JUMPDEST PUSH0 DUP3 DUP3 MSTORE PUSH1 0x20 DUP3 ADD SWAP1 POP SWAP3 SWAP2 POP POP JUMP JUMPDEST DUP3 DUP2 DUP4 MCOPY PUSH0 DUP4 DUP4 ADD MSTORE POP POP POP JUMP JUMPDEST PUSH0 PUSH2 0x332 DUP3 PUSH2 0x300 JUMP JUMPDEST PUSH2 0x33C DUP2 DUP6 PUSH2 0x30A JUMP JUMPDEST SWAP4 POP PUSH2 0x34C DUP2 DUP6 PUSH1 0x20 DUP7 ADD PUSH2 0x31A JUMP JUMPDEST PUSH2 0x355 DUP2 PUSH2 0x13F JUMP JUMPDEST DUP5 ADD SWAP2 POP POP SWAP3 SWAP2 POP POP JUMP JUMPDEST PUSH2 0x369 DUP2 PUSH2 0x273 JUMP JUMPDEST DUP3 MSTORE POP POP JUMP JUMPDEST PUSH0 PUSH1 0x40 DUP3 ADD SWAP1 POP DUP2 DUP2 SUB PUSH0 DUP4 ADD MSTORE PUSH2 0x387 DUP2 DUP6 PUSH2 0x328 JUMP JUMPDEST SWAP1 POP PUSH2 0x396 PUSH1 0x20 DUP4 ADD DUP5 PUSH2 0x360 JUMP JUMPDEST SWAP4 SWAP3 POP POP POP JUMP JUMPDEST PUSH32 0x4E487B7100000000000000000000000000000000000000000000000000000000 PUSH0 MSTORE PUSH1 0x22 PUSH1 0x4 MSTORE PUSH1 0x24 PUSH0 REVERT JUMPDEST PUSH0 PUSH1 0x2 DUP3 DIV SWAP1 POP PUSH1 0x1 DUP3 AND DUP1 PUSH2 0x3E1 JUMPI PUSH1 0x7F DUP3 AND SWAP2 POP JUMPDEST PUSH1 0x20 DUP3 LT DUP2 SUB PUSH2 0x3F4 JUMPI PUSH2 0x3F3 PUSH2 0x39D JUMP JUMPDEST JUMPDEST POP SWAP2 SWAP1 POP JUMP JUMPDEST PUSH0 DUP2 SWAP1 POP DUP2 PUSH0 MSTORE PUSH1 0x20 PUSH0 KECCAK256 SWAP1 POP SWAP2 SWAP1 POP JUMP JUMPDEST PUSH0 PUSH1 0x20 PUSH1 0x1F DUP4 ADD DIV SWAP1 POP SWAP2 SWAP1 POP JUMP JUMPDEST PUSH0 DUP3 DUP3 SHL SWAP1 POP SWAP3 SWAP2 POP POP JUMP JUMPDEST PUSH0 PUSH1 0x8 DUP4 MUL PUSH2 0x456 PUSH32 0xFFFFFFFFFFFFFFFFFFFFFFFFFFFFFFFFFFFFFFFFFFFFFFFFFFFFFFFFFFFFFFFF DUP3 PUSH2 0x41B JUMP JUMPDEST PUSH2 0x460 DUP7 DUP4 PUSH2 0x41B JUMP JUMPDEST SWAP6 POP DUP1 NOT DUP5 AND SWAP4 POP DUP1 DUP7 AND DUP5 OR SWAP3 POP POP POP SWAP4 SWAP3 POP POP POP JUMP JUMPDEST PUSH0 DUP2 SWAP1 POP SWAP2 SWAP1 POP JUMP JUMPDEST PUSH0 PUSH2 0x49B PUSH2 0x496 PUSH2 0x491 DUP5 PUSH2 0x273 JUMP JUMPDEST PUSH2 0x478 JUMP JUMPDEST PUSH2 0x273 JUMP JUMPDEST SWAP1 POP SWAP2 SWAP1 POP JUMP JUMPDEST PUSH0 DUP2 SWAP1 POP SWAP2 SWAP1 POP JUMP JUMPDEST PUSH2 0x4B4 DUP4 PUSH2 0x481 JUMP JUMPDEST PUSH2 0x4C8 PUSH2 0x4C0 DUP3 PUSH2 0x4A2 JUMP JUMPDEST DUP5 DUP5 SLOAD PUSH2 0x427 JUMP JUMPDEST DUP3 SSTORE POP POP POP POP JUMP JUMPDEST PUSH0 SWAP1 JUMP JUMPDEST PUSH2 0x4DC PUSH2 0x4D0 JUMP JUMPDEST PUSH2 0x4E7 DUP2 DUP5 DUP5 PUSH2 0x4AB JUMP JUMPDEST POP POP POP JUMP JUMPDEST JUMPDEST DUP2 DUP2 LT ISZERO PUSH2 0x50A JUMPI PUSH2 0x4FF PUSH0 DUP3 PUSH2 0x4D4 JUMP JUMPDEST PUSH1 0x1 DUP2 ADD SWAP1 POP PUSH2 0x4ED JUMP JUMPDEST POP POP JUMP JUMPDEST PUSH1 0x1F DUP3 GT ISZERO PUSH2 0x54F JUMPI PUSH2 0x520 DUP2 PUSH2 0x3FA JUMP JUMPDEST PUSH2 0x529 DUP5 PUSH2 0x40C JUMP JUMPDEST DUP2 ADD PUSH1 0x20 DUP6 LT ISZERO PUSH2 0x538 JUMPI DUP2 SWAP1 POP JUMPDEST PUSH2 0x54C PUSH2 0x544 DUP6 PUSH2 0x40C JUMP JUMPDEST DUP4 ADD DUP3 PUSH2 0x4EC JUMP JUMPDEST POP POP JUMPDEST POP POP POP JUMP JUMPDEST PUSH0 DUP3 DUP3 SHR SWAP1 POP SWAP3 SWAP2 POP POP JUMP JUMPDEST PUSH0 PUSH2 0x56F PUSH0 NOT DUP5 PUSH1 0x8 MUL PUSH2 0x554 JUMP JUMPDEST NOT DUP1 DUP4 AND SWAP2 POP POP SWAP3 SWAP2 POP POP JUMP JUMPDEST PUSH0 PUSH2 0x587 DUP4 DUP4 PUSH2 0x560 JUMP JUMPDEST SWAP2 POP DUP3 PUSH1 0x2 MUL DUP3 OR SWAP1 POP SWAP3 SWAP2 POP POP JUMP JUMPDEST PUSH2 0x5A0 DUP3 PUSH2 0x300 JUMP JUMPDEST PUSH8 0xFFFFFFFFFFFFFFFF DUP2 GT ISZERO PUSH2 0x5B9 JUMPI PUSH2 0x5B8 PUSH2 0x14F JUMP JUMPDEST JUMPDEST PUSH2 0x5C3 DUP3 SLOAD PUSH2 0x3CA JUMP JUMPDEST PUSH2 0x5CE DUP3 DUP3 DUP6 PUSH2 0x50E JUMP JUMPDEST PUSH0 PUSH1 0x20 SWAP1 POP PUSH1 0x1F DUP4 GT PUSH1 0x1 DUP2 EQ PUSH2 0x5FF JUMPI PUSH0 DUP5 ISZERO PUSH2 0x5ED JUMPI DUP3 DUP8 ADD MLOAD SWAP1 POP JUMPDEST PUSH2 0x5F7 DUP6 DUP3 PUSH2 0x57C JUMP JUMPDEST DUP7 SSTORE POP PUSH2 0x65E JUMP JUMPDEST PUSH1 0x1F NOT DUP5 AND PUSH2 0x60D DUP7 PUSH2 0x3FA JUMP JUMPDEST PUSH0 JUMPDEST DUP3 DUP2 LT ISZERO PUSH2 0x634 JUMPI DUP5 DUP10 ADD MLOAD DUP3 SSTORE PUSH1 0x1 DUP3 ADD SWAP2 POP PUSH1 0x20 DUP6 ADD SWAP5 POP PUSH1 0x20 DUP2 ADD SWAP1 POP PUSH2 0x60F JUMP JUMPDEST DUP7 DUP4 LT ISZERO PUSH2 0x651 JUMPI DUP5 DUP10 ADD MLOAD PUSH2 0x64D PUSH1 0x1F DUP10 AND DUP3 PUSH2 0x560 JUMP JUMPDEST DUP4 SSTORE POP JUMPDEST PUSH1 0x1 PUSH1 0x2 DUP9 MUL ADD DUP9 SSTORE POP POP POP JUMPDEST POP POP POP POP POP POP JUMP INVALID LOG2 PUSH5 0x6970667358 0x22 SLT KECCAK256 LOG1 CALLDATACOPY 0xD0 PUSH32 0x5C2E5EBE7C92BC6E22FF37A829B0CB357BF0AC5A10F1990E3351497F64736F6C PUSH4 0x4300081A STOP CALLER "
				},
				"gasEstimates": {
					"creation": {
						"codeDepositCost": "338400",
						"executionCost": "372",
						"totalCost": "338772"
					},
					"external": {
						"getPersonDetails()": "infinite",
						"setPerson(string,uint256)": "infinite"
					},
					"internal": {
						"onlyParent()": "infinite"
					}
				},
				"methodIdentifiers": {
					"getPersonDetails()": "d781a3a5",
					"setPerson(string,uint256)": "2fda437e"
				}
			},
			"storageLayout": {
				"storage": [
					{
						"astId": 40,
						"contract": "Remix/Inheritance.sol:Person",
						"label": "name",
						"offset": 0,
						"slot": "0",
						"type": "t_string_storage"
					},
					{
						"astId": 42,
						"contract": "Remix/Inheritance.sol:Person",
						"label": "age",
						"offset": 0,
						"slot": "1",
						"type": "t_uint256"
					}
				],
				"types": {
					"t_string_storage": {
						"encoding": "bytes",
						"label": "string",
						"numberOfBytes": "32"
					},
					"t_uint256": {
						"encoding": "inplace",
						"label": "uint256",
						"numberOfBytes": "32"
					}
				}
			},
			"userdoc": {
				"kind": "user",
				"methods": {},
				"version": 1
			}
		}
	}
}