{
	"Remix/Employee.sol": {
		"Employee": {
			"abi": [
				{
					"inputs": [],
					"name": "getEmployeeDetails",
					"outputs": [
						{
							"internalType": "string",
							"name": "",
							"type": "string"
						},
						{
							"internalType": "uint256",
							"name": "",
							"type": "uint256"
						},
						{
							"internalType": "uint256",
							"name": "",
							"type": "uint256"
						}
					],
					"stateMutability": "view",
					"type": "function"
				},
				{
					"inputs": [],
					"name": "getPersonDetails",
					"outputs": [
						{
							"internalType": "string",
							"name": "",
							"type": "string"
						},
						{
							"internalType": "uint256",
							"name": "",
							"type": "uint256"
						}
					],
					"stateMutability": "view",
					"type": "function"
				},
				{
					"inputs": [
						{
							"internalType": "string",
							"name": "_name",
							"type": "string"
						},
						{
							"internalType": "uint256",
							"name": "_age",
							"type": "uint256"
						},
						{
							"internalType": "uint256",
							"name": "_empId",
							"type": "uint256"
						}
					],
					"name": "setEmployeeDetails",
					"outputs": [],
					"stateMutability": "nonpayable",
					"type": "function"
				},
				{
					"inputs": [
						{
							"internalType": "string",
							"name": "_name",
							"type": "string"
						},
						{
							"internalType": "uint256",
							"name": "_age",
							"type": "uint256"
						}
					],
					"name": "setPerson",
					"outputs": [],
					"stateMutability": "nonpayable",
					"type": "function"
				}
			],
			"devdoc": {
				"kind": "dev",
				"methods": {},
				"version": 1
			},
			"evm": {
				"assembly": "    /* \"Remix/Employee.sol\":85:412  contract Employee is Person{... */\n  mstore(0x40, 0x80)\n  callvalue\n  dup1\n  iszero\n  tag_1\n  jumpi\n  0x00\n  dup1\n  revert\ntag_1:\n  pop\n  dataSize(sub_0)\n  dup1\n  dataOffset(sub_0)\n  0x00\n  codecopy\n  0x00\n  return\nstop\n\nsub_0: assembly {\n        /* \"Remix/Employee.sol\":85:412  contract Employee is Person{... */\n      mstore(0x40, 0x80)\n      callvalue\n      dup1\n      iszero\n      tag_1\n      jumpi\n      0x00\n      dup1\n      revert\n    tag_1:\n      pop\n      jumpi(tag_2, lt(calldatasize, 0x04))\n      shr(0xe0, calldataload(0x00))\n      dup1\n      0x2fda437e\n      eq\n      tag_3\n      jumpi\n      dup1\n      0xa9f6ad66\n      eq\n      tag_4\n      jumpi\n      dup1\n      0xd781a3a5\n      eq\n      tag_5\n      jumpi\n      dup1\n      0xea371cf7\n      eq\n      tag_6\n      jumpi\n    tag_2:\n      0x00\n      dup1\n      revert\n        /* \"Remix/Inheritance.sol\":224:324  function setPerson(string memory _name,uint _age)public{... */\n    tag_3:\n      tag_7\n      0x04\n      dup1\n      calldatasize\n      sub\n      dup2\n      add\n      swap1\n      tag_8\n      swap2\n      swap1\n      tag_9\n      jump\t// in\n    tag_8:\n      tag_10\n      jump\t// in\n    tag_7:\n      stop\n        /* \"Remix/Employee.sol\":279:409  function getEmployeeDetails() public view returns (string memory, uint, uint) {... */\n    tag_4:\n      tag_11\n      tag_12\n      jump\t// in\n    tag_11:\n      mload(0x40)\n      tag_13\n      swap4\n      swap3\n      swap2\n      swap1\n      tag_14\n      jump\t// in\n    tag_13:\n      mload(0x40)\n      dup1\n      swap2\n      sub\n      swap1\n      return\n        /* \"Remix/Inheritance.sol\":110:219  function getPersonDetails()public virtual view returns (string memory ,uint){... */\n    tag_5:\n      tag_15\n      tag_16\n      jump\t// in\n    tag_15:\n      mload(0x40)\n      tag_17\n      swap3\n      swap2\n      swap1\n      tag_18\n      jump\t// in\n    tag_17:\n      mload(0x40)\n      dup1\n      swap2\n      sub\n      swap1\n      return\n        /* \"Remix/Employee.sol\":140:277  function  setEmployeeDetails(string memory _name,uint _age,uint _empId)public{... */\n    tag_6:\n      tag_19\n      0x04\n      dup1\n      calldatasize\n      sub\n      dup2\n      add\n      swap1\n      tag_20\n      swap2\n      swap1\n      tag_21\n      jump\t// in\n    tag_20:\n      tag_22\n      jump\t// in\n    tag_19:\n      stop\n        /* \"Remix/Inheritance.sol\":224:324  function setPerson(string memory _name,uint _age)public{... */\n    tag_10:\n        /* \"Remix/Inheritance.sol\":294:299  _name */\n      dup2\n        /* \"Remix/Inheritance.sol\":289:293  name */\n      0x00\n        /* \"Remix/Inheritance.sol\":289:299  name=_name */\n      swap1\n      dup2\n      tag_24\n      swap2\n      swap1\n      tag_25\n      jump\t// in\n    tag_24:\n      pop\n        /* \"Remix/Inheritance.sol\":313:317  _age */\n      dup1\n        /* \"Remix/Inheritance.sol\":309:312  age */\n      0x01\n        /* \"Remix/Inheritance.sol\":309:317  age=_age */\n      dup2\n      swap1\n      sstore\n      pop\n        /* \"Remix/Inheritance.sol\":224:324  function setPerson(string memory _name,uint _age)public{... */\n      pop\n      pop\n      jump\t// out\n        /* \"Remix/Employee.sol\":279:409  function getEmployeeDetails() public view returns (string memory, uint, uint) {... */\n    tag_12:\n        /* \"Remix/Employee.sol\":330:343  string memory */\n      0x60\n        /* \"Remix/Employee.sol\":345:349  uint */\n      0x00\n        /* \"Remix/Employee.sol\":351:355  uint */\n      dup1\n        /* \"Remix/Employee.sol\":279:409  function getEmployeeDetails() public view returns (string memory, uint, uint) {... */\n      swap2\n      swap3\n      jump\t// out\n        /* \"Remix/Inheritance.sol\":110:219  function getPersonDetails()public virtual view returns (string memory ,uint){... */\n    tag_16:\n        /* \"Remix/Inheritance.sol\":166:179  string memory */\n      0x60\n        /* \"Remix/Inheritance.sol\":181:185  uint */\n      0x00\n        /* \"Remix/Inheritance.sol\":203:207  name */\n      dup1\n        /* \"Remix/Inheritance.sol\":208:211  age */\n      sload(0x01)\n        /* \"Remix/Inheritance.sol\":196:212  return(name,age) */\n      dup2\n      dup1\n      sload\n      tag_28\n      swap1\n      tag_29\n      jump\t// in\n    tag_28:\n      dup1\n      0x1f\n      add\n      0x20\n      dup1\n      swap2\n      div\n      mul\n      0x20\n      add\n      mload(0x40)\n      swap1\n      dup2\n      add\n      0x40\n      mstore\n      dup1\n      swap3\n      swap2\n      swap1\n      dup2\n      dup2\n      mstore\n      0x20\n      add\n      dup3\n      dup1\n      sload\n      tag_30\n      swap1\n      tag_29\n      jump\t// in\n    tag_30:\n      dup1\n      iszero\n      tag_31\n      jumpi\n      dup1\n      0x1f\n      lt\n      tag_32\n      jumpi\n      0x0100\n      dup1\n      dup4\n      sload\n      div\n      mul\n      dup4\n      mstore\n      swap2\n      0x20\n      add\n      swap2\n      jump(tag_31)\n    tag_32:\n      dup3\n      add\n      swap2\n      swap1\n      0x00\n      mstore\n      keccak256(0x00, 0x20)\n      swap1\n    tag_33:\n      dup2\n      sload\n      dup2\n      mstore\n      swap1\n      0x01\n      add\n      swap1\n      0x20\n      add\n      dup1\n      dup4\n      gt\n      tag_33\n      jumpi\n      dup3\n      swap1\n      sub\n      0x1f\n      and\n      dup3\n      add\n      swap2\n    tag_31:\n      pop\n      pop\n      pop\n      pop\n      pop\n      swap2\n      pop\n      swap2\n      pop\n      swap2\n      pop\n        /* \"Remix/Inheritance.sol\":110:219  function getPersonDetails()public virtual view returns (string memory ,uint){... */\n      swap1\n      swap2\n      jump\t// out\n        /* \"Remix/Employee.sol\":140:277  function  setEmployeeDetails(string memory _name,uint _age,uint _empId)public{... */\n    tag_22:\n        /* \"Remix/Employee.sol\":227:248  setPerson(_name,_age) */\n      tag_35\n        /* \"Remix/Employee.sol\":237:242  _name */\n      dup4\n        /* \"Remix/Employee.sol\":243:247  _age */\n      dup4\n        /* \"Remix/Employee.sol\":227:236  setPerson */\n      tag_10\n        /* \"Remix/Employee.sol\":227:248  setPerson(_name,_age) */\n      jump\t// in\n    tag_35:\n        /* \"Remix/Employee.sol\":264:270  _empId */\n      dup1\n        /* \"Remix/Employee.sol\":258:263  empId */\n      0x02\n        /* \"Remix/Employee.sol\":258:270  empId=_empId */\n      dup2\n      swap1\n      sstore\n      pop\n        /* \"Remix/Employee.sol\":140:277  function  setEmployeeDetails(string memory _name,uint _age,uint _empId)public{... */\n      pop\n      pop\n      pop\n      jump\t// out\n        /* \"#utility.yul\":7:82   */\n    tag_36:\n        /* \"#utility.yul\":40:46   */\n      0x00\n        /* \"#utility.yul\":73:75   */\n      0x40\n        /* \"#utility.yul\":67:76   */\n      mload\n        /* \"#utility.yul\":57:76   */\n      swap1\n      pop\n        /* \"#utility.yul\":7:82   */\n      swap1\n      jump\t// out\n        /* \"#utility.yul\":88:205   */\n    tag_37:\n        /* \"#utility.yul\":197:198   */\n      0x00\n        /* \"#utility.yul\":194:195   */\n      dup1\n        /* \"#utility.yul\":187:199   */\n      revert\n        /* \"#utility.yul\":211:328   */\n    tag_38:\n        /* \"#utility.yul\":320:321   */\n      0x00\n        /* \"#utility.yul\":317:318   */\n      dup1\n        /* \"#utility.yul\":310:322   */\n      revert\n        /* \"#utility.yul\":334:451   */\n    tag_39:\n        /* \"#utility.yul\":443:444   */\n      0x00\n        /* \"#utility.yul\":440:441   */\n      dup1\n        /* \"#utility.yul\":433:445   */\n      revert\n        /* \"#utility.yul\":457:574   */\n    tag_40:\n        /* \"#utility.yul\":566:567   */\n      0x00\n        /* \"#utility.yul\":563:564   */\n      dup1\n        /* \"#utility.yul\":556:568   */\n      revert\n        /* \"#utility.yul\":580:682   */\n    tag_41:\n        /* \"#utility.yul\":621:627   */\n      0x00\n        /* \"#utility.yul\":672:674   */\n      0x1f\n        /* \"#utility.yul\":668:675   */\n      not\n        /* \"#utility.yul\":663:665   */\n      0x1f\n        /* \"#utility.yul\":656:661   */\n      dup4\n        /* \"#utility.yul\":652:666   */\n      add\n        /* \"#utility.yul\":648:676   */\n      and\n        /* \"#utility.yul\":638:676   */\n      swap1\n      pop\n        /* \"#utility.yul\":580:682   */\n      swap2\n      swap1\n      pop\n      jump\t// out\n        /* \"#utility.yul\":688:868   */\n    tag_42:\n        /* \"#utility.yul\":736:813   */\n      0x4e487b7100000000000000000000000000000000000000000000000000000000\n        /* \"#utility.yul\":733:734   */\n      0x00\n        /* \"#utility.yul\":726:814   */\n      mstore\n        /* \"#utility.yul\":833:837   */\n      0x41\n        /* \"#utility.yul\":830:831   */\n      0x04\n        /* \"#utility.yul\":823:838   */\n      mstore\n        /* \"#utility.yul\":857:861   */\n      0x24\n        /* \"#utility.yul\":854:855   */\n      0x00\n        /* \"#utility.yul\":847:862   */\n      revert\n        /* \"#utility.yul\":874:1155   */\n    tag_43:\n        /* \"#utility.yul\":957:984   */\n      tag_82\n        /* \"#utility.yul\":979:983   */\n      dup3\n        /* \"#utility.yul\":957:984   */\n      tag_41\n      jump\t// in\n    tag_82:\n        /* \"#utility.yul\":949:955   */\n      dup2\n        /* \"#utility.yul\":945:985   */\n      add\n        /* \"#utility.yul\":1087:1093   */\n      dup2\n        /* \"#utility.yul\":1075:1085   */\n      dup2\n        /* \"#utility.yul\":1072:1094   */\n      lt\n        /* \"#utility.yul\":1051:1069   */\n      0xffffffffffffffff\n        /* \"#utility.yul\":1039:1049   */\n      dup3\n        /* \"#utility.yul\":1036:1070   */\n      gt\n        /* \"#utility.yul\":1033:1095   */\n      or\n        /* \"#utility.yul\":1030:1118   */\n      iszero\n      tag_83\n      jumpi\n        /* \"#utility.yul\":1098:1116   */\n      tag_84\n      tag_42\n      jump\t// in\n    tag_84:\n        /* \"#utility.yul\":1030:1118   */\n    tag_83:\n        /* \"#utility.yul\":1138:1148   */\n      dup1\n        /* \"#utility.yul\":1134:1136   */\n      0x40\n        /* \"#utility.yul\":1127:1149   */\n      mstore\n        /* \"#utility.yul\":917:1155   */\n      pop\n        /* \"#utility.yul\":874:1155   */\n      pop\n      pop\n      jump\t// out\n        /* \"#utility.yul\":1161:1290   */\n    tag_44:\n        /* \"#utility.yul\":1195:1201   */\n      0x00\n        /* \"#utility.yul\":1222:1242   */\n      tag_86\n      tag_36\n      jump\t// in\n    tag_86:\n        /* \"#utility.yul\":1212:1242   */\n      swap1\n      pop\n        /* \"#utility.yul\":1251:1284   */\n      tag_87\n        /* \"#utility.yul\":1279:1283   */\n      dup3\n        /* \"#utility.yul\":1271:1277   */\n      dup3\n        /* \"#utility.yul\":1251:1284   */\n      tag_43\n      jump\t// in\n    tag_87:\n        /* \"#utility.yul\":1161:1290   */\n      swap2\n      swap1\n      pop\n      jump\t// out\n        /* \"#utility.yul\":1296:1604   */\n    tag_45:\n        /* \"#utility.yul\":1358:1362   */\n      0x00\n        /* \"#utility.yul\":1448:1466   */\n      0xffffffffffffffff\n        /* \"#utility.yul\":1440:1446   */\n      dup3\n        /* \"#utility.yul\":1437:1467   */\n      gt\n        /* \"#utility.yul\":1434:1490   */\n      iszero\n      tag_89\n      jumpi\n        /* \"#utility.yul\":1470:1488   */\n      tag_90\n      tag_42\n      jump\t// in\n    tag_90:\n        /* \"#utility.yul\":1434:1490   */\n    tag_89:\n        /* \"#utility.yul\":1508:1537   */\n      tag_91\n        /* \"#utility.yul\":1530:1536   */\n      dup3\n        /* \"#utility.yul\":1508:1537   */\n      tag_41\n      jump\t// in\n    tag_91:\n        /* \"#utility.yul\":1500:1537   */\n      swap1\n      pop\n        /* \"#utility.yul\":1592:1596   */\n      0x20\n        /* \"#utility.yul\":1586:1590   */\n      dup2\n        /* \"#utility.yul\":1582:1597   */\n      add\n        /* \"#utility.yul\":1574:1597   */\n      swap1\n      pop\n        /* \"#utility.yul\":1296:1604   */\n      swap2\n      swap1\n      pop\n      jump\t// out\n        /* \"#utility.yul\":1610:1758   */\n    tag_46:\n        /* \"#utility.yul\":1708:1714   */\n      dup3\n        /* \"#utility.yul\":1703:1706   */\n      dup2\n        /* \"#utility.yul\":1698:1701   */\n      dup4\n        /* \"#utility.yul\":1685:1715   */\n      calldatacopy\n        /* \"#utility.yul\":1749:1750   */\n      0x00\n        /* \"#utility.yul\":1740:1746   */\n      dup4\n        /* \"#utility.yul\":1735:1738   */\n      dup4\n        /* \"#utility.yul\":1731:1747   */\n      add\n        /* \"#utility.yul\":1724:1751   */\n      mstore\n        /* \"#utility.yul\":1610:1758   */\n      pop\n      pop\n      pop\n      jump\t// out\n        /* \"#utility.yul\":1764:2189   */\n    tag_47:\n        /* \"#utility.yul\":1842:1847   */\n      0x00\n        /* \"#utility.yul\":1867:1933   */\n      tag_94\n        /* \"#utility.yul\":1883:1932   */\n      tag_95\n        /* \"#utility.yul\":1925:1931   */\n      dup5\n        /* \"#utility.yul\":1883:1932   */\n      tag_45\n      jump\t// in\n    tag_95:\n        /* \"#utility.yul\":1867:1933   */\n      tag_44\n      jump\t// in\n    tag_94:\n        /* \"#utility.yul\":1858:1933   */\n      swap1\n      pop\n        /* \"#utility.yul\":1956:1962   */\n      dup3\n        /* \"#utility.yul\":1949:1954   */\n      dup2\n        /* \"#utility.yul\":1942:1963   */\n      mstore\n        /* \"#utility.yul\":1994:1998   */\n      0x20\n        /* \"#utility.yul\":1987:1992   */\n      dup2\n        /* \"#utility.yul\":1983:1999   */\n      add\n        /* \"#utility.yul\":2032:2035   */\n      dup5\n        /* \"#utility.yul\":2023:2029   */\n      dup5\n        /* \"#utility.yul\":2018:2021   */\n      dup5\n        /* \"#utility.yul\":2014:2030   */\n      add\n        /* \"#utility.yul\":2011:2036   */\n      gt\n        /* \"#utility.yul\":2008:2120   */\n      iszero\n      tag_96\n      jumpi\n        /* \"#utility.yul\":2039:2118   */\n      tag_97\n      tag_40\n      jump\t// in\n    tag_97:\n        /* \"#utility.yul\":2008:2120   */\n    tag_96:\n        /* \"#utility.yul\":2129:2183   */\n      tag_98\n        /* \"#utility.yul\":2176:2182   */\n      dup5\n        /* \"#utility.yul\":2171:2174   */\n      dup3\n        /* \"#utility.yul\":2166:2169   */\n      dup6\n        /* \"#utility.yul\":2129:2183   */\n      tag_46\n      jump\t// in\n    tag_98:\n        /* \"#utility.yul\":1848:2189   */\n      pop\n        /* \"#utility.yul\":1764:2189   */\n      swap4\n      swap3\n      pop\n      pop\n      pop\n      jump\t// out\n        /* \"#utility.yul\":2209:2549   */\n    tag_48:\n        /* \"#utility.yul\":2265:2270   */\n      0x00\n        /* \"#utility.yul\":2314:2317   */\n      dup3\n        /* \"#utility.yul\":2307:2311   */\n      0x1f\n        /* \"#utility.yul\":2299:2305   */\n      dup4\n        /* \"#utility.yul\":2295:2312   */\n      add\n        /* \"#utility.yul\":2291:2318   */\n      slt\n        /* \"#utility.yul\":2281:2403   */\n      tag_100\n      jumpi\n        /* \"#utility.yul\":2322:2401   */\n      tag_101\n      tag_39\n      jump\t// in\n    tag_101:\n        /* \"#utility.yul\":2281:2403   */\n    tag_100:\n        /* \"#utility.yul\":2439:2445   */\n      dup2\n        /* \"#utility.yul\":2426:2446   */\n      calldataload\n        /* \"#utility.yul\":2464:2543   */\n      tag_102\n        /* \"#utility.yul\":2539:2542   */\n      dup5\n        /* \"#utility.yul\":2531:2537   */\n      dup3\n        /* \"#utility.yul\":2524:2528   */\n      0x20\n        /* \"#utility.yul\":2516:2522   */\n      dup7\n        /* \"#utility.yul\":2512:2529   */\n      add\n        /* \"#utility.yul\":2464:2543   */\n      tag_47\n      jump\t// in\n    tag_102:\n        /* \"#utility.yul\":2455:2543   */\n      swap2\n      pop\n        /* \"#utility.yul\":2271:2549   */\n      pop\n        /* \"#utility.yul\":2209:2549   */\n      swap3\n      swap2\n      pop\n      pop\n      jump\t// out\n        /* \"#utility.yul\":2555:2632   */\n    tag_49:\n        /* \"#utility.yul\":2592:2599   */\n      0x00\n        /* \"#utility.yul\":2621:2626   */\n      dup2\n        /* \"#utility.yul\":2610:2626   */\n      swap1\n      pop\n        /* \"#utility.yul\":2555:2632   */\n      swap2\n      swap1\n      pop\n      jump\t// out\n        /* \"#utility.yul\":2638:2760   */\n    tag_50:\n        /* \"#utility.yul\":2711:2735   */\n      tag_105\n        /* \"#utility.yul\":2729:2734   */\n      dup2\n        /* \"#utility.yul\":2711:2735   */\n      tag_49\n      jump\t// in\n    tag_105:\n        /* \"#utility.yul\":2704:2709   */\n      dup2\n        /* \"#utility.yul\":2701:2736   */\n      eq\n        /* \"#utility.yul\":2691:2754   */\n      tag_106\n      jumpi\n        /* \"#utility.yul\":2750:2751   */\n      0x00\n        /* \"#utility.yul\":2747:2748   */\n      dup1\n        /* \"#utility.yul\":2740:2752   */\n      revert\n        /* \"#utility.yul\":2691:2754   */\n    tag_106:\n        /* \"#utility.yul\":2638:2760   */\n      pop\n      jump\t// out\n        /* \"#utility.yul\":2766:2905   */\n    tag_51:\n        /* \"#utility.yul\":2812:2817   */\n      0x00\n        /* \"#utility.yul\":2850:2856   */\n      dup2\n        /* \"#utility.yul\":2837:2857   */\n      calldataload\n        /* \"#utility.yul\":2828:2857   */\n      swap1\n      pop\n        /* \"#utility.yul\":2866:2899   */\n      tag_108\n        /* \"#utility.yul\":2893:2898   */\n      dup2\n        /* \"#utility.yul\":2866:2899   */\n      tag_50\n      jump\t// in\n    tag_108:\n        /* \"#utility.yul\":2766:2905   */\n      swap3\n      swap2\n      pop\n      pop\n      jump\t// out\n        /* \"#utility.yul\":2911:3565   */\n    tag_9:\n        /* \"#utility.yul\":2989:2995   */\n      0x00\n        /* \"#utility.yul\":2997:3003   */\n      dup1\n        /* \"#utility.yul\":3046:3048   */\n      0x40\n        /* \"#utility.yul\":3034:3043   */\n      dup4\n        /* \"#utility.yul\":3025:3032   */\n      dup6\n        /* \"#utility.yul\":3021:3044   */\n      sub\n        /* \"#utility.yul\":3017:3049   */\n      slt\n        /* \"#utility.yul\":3014:3133   */\n      iszero\n      tag_110\n      jumpi\n        /* \"#utility.yul\":3052:3131   */\n      tag_111\n      tag_37\n      jump\t// in\n    tag_111:\n        /* \"#utility.yul\":3014:3133   */\n    tag_110:\n        /* \"#utility.yul\":3200:3201   */\n      0x00\n        /* \"#utility.yul\":3189:3198   */\n      dup4\n        /* \"#utility.yul\":3185:3202   */\n      add\n        /* \"#utility.yul\":3172:3203   */\n      calldataload\n        /* \"#utility.yul\":3230:3248   */\n      0xffffffffffffffff\n        /* \"#utility.yul\":3222:3228   */\n      dup2\n        /* \"#utility.yul\":3219:3249   */\n      gt\n        /* \"#utility.yul\":3216:3333   */\n      iszero\n      tag_112\n      jumpi\n        /* \"#utility.yul\":3252:3331   */\n      tag_113\n      tag_38\n      jump\t// in\n    tag_113:\n        /* \"#utility.yul\":3216:3333   */\n    tag_112:\n        /* \"#utility.yul\":3357:3420   */\n      tag_114\n        /* \"#utility.yul\":3412:3419   */\n      dup6\n        /* \"#utility.yul\":3403:3409   */\n      dup3\n        /* \"#utility.yul\":3392:3401   */\n      dup7\n        /* \"#utility.yul\":3388:3410   */\n      add\n        /* \"#utility.yul\":3357:3420   */\n      tag_48\n      jump\t// in\n    tag_114:\n        /* \"#utility.yul\":3347:3420   */\n      swap3\n      pop\n        /* \"#utility.yul\":3143:3430   */\n      pop\n        /* \"#utility.yul\":3469:3471   */\n      0x20\n        /* \"#utility.yul\":3495:3548   */\n      tag_115\n        /* \"#utility.yul\":3540:3547   */\n      dup6\n        /* \"#utility.yul\":3531:3537   */\n      dup3\n        /* \"#utility.yul\":3520:3529   */\n      dup7\n        /* \"#utility.yul\":3516:3538   */\n      add\n        /* \"#utility.yul\":3495:3548   */\n      tag_51\n      jump\t// in\n    tag_115:\n        /* \"#utility.yul\":3485:3548   */\n      swap2\n      pop\n        /* \"#utility.yul\":3440:3558   */\n      pop\n        /* \"#utility.yul\":2911:3565   */\n      swap3\n      pop\n      swap3\n      swap1\n      pop\n      jump\t// out\n        /* \"#utility.yul\":3571:3670   */\n    tag_52:\n        /* \"#utility.yul\":3623:3629   */\n      0x00\n        /* \"#utility.yul\":3657:3662   */\n      dup2\n        /* \"#utility.yul\":3651:3663   */\n      mload\n        /* \"#utility.yul\":3641:3663   */\n      swap1\n      pop\n        /* \"#utility.yul\":3571:3670   */\n      swap2\n      swap1\n      pop\n      jump\t// out\n        /* \"#utility.yul\":3676:3845   */\n    tag_53:\n        /* \"#utility.yul\":3760:3771   */\n      0x00\n        /* \"#utility.yul\":3794:3800   */\n      dup3\n        /* \"#utility.yul\":3789:3792   */\n      dup3\n        /* \"#utility.yul\":3782:3801   */\n      mstore\n        /* \"#utility.yul\":3834:3838   */\n      0x20\n        /* \"#utility.yul\":3829:3832   */\n      dup3\n        /* \"#utility.yul\":3825:3839   */\n      add\n        /* \"#utility.yul\":3810:3839   */\n      swap1\n      pop\n        /* \"#utility.yul\":3676:3845   */\n      swap3\n      swap2\n      pop\n      pop\n      jump\t// out\n        /* \"#utility.yul\":3851:3990   */\n    tag_54:\n        /* \"#utility.yul\":3940:3946   */\n      dup3\n        /* \"#utility.yul\":3935:3938   */\n      dup2\n        /* \"#utility.yul\":3930:3933   */\n      dup4\n        /* \"#utility.yul\":3924:3947   */\n      mcopy\n        /* \"#utility.yul\":3981:3982   */\n      0x00\n        /* \"#utility.yul\":3972:3978   */\n      dup4\n        /* \"#utility.yul\":3967:3970   */\n      dup4\n        /* \"#utility.yul\":3963:3979   */\n      add\n        /* \"#utility.yul\":3956:3983   */\n      mstore\n        /* \"#utility.yul\":3851:3990   */\n      pop\n      pop\n      pop\n      jump\t// out\n        /* \"#utility.yul\":3996:4373   */\n    tag_55:\n        /* \"#utility.yul\":4084:4087   */\n      0x00\n        /* \"#utility.yul\":4112:4151   */\n      tag_120\n        /* \"#utility.yul\":4145:4150   */\n      dup3\n        /* \"#utility.yul\":4112:4151   */\n      tag_52\n      jump\t// in\n    tag_120:\n        /* \"#utility.yul\":4167:4238   */\n      tag_121\n        /* \"#utility.yul\":4231:4237   */\n      dup2\n        /* \"#utility.yul\":4226:4229   */\n      dup6\n        /* \"#utility.yul\":4167:4238   */\n      tag_53\n      jump\t// in\n    tag_121:\n        /* \"#utility.yul\":4160:4238   */\n      swap4\n      pop\n        /* \"#utility.yul\":4247:4312   */\n      tag_122\n        /* \"#utility.yul\":4305:4311   */\n      dup2\n        /* \"#utility.yul\":4300:4303   */\n      dup6\n        /* \"#utility.yul\":4293:4297   */\n      0x20\n        /* \"#utility.yul\":4286:4291   */\n      dup7\n        /* \"#utility.yul\":4282:4298   */\n      add\n        /* \"#utility.yul\":4247:4312   */\n      tag_54\n      jump\t// in\n    tag_122:\n        /* \"#utility.yul\":4337:4366   */\n      tag_123\n        /* \"#utility.yul\":4359:4365   */\n      dup2\n        /* \"#utility.yul\":4337:4366   */\n      tag_41\n      jump\t// in\n    tag_123:\n        /* \"#utility.yul\":4332:4335   */\n      dup5\n        /* \"#utility.yul\":4328:4367   */\n      add\n        /* \"#utility.yul\":4321:4367   */\n      swap2\n      pop\n        /* \"#utility.yul\":4088:4373   */\n      pop\n        /* \"#utility.yul\":3996:4373   */\n      swap3\n      swap2\n      pop\n      pop\n      jump\t// out\n        /* \"#utility.yul\":4379:4497   */\n    tag_56:\n        /* \"#utility.yul\":4466:4490   */\n      tag_125\n        /* \"#utility.yul\":4484:4489   */\n      dup2\n        /* \"#utility.yul\":4466:4490   */\n      tag_49\n      jump\t// in\n    tag_125:\n        /* \"#utility.yul\":4461:4464   */\n      dup3\n        /* \"#utility.yul\":4454:4491   */\n      mstore\n        /* \"#utility.yul\":4379:4497   */\n      pop\n      pop\n      jump\t// out\n        /* \"#utility.yul\":4503:5036   */\n    tag_14:\n        /* \"#utility.yul\":4672:4676   */\n      0x00\n        /* \"#utility.yul\":4710:4712   */\n      0x60\n        /* \"#utility.yul\":4699:4708   */\n      dup3\n        /* \"#utility.yul\":4695:4713   */\n      add\n        /* \"#utility.yul\":4687:4713   */\n      swap1\n      pop\n        /* \"#utility.yul\":4759:4768   */\n      dup2\n        /* \"#utility.yul\":4753:4757   */\n      dup2\n        /* \"#utility.yul\":4749:4769   */\n      sub\n        /* \"#utility.yul\":4745:4746   */\n      0x00\n        /* \"#utility.yul\":4734:4743   */\n      dup4\n        /* \"#utility.yul\":4730:4747   */\n      add\n        /* \"#utility.yul\":4723:4770   */\n      mstore\n        /* \"#utility.yul\":4787:4865   */\n      tag_127\n        /* \"#utility.yul\":4860:4864   */\n      dup2\n        /* \"#utility.yul\":4851:4857   */\n      dup7\n        /* \"#utility.yul\":4787:4865   */\n      tag_55\n      jump\t// in\n    tag_127:\n        /* \"#utility.yul\":4779:4865   */\n      swap1\n      pop\n        /* \"#utility.yul\":4875:4947   */\n      tag_128\n        /* \"#utility.yul\":4943:4945   */\n      0x20\n        /* \"#utility.yul\":4932:4941   */\n      dup4\n        /* \"#utility.yul\":4928:4946   */\n      add\n        /* \"#utility.yul\":4919:4925   */\n      dup6\n        /* \"#utility.yul\":4875:4947   */\n      tag_56\n      jump\t// in\n    tag_128:\n        /* \"#utility.yul\":4957:5029   */\n      tag_129\n        /* \"#utility.yul\":5025:5027   */\n      0x40\n        /* \"#utility.yul\":5014:5023   */\n      dup4\n        /* \"#utility.yul\":5010:5028   */\n      add\n        /* \"#utility.yul\":5001:5007   */\n      dup5\n        /* \"#utility.yul\":4957:5029   */\n      tag_56\n      jump\t// in\n    tag_129:\n        /* \"#utility.yul\":4503:5036   */\n      swap5\n      swap4\n      pop\n      pop\n      pop\n      pop\n      jump\t// out\n        /* \"#utility.yul\":5042:5465   */\n    tag_18:\n        /* \"#utility.yul\":5183:5187   */\n      0x00\n        /* \"#utility.yul\":5221:5223   */\n      0x40\n        /* \"#utility.yul\":5210:5219   */\n      dup3\n        /* \"#utility.yul\":5206:5224   */\n      add\n        /* \"#utility.yul\":5198:5224   */\n      swap1\n      pop\n        /* \"#utility.yul\":5270:5279   */\n      dup2\n        /* \"#utility.yul\":5264:5268   */\n      dup2\n        /* \"#utility.yul\":5260:5280   */\n      sub\n        /* \"#utility.yul\":5256:5257   */\n      0x00\n        /* \"#utility.yul\":5245:5254   */\n      dup4\n        /* \"#utility.yul\":5241:5258   */\n      add\n        /* \"#utility.yul\":5234:5281   */\n      mstore\n        /* \"#utility.yul\":5298:5376   */\n      tag_131\n        /* \"#utility.yul\":5371:5375   */\n      dup2\n        /* \"#utility.yul\":5362:5368   */\n      dup6\n        /* \"#utility.yul\":5298:5376   */\n      tag_55\n      jump\t// in\n    tag_131:\n        /* \"#utility.yul\":5290:5376   */\n      swap1\n      pop\n        /* \"#utility.yul\":5386:5458   */\n      tag_132\n        /* \"#utility.yul\":5454:5456   */\n      0x20\n        /* \"#utility.yul\":5443:5452   */\n      dup4\n        /* \"#utility.yul\":5439:5457   */\n      add\n        /* \"#utility.yul\":5430:5436   */\n      dup5\n        /* \"#utility.yul\":5386:5458   */\n      tag_56\n      jump\t// in\n    tag_132:\n        /* \"#utility.yul\":5042:5465   */\n      swap4\n      swap3\n      pop\n      pop\n      pop\n      jump\t// out\n        /* \"#utility.yul\":5471:6270   */\n    tag_21:\n        /* \"#utility.yul\":5558:5564   */\n      0x00\n        /* \"#utility.yul\":5566:5572   */\n      dup1\n        /* \"#utility.yul\":5574:5580   */\n      0x00\n        /* \"#utility.yul\":5623:5625   */\n      0x60\n        /* \"#utility.yul\":5611:5620   */\n      dup5\n        /* \"#utility.yul\":5602:5609   */\n      dup7\n        /* \"#utility.yul\":5598:5621   */\n      sub\n        /* \"#utility.yul\":5594:5626   */\n      slt\n        /* \"#utility.yul\":5591:5710   */\n      iszero\n      tag_134\n      jumpi\n        /* \"#utility.yul\":5629:5708   */\n      tag_135\n      tag_37\n      jump\t// in\n    tag_135:\n        /* \"#utility.yul\":5591:5710   */\n    tag_134:\n        /* \"#utility.yul\":5777:5778   */\n      0x00\n        /* \"#utility.yul\":5766:5775   */\n      dup5\n        /* \"#utility.yul\":5762:5779   */\n      add\n        /* \"#utility.yul\":5749:5780   */\n      calldataload\n        /* \"#utility.yul\":5807:5825   */\n      0xffffffffffffffff\n        /* \"#utility.yul\":5799:5805   */\n      dup2\n        /* \"#utility.yul\":5796:5826   */\n      gt\n        /* \"#utility.yul\":5793:5910   */\n      iszero\n      tag_136\n      jumpi\n        /* \"#utility.yul\":5829:5908   */\n      tag_137\n      tag_38\n      jump\t// in\n    tag_137:\n        /* \"#utility.yul\":5793:5910   */\n    tag_136:\n        /* \"#utility.yul\":5934:5997   */\n      tag_138\n        /* \"#utility.yul\":5989:5996   */\n      dup7\n        /* \"#utility.yul\":5980:5986   */\n      dup3\n        /* \"#utility.yul\":5969:5978   */\n      dup8\n        /* \"#utility.yul\":5965:5987   */\n      add\n        /* \"#utility.yul\":5934:5997   */\n      tag_48\n      jump\t// in\n    tag_138:\n        /* \"#utility.yul\":5924:5997   */\n      swap4\n      pop\n        /* \"#utility.yul\":5720:6007   */\n      pop\n        /* \"#utility.yul\":6046:6048   */\n      0x20\n        /* \"#utility.yul\":6072:6125   */\n      tag_139\n        /* \"#utility.yul\":6117:6124   */\n      dup7\n        /* \"#utility.yul\":6108:6114   */\n      dup3\n        /* \"#utility.yul\":6097:6106   */\n      dup8\n        /* \"#utility.yul\":6093:6115   */\n      add\n        /* \"#utility.yul\":6072:6125   */\n      tag_51\n      jump\t// in\n    tag_139:\n        /* \"#utility.yul\":6062:6125   */\n      swap3\n      pop\n        /* \"#utility.yul\":6017:6135   */\n      pop\n        /* \"#utility.yul\":6174:6176   */\n      0x40\n        /* \"#utility.yul\":6200:6253   */\n      tag_140\n        /* \"#utility.yul\":6245:6252   */\n      dup7\n        /* \"#utility.yul\":6236:6242   */\n      dup3\n        /* \"#utility.yul\":6225:6234   */\n      dup8\n        /* \"#utility.yul\":6221:6243   */\n      add\n        /* \"#utility.yul\":6200:6253   */\n      tag_51\n      jump\t// in\n    tag_140:\n        /* \"#utility.yul\":6190:6253   */\n      swap2\n      pop\n        /* \"#utility.yul\":6145:6263   */\n      pop\n        /* \"#utility.yul\":5471:6270   */\n      swap3\n      pop\n      swap3\n      pop\n      swap3\n      jump\t// out\n        /* \"#utility.yul\":6276:6456   */\n    tag_57:\n        /* \"#utility.yul\":6324:6401   */\n      0x4e487b7100000000000000000000000000000000000000000000000000000000\n        /* \"#utility.yul\":6321:6322   */\n      0x00\n        /* \"#utility.yul\":6314:6402   */\n      mstore\n        /* \"#utility.yul\":6421:6425   */\n      0x22\n        /* \"#utility.yul\":6418:6419   */\n      0x04\n        /* \"#utility.yul\":6411:6426   */\n      mstore\n        /* \"#utility.yul\":6445:6449   */\n      0x24\n        /* \"#utility.yul\":6442:6443   */\n      0x00\n        /* \"#utility.yul\":6435:6450   */\n      revert\n        /* \"#utility.yul\":6462:6782   */\n    tag_29:\n        /* \"#utility.yul\":6506:6512   */\n      0x00\n        /* \"#utility.yul\":6543:6544   */\n      0x02\n        /* \"#utility.yul\":6537:6541   */\n      dup3\n        /* \"#utility.yul\":6533:6545   */\n      div\n        /* \"#utility.yul\":6523:6545   */\n      swap1\n      pop\n        /* \"#utility.yul\":6590:6591   */\n      0x01\n        /* \"#utility.yul\":6584:6588   */\n      dup3\n        /* \"#utility.yul\":6580:6592   */\n      and\n        /* \"#utility.yul\":6611:6629   */\n      dup1\n        /* \"#utility.yul\":6601:6682   */\n      tag_143\n      jumpi\n        /* \"#utility.yul\":6667:6671   */\n      0x7f\n        /* \"#utility.yul\":6659:6665   */\n      dup3\n        /* \"#utility.yul\":6655:6672   */\n      and\n        /* \"#utility.yul\":6645:6672   */\n      swap2\n      pop\n        /* \"#utility.yul\":6601:6682   */\n    tag_143:\n        /* \"#utility.yul\":6729:6731   */\n      0x20\n        /* \"#utility.yul\":6721:6727   */\n      dup3\n        /* \"#utility.yul\":6718:6732   */\n      lt\n        /* \"#utility.yul\":6698:6716   */\n      dup2\n        /* \"#utility.yul\":6695:6733   */\n      sub\n        /* \"#utility.yul\":6692:6776   */\n      tag_144\n      jumpi\n        /* \"#utility.yul\":6748:6766   */\n      tag_145\n      tag_57\n      jump\t// in\n    tag_145:\n        /* \"#utility.yul\":6692:6776   */\n    tag_144:\n        /* \"#utility.yul\":6513:6782   */\n      pop\n        /* \"#utility.yul\":6462:6782   */\n      swap2\n      swap1\n      pop\n      jump\t// out\n        /* \"#utility.yul\":6788:6929   */\n    tag_58:\n        /* \"#utility.yul\":6837:6841   */\n      0x00\n        /* \"#utility.yul\":6860:6863   */\n      dup2\n        /* \"#utility.yul\":6852:6863   */\n      swap1\n      pop\n        /* \"#utility.yul\":6883:6886   */\n      dup2\n        /* \"#utility.yul\":6880:6881   */\n      0x00\n        /* \"#utility.yul\":6873:6887   */\n      mstore\n        /* \"#utility.yul\":6917:6921   */\n      0x20\n        /* \"#utility.yul\":6914:6915   */\n      0x00\n        /* \"#utility.yul\":6904:6922   */\n      keccak256\n        /* \"#utility.yul\":6896:6922   */\n      swap1\n      pop\n        /* \"#utility.yul\":6788:6929   */\n      swap2\n      swap1\n      pop\n      jump\t// out\n        /* \"#utility.yul\":6935:7028   */\n    tag_59:\n        /* \"#utility.yul\":6972:6978   */\n      0x00\n        /* \"#utility.yul\":7019:7021   */\n      0x20\n        /* \"#utility.yul\":7014:7016   */\n      0x1f\n        /* \"#utility.yul\":7007:7012   */\n      dup4\n        /* \"#utility.yul\":7003:7017   */\n      add\n        /* \"#utility.yul\":6999:7022   */\n      div\n        /* \"#utility.yul\":6989:7022   */\n      swap1\n      pop\n        /* \"#utility.yul\":6935:7028   */\n      swap2\n      swap1\n      pop\n      jump\t// out\n        /* \"#utility.yul\":7034:7141   */\n    tag_60:\n        /* \"#utility.yul\":7078:7086   */\n      0x00\n        /* \"#utility.yul\":7128:7133   */\n      dup3\n        /* \"#utility.yul\":7122:7126   */\n      dup3\n        /* \"#utility.yul\":7118:7134   */\n      shl\n        /* \"#utility.yul\":7097:7134   */\n      swap1\n      pop\n        /* \"#utility.yul\":7034:7141   */\n      swap3\n      swap2\n      pop\n      pop\n      jump\t// out\n        /* \"#utility.yul\":7147:7540   */\n    tag_61:\n        /* \"#utility.yul\":7216:7222   */\n      0x00\n        /* \"#utility.yul\":7266:7267   */\n      0x08\n        /* \"#utility.yul\":7254:7264   */\n      dup4\n        /* \"#utility.yul\":7250:7268   */\n      mul\n        /* \"#utility.yul\":7289:7386   */\n      tag_150\n        /* \"#utility.yul\":7319:7385   */\n      0xffffffffffffffffffffffffffffffffffffffffffffffffffffffffffffffff\n        /* \"#utility.yul\":7308:7317   */\n      dup3\n        /* \"#utility.yul\":7289:7386   */\n      tag_60\n      jump\t// in\n    tag_150:\n        /* \"#utility.yul\":7407:7446   */\n      tag_151\n        /* \"#utility.yul\":7437:7445   */\n      dup7\n        /* \"#utility.yul\":7426:7435   */\n      dup4\n        /* \"#utility.yul\":7407:7446   */\n      tag_60\n      jump\t// in\n    tag_151:\n        /* \"#utility.yul\":7395:7446   */\n      swap6\n      pop\n        /* \"#utility.yul\":7479:7483   */\n      dup1\n        /* \"#utility.yul\":7475:7484   */\n      not\n        /* \"#utility.yul\":7468:7473   */\n      dup5\n        /* \"#utility.yul\":7464:7485   */\n      and\n        /* \"#utility.yul\":7455:7485   */\n      swap4\n      pop\n        /* \"#utility.yul\":7528:7532   */\n      dup1\n        /* \"#utility.yul\":7518:7526   */\n      dup7\n        /* \"#utility.yul\":7514:7533   */\n      and\n        /* \"#utility.yul\":7507:7512   */\n      dup5\n        /* \"#utility.yul\":7504:7534   */\n      or\n        /* \"#utility.yul\":7494:7534   */\n      swap3\n      pop\n        /* \"#utility.yul\":7223:7540   */\n      pop\n      pop\n        /* \"#utility.yul\":7147:7540   */\n      swap4\n      swap3\n      pop\n      pop\n      pop\n      jump\t// out\n        /* \"#utility.yul\":7546:7606   */\n    tag_62:\n        /* \"#utility.yul\":7574:7577   */\n      0x00\n        /* \"#utility.yul\":7595:7600   */\n      dup2\n        /* \"#utility.yul\":7588:7600   */\n      swap1\n      pop\n        /* \"#utility.yul\":7546:7606   */\n      swap2\n      swap1\n      pop\n      jump\t// out\n        /* \"#utility.yul\":7612:7754   */\n    tag_63:\n        /* \"#utility.yul\":7662:7671   */\n      0x00\n        /* \"#utility.yul\":7695:7748   */\n      tag_154\n        /* \"#utility.yul\":7713:7747   */\n      tag_155\n        /* \"#utility.yul\":7722:7746   */\n      tag_156\n        /* \"#utility.yul\":7740:7745   */\n      dup5\n        /* \"#utility.yul\":7722:7746   */\n      tag_49\n      jump\t// in\n    tag_156:\n        /* \"#utility.yul\":7713:7747   */\n      tag_62\n      jump\t// in\n    tag_155:\n        /* \"#utility.yul\":7695:7748   */\n      tag_49\n      jump\t// in\n    tag_154:\n        /* \"#utility.yul\":7682:7748   */\n      swap1\n      pop\n        /* \"#utility.yul\":7612:7754   */\n      swap2\n      swap1\n      pop\n      jump\t// out\n        /* \"#utility.yul\":7760:7835   */\n    tag_64:\n        /* \"#utility.yul\":7803:7806   */\n      0x00\n        /* \"#utility.yul\":7824:7829   */\n      dup2\n        /* \"#utility.yul\":7817:7829   */\n      swap1\n      pop\n        /* \"#utility.yul\":7760:7835   */\n      swap2\n      swap1\n      pop\n      jump\t// out\n        /* \"#utility.yul\":7841:8110   */\n    tag_65:\n        /* \"#utility.yul\":7951:7990   */\n      tag_159\n        /* \"#utility.yul\":7982:7989   */\n      dup4\n        /* \"#utility.yul\":7951:7990   */\n      tag_63\n      jump\t// in\n    tag_159:\n        /* \"#utility.yul\":8012:8103   */\n      tag_160\n        /* \"#utility.yul\":8061:8102   */\n      tag_161\n        /* \"#utility.yul\":8085:8101   */\n      dup3\n        /* \"#utility.yul\":8061:8102   */\n      tag_64\n      jump\t// in\n    tag_161:\n        /* \"#utility.yul\":8053:8059   */\n      dup5\n        /* \"#utility.yul\":8046:8050   */\n      dup5\n        /* \"#utility.yul\":8040:8051   */\n      sload\n        /* \"#utility.yul\":8012:8103   */\n      tag_61\n      jump\t// in\n    tag_160:\n        /* \"#utility.yul\":8006:8010   */\n      dup3\n        /* \"#utility.yul\":7999:8104   */\n      sstore\n        /* \"#utility.yul\":7917:8110   */\n      pop\n        /* \"#utility.yul\":7841:8110   */\n      pop\n      pop\n      pop\n      jump\t// out\n        /* \"#utility.yul\":8116:8189   */\n    tag_66:\n        /* \"#utility.yul\":8161:8164   */\n      0x00\n        /* \"#utility.yul\":8116:8189   */\n      swap1\n      jump\t// out\n        /* \"#utility.yul\":8195:8384   */\n    tag_67:\n        /* \"#utility.yul\":8272:8304   */\n      tag_164\n      tag_66\n      jump\t// in\n    tag_164:\n        /* \"#utility.yul\":8313:8378   */\n      tag_165\n        /* \"#utility.yul\":8371:8377   */\n      dup2\n        /* \"#utility.yul\":8363:8369   */\n      dup5\n        /* \"#utility.yul\":8357:8361   */\n      dup5\n        /* \"#utility.yul\":8313:8378   */\n      tag_65\n      jump\t// in\n    tag_165:\n        /* \"#utility.yul\":8248:8384   */\n      pop\n        /* \"#utility.yul\":8195:8384   */\n      pop\n      pop\n      jump\t// out\n        /* \"#utility.yul\":8390:8576   */\n    tag_68:\n        /* \"#utility.yul\":8450:8570   */\n    tag_167:\n        /* \"#utility.yul\":8467:8470   */\n      dup2\n        /* \"#utility.yul\":8460:8465   */\n      dup2\n        /* \"#utility.yul\":8457:8471   */\n      lt\n        /* \"#utility.yul\":8450:8570   */\n      iszero\n      tag_169\n      jumpi\n        /* \"#utility.yul\":8521:8560   */\n      tag_170\n        /* \"#utility.yul\":8558:8559   */\n      0x00\n        /* \"#utility.yul\":8551:8556   */\n      dup3\n        /* \"#utility.yul\":8521:8560   */\n      tag_67\n      jump\t// in\n    tag_170:\n        /* \"#utility.yul\":8494:8495   */\n      0x01\n        /* \"#utility.yul\":8487:8492   */\n      dup2\n        /* \"#utility.yul\":8483:8496   */\n      add\n        /* \"#utility.yul\":8474:8496   */\n      swap1\n      pop\n        /* \"#utility.yul\":8450:8570   */\n      jump(tag_167)\n    tag_169:\n        /* \"#utility.yul\":8390:8576   */\n      pop\n      pop\n      jump\t// out\n        /* \"#utility.yul\":8582:9125   */\n    tag_69:\n        /* \"#utility.yul\":8683:8685   */\n      0x1f\n        /* \"#utility.yul\":8678:8681   */\n      dup3\n        /* \"#utility.yul\":8675:8686   */\n      gt\n        /* \"#utility.yul\":8672:9118   */\n      iszero\n      tag_172\n      jumpi\n        /* \"#utility.yul\":8717:8755   */\n      tag_173\n        /* \"#utility.yul\":8749:8754   */\n      dup2\n        /* \"#utility.yul\":8717:8755   */\n      tag_58\n      jump\t// in\n    tag_173:\n        /* \"#utility.yul\":8801:8830   */\n      tag_174\n        /* \"#utility.yul\":8819:8829   */\n      dup5\n        /* \"#utility.yul\":8801:8830   */\n      tag_59\n      jump\t// in\n    tag_174:\n        /* \"#utility.yul\":8791:8799   */\n      dup2\n        /* \"#utility.yul\":8787:8831   */\n      add\n        /* \"#utility.yul\":8984:8986   */\n      0x20\n        /* \"#utility.yul\":8972:8982   */\n      dup6\n        /* \"#utility.yul\":8969:8987   */\n      lt\n        /* \"#utility.yul\":8966:9015   */\n      iszero\n      tag_175\n      jumpi\n        /* \"#utility.yul\":9005:9013   */\n      dup2\n        /* \"#utility.yul\":8990:9013   */\n      swap1\n      pop\n        /* \"#utility.yul\":8966:9015   */\n    tag_175:\n        /* \"#utility.yul\":9028:9108   */\n      tag_176\n        /* \"#utility.yul\":9084:9106   */\n      tag_177\n        /* \"#utility.yul\":9102:9105   */\n      dup6\n        /* \"#utility.yul\":9084:9106   */\n      tag_59\n      jump\t// in\n    tag_177:\n        /* \"#utility.yul\":9074:9082   */\n      dup4\n        /* \"#utility.yul\":9070:9107   */\n      add\n        /* \"#utility.yul\":9057:9068   */\n      dup3\n        /* \"#utility.yul\":9028:9108   */\n      tag_68\n      jump\t// in\n    tag_176:\n        /* \"#utility.yul\":8687:9118   */\n      pop\n      pop\n        /* \"#utility.yul\":8672:9118   */\n    tag_172:\n        /* \"#utility.yul\":8582:9125   */\n      pop\n      pop\n      pop\n      jump\t// out\n        /* \"#utility.yul\":9131:9248   */\n    tag_70:\n        /* \"#utility.yul\":9185:9193   */\n      0x00\n        /* \"#utility.yul\":9235:9240   */\n      dup3\n        /* \"#utility.yul\":9229:9233   */\n      dup3\n        /* \"#utility.yul\":9225:9241   */\n      shr\n        /* \"#utility.yul\":9204:9241   */\n      swap1\n      pop\n        /* \"#utility.yul\":9131:9248   */\n      swap3\n      swap2\n      pop\n      pop\n      jump\t// out\n        /* \"#utility.yul\":9254:9423   */\n    tag_71:\n        /* \"#utility.yul\":9298:9304   */\n      0x00\n        /* \"#utility.yul\":9331:9382   */\n      tag_180\n        /* \"#utility.yul\":9379:9380   */\n      0x00\n        /* \"#utility.yul\":9375:9381   */\n      not\n        /* \"#utility.yul\":9367:9372   */\n      dup5\n        /* \"#utility.yul\":9364:9365   */\n      0x08\n        /* \"#utility.yul\":9360:9373   */\n      mul\n        /* \"#utility.yul\":9331:9382   */\n      tag_70\n      jump\t// in\n    tag_180:\n        /* \"#utility.yul\":9327:9383   */\n      not\n        /* \"#utility.yul\":9412:9416   */\n      dup1\n        /* \"#utility.yul\":9406:9410   */\n      dup4\n        /* \"#utility.yul\":9402:9417   */\n      and\n        /* \"#utility.yul\":9392:9417   */\n      swap2\n      pop\n        /* \"#utility.yul\":9305:9423   */\n      pop\n        /* \"#utility.yul\":9254:9423   */\n      swap3\n      swap2\n      pop\n      pop\n      jump\t// out\n        /* \"#utility.yul\":9428:9723   */\n    tag_72:\n        /* \"#utility.yul\":9504:9508   */\n      0x00\n        /* \"#utility.yul\":9650:9679   */\n      tag_182\n        /* \"#utility.yul\":9675:9678   */\n      dup4\n        /* \"#utility.yul\":9669:9673   */\n      dup4\n        /* \"#utility.yul\":9650:9679   */\n      tag_71\n      jump\t// in\n    tag_182:\n        /* \"#utility.yul\":9642:9679   */\n      swap2\n      pop\n        /* \"#utility.yul\":9712:9715   */\n      dup3\n        /* \"#utility.yul\":9709:9710   */\n      0x02\n        /* \"#utility.yul\":9705:9716   */\n      mul\n        /* \"#utility.yul\":9699:9703   */\n      dup3\n        /* \"#utility.yul\":9696:9717   */\n      or\n        /* \"#utility.yul\":9688:9717   */\n      swap1\n      pop\n        /* \"#utility.yul\":9428:9723   */\n      swap3\n      swap2\n      pop\n      pop\n      jump\t// out\n        /* \"#utility.yul\":9728:11123   */\n    tag_25:\n        /* \"#utility.yul\":9845:9882   */\n      tag_184\n        /* \"#utility.yul\":9878:9881   */\n      dup3\n        /* \"#utility.yul\":9845:9882   */\n      tag_52\n      jump\t// in\n    tag_184:\n        /* \"#utility.yul\":9947:9965   */\n      0xffffffffffffffff\n        /* \"#utility.yul\":9939:9945   */\n      dup2\n        /* \"#utility.yul\":9936:9966   */\n      gt\n        /* \"#utility.yul\":9933:9989   */\n      iszero\n      tag_185\n      jumpi\n        /* \"#utility.yul\":9969:9987   */\n      tag_186\n      tag_42\n      jump\t// in\n    tag_186:\n        /* \"#utility.yul\":9933:9989   */\n    tag_185:\n        /* \"#utility.yul\":10013:10051   */\n      tag_187\n        /* \"#utility.yul\":10045:10049   */\n      dup3\n        /* \"#utility.yul\":10039:10050   */\n      sload\n        /* \"#utility.yul\":10013:10051   */\n      tag_29\n      jump\t// in\n    tag_187:\n        /* \"#utility.yul\":10098:10165   */\n      tag_188\n        /* \"#utility.yul\":10158:10164   */\n      dup3\n        /* \"#utility.yul\":10150:10156   */\n      dup3\n        /* \"#utility.yul\":10144:10148   */\n      dup6\n        /* \"#utility.yul\":10098:10165   */\n      tag_69\n      jump\t// in\n    tag_188:\n        /* \"#utility.yul\":10192:10193   */\n      0x00\n        /* \"#utility.yul\":10216:10220   */\n      0x20\n        /* \"#utility.yul\":10203:10220   */\n      swap1\n      pop\n        /* \"#utility.yul\":10248:10250   */\n      0x1f\n        /* \"#utility.yul\":10240:10246   */\n      dup4\n        /* \"#utility.yul\":10237:10251   */\n      gt\n        /* \"#utility.yul\":10265:10266   */\n      0x01\n        /* \"#utility.yul\":10260:10878   */\n      dup2\n      eq\n      tag_190\n      jumpi\n        /* \"#utility.yul\":10922:10923   */\n      0x00\n        /* \"#utility.yul\":10939:10945   */\n      dup5\n        /* \"#utility.yul\":10936:11013   */\n      iszero\n      tag_191\n      jumpi\n        /* \"#utility.yul\":10988:10997   */\n      dup3\n        /* \"#utility.yul\":10983:10986   */\n      dup8\n        /* \"#utility.yul\":10979:10998   */\n      add\n        /* \"#utility.yul\":10973:10999   */\n      mload\n        /* \"#utility.yul\":10964:10999   */\n      swap1\n      pop\n        /* \"#utility.yul\":10936:11013   */\n    tag_191:\n        /* \"#utility.yul\":11039:11106   */\n      tag_192\n        /* \"#utility.yul\":11099:11105   */\n      dup6\n        /* \"#utility.yul\":11092:11097   */\n      dup3\n        /* \"#utility.yul\":11039:11106   */\n      tag_72\n      jump\t// in\n    tag_192:\n        /* \"#utility.yul\":11033:11037   */\n      dup7\n        /* \"#utility.yul\":11026:11107   */\n      sstore\n        /* \"#utility.yul\":10895:11117   */\n      pop\n        /* \"#utility.yul\":10230:11117   */\n      jump(tag_189)\n        /* \"#utility.yul\":10260:10878   */\n    tag_190:\n        /* \"#utility.yul\":10312:10316   */\n      0x1f\n        /* \"#utility.yul\":10308:10317   */\n      not\n        /* \"#utility.yul\":10300:10306   */\n      dup5\n        /* \"#utility.yul\":10296:10318   */\n      and\n        /* \"#utility.yul\":10346:10383   */\n      tag_193\n        /* \"#utility.yul\":10378:10382   */\n      dup7\n        /* \"#utility.yul\":10346:10383   */\n      tag_58\n      jump\t// in\n    tag_193:\n        /* \"#utility.yul\":10405:10406   */\n      0x00\n        /* \"#utility.yul\":10419:10627   */\n    tag_194:\n        /* \"#utility.yul\":10433:10440   */\n      dup3\n        /* \"#utility.yul\":10430:10431   */\n      dup2\n        /* \"#utility.yul\":10427:10441   */\n      lt\n        /* \"#utility.yul\":10419:10627   */\n      iszero\n      tag_196\n      jumpi\n        /* \"#utility.yul\":10512:10521   */\n      dup5\n        /* \"#utility.yul\":10507:10510   */\n      dup10\n        /* \"#utility.yul\":10503:10522   */\n      add\n        /* \"#utility.yul\":10497:10523   */\n      mload\n        /* \"#utility.yul\":10489:10495   */\n      dup3\n        /* \"#utility.yul\":10482:10524   */\n      sstore\n        /* \"#utility.yul\":10563:10564   */\n      0x01\n        /* \"#utility.yul\":10555:10561   */\n      dup3\n        /* \"#utility.yul\":10551:10565   */\n      add\n        /* \"#utility.yul\":10541:10565   */\n      swap2\n      pop\n        /* \"#utility.yul\":10610:10612   */\n      0x20\n        /* \"#utility.yul\":10599:10608   */\n      dup6\n        /* \"#utility.yul\":10595:10613   */\n      add\n        /* \"#utility.yul\":10582:10613   */\n      swap5\n      pop\n        /* \"#utility.yul\":10456:10460   */\n      0x20\n        /* \"#utility.yul\":10453:10454   */\n      dup2\n        /* \"#utility.yul\":10449:10461   */\n      add\n        /* \"#utility.yul\":10444:10461   */\n      swap1\n      pop\n        /* \"#utility.yul\":10419:10627   */\n      jump(tag_194)\n    tag_196:\n        /* \"#utility.yul\":10655:10661   */\n      dup7\n        /* \"#utility.yul\":10646:10653   */\n      dup4\n        /* \"#utility.yul\":10643:10662   */\n      lt\n        /* \"#utility.yul\":10640:10819   */\n      iszero\n      tag_197\n      jumpi\n        /* \"#utility.yul\":10713:10722   */\n      dup5\n        /* \"#utility.yul\":10708:10711   */\n      dup10\n        /* \"#utility.yul\":10704:10723   */\n      add\n        /* \"#utility.yul\":10698:10724   */\n      mload\n        /* \"#utility.yul\":10756:10804   */\n      tag_198\n        /* \"#utility.yul\":10798:10802   */\n      0x1f\n        /* \"#utility.yul\":10790:10796   */\n      dup10\n        /* \"#utility.yul\":10786:10803   */\n      and\n        /* \"#utility.yul\":10775:10784   */\n      dup3\n        /* \"#utility.yul\":10756:10804   */\n      tag_71\n      jump\t// in\n    tag_198:\n        /* \"#utility.yul\":10748:10754   */\n      dup4\n        /* \"#utility.yul\":10741:10805   */\n      sstore\n        /* \"#utility.yul\":10663:10819   */\n      pop\n        /* \"#utility.yul\":10640:10819   */\n    tag_197:\n        /* \"#utility.yul\":10865:10866   */\n      0x01\n        /* \"#utility.yul\":10861:10862   */\n      0x02\n        /* \"#utility.yul\":10853:10859   */\n      dup9\n        /* \"#utility.yul\":10849:10863   */\n      mul\n        /* \"#utility.yul\":10845:10867   */\n      add\n        /* \"#utility.yul\":10839:10843   */\n      dup9\n        /* \"#utility.yul\":10832:10868   */\n      sstore\n        /* \"#utility.yul\":10267:10878   */\n      pop\n      pop\n      pop\n        /* \"#utility.yul\":10230:11117   */\n    tag_189:\n      pop\n        /* \"#utility.yul\":9820:11123   */\n      pop\n      pop\n      pop\n        /* \"#utility.yul\":9728:11123   */\n      pop\n      pop\n      jump\t// out\n\n    auxdata: 0xa2646970667358221220d67d77fa92894cdc59cd9a378ca2a2834d79a9a56657a785b889427f010a89b264736f6c634300081a0033\n}\n",
				"bytecode": {
					"linkReferences": {},
					"object": "6080604052348015600e575f80fd5b506107b48061001c5f395ff3fe608060405234801561000f575f80fd5b506004361061004a575f3560e01c80632fda437e1461004e578063a9f6ad661461006a578063d781a3a51461008a578063ea371cf7146100a9575b5f80fd5b61006860048036038101906100639190610316565b6100c5565b005b6100726100df565b604051610081939291906103df565b60405180910390f35b6100926100e7565b6040516100a092919061041b565b60405180910390f35b6100c360048036038101906100be9190610449565b610180565b005b815f90816100d391906106af565b50806001819055505050565b60605f809192565b60605f806001548180546100fa906104e2565b80601f0160208091040260200160405190810160405280929190818152602001828054610126906104e2565b80156101715780601f1061014857610100808354040283529160200191610171565b820191905f5260205f20905b81548152906001019060200180831161015457829003601f168201915b50505050509150915091509091565b61018a83836100c5565b80600281905550505050565b5f604051905090565b5f80fd5b5f80fd5b5f80fd5b5f80fd5b5f601f19601f8301169050919050565b7f4e487b71000000000000000000000000000000000000000000000000000000005f52604160045260245ffd5b6101f5826101af565b810181811067ffffffffffffffff82111715610214576102136101bf565b5b80604052505050565b5f610226610196565b905061023282826101ec565b919050565b5f67ffffffffffffffff821115610251576102506101bf565b5b61025a826101af565b9050602081019050919050565b828183375f83830152505050565b5f61028761028284610237565b61021d565b9050828152602081018484840111156102a3576102a26101ab565b5b6102ae848285610267565b509392505050565b5f82601f8301126102ca576102c96101a7565b5b81356102da848260208601610275565b91505092915050565b5f819050919050565b6102f5816102e3565b81146102ff575f80fd5b50565b5f81359050610310816102ec565b92915050565b5f806040838503121561032c5761032b61019f565b5b5f83013567ffffffffffffffff811115610349576103486101a3565b5b610355858286016102b6565b925050602061036685828601610302565b9150509250929050565b5f81519050919050565b5f82825260208201905092915050565b8281835e5f83830152505050565b5f6103a282610370565b6103ac818561037a565b93506103bc81856020860161038a565b6103c5816101af565b840191505092915050565b6103d9816102e3565b82525050565b5f6060820190508181035f8301526103f78186610398565b905061040660208301856103d0565b61041360408301846103d0565b949350505050565b5f6040820190508181035f8301526104338185610398565b905061044260208301846103d0565b9392505050565b5f805f606084860312156104605761045f61019f565b5b5f84013567ffffffffffffffff81111561047d5761047c6101a3565b5b610489868287016102b6565b935050602061049a86828701610302565b92505060406104ab86828701610302565b9150509250925092565b7f4e487b71000000000000000000000000000000000000000000000000000000005f52602260045260245ffd5b5f60028204905060018216806104f957607f821691505b60208210810361050c5761050b6104b5565b5b50919050565b5f819050815f5260205f209050919050565b5f6020601f8301049050919050565b5f82821b905092915050565b5f6008830261056e7fffffffffffffffffffffffffffffffffffffffffffffffffffffffffffffffff82610533565b6105788683610533565b95508019841693508086168417925050509392505050565b5f819050919050565b5f6105b36105ae6105a9846102e3565b610590565b6102e3565b9050919050565b5f819050919050565b6105cc83610599565b6105e06105d8826105ba565b84845461053f565b825550505050565b5f90565b6105f46105e8565b6105ff8184846105c3565b505050565b5b81811015610622576106175f826105ec565b600181019050610605565b5050565b601f8211156106675761063881610512565b61064184610524565b81016020851015610650578190505b61066461065c85610524565b830182610604565b50505b505050565b5f82821c905092915050565b5f6106875f198460080261066c565b1980831691505092915050565b5f61069f8383610678565b9150826002028217905092915050565b6106b882610370565b67ffffffffffffffff8111156106d1576106d06101bf565b5b6106db82546104e2565b6106e6828285610626565b5f60209050601f831160018114610717575f8415610705578287015190505b61070f8582610694565b865550610776565b601f19841661072586610512565b5f5b8281101561074c57848901518255600182019150602085019450602081019050610727565b868310156107695784890151610765601f891682610678565b8355505b6001600288020188555050505b50505050505056fea2646970667358221220d67d77fa92894cdc59cd9a378ca2a2834d79a9a56657a785b889427f010a89b264736f6c634300081a0033",
					"opcodes": "PUSH1 0x80 PUSH1 0x40 MSTORE CALLVALUE DUP1 ISZERO PUSH1 0xE JUMPI PUSH0 DUP1 REVERT JUMPDEST POP PUSH2 0x7B4 DUP1 PUSH2 0x1C PUSH0 CODECOPY PUSH0 RETURN INVALID PUSH1 0x80 PUSH1 0x40 MSTORE CALLVALUE DUP1 ISZERO PUSH2 0xF JUMPI PUSH0 DUP1 REVERT JUMPDEST POP PUSH1 0x4 CALLDATASIZE LT PUSH2 0x4A JUMPI PUSH0 CALLDATALOAD PUSH1 0xE0 SHR DUP1 PUSH4 0x2FDA437E EQ PUSH2 0x4E JUMPI DUP1 PUSH4 0xA9F6AD66 EQ PUSH2 0x6A JUMPI DUP1 PUSH4 0xD781A3A5 EQ PUSH2 0x8A JUMPI DUP1 PUSH4 0xEA371CF7 EQ PUSH2 0xA9 JUMPI JUMPDEST PUSH0 DUP1 REVERT JUMPDEST PUSH2 0x68 PUSH1 0x4 DUP1 CALLDATASIZE SUB DUP2 ADD SWAP1 PUSH2 0x63 SWAP2 SWAP1 PUSH2 0x316 JUMP JUMPDEST PUSH2 0xC5 JUMP JUMPDEST STOP JUMPDEST PUSH2 0x72 PUSH2 0xDF JUMP JUMPDEST PUSH1 0x40 MLOAD PUSH2 0x81 SWAP4 SWAP3 SWAP2 SWAP1 PUSH2 0x3DF JUMP JUMPDEST PUSH1 0x40 MLOAD DUP1 SWAP2 SUB SWAP1 RETURN JUMPDEST PUSH2 0x92 PUSH2 0xE7 JUMP JUMPDEST PUSH1 0x40 MLOAD PUSH2 0xA0 SWAP3 SWAP2 SWAP1 PUSH2 0x41B JUMP JUMPDEST PUSH1 0x40 MLOAD DUP1 SWAP2 SUB SWAP1 RETURN JUMPDEST PUSH2 0xC3 PUSH1 0x4 DUP1 CALLDATASIZE SUB DUP2 ADD SWAP1 PUSH2 0xBE SWAP2 SWAP1 PUSH2 0x449 JUMP JUMPDEST PUSH2 0x180 JUMP JUMPDEST STOP JUMPDEST DUP2 PUSH0 SWAP1 DUP2 PUSH2 0xD3 SWAP2 SWAP1 PUSH2 0x6AF JUMP JUMPDEST POP DUP1 PUSH1 0x1 DUP2 SWAP1 SSTORE POP POP POP JUMP JUMPDEST PUSH1 0x60 PUSH0 DUP1 SWAP2 SWAP3 JUMP JUMPDEST PUSH1 0x60 PUSH0 DUP1 PUSH1 0x1 SLOAD DUP2 DUP1 SLOAD PUSH2 0xFA SWAP1 PUSH2 0x4E2 JUMP JUMPDEST DUP1 PUSH1 0x1F ADD PUSH1 0x20 DUP1 SWAP2 DIV MUL PUSH1 0x20 ADD PUSH1 0x40 MLOAD SWAP1 DUP2 ADD PUSH1 0x40 MSTORE DUP1 SWAP3 SWAP2 SWAP1 DUP2 DUP2 MSTORE PUSH1 0x20 ADD DUP3 DUP1 SLOAD PUSH2 0x126 SWAP1 PUSH2 0x4E2 JUMP JUMPDEST DUP1 ISZERO PUSH2 0x171 JUMPI DUP1 PUSH1 0x1F LT PUSH2 0x148 JUMPI PUSH2 0x100 DUP1 DUP4 SLOAD DIV MUL DUP4 MSTORE SWAP2 PUSH1 0x20 ADD SWAP2 PUSH2 0x171 JUMP JUMPDEST DUP3 ADD SWAP2 SWAP1 PUSH0 MSTORE PUSH1 0x20 PUSH0 KECCAK256 SWAP1 JUMPDEST DUP2 SLOAD DUP2 MSTORE SWAP1 PUSH1 0x1 ADD SWAP1 PUSH1 0x20 ADD DUP1 DUP4 GT PUSH2 0x154 JUMPI DUP3 SWAP1 SUB PUSH1 0x1F AND DUP3 ADD SWAP2 JUMPDEST POP POP POP POP POP SWAP2 POP SWAP2 POP SWAP2 POP SWAP1 SWAP2 JUMP JUMPDEST PUSH2 0x18A DUP4 DUP4 PUSH2 0xC5 JUMP JUMPDEST DUP1 PUSH1 0x2 DUP2 SWAP1 SSTORE POP POP POP POP JUMP JUMPDEST PUSH0 PUSH1 0x40 MLOAD SWAP1 POP SWAP1 JUMP JUMPDEST PUSH0 DUP1 REVERT JUMPDEST PUSH0 DUP1 REVERT JUMPDEST PUSH0 DUP1 REVERT JUMPDEST PUSH0 DUP1 REVERT JUMPDEST PUSH0 PUSH1 0x1F NOT PUSH1 0x1F DUP4 ADD AND SWAP1 POP SWAP2 SWAP1 POP JUMP JUMPDEST PUSH32 0x4E487B7100000000000000000000000000000000000000000000000000000000 PUSH0 MSTORE PUSH1 0x41 PUSH1 0x4 MSTORE PUSH1 0x24 PUSH0 REVERT JUMPDEST PUSH2 0x1F5 DUP3 PUSH2 0x1AF JUMP JUMPDEST DUP2 ADD DUP2 DUP2 LT PUSH8 0xFFFFFFFFFFFFFFFF DUP3 GT OR ISZERO PUSH2 0x214 JUMPI PUSH2 0x213 PUSH2 0x1BF JUMP JUMPDEST JUMPDEST DUP1 PUSH1 0x40 MSTORE POP POP POP JUMP JUMPDEST PUSH0 PUSH2 0x226 PUSH2 0x196 JUMP JUMPDEST SWAP1 POP PUSH2 0x232 DUP3 DUP3 PUSH2 0x1EC JUMP JUMPDEST SWAP2 SWAP1 POP JUMP JUMPDEST PUSH0 PUSH8 0xFFFFFFFFFFFFFFFF DUP3 GT ISZERO PUSH2 0x251 JUMPI PUSH2 0x250 PUSH2 0x1BF JUMP JUMPDEST JUMPDEST PUSH2 0x25A DUP3 PUSH2 0x1AF JUMP JUMPDEST SWAP1 POP PUSH1 0x20 DUP2 ADD SWAP1 POP SWAP2 SWAP1 POP JUMP JUMPDEST DUP3 DUP2 DUP4 CALLDATACOPY PUSH0 DUP4 DUP4 ADD MSTORE POP POP POP JUMP JUMPDEST PUSH0 PUSH2 0x287 PUSH2 0x282 DUP5 PUSH2 0x237 JUMP JUMPDEST PUSH2 0x21D JUMP JUMPDEST SWAP1 POP DUP3 DUP2 MSTORE PUSH1 0x20 DUP2 ADD DUP5 DUP5 DUP5 ADD GT ISZERO PUSH2 0x2A3 JUMPI PUSH2 0x2A2 PUSH2 0x1AB JUMP JUMPDEST JUMPDEST PUSH2 0x2AE DUP5 DUP3 DUP6 PUSH2 0x267 JUMP JUMPDEST POP SWAP4 SWAP3 POP POP POP JUMP JUMPDEST PUSH0 DUP3 PUSH1 0x1F DUP4 ADD SLT PUSH2 0x2CA JUMPI PUSH2 0x2C9 PUSH2 0x1A7 JUMP JUMPDEST JUMPDEST DUP2 CALLDATALOAD PUSH2 0x2DA DUP5 DUP3 PUSH1 0x20 DUP7 ADD PUSH2 0x275 JUMP JUMPDEST SWAP2 POP POP SWAP3 SWAP2 POP POP JUMP JUMPDEST PUSH0 DUP2 SWAP1 POP SWAP2 SWAP1 POP JUMP JUMPDEST PUSH2 0x2F5 DUP2 PUSH2 0x2E3 JUMP JUMPDEST DUP2 EQ PUSH2 0x2FF JUMPI PUSH0 DUP1 REVERT JUMPDEST POP JUMP JUMPDEST PUSH0 DUP2 CALLDATALOAD SWAP1 POP PUSH2 0x310 DUP2 PUSH2 0x2EC JUMP JUMPDEST SWAP3 SWAP2 POP POP JUMP JUMPDEST PUSH0 DUP1 PUSH1 0x40 DUP4 DUP6 SUB SLT ISZERO PUSH2 0x32C JUMPI PUSH2 0x32B PUSH2 0x19F JUMP JUMPDEST JUMPDEST PUSH0 DUP4 ADD CALLDATALOAD PUSH8 0xFFFFFFFFFFFFFFFF DUP2 GT ISZERO PUSH2 0x349 JUMPI PUSH2 0x348 PUSH2 0x1A3 JUMP JUMPDEST JUMPDEST PUSH2 0x355 DUP6 DUP3 DUP7 ADD PUSH2 0x2B6 JUMP JUMPDEST SWAP3 POP POP PUSH1 0x20 PUSH2 0x366 DUP6 DUP3 DUP7 ADD PUSH2 0x302 JUMP JUMPDEST SWAP2 POP POP SWAP3 POP SWAP3 SWAP1 POP JUMP JUMPDEST PUSH0 DUP2 MLOAD SWAP1 POP SWAP2 SWAP1 POP JUMP JUMPDEST PUSH0 DUP3 DUP3 MSTORE PUSH1 0x20 DUP3 ADD SWAP1 POP SWAP3 SWAP2 POP POP JUMP JUMPDEST DUP3 DUP2 DUP4 MCOPY PUSH0 DUP4 DUP4 ADD MSTORE POP POP POP JUMP JUMPDEST PUSH0 PUSH2 0x3A2 DUP3 PUSH2 0x370 JUMP JUMPDEST PUSH2 0x3AC DUP2 DUP6 PUSH2 0x37A JUMP JUMPDEST SWAP4 POP PUSH2 0x3BC DUP2 DUP6 PUSH1 0x20 DUP7 ADD PUSH2 0x38A JUMP JUMPDEST PUSH2 0x3C5 DUP2 PUSH2 0x1AF JUMP JUMPDEST DUP5 ADD SWAP2 POP POP SWAP3 SWAP2 POP POP JUMP JUMPDEST PUSH2 0x3D9 DUP2 PUSH2 0x2E3 JUMP JUMPDEST DUP3 MSTORE POP POP JUMP JUMPDEST PUSH0 PUSH1 0x60 DUP3 ADD SWAP1 POP DUP2 DUP2 SUB PUSH0 DUP4 ADD MSTORE PUSH2 0x3F7 DUP2 DUP7 PUSH2 0x398 JUMP JUMPDEST SWAP1 POP PUSH2 0x406 PUSH1 0x20 DUP4 ADD DUP6 PUSH2 0x3D0 JUMP JUMPDEST PUSH2 0x413 PUSH1 0x40 DUP4 ADD DUP5 PUSH2 0x3D0 JUMP JUMPDEST SWAP5 SWAP4 POP POP POP POP JUMP JUMPDEST PUSH0 PUSH1 0x40 DUP3 ADD SWAP1 POP DUP2 DUP2 SUB PUSH0 DUP4 ADD MSTORE PUSH2 0x433 DUP2 DUP6 PUSH2 0x398 JUMP JUMPDEST SWAP1 POP PUSH2 0x442 PUSH1 0x20 DUP4 ADD DUP5 PUSH2 0x3D0 JUMP JUMPDEST SWAP4 SWAP3 POP POP POP JUMP JUMPDEST PUSH0 DUP1 PUSH0 PUSH1 0x60 DUP5 DUP7 SUB SLT ISZERO PUSH2 0x460 JUMPI PUSH2 0x45F PUSH2 0x19F JUMP JUMPDEST JUMPDEST PUSH0 DUP5 ADD CALLDATALOAD PUSH8 0xFFFFFFFFFFFFFFFF DUP2 GT ISZERO PUSH2 0x47D JUMPI PUSH2 0x47C PUSH2 0x1A3 JUMP JUMPDEST JUMPDEST PUSH2 0x489 DUP7 DUP3 DUP8 ADD PUSH2 0x2B6 JUMP JUMPDEST SWAP4 POP POP PUSH1 0x20 PUSH2 0x49A DUP7 DUP3 DUP8 ADD PUSH2 0x302 JUMP JUMPDEST SWAP3 POP POP PUSH1 0x40 PUSH2 0x4AB DUP7 DUP3 DUP8 ADD PUSH2 0x302 JUMP JUMPDEST SWAP2 POP POP SWAP3 POP SWAP3 POP SWAP3 JUMP JUMPDEST PUSH32 0x4E487B7100000000000000000000000000000000000000000000000000000000 PUSH0 MSTORE PUSH1 0x22 PUSH1 0x4 MSTORE PUSH1 0x24 PUSH0 REVERT JUMPDEST PUSH0 PUSH1 0x2 DUP3 DIV SWAP1 POP PUSH1 0x1 DUP3 AND DUP1 PUSH2 0x4F9 JUMPI PUSH1 0x7F DUP3 AND SWAP2 POP JUMPDEST PUSH1 0x20 DUP3 LT DUP2 SUB PUSH2 0x50C JUMPI PUSH2 0x50B PUSH2 0x4B5 JUMP JUMPDEST JUMPDEST POP SWAP2 SWAP1 POP JUMP JUMPDEST PUSH0 DUP2 SWAP1 POP DUP2 PUSH0 MSTORE PUSH1 0x20 PUSH0 KECCAK256 SWAP1 POP SWAP2 SWAP1 POP JUMP JUMPDEST PUSH0 PUSH1 0x20 PUSH1 0x1F DUP4 ADD DIV SWAP1 POP SWAP2 SWAP1 POP JUMP JUMPDEST PUSH0 DUP3 DUP3 SHL SWAP1 POP SWAP3 SWAP2 POP POP JUMP JUMPDEST PUSH0 PUSH1 0x8 DUP4 MUL PUSH2 0x56E PUSH32 0xFFFFFFFFFFFFFFFFFFFFFFFFFFFFFFFFFFFFFFFFFFFFFFFFFFFFFFFFFFFFFFFF DUP3 PUSH2 0x533 JUMP JUMPDEST PUSH2 0x578 DUP7 DUP4 PUSH2 0x533 JUMP JUMPDEST SWAP6 POP DUP1 NOT DUP5 AND SWAP4 POP DUP1 DUP7 AND DUP5 OR SWAP3 POP POP POP SWAP4 SWAP3 POP POP POP JUMP JUMPDEST PUSH0 DUP2 SWAP1 POP SWAP2 SWAP1 POP JUMP JUMPDEST PUSH0 PUSH2 0x5B3 PUSH2 0x5AE PUSH2 0x5A9 DUP5 PUSH2 0x2E3 JUMP JUMPDEST PUSH2 0x590 JUMP JUMPDEST PUSH2 0x2E3 JUMP JUMPDEST SWAP1 POP SWAP2 SWAP1 POP JUMP JUMPDEST PUSH0 DUP2 SWAP1 POP SWAP2 SWAP1 POP JUMP JUMPDEST PUSH2 0x5CC DUP4 PUSH2 0x599 JUMP JUMPDEST PUSH2 0x5E0 PUSH2 0x5D8 DUP3 PUSH2 0x5BA JUMP JUMPDEST DUP5 DUP5 SLOAD PUSH2 0x53F JUMP JUMPDEST DUP3 SSTORE POP POP POP POP JUMP JUMPDEST PUSH0 SWAP1 JUMP JUMPDEST PUSH2 0x5F4 PUSH2 0x5E8 JUMP JUMPDEST PUSH2 0x5FF DUP2 DUP5 DUP5 PUSH2 0x5C3 JUMP JUMPDEST POP POP POP JUMP JUMPDEST JUMPDEST DUP2 DUP2 LT ISZERO PUSH2 0x622 JUMPI PUSH2 0x617 PUSH0 DUP3 PUSH2 0x5EC JUMP JUMPDEST PUSH1 0x1 DUP2 ADD SWAP1 POP PUSH2 0x605 JUMP JUMPDEST POP POP JUMP JUMPDEST PUSH1 0x1F DUP3 GT ISZERO PUSH2 0x667 JUMPI PUSH2 0x638 DUP2 PUSH2 0x512 JUMP JUMPDEST PUSH2 0x641 DUP5 PUSH2 0x524 JUMP JUMPDEST DUP2 ADD PUSH1 0x20 DUP6 LT ISZERO PUSH2 0x650 JUMPI DUP2 SWAP1 POP JUMPDEST PUSH2 0x664 PUSH2 0x65C DUP6 PUSH2 0x524 JUMP JUMPDEST DUP4 ADD DUP3 PUSH2 0x604 JUMP JUMPDEST POP POP JUMPDEST POP POP POP JUMP JUMPDEST PUSH0 DUP3 DUP3 SHR SWAP1 POP SWAP3 SWAP2 POP POP JUMP JUMPDEST PUSH0 PUSH2 0x687 PUSH0 NOT DUP5 PUSH1 0x8 MUL PUSH2 0x66C JUMP JUMPDEST NOT DUP1 DUP4 AND SWAP2 POP POP SWAP3 SWAP2 POP POP JUMP JUMPDEST PUSH0 PUSH2 0x69F DUP4 DUP4 PUSH2 0x678 JUMP JUMPDEST SWAP2 POP DUP3 PUSH1 0x2 MUL DUP3 OR SWAP1 POP SWAP3 SWAP2 POP POP JUMP JUMPDEST PUSH2 0x6B8 DUP3 PUSH2 0x370 JUMP JUMPDEST PUSH8 0xFFFFFFFFFFFFFFFF DUP2 GT ISZERO PUSH2 0x6D1 JUMPI PUSH2 0x6D0 PUSH2 0x1BF JUMP JUMPDEST JUMPDEST PUSH2 0x6DB DUP3 SLOAD PUSH2 0x4E2 JUMP JUMPDEST PUSH2 0x6E6 DUP3 DUP3 DUP6 PUSH2 0x626 JUMP JUMPDEST PUSH0 PUSH1 0x20 SWAP1 POP PUSH1 0x1F DUP4 GT PUSH1 0x1 DUP2 EQ PUSH2 0x717 JUMPI PUSH0 DUP5 ISZERO PUSH2 0x705 JUMPI DUP3 DUP8 ADD MLOAD SWAP1 POP JUMPDEST PUSH2 0x70F DUP6 DUP3 PUSH2 0x694 JUMP JUMPDEST DUP7 SSTORE POP PUSH2 0x776 JUMP JUMPDEST PUSH1 0x1F NOT DUP5 AND PUSH2 0x725 DUP7 PUSH2 0x512 JUMP JUMPDEST PUSH0 JUMPDEST DUP3 DUP2 LT ISZERO PUSH2 0x74C JUMPI DUP5 DUP10 ADD MLOAD DUP3 SSTORE PUSH1 0x1 DUP3 ADD SWAP2 POP PUSH1 0x20 DUP6 ADD SWAP5 POP PUSH1 0x20 DUP2 ADD SWAP1 POP PUSH2 0x727 JUMP JUMPDEST DUP7 DUP4 LT ISZERO PUSH2 0x769 JUMPI DUP5 DUP10 ADD MLOAD PUSH2 0x765 PUSH1 0x1F DUP10 AND DUP3 PUSH2 0x678 JUMP JUMPDEST DUP4 SSTORE POP JUMPDEST PUSH1 0x1 PUSH1 0x2 DUP9 MUL ADD DUP9 SSTORE POP POP POP JUMPDEST POP POP POP POP POP POP JUMP INVALID LOG2 PUSH5 0x6970667358 0x22 SLT KECCAK256 0xD6 PUSH30 0x77FA92894CDC59CD9A378CA2A2834D79A9A56657A785B889427F010A89B2 PUSH5 0x736F6C6343 STOP ADDMOD BYTE STOP CALLER "
				},
				"gasEstimates": {
					"creation": {
						"codeDepositCost": "394400",
						"executionCost": "428",
						"totalCost": "394828"
					},
					"external": {
						"getEmployeeDetails()": "infinite",
						"getPersonDetails()": "infinite",
						"setEmployeeDetails(string,uint256,uint256)": "infinite",
						"setPerson(string,uint256)": "infinite"
					}
				},
				"methodIdentifiers": {
					"getEmployeeDetails()": "a9f6ad66",
					"getPersonDetails()": "d781a3a5",
					"setEmployeeDetails(string,uint256,uint256)": "ea371cf7",
					"setPerson(string,uint256)": "2fda437e"
				}
			},
			"storageLayout": {
				"storage": [
					{
						"astId": 40,
						"contract": "Remix/Employee.sol:Employee",
						"label": "name",
						"offset": 0,
						"slot": "0",
						"type": "t_string_storage"
					},
					{
						"astId": 42,
						"contract": "Remix/Employee.sol:Employee",
						"label": "age",
						"offset": 0,
						"slot": "1",
						"type": "t_uint256"
					},
					{
						"astId": 6,
						"contract": "Remix/Employee.sol:Employee",
						"label": "empId",
						"offset": 0,
						"slot": "2",
						"type": "t_uint256"
					}
				],
				"types": {
					"t_string_storage": {
						"encoding": "bytes",
						"label": "string",
						"numberOfBytes": "32"
					},
					"t_uint256": {
						"encoding": "inplace",
						"label": "uint256",
						"numberOfBytes": "32"
					}
				}
			},
			"userdoc": {
				"kind": "user",
				"methods": {},
				"version": 1
			}
		}
	}
}